{"abi":[{"type":"constructor","inputs":[{"name":"subscriptionId","type":"uint256","internalType":"uint256"},{"name":"gasLane","type":"bytes32","internalType":"bytes32"},{"name":"callbackGasLimit","type":"uint32","internalType":"uint32"},{"name":"vrfCoordinatorV2","type":"address","internalType":"address"},{"name":"_usdtToken","type":"address","internalType":"address"}],"stateMutability":"nonpayable"},{"type":"function","name":"Draw","inputs":[{"name":"lotteryId","type":"uint256","internalType":"uint256"}],"outputs":[],"stateMutability":"nonpayable"},{"type":"function","name":"GetLatestLottery","inputs":[{"name":"_type","type":"uint8","internalType":"enum Lottery.LotteryType"}],"outputs":[{"name":"","type":"tuple","internalType":"struct Lottery.LotteryRound","components":[{"name":"id","type":"uint256","internalType":"uint256"},{"name":"lotteryType","type":"uint8","internalType":"enum Lottery.LotteryType"},{"name":"minTicketCount","type":"uint256","internalType":"uint256"},{"name":"maxTicketCount","type":"uint256","internalType":"uint256"},{"name":"ticketPrice","type":"uint256","internalType":"uint256"},{"name":"referralTax","type":"uint256[7]","internalType":"uint256[7]"},{"name":"prizesAndWinners","type":"tuple[5]","internalType":"struct Lottery.WinnerPrize[5]","components":[{"name":"prizeAmount","type":"uint256","internalType":"uint256"},{"name":"winnerCount","type":"uint16","internalType":"uint16"}]},{"name":"totalWinners","type":"uint256","internalType":"uint256"},{"name":"isActive","type":"bool","internalType":"bool"},{"name":"tickets","type":"tuple[]","internalType":"struct Lottery.Ticket[]","components":[{"name":"customer","type":"address","internalType":"address"},{"name":"timestamp","type":"uint256","internalType":"uint256"}]},{"name":"winners","type":"uint8[]","internalType":"uint8[]"}]}],"stateMutability":"view"},{"type":"function","name":"GetLatestLotteryId","inputs":[{"name":"_type","type":"uint256","internalType":"uint256"}],"outputs":[{"name":"","type":"uint256","internalType":"uint256"}],"stateMutability":"view"},{"type":"function","name":"GetLotteryById","inputs":[{"name":"lotteryId","type":"uint256","internalType":"uint256"}],"outputs":[{"name":"","type":"tuple","internalType":"struct Lottery.LotteryRound","components":[{"name":"id","type":"uint256","internalType":"uint256"},{"name":"lotteryType","type":"uint8","internalType":"enum Lottery.LotteryType"},{"name":"minTicketCount","type":"uint256","internalType":"uint256"},{"name":"maxTicketCount","type":"uint256","internalType":"uint256"},{"name":"ticketPrice","type":"uint256","internalType":"uint256"},{"name":"referralTax","type":"uint256[7]","internalType":"uint256[7]"},{"name":"prizesAndWinners","type":"tuple[5]","internalType":"struct Lottery.WinnerPrize[5]","components":[{"name":"prizeAmount","type":"uint256","internalType":"uint256"},{"name":"winnerCount","type":"uint16","internalType":"uint16"}]},{"name":"totalWinners","type":"uint256","internalType":"uint256"},{"name":"isActive","type":"bool","internalType":"bool"},{"name":"tickets","type":"tuple[]","internalType":"struct Lottery.Ticket[]","components":[{"name":"customer","type":"address","internalType":"address"},{"name":"timestamp","type":"uint256","internalType":"uint256"}]},{"name":"winners","type":"uint8[]","internalType":"uint8[]"}]}],"stateMutability":"view"},{"type":"function","name":"GetLotteryCount","inputs":[],"outputs":[{"name":"","type":"uint256","internalType":"uint256"}],"stateMutability":"view"},{"type":"function","name":"GetPremiumAccount","inputs":[{"name":"_user","type":"address","internalType":"address"}],"outputs":[{"name":"","type":"uint256","internalType":"uint256"}],"stateMutability":"view"},{"type":"function","name":"acceptOwnership","inputs":[],"outputs":[],"stateMutability":"nonpayable"},{"type":"function","name":"addPremiumAccount","inputs":[{"name":"_user","type":"address","internalType":"address"}],"outputs":[],"stateMutability":"nonpayable"},{"type":"function","name":"addReferee","inputs":[{"name":"referrer","type":"address","internalType":"address"}],"outputs":[],"stateMutability":"nonpayable"},{"type":"function","name":"createLottery","inputs":[{"name":"_type","type":"uint8","internalType":"enum Lottery.LotteryType"},{"name":"_minTicketCount","type":"uint256","internalType":"uint256"},{"name":"_maxTicketCount","type":"uint256","internalType":"uint256"},{"name":"_referralTax","type":"uint256[7]","internalType":"uint256[7]"},{"name":"_prizeAmounts","type":"uint256[5]","internalType":"uint256[5]"},{"name":"_winnerCounts","type":"uint8[5]","internalType":"uint8[5]"},{"name":"_totalWinners","type":"uint256","internalType":"uint256"}],"outputs":[],"stateMutability":"nonpayable"},{"type":"function","name":"getLotteryReferralAmountByUser","inputs":[{"name":"_user","type":"address","internalType":"address"}],"outputs":[{"name":"","type":"uint256","internalType":"uint256"}],"stateMutability":"view"},{"type":"function","name":"getLotteryWinningAmountByUser","inputs":[{"name":"_user","type":"address","internalType":"address"}],"outputs":[{"name":"","type":"uint256","internalType":"uint256"}],"stateMutability":"view"},{"type":"function","name":"getPremiumRewardBalance","inputs":[],"outputs":[{"name":"","type":"uint256","internalType":"uint256"}],"stateMutability":"view"},{"type":"function","name":"getUnilevelReferrals","inputs":[{"name":"referrer","type":"address","internalType":"address"}],"outputs":[{"name":"","type":"tuple[]","internalType":"struct Lottery.ReferralsAddress[]","components":[{"name":"refereesAddress","type":"address[]","internalType":"address[]"}]}],"stateMutability":"view"},{"type":"function","name":"getUser","inputs":[{"name":"_user","type":"address","internalType":"address"}],"outputs":[{"name":"","type":"tuple","internalType":"struct Lottery.User","components":[{"name":"premium","type":"uint256","internalType":"uint256"},{"name":"firstLottery","type":"uint256","internalType":"uint256"},{"name":"lastTicketPurchased","type":"uint256","internalType":"uint256"},{"name":"refrrer","type":"address","internalType":"address"},{"name":"referees","type":"tuple[]","internalType":"struct Lottery.ReferralsAddress[]","components":[{"name":"refereesAddress","type":"address[]","internalType":"address[]"}]}]}],"stateMutability":"view"},{"type":"function","name":"lotteries","inputs":[{"name":"","type":"uint256","internalType":"uint256"}],"outputs":[{"name":"id","type":"uint256","internalType":"uint256"},{"name":"lotteryType","type":"uint8","internalType":"enum Lottery.LotteryType"},{"name":"minTicketCount","type":"uint256","internalType":"uint256"},{"name":"maxTicketCount","type":"uint256","internalType":"uint256"},{"name":"ticketPrice","type":"uint256","internalType":"uint256"},{"name":"totalWinners","type":"uint256","internalType":"uint256"},{"name":"isActive","type":"bool","internalType":"bool"}],"stateMutability":"view"},{"type":"function","name":"owner","inputs":[],"outputs":[{"name":"","type":"address","internalType":"address"}],"stateMutability":"view"},{"type":"function","name":"premiumAccounts","inputs":[{"name":"","type":"address","internalType":"address"}],"outputs":[{"name":"","type":"uint256","internalType":"uint256"}],"stateMutability":"view"},{"type":"function","name":"purchaseTicket","inputs":[{"name":"lotteryId","type":"uint256","internalType":"uint256"},{"name":"ticketCount","type":"uint256","internalType":"uint256"}],"outputs":[],"stateMutability":"nonpayable"},{"type":"function","name":"rawFulfillRandomWords","inputs":[{"name":"requestId","type":"uint256","internalType":"uint256"},{"name":"randomWords","type":"uint256[]","internalType":"uint256[]"}],"outputs":[],"stateMutability":"nonpayable"},{"type":"function","name":"removePremiumAccount","inputs":[{"name":"_user","type":"address","internalType":"address"}],"outputs":[],"stateMutability":"nonpayable"},{"type":"function","name":"s_vrfCoordinator","inputs":[],"outputs":[{"name":"","type":"address","internalType":"contract IVRFCoordinatorV2Plus"}],"stateMutability":"view"},{"type":"function","name":"setCoordinator","inputs":[{"name":"_vrfCoordinator","type":"address","internalType":"address"}],"outputs":[],"stateMutability":"nonpayable"},{"type":"function","name":"transferOwnership","inputs":[{"name":"to","type":"address","internalType":"address"}],"outputs":[],"stateMutability":"nonpayable"},{"type":"function","name":"usdtToken","inputs":[],"outputs":[{"name":"","type":"address","internalType":"address"}],"stateMutability":"view"},{"type":"function","name":"users","inputs":[{"name":"","type":"address","internalType":"address"}],"outputs":[{"name":"premium","type":"uint256","internalType":"uint256"},{"name":"firstLottery","type":"uint256","internalType":"uint256"},{"name":"lastTicketPurchased","type":"uint256","internalType":"uint256"},{"name":"refrrer","type":"address","internalType":"address"}],"stateMutability":"view"},{"type":"function","name":"withdrawAmount","inputs":[{"name":"_amount","type":"uint256","internalType":"uint256"}],"outputs":[],"stateMutability":"nonpayable"},{"type":"event","name":"CoordinatorSet","inputs":[{"name":"vrfCoordinator","type":"address","indexed":false,"internalType":"address"}],"anonymous":false},{"type":"event","name":"Lotter_WinnersSelected","inputs":[{"name":"","type":"uint8[]","indexed":false,"internalType":"uint8[]"}],"anonymous":false},{"type":"event","name":"Lottery_Created","inputs":[{"name":"id","type":"uint256","indexed":true,"internalType":"uint256"}],"anonymous":false},{"type":"event","name":"Lottery_RequestForWinners","inputs":[{"name":"requestId","type":"uint256","indexed":true,"internalType":"uint256"}],"anonymous":false},{"type":"event","name":"OwnershipTransferRequested","inputs":[{"name":"from","type":"address","indexed":true,"internalType":"address"},{"name":"to","type":"address","indexed":true,"internalType":"address"}],"anonymous":false},{"type":"event","name":"OwnershipTransferred","inputs":[{"name":"from","type":"address","indexed":true,"internalType":"address"},{"name":"to","type":"address","indexed":true,"internalType":"address"}],"anonymous":false},{"type":"event","name":"Premium__UserAdded","inputs":[{"name":"user","type":"address","indexed":true,"internalType":"address"}],"anonymous":false},{"type":"event","name":"Premium__UserRemoved","inputs":[{"name":"user","type":"address","indexed":true,"internalType":"address"}],"anonymous":false},{"type":"event","name":"REFFERELS__Added","inputs":[{"name":"referee","type":"address","indexed":true,"internalType":"address"}],"anonymous":false},{"type":"event","name":"Ticket__Purchased","inputs":[{"name":"id","type":"uint256","indexed":true,"internalType":"uint256"}],"anonymous":false},{"type":"event","name":"WiinerAddress","inputs":[{"name":"","type":"uint256[][]","indexed":false,"internalType":"uint256[][]"}],"anonymous":false},{"type":"event","name":"withdrawAmount__SuccessFull","inputs":[{"name":"amount","type":"uint256","indexed":true,"internalType":"uint256"}],"anonymous":false},{"type":"error","name":"Lottery__IsActive","inputs":[]},{"type":"error","name":"Lottery__NotEnoughTicketPurchases","inputs":[{"name":"","type":"uint32","internalType":"uint32"}]},{"type":"error","name":"Lottery__OnlyOwnerCanCall","inputs":[]},{"type":"error","name":"Lottery__SoldOut","inputs":[]},{"type":"error","name":"Lottery__notActive","inputs":[]},{"type":"error","name":"Lottery__notEnoughMoney","inputs":[]},{"type":"error","name":"Lottery__notFound","inputs":[{"name":"","type":"string","internalType":"string"}]},{"type":"error","name":"Lottery__otherLotteryIsActive","inputs":[{"name":"","type":"tuple","internalType":"struct Lottery.LotteryRound","components":[{"name":"id","type":"uint256","internalType":"uint256"},{"name":"lotteryType","type":"uint8","internalType":"enum Lottery.LotteryType"},{"name":"minTicketCount","type":"uint256","internalType":"uint256"},{"name":"maxTicketCount","type":"uint256","internalType":"uint256"},{"name":"ticketPrice","type":"uint256","internalType":"uint256"},{"name":"referralTax","type":"uint256[7]","internalType":"uint256[7]"},{"name":"prizesAndWinners","type":"tuple[5]","internalType":"struct Lottery.WinnerPrize[5]","components":[{"name":"prizeAmount","type":"uint256","internalType":"uint256"},{"name":"winnerCount","type":"uint16","internalType":"uint16"}]},{"name":"totalWinners","type":"uint256","internalType":"uint256"},{"name":"isActive","type":"bool","internalType":"bool"},{"name":"tickets","type":"tuple[]","internalType":"struct Lottery.Ticket[]","components":[{"name":"customer","type":"address","internalType":"address"},{"name":"timestamp","type":"uint256","internalType":"uint256"}]},{"name":"winners","type":"uint8[]","internalType":"uint8[]"}]}]},{"type":"error","name":"OnlyCoordinatorCanFulfill","inputs":[{"name":"have","type":"address","internalType":"address"},{"name":"want","type":"address","internalType":"address"}]},{"type":"error","name":"OnlyOwnerOrCoordinator","inputs":[{"name":"have","type":"address","internalType":"address"},{"name":"owner","type":"address","internalType":"address"},{"name":"coordinator","type":"address","internalType":"address"}]},{"type":"error","name":"Premium__UserAlreadyExist","inputs":[]},{"type":"error","name":"Premium__UserDoesNotExist","inputs":[{"name":"","type":"address","internalType":"address"}]},{"type":"error","name":"ZeroAddress","inputs":[]},{"type":"error","name":"withdrawAmount__NotEnoughMoney","inputs":[]}],"bytecode":{"object":"0x6101206040526103e860e09081526107d0610100526200002490600590600262000212565b5060006007553480156200003757600080fd5b5060405162003776380380620037768339810160408190526200005a916200028f565b813380600081620000b25760405162461bcd60e51b815260206004820152601860248201527f43616e6e6f7420736574206f776e657220746f207a65726f000000000000000060448201526064015b60405180910390fd5b600080546001600160a01b0319166001600160a01b0384811691909117909155811615620000e557620000e58162000167565b5050506001600160a01b038116620001105760405163d92e233d60e01b815260040160405180910390fd5b600280546001600160a01b039283166001600160a01b03199182161790915560a09590955260809590955263ffffffff90921660c052506004805491909316908216179091556003805490911633179055620002f7565b336001600160a01b03821603620001c15760405162461bcd60e51b815260206004820152601760248201527f43616e6e6f74207472616e7366657220746f2073656c660000000000000000006044820152606401620000a9565b600180546001600160a01b0319166001600160a01b0383811691821790925560008054604051929316917fed8889f560326eb138920d842192f0eb3dd22b4f139c87a2c57538e05bae12789190a350565b826002810192821562000249579160200282015b8281111562000249578251829061ffff1690559160200191906001019062000226565b50620002579291506200025b565b5090565b5b808211156200025757600081556001016200025c565b80516001600160a01b03811681146200028a57600080fd5b919050565b600080600080600060a08688031215620002a857600080fd5b8551945060208601519350604086015163ffffffff81168114620002cb57600080fd5b9250620002db6060870162000272565b9150620002eb6080870162000272565b90509295509295909350565b60805160a05160c05161344f620003276000396000610bdb01526000610b8801526000610bab015261344f6000f3fe608060405234801561001057600080fd5b50600436106101a95760003560e01c80638ea98117116100f9578063a98ad46c11610097578063e4dc36c111610071578063e4dc36c114610402578063e838fa8114610415578063f2fde38b14610435578063ff62e5af1461044857600080fd5b8063a98ad46c146103c9578063b5827622146103dc578063bdbbb0cb146103ef57600080fd5b80639f0ac727116100d35780639f0ac7271461031c578063a39571931461033c578063a70398431461034f578063a87430ba1461036257600080fd5b80638ea98117146102e35780639640bcd1146102f65780639eccacf61461030957600080fd5b80633fd10e0b116101665780636f77926b116101405780636f77926b1461028357806379ba5097146102a35780637decf333146102ab5780638da5cb5b146102be57600080fd5b80633fd10e0b146102555780634450a45f1461026857806345ecdc191461027057600080fd5b80630562b9f7146101ae5780630db6bd88146101c35780631398e076146101e9578063149733ec1461020f5780631fe543e3146102225780632a0217d314610235575b600080fd5b6101c16101bc36600461265e565b610450565b005b6101d66101d136600461265e565b610601565b6040519081526020015b60405180910390f35b6101fc6101f736600461265e565b6106b6565b6040516101e097969594939291906126af565b6101d661021d3660046126ee565b61070b565b6101c161023036600461271e565b61076a565b61024861024336600461265e565b6107ba565b6040516101e0919061287b565b6101c161026336600461265e565b610a28565b6007546101d6565b6101d661027e3660046126ee565b610ccc565b6102966102913660046126ee565b610ceb565b6040516101e091906129d1565b6101c1610e23565b6102486102b9366004612a30565b610ecd565b6000546001600160a01b03165b6040516001600160a01b0390911681526020016101e0565b6101c16102f13660046126ee565b610fb2565b6101d66103043660046126ee565b6110a4565b6002546102cb906001600160a01b031681565b6101d661032a3660046126ee565b600a6020526000908152604090205481565b6101c161034a3660046126ee565b611501565b6101c161035d3660046126ee565b6115a7565b6103a06103703660046126ee565b600b602052600090815260409020805460018201546002830154600390930154919290916001600160a01b031684565b604080519485526020850193909352918301526001600160a01b031660608201526080016101e0565b6004546102cb906001600160a01b031681565b6101c16103ea3660046126ee565b61182e565b6101c16103fd366004612a4b565b6118e0565b6101c1610410366004612b29565b611b28565b6104286104233660046126ee565b611d64565b6040516101e09190612c0b565b6101c16104433660046126ee565b611e30565b6101d6611e44565b6003546001600160a01b0316331461047b5760405163112b8aab60e01b815260040160405180910390fd5b600480546040516370a0823160e01b815230928101929092526000916001600160a01b03909116906370a0823190602401602060405180830381865afa1580156104c9573d6000803e3d6000fd5b505050506040513d601f19601f820116820180604052508101906104ed9190612c1e565b9050818110156105105760405163117c468960e21b815260040160405180910390fd5b6004805460405163a9059cbb60e01b81523392810192909252602482018490526000916001600160a01b039091169063a9059cbb906044016020604051808303816000875af1158015610567573d6000803e3d6000fd5b505050506040513d601f19601f8201168201806040525081019061058b9190612c37565b9050806105d15760405162461bcd60e51b815260206004820152600f60248201526e151c985b9cd9995c8819985a5b1959608a1b60448201526064015b60405180910390fd5b60405183907fb6fe44bb1f76da43755ad8760a9f7083782c99721541e49c3f98122d0fe6ba0490600090a2505050565b6000806001839003610611575060015b6007545b801561069c5781600181111561062d5761062d612677565b600861063a600184612c6f565b8154811061064a5761064a612c88565b600091825260209091206001601a9092020181015460ff169081111561067257610672612677565b0361068a57610682600182612c6f565b949350505050565b8061069481612c9e565b915050610615565b506040516338570b1360e21b81526004016105c890612cb5565b600881815481106106c657600080fd5b60009182526020909120601a9091020180546001820154600283015460038401546004850154601686015460179096015494965060ff93841695929491939092911687565b6001600160a01b0381166000908152600b6020526040812054810361074e5760405163ca1644e560e01b81526001600160a01b03831660048201526024016105c8565b506001600160a01b03166000908152600a602052604090205490565b6002546001600160a01b031633146107aa5760025460405163073e64fd60e21b81523360048201526001600160a01b0390911660248201526044016105c8565b6107b5838383611e71565b505050565b6107c26124aa565b6007548211156107e5576040516338570b1360e21b81526004016105c890612cb5565b6000600883815481106107fa576107fa612c88565b90600052602060002090601a020190508060405180610160016040529081600082015481526020016001820160009054906101000a900460ff16600181111561084557610845612677565b600181111561085657610856612677565b815260028201546020820152600382015460408083019190915260048301546060830152805160e081019182905260809092019190600584019060079082845b8154815260200190600101908083116108965750505091835250506040805160a08101909152602090910190600c830160056000835b8282101561090857604080518082019091526002830285018054825260019081015461ffff1660208084019190915291835290920191016108cc565b505050508152602001601682015481526020016017820160009054906101000a900460ff1615151515815260200160188201805480602002602001604051908101604052809291908181526020016000905b828210156109a2576000848152602090819020604080518082019091526002850290910180546001600160a01b0316825260019081015482840152908352909201910161095a565b50505050815260200160198201805480602002602001604051908101604052809291908181526020018280548015610a1757602002820191906000526020600020906000905b825461010083900a900460ff168152602060019283018181049485019490930390920291018084116109e85790505b505050505081525050915050919050565b6003546001600160a01b03163314610a535760405163112b8aab60e01b815260040160405180910390fd5b600754811115610a76576040516338570b1360e21b81526004016105c890612cb5565b600060088281548110610a8b57610a8b612c88565b6000918252602082206017601a909202019081015490925060ff1615159003610ac757604051631551bac160e21b815260040160405180910390fd5b81600981905550600060088381548110610ae357610ae3612c88565b90600052602060002090601a020160180180549050905060088381548110610b0d57610b0d612c88565b90600052602060002090601a0201600201548163ffffffff161015610b4d576040516309a7b37b60e31b815263ffffffff821660048201526024016105c8565b600060088481548110610b6257610b62612c88565b600091825260208083206016601a9093020191909101546002546040805160c0810182527f000000000000000000000000000000000000000000000000000000000000000081527f00000000000000000000000000000000000000000000000000000000000000008186015260018183015263ffffffff7f0000000000000000000000000000000000000000000000000000000000000000811660608301528416608082015281519485019091528484529194506001600160a01b031691639b1c385e919060a0820190610c3590612236565b8152506040518263ffffffff1660e01b8152600401610c549190612ce0565b6020604051808303816000875af1158015610c73573d6000803e3d6000fd5b505050506040513d601f19601f82011682018060405250810190610c979190612c1e565b60405190915081907fda785c5b784bbb6fa84c5a0010fcecc438ce065d7c822fd9378af3bbaed1fd6390600090a25050505050565b6000610cd7826122a7565b610ce357506000919050565b506000919050565b610d266040518060a0016040528060008152602001600081526020016000815260200160006001600160a01b03168152602001606081525090565b6001600160a01b038083166000908152600b60209081526040808320815160a08101835281548152600182015481850152600282015481840152600382015490951660608601526004810180548351818602810186019094528084529194608087019491929184015b82821015610e1557600084815260209081902060408051918501805480850284018301835293830184815292939092849290918491840182828015610dfd57602002820191906000526020600020905b81546001600160a01b03168152600190910190602001808311610ddf575b50505050508152505081526020019060010190610d8f565b505050915250909392505050565b6001546001600160a01b03163314610e765760405162461bcd60e51b815260206004820152601660248201527526bab9ba10313290383937b837b9b2b21037bbb732b960511b60448201526064016105c8565b60008054336001600160a01b0319808316821784556001805490911690556040516001600160a01b0390921692909183917f8be0079c531659141344cd1fd0a4f28419497f9722a3daafe3b4186f6b6457e091a350565b610ed56124aa565b6007545b801561069c57826001811115610ef157610ef1612677565b6008610efe600184612c6f565b81548110610f0e57610f0e612c88565b600091825260209091206001601a9092020181015460ff1690811115610f3657610f36612677565b03610fa0576008610f48600183612c6f565b81548110610f5857610f58612c88565b90600052602060002090601a020160405180610160016040529081600082015481526020016001820160009054906101000a900460ff16600181111561084557610845612677565b80610faa81612c9e565b915050610ed9565b6000546001600160a01b03163314801590610fd857506002546001600160a01b03163314155b156110295733610ff06000546001600160a01b031690565b60025460405163061db9c160e01b81526001600160a01b03938416600482015291831660248301529190911660448201526064016105c8565b6001600160a01b0381166110505760405163d92e233d60e01b815260040160405180910390fd5b600280546001600160a01b0319166001600160a01b0383169081179091556040519081527fd1a6a14209a385a964d036e404cb5cfb71f4000cdb03c9366292430787261be69060200160405180910390a150565b6001600160a01b038082166000908152600b60209081526040808320815160a0810183528154815260018201548185015260028201548184015260038201549095166060860152600481018054835181860281018601909452808452949586958695919460808601939092909190879084015b8282101561119d5760008481526020908190206040805191850180548085028401830183529383018481529293909284929091849184018282801561118557602002820191906000526020600020905b81546001600160a01b03168152600190910190602001808311611167575b50505050508152505081526020019060010190611117565b505050508152505090506111af6124aa565b60208201516008546000825b828110156114f457600881815481106111d6576111d6612c88565b90600052602060002090601a020160405180610160016040529081600082015481526020016001820160009054906101000a900460ff16600181111561121e5761121e612677565b600181111561122f5761122f612677565b815260028201546020820152600382015460408083019190915260048301546060830152805160e081019182905260809092019190600584019060079082845b81548152602001906001019080831161126f5750505091835250506040805160a08101909152602090910190600c830160056000835b828210156112e157604080518082019091526002830285018054825260019081015461ffff1660208084019190915291835290920191016112a5565b505050508152602001601682015481526020016017820160009054906101000a900460ff1615151515815260200160188201805480602002602001604051908101604052809291908181526020016000905b8282101561137b576000848152602090819020604080518082019091526002850290910180546001600160a01b03168252600190810154828401529083529092019101611333565b505050508152602001601982018054806020026020016040519081016040528092919081815260200182805480156113f057602002820191906000526020600020906000905b825461010083900a900460ff168152602060019283018181049485019490930390920291018084116113c15790505b505050505081525050945084610120015151915060005b828110156114e157896001600160a01b0316866101200151828151811061143057611430612c88565b6020026020010151600001516001600160a01b03161480156114745750856101400151818151811061146457611464612c88565b602002602001015160ff16600014155b156114cf578560c001516001876101400151838151811061149757611497612c88565b60200260200101516114a99190612d7c565b60ff16600581106114bc576114bc612c88565b6020020151516114cc9089612d95565b97505b806114d981612da8565b915050611407565b50806114ec81612da8565b9150506111bb565b5094979650505050505050565b6003546001600160a01b0316331461152c5760405163112b8aab60e01b815260040160405180910390fd5b6001600160a01b0381166000908152600b6020526040902054156115635760405163df4e834f60e01b815260040160405180910390fd5b6001600160a01b0381166000818152600b6020526040808220429055517fa6462dfddf2559c30940c498ea78e464a320991ecafd929279d567e5a9c044d79190a250565b336000908152600b60205260409020600301546001600160a01b0316156116055760405162461bcd60e51b81526020600482015260126024820152711d5cd95c88105b1c9958591e48115e1a5cdd60721b60448201526064016105c8565b6001600160a01b0381166000908152600b6020526040812060040154900361166b5760005b6007811015611669576001600160a01b0382166000908152600b602052604081206004018054600101815590528061166181612da8565b91505061162a565b505b336000908152600b60205260408082206000196001909101556001600160a01b0383168252812060040180549091906116a6576116a6612c88565b6000918252602080832091909101805460018082018355918452828420018054336001600160a01b03199182168117909255908452600b909252604090922060030180549091166001600160a01b0384161790555b60078110156117ff576001600160a01b038083166000908152600b6020526040902060030154168061172d57506117ff565b6001600160a01b0381166000908152600b602052604081206004015490036117935760005b6007811015611791576001600160a01b0382166000908152600b602052604081206004018054600101815590528061178981612da8565b915050611752565b505b6001600160a01b0381166000908152600b602052604090206004018054839081106117c0576117c0612c88565b60009182526020808320909101805460018101825590835291200180546001600160a01b031916331790559150806117f781612da8565b9150506116fb565b5060405133907f3475bc4d15ce1002e9d617018e5c19dbec62dba4aa69f9ef6986aaba27abb76690600090a250565b6003546001600160a01b031633146118595760405163112b8aab60e01b815260040160405180910390fd5b6001600160a01b0381166000908152600b6020526040812054900361189c5760405163ca1644e560e01b81526001600160a01b03821660048201526024016105c8565b6001600160a01b0381166000818152600b6020526040808220829055517fab0b49b9f201a3ca785f5c35ac4db44981e3bcf9a07c741208ade5334095709b9190a250565b600754821115611903576040516338570b1360e21b81526004016105c890612cb5565b60006008838154811061191857611918612c88565b6000918252602082206017601a909202019081015490925060ff161515900361195457604051631551bac160e21b815260040160405180910390fd5b60038101546018820154611969908490612d95565b11156119885760405163748d32af60e11b815260040160405180910390fd5b60048054908201546000916001600160a01b0316906323b872dd90339030906119b2908890612dc1565b6040516001600160e01b031960e086901b1681526001600160a01b03938416600482015292909116602483015260448201526064016020604051808303816000875af1158015611a06573d6000803e3d6000fd5b505050506040513d601f19601f82011682018060405250810190611a2a9190612c37565b905080611a4a57604051638b95fd7960e01b815260040160405180910390fd5b60005b83811015611abf5760408051808201909152338152426020808301918252601886018054600180820183556000928352929091209351600290910290930180546001600160a01b0319166001600160a01b03909416939093178355905191015580611ab781612da8565b915050611a4d565b50336000908152600b6020526040902042600282015560010154841015611af657336000908152600b602052604090206001018490555b6007546040517fb23e237cf0ae5bee09a1af90ace20250c65fa6252b97915398b2fa6b043e1ed390600090a250505050565b6003546001600160a01b03163314611b535760405163112b8aab60e01b815260040160405180910390fd5b611b5c876122da565b60088054600181018255600091825260078054601a9092027ff3f7a9fe364faab93b216da50a3214154f22a0a2b415b23a84c8169e8b636ee30192611ba083612da8565b909155508155600180820180548a9260ff19909116908381811115611bc757611bc7612677565b02179055506002810187905560038101869055611be960058201866007612513565b506016810182905560178101805460ff191660019081179091556005908990811115611c1757611c17612677565b60028110611c2757611c27612c88565b015460048201558567ffffffffffffffff811115611c4757611c47612a6d565b604051908082528060200260200182016040528015611c70578160200160208202803683370190505b508051611c87916019840191602090910190612551565b5060005b6005811015611d2e576040518060400160405280868360058110611cb157611cb1612c88565b60200201518152602001858360ff1660058110611cd057611cd0612c88565b602002015160ff169052600c83018260058110611cef57611cef612c88565b8251600291909102919091019081556020909101516001909101805461ffff191661ffff90921691909117905580611d2681612da8565b915050611c8b565b5080546040517f67a7d2f7175358184bb138bd96c3ed1e06b977d25dafac78e16398b24394309690600090a25050505050505050565b6001600160a01b0381166000908152600b60209081526040808320600401805482518185028101850190935280835260609492939192909184015b82821015611e2557600084815260209081902060408051918501805480850284018301835293830184815292939092849290918491840182828015611e0d57602002820191906000526020600020905b81546001600160a01b03168152600190910190602001808311611def575b50505050508152505081526020019060010190611d9f565b505050509050919050565b611e386123ac565b611e4181612401565b50565b336000818152600b602052604081205490919080600003611e685760009250505090565b60009250505090565b6000600860095481548110611e8857611e88612c88565b600091825260208220601a919091020160168101546018820154600d8301549294509092909161ffff168180805b868110156121cd57600860095481548110611ed357611ed3612c88565b90600052602060002090601a0201601901868b8b84818110611ef757611ef7612c88565b90506020020135611f089190612dd8565b81548110611f1857611f18612c88565b60009182526020918290209181049091015460ff601f9092166101000a900416158015611f43575081155b15611fdc57611f53856001612dfa565b600860095481548110611f6857611f68612c88565b90600052602060002090601a0201601901878c8c85818110611f8c57611f8c612c88565b90506020020135611f9d9190612dd8565b81548110611fad57611fad612c88565b90600052602060002090602091828204019190066101000a81548160ff021916908360ff16021790555061215b565b898982818110611fee57611fee612c88565b90506020020135925060005b606481101561214c576000878c8c8581811061201857612018612c88565b905060200201358386604051602001612044939291909283526020830191909152604082015260600190565b6040516020818303038152906040528051906020012060001c6120679190612dd8565b905060086009548154811061207e5761207e612c88565b90600052602060002090601a020160190181815481106120a0576120a0612c88565b60009182526020808320908204015460ff601f9092166101000a9004169003612139576120ce876001612dfa565b6008600954815481106120e3576120e3612c88565b90600052602060002090601a0201601901828154811061210557612105612c88565b90600052602060002090602091828204019190066101000a81548160ff021916908360ff160217905550600093505061214c565b508061214481612da8565b915050611ffa565b508161215781612da8565b9250505b612166816001612d95565b8411158015612178575060048560ff16105b156121bb578461218781612e13565b95505087600c018560ff16600581106121a2576121a2612c88565b60020201600101546121b89061ffff1685612d95565b93505b806121c581612da8565b915050611eb6565b507fa01bc62ab57c34a115069fa48ee20ce46dc728583e0550489eb1675542a907ad60086009548154811061220457612204612c88565b90600052602060002090601a02016019016040516122229190612e32565b60405180910390a150505050505050505050565b60607f92fd13387c7fe7befbc38d303d6468778fb9731bc4583f17d92989c6fcfdeaaa8260405160240161226f91511515815260200190565b60408051601f198184030181529190526020810180516001600160e01b03166001600160e01b03199093169290921790915292915050565b6001600160a01b0381166000908152600b602052604081206002015442906122d39062278d0090612d95565b1192915050565b6007545b80156123a8578160018111156122f6576122f6612677565b6008612303600184612c6f565b8154811061231357612313612c88565b600091825260209091206001601a9092020181015460ff169081111561233b5761233b612677565b0361239657600861234d600183612c6f565b8154811061235d5761235d612c88565b600091825260209091206017601a90920201015460ff1615156001036123965760405163ab2df6a960e01b815260040160405180910390fd5b806123a081612c9e565b9150506122de565b5050565b6000546001600160a01b031633146123ff5760405162461bcd60e51b815260206004820152601660248201527527b7363c9031b0b63630b1363290313c9037bbb732b960511b60448201526064016105c8565b565b336001600160a01b038216036124595760405162461bcd60e51b815260206004820152601760248201527f43616e6e6f74207472616e7366657220746f2073656c6600000000000000000060448201526064016105c8565b600180546001600160a01b0319166001600160a01b0383811691821790925560008054604051929316917fed8889f560326eb138920d842192f0eb3dd22b4f139c87a2c57538e05bae12789190a350565b6040805161016081019091526000808252602082019081526020016000815260200160008152602001600081526020016124e26125f2565b81526020016124ef612610565b81526020016000815260200160001515815260200160608152602001606081525090565b8260078101928215612541579160200282015b82811115612541578251825591602001919060010190612526565b5061254d929150612649565b5090565b82805482825590600052602060002090601f016020900481019282156125415791602002820160005b838211156125b857835183826101000a81548160ff021916908360ff160217905550926020019260010160208160000104928301926001030261257a565b80156125e55782816101000a81549060ff02191690556001016020816000010492830192600103026125b8565b505061254d929150612649565b6040518060e001604052806007906020820280368337509192915050565b6040518060a001604052806005905b604080518082019091526000808252602082015281526020019060019003908161261f5790505090565b5b8082111561254d576000815560010161264a565b60006020828403121561267057600080fd5b5035919050565b634e487b7160e01b600052602160045260246000fd5b600281106126ab57634e487b7160e01b600052602160045260246000fd5b9052565b87815260e081016126c3602083018961268d565b60408201969096526060810194909452608084019290925260a0830152151560c09091015292915050565b60006020828403121561270057600080fd5b81356001600160a01b038116811461271757600080fd5b9392505050565b60008060006040848603121561273357600080fd5b83359250602084013567ffffffffffffffff8082111561275257600080fd5b818601915086601f83011261276657600080fd5b81358181111561277557600080fd5b8760208260051b850101111561278a57600080fd5b6020830194508093505050509250925092565b8060005b60078110156127c05781518452602093840193909101906001016127a1565b50505050565b8060005b60058110156127c05781518051855260209081015161ffff1681860152604090940193909101906001016127ca565b600081518084526020808501945080840160005b8381101561283d57815180516001600160a01b03168852830151838801526040909601959082019060010161280d565b509495945050505050565b600081518084526020808501945080840160005b8381101561283d57815160ff168752958201959082019060010161285c565b60208152815160208201526000602083015161289a604084018261268d565b506040830151606083015260608301516080830152608083015160a083015260a08301516128cb60c084018261279d565b5060c08301516128df6101a08401826127c6565b5060e08301516102e0830152610100830151151561030083015261012083015161034061032084018190526129186103608501836127f9565b9150610140850151601f1985840301828601526129358382612848565b9695505050505050565b600081518084526020808501808196508360051b810191508286016000805b868110156129c3578385038a52825151868652805187870181905290870190839060408801905b808310156129ae5783516001600160a01b03168252928901926001929092019190890190612985565b509b88019b965050509185019160010161295e565b509298975050505050505050565b6020815281516020820152602082015160408201526040820151606082015260018060a01b0360608301511660808201526000608083015160a08084015261068260c084018261293f565b803560028110612a2b57600080fd5b919050565b600060208284031215612a4257600080fd5b61271782612a1c565b60008060408385031215612a5e57600080fd5b50508035926020909101359150565b634e487b7160e01b600052604160045260246000fd5b60405160a0810167ffffffffffffffff81118282101715612aa657612aa6612a6d565b60405290565b600060405160e0810181811067ffffffffffffffff82111715612ad157612ad1612a6d565b60405290508060e0830184811115612ae857600080fd5b835b81811015612b02578035835260209283019201612aea565b50505092915050565b6000612b15612a83565b90508060a0830184811115612ae857600080fd5b60008060008060008060006102a0888a031215612b4557600080fd5b612b4e88612a1c565b965060208089013596506040890135955089607f8a0112612b6e57600080fd5b612b7b8a60608b01612aac565b94508961015f8a0112612b8d57600080fd5b612b9b8a6101408b01612b0b565b9350896101ff8a0112612bad57600080fd5b612bb5612a83565b806102808b018c811115612bc857600080fd5b6101e08c015b81811015612bf557803560ff81168114612be85760008081fd5b8452928401928401612bce565b50999c989b509699509497939693359450505050565b602081526000612717602083018461293f565b600060208284031215612c3057600080fd5b5051919050565b600060208284031215612c4957600080fd5b8151801515811461271757600080fd5b634e487b7160e01b600052601160045260246000fd5b81810381811115612c8257612c82612c59565b92915050565b634e487b7160e01b600052603260045260246000fd5b600081612cad57612cad612c59565b506000190190565b602080825260119082015270139bc8081b1bdd1d195c9e48199bdd5b99607a1b604082015260600190565b6000602080835283518184015280840151604084015261ffff6040850151166060840152606084015163ffffffff80821660808601528060808701511660a0860152505060a084015160c08085015280518060e086015260005b81811015612d575782810184015186820161010001528301612d3a565b506101009250600083828701015282601f19601f830116860101935050505092915050565b60ff8281168282160390811115612c8257612c82612c59565b80820180821115612c8257612c82612c59565b600060018201612dba57612dba612c59565b5060010190565b8082028115828204841417612c8257612c82612c59565b600082612df557634e487b7160e01b600052601260045260246000fd5b500690565b60ff8181168382160190811115612c8257612c82612c59565b600060ff821660ff8103612e2957612e29612c59565b60010192915050565b60006020808301818452808554612e4d818490815260200190565b60008881526020812094509092505b81601f820110156130d657835460ff8082168552600882901c8116878601526040612e90818701838560101c1660ff169052565b6060612ea5818801848660181c1660ff169052565b6080612eb981890185878d1c1660ff169052565b60a0612ece818a01868860281c1660ff169052565b60c0612ee3818b01878960301c1660ff169052565b60e0612ef8818c01888a60381c1660ff169052565b60ff88871c8816166101008c0152612f1b6101208c01888a60481c1660ff169052565b612f306101408c01888a60501c1660ff169052565b612f456101608c01888a60581c1660ff169052565b60ff88861c8816166101808c0152612f686101a08c01888a60681c1660ff169052565b612f7d6101c08c01888a60701c1660ff169052565b612f926101e08c01888a60781c1660ff169052565b60ff88851c8816166102008c0152612fb56102208c01888a60881c1660ff169052565b612fca6102408c01888a60901c1660ff169052565b612fdf6102608c01888a60981c1660ff169052565b60ff88841c8816166102808c01526130026102a08c01888a60a81c1660ff169052565b6130176102c08c01888a60b01c1660ff169052565b61302c6102e08c01888a60b81c1660ff169052565b60ff88831c8816166103008c015261304f6103208c01888a60c81c1660ff169052565b6130646103408c01888a60d01c1660ff169052565b6130796103608c01888a60d81c1660ff169052565b60ff88821c8816166103808c01525050505050506130a26103a08601828460e81c1660ff169052565b6130b76103c08601828460f01c1660ff169052565b5060f81c6103e084015260019390930192610400909201918401612e5c565b925492818110156130ef5760ff84168352918401916001015b8181101561310957600884901c60ff168352918401916001015b8181101561312357601084901c60ff168352918401916001015b8181101561313d57601884901c60ff168352918401916001015b818110156131555783851c60ff168352918401916001015b8181101561316f57602884901c60ff168352918401916001015b8181101561318957603084901c60ff168352918401916001015b818110156131a357603884901c60ff168352918401916001015b818110156131bd57604084901c60ff168352918401916001015b818110156131d757604884901c60ff168352918401916001015b818110156131f157605084901c60ff168352918401916001015b8181101561320b57605884901c60ff168352918401916001015b8181101561322557606084901c60ff168352918401916001015b8181101561323f57606884901c60ff168352918401916001015b8181101561325957607084901c60ff168352918401916001015b8181101561327357607884901c60ff168352918401916001015b8181101561328d57608084901c60ff168352918401916001015b818110156132a757608884901c60ff168352918401916001015b818110156132c157609084901c60ff168352918401916001015b818110156132db57609884901c60ff168352918401916001015b818110156132f55760a084901c60ff168352918401916001015b8181101561330f5760a884901c60ff168352918401916001015b818110156133295760b084901c60ff168352918401916001015b818110156133435760b884901c60ff168352918401916001015b8181101561335d5760c084901c60ff168352918401916001015b818110156133775760c884901c60ff168352918401916001015b818110156133915760d084901c60ff168352918401916001015b818110156133ab5760d884901c60ff168352918401916001015b818110156133c55760e084901c60ff168352918401916001015b818110156133df5760e884901c60ff168352918401916001015b818110156133f95760f084901c60ff168352918401916001015b8181101561340d5760f884901c8352918401915b5090969550505050505056fea26469706673582212203f95343e005bec996071294648355d9c92be52089ac3d59d47e8b69f6249333864736f6c63430008130033","linkReferences":{}},"methodIdentifiers":{"Draw(uint256)":"3fd10e0b","GetLatestLottery(uint8)":"7decf333","GetLatestLotteryId(uint256)":"0db6bd88","GetLotteryById(uint256)":"2a0217d3","GetLotteryCount()":"4450a45f","GetPremiumAccount(address)":"149733ec","acceptOwnership()":"79ba5097","addPremiumAccount(address)":"a3957193","addReferee(address)":"a7039843","createLottery(uint8,uint256,uint256,uint256[7],uint256[5],uint8[5],uint256)":"e4dc36c1","getLotteryReferralAmountByUser(address)":"45ecdc19","getLotteryWinningAmountByUser(address)":"9640bcd1","getPremiumRewardBalance()":"ff62e5af","getUnilevelReferrals(address)":"e838fa81","getUser(address)":"6f77926b","lotteries(uint256)":"1398e076","owner()":"8da5cb5b","premiumAccounts(address)":"9f0ac727","purchaseTicket(uint256,uint256)":"bdbbb0cb","rawFulfillRandomWords(uint256,uint256[])":"1fe543e3","removePremiumAccount(address)":"b5827622","s_vrfCoordinator()":"9eccacf6","setCoordinator(address)":"8ea98117","transferOwnership(address)":"f2fde38b","usdtToken()":"a98ad46c","users(address)":"a87430ba","withdrawAmount(uint256)":"0562b9f7"},"id":39}