{
  "abi": [
    {
      "type": "constructor",
      "inputs": [
        {
          "name": "subscriptionId",
          "type": "uint256",
          "internalType": "uint256"
        },
        {
          "name": "gasLane",
          "type": "bytes32",
          "internalType": "bytes32"
        },
        {
          "name": "callbackGasLimit",
          "type": "uint32",
          "internalType": "uint32"
        },
        {
          "name": "vrfCoordinatorV2",
          "type": "address",
          "internalType": "address"
        },
        {
          "name": "_usdtToken",
          "type": "address",
          "internalType": "address"
        }
      ],
      "stateMutability": "nonpayable"
    },
    {
      "type": "function",
      "name": "Draw",
      "inputs": [
        {
          "name": "lotteryId",
          "type": "uint256",
          "internalType": "uint256"
        }
      ],
      "outputs": [],
      "stateMutability": "nonpayable"
    },
    {
      "type": "function",
      "name": "GetLatestLottery",
      "inputs": [
        {
          "name": "_type",
          "type": "uint8",
          "internalType": "enum Lottery.LotteryType"
        }
      ],
      "outputs": [
        {
          "name": "",
          "type": "tuple",
          "internalType": "struct Lottery.LotteryRound",
          "components": [
            {
              "name": "id",
              "type": "uint256",
              "internalType": "uint256"
            },
            {
              "name": "roundId",
              "type": "uint256",
              "internalType": "uint256"
            },
            {
              "name": "createdAt",
              "type": "uint256",
              "internalType": "uint256"
            },
            {
              "name": "lotteryType",
              "type": "uint8",
              "internalType": "enum Lottery.LotteryType"
            },
            {
              "name": "minTicketCount",
              "type": "uint256",
              "internalType": "uint256"
            },
            {
              "name": "maxTicketCount",
              "type": "uint256",
              "internalType": "uint256"
            },
            {
              "name": "ticketPrice",
              "type": "uint256",
              "internalType": "uint256"
            },
            {
              "name": "prizesAndWinners",
              "type": "tuple[3]",
              "internalType": "struct Lottery.WinnerPrize[3]",
              "components": [
                {
                  "name": "prizeAmount",
                  "type": "uint256",
                  "internalType": "uint256"
                },
                {
                  "name": "winnerCount",
                  "type": "uint256",
                  "internalType": "uint256"
                }
              ]
            },
            {
              "name": "totalWinners",
              "type": "uint256",
              "internalType": "uint256"
            },
            {
              "name": "isActive",
              "type": "bool",
              "internalType": "bool"
            },
            {
              "name": "tickets",
              "type": "tuple[]",
              "internalType": "struct Lottery.Ticket[]",
              "components": [
                {
                  "name": "customer",
                  "type": "address",
                  "internalType": "address"
                },
                {
                  "name": "timestamp",
                  "type": "uint256",
                  "internalType": "uint256"
                },
                {
                  "name": "ticketString",
                  "type": "bytes12",
                  "internalType": "bytes12"
                }
              ]
            },
            {
              "name": "winners",
              "type": "uint8[]",
              "internalType": "uint8[]"
            },
            {
              "name": "winningTicketNumbers",
              "type": "uint16[]",
              "internalType": "uint16[]"
            },
            {
              "name": "isDistributed",
              "type": "bool",
              "internalType": "bool"
            },
            {
              "name": "totalticketPurchased",
              "type": "uint256",
              "internalType": "uint256"
            },
            {
              "name": "uniqeUserCount",
              "type": "uint256",
              "internalType": "uint256"
            }
          ]
        }
      ],
      "stateMutability": "view"
    },
    {
      "type": "function",
      "name": "GetLatestLotteryTicketRoundCustomerCount",
      "inputs": [
        {
          "name": "_type",
          "type": "uint8",
          "internalType": "enum Lottery.LotteryType"
        }
      ],
      "outputs": [
        {
          "name": "round",
          "type": "uint256",
          "internalType": "uint256"
        },
        {
          "name": "ticketCount",
          "type": "uint256",
          "internalType": "uint256"
        },
        {
          "name": "customerCount",
          "type": "uint256",
          "internalType": "uint256"
        }
      ],
      "stateMutability": "view"
    },
    {
      "type": "function",
      "name": "GetLotteryById",
      "inputs": [
        {
          "name": "lotteryId",
          "type": "uint256",
          "internalType": "uint256"
        }
      ],
      "outputs": [
        {
          "name": "",
          "type": "tuple",
          "internalType": "struct Lottery.LotteryRound",
          "components": [
            {
              "name": "id",
              "type": "uint256",
              "internalType": "uint256"
            },
            {
              "name": "roundId",
              "type": "uint256",
              "internalType": "uint256"
            },
            {
              "name": "createdAt",
              "type": "uint256",
              "internalType": "uint256"
            },
            {
              "name": "lotteryType",
              "type": "uint8",
              "internalType": "enum Lottery.LotteryType"
            },
            {
              "name": "minTicketCount",
              "type": "uint256",
              "internalType": "uint256"
            },
            {
              "name": "maxTicketCount",
              "type": "uint256",
              "internalType": "uint256"
            },
            {
              "name": "ticketPrice",
              "type": "uint256",
              "internalType": "uint256"
            },
            {
              "name": "prizesAndWinners",
              "type": "tuple[3]",
              "internalType": "struct Lottery.WinnerPrize[3]",
              "components": [
                {
                  "name": "prizeAmount",
                  "type": "uint256",
                  "internalType": "uint256"
                },
                {
                  "name": "winnerCount",
                  "type": "uint256",
                  "internalType": "uint256"
                }
              ]
            },
            {
              "name": "totalWinners",
              "type": "uint256",
              "internalType": "uint256"
            },
            {
              "name": "isActive",
              "type": "bool",
              "internalType": "bool"
            },
            {
              "name": "tickets",
              "type": "tuple[]",
              "internalType": "struct Lottery.Ticket[]",
              "components": [
                {
                  "name": "customer",
                  "type": "address",
                  "internalType": "address"
                },
                {
                  "name": "timestamp",
                  "type": "uint256",
                  "internalType": "uint256"
                },
                {
                  "name": "ticketString",
                  "type": "bytes12",
                  "internalType": "bytes12"
                }
              ]
            },
            {
              "name": "winners",
              "type": "uint8[]",
              "internalType": "uint8[]"
            },
            {
              "name": "winningTicketNumbers",
              "type": "uint16[]",
              "internalType": "uint16[]"
            },
            {
              "name": "isDistributed",
              "type": "bool",
              "internalType": "bool"
            },
            {
              "name": "totalticketPurchased",
              "type": "uint256",
              "internalType": "uint256"
            },
            {
              "name": "uniqeUserCount",
              "type": "uint256",
              "internalType": "uint256"
            }
          ]
        }
      ],
      "stateMutability": "view"
    },
    {
      "type": "function",
      "name": "GetLotteryCount",
      "inputs": [],
      "outputs": [
        {
          "name": "",
          "type": "uint256",
          "internalType": "uint256"
        }
      ],
      "stateMutability": "view"
    },
    {
      "type": "function",
      "name": "GetPremiumAccount",
      "inputs": [
        {
          "name": "_user",
          "type": "address",
          "internalType": "address"
        }
      ],
      "outputs": [
        {
          "name": "",
          "type": "tuple",
          "internalType": "struct Lottery.User",
          "components": [
            {
              "name": "premium",
              "type": "uint256",
              "internalType": "uint256"
            },
            {
              "name": "firstLottery",
              "type": "uint256",
              "internalType": "uint256"
            },
            {
              "name": "lastTicketPurchased",
              "type": "uint256",
              "internalType": "uint256"
            },
            {
              "name": "totalPurchaseTicketCost",
              "type": "uint256",
              "internalType": "uint256"
            },
            {
              "name": "referrer",
              "type": "address",
              "internalType": "address"
            },
            {
              "name": "directReferress",
              "type": "address[]",
              "internalType": "address[]"
            },
            {
              "name": "totalEarning",
              "type": "tuple",
              "internalType": "struct Lottery.totalEarning",
              "components": [
                {
                  "name": "refTax",
                  "type": "uint256",
                  "internalType": "uint256"
                },
                {
                  "name": "premiumTax",
                  "type": "uint256",
                  "internalType": "uint256"
                },
                {
                  "name": "premiumReferralTax",
                  "type": "uint256",
                  "internalType": "uint256"
                },
                {
                  "name": "topBuyerTax",
                  "type": "uint256",
                  "internalType": "uint256"
                },
                {
                  "name": "winningAmount",
                  "type": "uint256",
                  "internalType": "uint256"
                }
              ]
            },
            {
              "name": "availableTax",
              "type": "tuple",
              "internalType": "struct Lottery.AvaileableUserTax",
              "components": [
                {
                  "name": "refTax",
                  "type": "uint256",
                  "internalType": "uint256"
                },
                {
                  "name": "premiumTax",
                  "type": "uint256",
                  "internalType": "uint256"
                },
                {
                  "name": "premiumReferralTax",
                  "type": "uint256",
                  "internalType": "uint256"
                },
                {
                  "name": "topBuyerTax",
                  "type": "uint256",
                  "internalType": "uint256"
                },
                {
                  "name": "winningAmount",
                  "type": "uint256",
                  "internalType": "uint256"
                }
              ]
            },
            {
              "name": "purchasedTickets",
              "type": "tuple",
              "internalType": "struct Lottery.PurchasedTickets",
              "components": [
                {
                  "name": "topBuyerTickets",
                  "type": "uint256",
                  "internalType": "uint256"
                },
                {
                  "name": "topBuyerCost",
                  "type": "uint256",
                  "internalType": "uint256"
                },
                {
                  "name": "refTickets",
                  "type": "uint256",
                  "internalType": "uint256"
                }
              ]
            }
          ]
        }
      ],
      "stateMutability": "view"
    },
    {
      "type": "function",
      "name": "PerformDraw",
      "inputs": [],
      "outputs": [],
      "stateMutability": "nonpayable"
    },
    {
      "type": "function",
      "name": "WithDrawRewardBaalance",
      "inputs": [],
      "outputs": [],
      "stateMutability": "nonpayable"
    },
    {
      "type": "function",
      "name": "acceptOwnership",
      "inputs": [],
      "outputs": [],
      "stateMutability": "nonpayable"
    },
    {
      "type": "function",
      "name": "addPremiumAccount",
      "inputs": [
        {
          "name": "_user",
          "type": "address",
          "internalType": "address"
        }
      ],
      "outputs": [],
      "stateMutability": "nonpayable"
    },
    {
      "type": "function",
      "name": "addPremiumAccountWithReferral",
      "inputs": [
        {
          "name": "referral",
          "type": "address",
          "internalType": "address"
        }
      ],
      "outputs": [],
      "stateMutability": "nonpayable"
    },
    {
      "type": "function",
      "name": "chainLinkRandomWords",
      "inputs": [
        {
          "name": "",
          "type": "uint256",
          "internalType": "uint256"
        }
      ],
      "outputs": [
        {
          "name": "",
          "type": "uint256",
          "internalType": "uint256"
        }
      ],
      "stateMutability": "view"
    },
    {
      "type": "function",
      "name": "changeOperator",
      "inputs": [
        {
          "name": "_operator",
          "type": "address",
          "internalType": "address"
        }
      ],
      "outputs": [],
      "stateMutability": "nonpayable"
    },
    {
      "type": "function",
      "name": "createLottery",
      "inputs": [
        {
          "name": "_type",
          "type": "uint8",
          "internalType": "enum Lottery.LotteryType"
        },
        {
          "name": "_minTicketCount",
          "type": "uint256",
          "internalType": "uint256"
        },
        {
          "name": "_maxTicketCount",
          "type": "uint256",
          "internalType": "uint256"
        },
        {
          "name": "_prizeAmounts",
          "type": "uint256[3]",
          "internalType": "uint256[3]"
        },
        {
          "name": "_winnerCounts",
          "type": "uint256[3]",
          "internalType": "uint256[3]"
        },
        {
          "name": "_totalWinners",
          "type": "uint256",
          "internalType": "uint256"
        }
      ],
      "outputs": [],
      "stateMutability": "nonpayable"
    },
    {
      "type": "function",
      "name": "distributeTopBuyersAmounts",
      "inputs": [],
      "outputs": [],
      "stateMutability": "nonpayable"
    },
    {
      "type": "function",
      "name": "getLotteryWinningAmountByUser",
      "inputs": [
        {
          "name": "userAddress",
          "type": "address",
          "internalType": "address"
        }
      ],
      "outputs": [
        {
          "name": "",
          "type": "uint256",
          "internalType": "uint256"
        }
      ],
      "stateMutability": "view"
    },
    {
      "type": "function",
      "name": "getOwnerBalance",
      "inputs": [],
      "outputs": [
        {
          "name": "",
          "type": "uint256",
          "internalType": "uint256"
        }
      ],
      "stateMutability": "view"
    },
    {
      "type": "function",
      "name": "getPremiumReserve",
      "inputs": [],
      "outputs": [
        {
          "name": "",
          "type": "uint256",
          "internalType": "uint256"
        },
        {
          "name": "",
          "type": "tuple[]",
          "internalType": "struct Lottery.PremiumUsers[]",
          "components": [
            {
              "name": "user",
              "type": "address",
              "internalType": "address"
            },
            {
              "name": "amount",
              "type": "uint256",
              "internalType": "uint256"
            }
          ]
        }
      ],
      "stateMutability": "view"
    },
    {
      "type": "function",
      "name": "getPremiumRewardBalance",
      "inputs": [
        {
          "name": "_user",
          "type": "address",
          "internalType": "address"
        }
      ],
      "outputs": [
        {
          "name": "",
          "type": "uint256",
          "internalType": "uint256"
        },
        {
          "name": "",
          "type": "bool",
          "internalType": "bool"
        }
      ],
      "stateMutability": "view"
    },
    {
      "type": "function",
      "name": "getTopBuyerList",
      "inputs": [],
      "outputs": [
        {
          "name": "",
          "type": "tuple[]",
          "internalType": "struct Lottery.Leader[]",
          "components": [
            {
              "name": "user",
              "type": "address",
              "internalType": "address"
            },
            {
              "name": "ticket",
              "type": "uint256",
              "internalType": "uint256"
            },
            {
              "name": "amount",
              "type": "uint256",
              "internalType": "uint256"
            }
          ]
        },
        {
          "name": "",
          "type": "uint256",
          "internalType": "uint256"
        }
      ],
      "stateMutability": "view"
    },
    {
      "type": "function",
      "name": "getUser",
      "inputs": [
        {
          "name": "_user",
          "type": "address",
          "internalType": "address"
        }
      ],
      "outputs": [
        {
          "name": "",
          "type": "tuple",
          "internalType": "struct Lottery.User",
          "components": [
            {
              "name": "premium",
              "type": "uint256",
              "internalType": "uint256"
            },
            {
              "name": "firstLottery",
              "type": "uint256",
              "internalType": "uint256"
            },
            {
              "name": "lastTicketPurchased",
              "type": "uint256",
              "internalType": "uint256"
            },
            {
              "name": "totalPurchaseTicketCost",
              "type": "uint256",
              "internalType": "uint256"
            },
            {
              "name": "referrer",
              "type": "address",
              "internalType": "address"
            },
            {
              "name": "directReferress",
              "type": "address[]",
              "internalType": "address[]"
            },
            {
              "name": "totalEarning",
              "type": "tuple",
              "internalType": "struct Lottery.totalEarning",
              "components": [
                {
                  "name": "refTax",
                  "type": "uint256",
                  "internalType": "uint256"
                },
                {
                  "name": "premiumTax",
                  "type": "uint256",
                  "internalType": "uint256"
                },
                {
                  "name": "premiumReferralTax",
                  "type": "uint256",
                  "internalType": "uint256"
                },
                {
                  "name": "topBuyerTax",
                  "type": "uint256",
                  "internalType": "uint256"
                },
                {
                  "name": "winningAmount",
                  "type": "uint256",
                  "internalType": "uint256"
                }
              ]
            },
            {
              "name": "availableTax",
              "type": "tuple",
              "internalType": "struct Lottery.AvaileableUserTax",
              "components": [
                {
                  "name": "refTax",
                  "type": "uint256",
                  "internalType": "uint256"
                },
                {
                  "name": "premiumTax",
                  "type": "uint256",
                  "internalType": "uint256"
                },
                {
                  "name": "premiumReferralTax",
                  "type": "uint256",
                  "internalType": "uint256"
                },
                {
                  "name": "topBuyerTax",
                  "type": "uint256",
                  "internalType": "uint256"
                },
                {
                  "name": "winningAmount",
                  "type": "uint256",
                  "internalType": "uint256"
                }
              ]
            },
            {
              "name": "purchasedTickets",
              "type": "tuple",
              "internalType": "struct Lottery.PurchasedTickets",
              "components": [
                {
                  "name": "topBuyerTickets",
                  "type": "uint256",
                  "internalType": "uint256"
                },
                {
                  "name": "topBuyerCost",
                  "type": "uint256",
                  "internalType": "uint256"
                },
                {
                  "name": "refTickets",
                  "type": "uint256",
                  "internalType": "uint256"
                }
              ]
            }
          ]
        }
      ],
      "stateMutability": "view"
    },
    {
      "type": "function",
      "name": "getWinnersList",
      "inputs": [
        {
          "name": "lottteryId",
          "type": "uint256",
          "internalType": "uint256"
        }
      ],
      "outputs": [
        {
          "name": "",
          "type": "tuple[]",
          "internalType": "struct Lottery.LotteryResult[]",
          "components": [
            {
              "name": "sl",
              "type": "uint16",
              "internalType": "uint16"
            },
            {
              "name": "ticket",
              "type": "bytes12",
              "internalType": "bytes12"
            },
            {
              "name": "user",
              "type": "address",
              "internalType": "address"
            },
            {
              "name": "prize",
              "type": "uint8",
              "internalType": "uint8"
            }
          ]
        },
        {
          "name": "",
          "type": "uint256",
          "internalType": "uint256"
        },
        {
          "name": "",
          "type": "uint256",
          "internalType": "uint256"
        },
        {
          "name": "",
          "type": "uint8",
          "internalType": "enum Lottery.LotteryType"
        }
      ],
      "stateMutability": "view"
    },
    {
      "type": "function",
      "name": "isActiveUser",
      "inputs": [
        {
          "name": "_user",
          "type": "address",
          "internalType": "address"
        }
      ],
      "outputs": [
        {
          "name": "",
          "type": "bool",
          "internalType": "bool"
        }
      ],
      "stateMutability": "view"
    },
    {
      "type": "function",
      "name": "lotteries",
      "inputs": [
        {
          "name": "",
          "type": "uint256",
          "internalType": "uint256"
        }
      ],
      "outputs": [
        {
          "name": "id",
          "type": "uint256",
          "internalType": "uint256"
        },
        {
          "name": "roundId",
          "type": "uint256",
          "internalType": "uint256"
        },
        {
          "name": "createdAt",
          "type": "uint256",
          "internalType": "uint256"
        },
        {
          "name": "lotteryType",
          "type": "uint8",
          "internalType": "enum Lottery.LotteryType"
        },
        {
          "name": "minTicketCount",
          "type": "uint256",
          "internalType": "uint256"
        },
        {
          "name": "maxTicketCount",
          "type": "uint256",
          "internalType": "uint256"
        },
        {
          "name": "ticketPrice",
          "type": "uint256",
          "internalType": "uint256"
        },
        {
          "name": "totalWinners",
          "type": "uint256",
          "internalType": "uint256"
        },
        {
          "name": "isActive",
          "type": "bool",
          "internalType": "bool"
        },
        {
          "name": "isDistributed",
          "type": "bool",
          "internalType": "bool"
        },
        {
          "name": "totalticketPurchased",
          "type": "uint256",
          "internalType": "uint256"
        },
        {
          "name": "uniqeUserCount",
          "type": "uint256",
          "internalType": "uint256"
        }
      ],
      "stateMutability": "view"
    },
    {
      "type": "function",
      "name": "owner",
      "inputs": [],
      "outputs": [
        {
          "name": "",
          "type": "address",
          "internalType": "address"
        }
      ],
      "stateMutability": "view"
    },
    {
      "type": "function",
      "name": "premiumUserList",
      "inputs": [
        {
          "name": "",
          "type": "uint256",
          "internalType": "uint256"
        }
      ],
      "outputs": [
        {
          "name": "",
          "type": "address",
          "internalType": "address"
        }
      ],
      "stateMutability": "view"
    },
    {
      "type": "function",
      "name": "purchaseTicket",
      "inputs": [
        {
          "name": "lotteryId",
          "type": "uint256",
          "internalType": "uint256"
        },
        {
          "name": "ticketCount",
          "type": "uint256",
          "internalType": "uint256"
        },
        {
          "name": "referrer",
          "type": "address",
          "internalType": "address"
        },
        {
          "name": "ticketStrings",
          "type": "bytes12[]",
          "internalType": "bytes12[]"
        }
      ],
      "outputs": [],
      "stateMutability": "nonpayable"
    },
    {
      "type": "function",
      "name": "rawFulfillRandomWords",
      "inputs": [
        {
          "name": "requestId",
          "type": "uint256",
          "internalType": "uint256"
        },
        {
          "name": "randomWords",
          "type": "uint256[]",
          "internalType": "uint256[]"
        }
      ],
      "outputs": [],
      "stateMutability": "nonpayable"
    },
    {
      "type": "function",
      "name": "removePremiumAccount",
      "inputs": [
        {
          "name": "_user",
          "type": "address",
          "internalType": "address"
        }
      ],
      "outputs": [],
      "stateMutability": "nonpayable"
    },
    {
      "type": "function",
      "name": "s_vrfCoordinator",
      "inputs": [],
      "outputs": [
        {
          "name": "",
          "type": "address",
          "internalType": "contract IVRFCoordinatorV2Plus"
        }
      ],
      "stateMutability": "view"
    },
    {
      "type": "function",
      "name": "setCoordinator",
      "inputs": [
        {
          "name": "_vrfCoordinator",
          "type": "address",
          "internalType": "address"
        }
      ],
      "outputs": [],
      "stateMutability": "nonpayable"
    },
    {
      "type": "function",
      "name": "topBuyerAmount",
      "inputs": [],
      "outputs": [
        {
          "name": "",
          "type": "uint256",
          "internalType": "uint256"
        }
      ],
      "stateMutability": "view"
    },
    {
      "type": "function",
      "name": "transferOwnership",
      "inputs": [
        {
          "name": "to",
          "type": "address",
          "internalType": "address"
        }
      ],
      "outputs": [],
      "stateMutability": "nonpayable"
    },
    {
      "type": "function",
      "name": "usdtToken",
      "inputs": [],
      "outputs": [
        {
          "name": "",
          "type": "address",
          "internalType": "address"
        }
      ],
      "stateMutability": "view"
    },
    {
      "type": "function",
      "name": "users",
      "inputs": [
        {
          "name": "",
          "type": "address",
          "internalType": "address"
        }
      ],
      "outputs": [
        {
          "name": "premium",
          "type": "uint256",
          "internalType": "uint256"
        },
        {
          "name": "firstLottery",
          "type": "uint256",
          "internalType": "uint256"
        },
        {
          "name": "lastTicketPurchased",
          "type": "uint256",
          "internalType": "uint256"
        },
        {
          "name": "totalPurchaseTicketCost",
          "type": "uint256",
          "internalType": "uint256"
        },
        {
          "name": "referrer",
          "type": "address",
          "internalType": "address"
        },
        {
          "name": "totalEarning",
          "type": "tuple",
          "internalType": "struct Lottery.totalEarning",
          "components": [
            {
              "name": "refTax",
              "type": "uint256",
              "internalType": "uint256"
            },
            {
              "name": "premiumTax",
              "type": "uint256",
              "internalType": "uint256"
            },
            {
              "name": "premiumReferralTax",
              "type": "uint256",
              "internalType": "uint256"
            },
            {
              "name": "topBuyerTax",
              "type": "uint256",
              "internalType": "uint256"
            },
            {
              "name": "winningAmount",
              "type": "uint256",
              "internalType": "uint256"
            }
          ]
        },
        {
          "name": "availableTax",
          "type": "tuple",
          "internalType": "struct Lottery.AvaileableUserTax",
          "components": [
            {
              "name": "refTax",
              "type": "uint256",
              "internalType": "uint256"
            },
            {
              "name": "premiumTax",
              "type": "uint256",
              "internalType": "uint256"
            },
            {
              "name": "premiumReferralTax",
              "type": "uint256",
              "internalType": "uint256"
            },
            {
              "name": "topBuyerTax",
              "type": "uint256",
              "internalType": "uint256"
            },
            {
              "name": "winningAmount",
              "type": "uint256",
              "internalType": "uint256"
            }
          ]
        },
        {
          "name": "purchasedTickets",
          "type": "tuple",
          "internalType": "struct Lottery.PurchasedTickets",
          "components": [
            {
              "name": "topBuyerTickets",
              "type": "uint256",
              "internalType": "uint256"
            },
            {
              "name": "topBuyerCost",
              "type": "uint256",
              "internalType": "uint256"
            },
            {
              "name": "refTickets",
              "type": "uint256",
              "internalType": "uint256"
            }
          ]
        }
      ],
      "stateMutability": "view"
    },
    {
      "type": "function",
      "name": "withdrawAmountByOwner",
      "inputs": [
        {
          "name": "_amount",
          "type": "uint256",
          "internalType": "uint256"
        }
      ],
      "outputs": [],
      "stateMutability": "nonpayable"
    },
    {
      "type": "function",
      "name": "withdrawOwnerPersonalBalance",
      "inputs": [],
      "outputs": [],
      "stateMutability": "nonpayable"
    },
    {
      "type": "event",
      "name": "CoordinatorSet",
      "inputs": [
        {
          "name": "vrfCoordinator",
          "type": "address",
          "indexed": false,
          "internalType": "address"
        }
      ],
      "anonymous": false
    },
    {
      "type": "event",
      "name": "Lottery_Created",
      "inputs": [
        {
          "name": "id",
          "type": "uint256",
          "indexed": true,
          "internalType": "uint256"
        }
      ],
      "anonymous": false
    },
    {
      "type": "event",
      "name": "Lottery_RequestForWinners",
      "inputs": [
        {
          "name": "requestId",
          "type": "uint256",
          "indexed": true,
          "internalType": "uint256"
        }
      ],
      "anonymous": false
    },
    {
      "type": "event",
      "name": "Lottery_WinnersSelected",
      "inputs": [
        {
          "name": "id",
          "type": "uint256",
          "indexed": true,
          "internalType": "uint256"
        }
      ],
      "anonymous": false
    },
    {
      "type": "event",
      "name": "OwnershipTransferRequested",
      "inputs": [
        {
          "name": "from",
          "type": "address",
          "indexed": true,
          "internalType": "address"
        },
        {
          "name": "to",
          "type": "address",
          "indexed": true,
          "internalType": "address"
        }
      ],
      "anonymous": false
    },
    {
      "type": "event",
      "name": "OwnershipTransferred",
      "inputs": [
        {
          "name": "from",
          "type": "address",
          "indexed": true,
          "internalType": "address"
        },
        {
          "name": "to",
          "type": "address",
          "indexed": true,
          "internalType": "address"
        }
      ],
      "anonymous": false
    },
    {
      "type": "event",
      "name": "Premium__UserAdded",
      "inputs": [
        {
          "name": "user",
          "type": "address",
          "indexed": true,
          "internalType": "address"
        }
      ],
      "anonymous": false
    },
    {
      "type": "event",
      "name": "Premium__UserRemoved",
      "inputs": [
        {
          "name": "user",
          "type": "address",
          "indexed": true,
          "internalType": "address"
        }
      ],
      "anonymous": false
    },
    {
      "type": "event",
      "name": "REFFERELS__Added",
      "inputs": [
        {
          "name": "referee",
          "type": "address",
          "indexed": true,
          "internalType": "address"
        }
      ],
      "anonymous": false
    },
    {
      "type": "event",
      "name": "Ticket__Purchased",
      "inputs": [
        {
          "name": "id",
          "type": "uint256",
          "indexed": true,
          "internalType": "uint256"
        }
      ],
      "anonymous": false
    },
    {
      "type": "event",
      "name": "WiinerAddress",
      "inputs": [
        {
          "name": "",
          "type": "uint256[][]",
          "indexed": false,
          "internalType": "uint256[][]"
        }
      ],
      "anonymous": false
    },
    {
      "type": "event",
      "name": "lotteryTestEvent",
      "inputs": [
        {
          "name": "user",
          "type": "tuple",
          "indexed": false,
          "internalType": "struct Lottery.User",
          "components": [
            {
              "name": "premium",
              "type": "uint256",
              "internalType": "uint256"
            },
            {
              "name": "firstLottery",
              "type": "uint256",
              "internalType": "uint256"
            },
            {
              "name": "lastTicketPurchased",
              "type": "uint256",
              "internalType": "uint256"
            },
            {
              "name": "totalPurchaseTicketCost",
              "type": "uint256",
              "internalType": "uint256"
            },
            {
              "name": "referrer",
              "type": "address",
              "internalType": "address"
            },
            {
              "name": "directReferress",
              "type": "address[]",
              "internalType": "address[]"
            },
            {
              "name": "totalEarning",
              "type": "tuple",
              "internalType": "struct Lottery.totalEarning",
              "components": [
                {
                  "name": "refTax",
                  "type": "uint256",
                  "internalType": "uint256"
                },
                {
                  "name": "premiumTax",
                  "type": "uint256",
                  "internalType": "uint256"
                },
                {
                  "name": "premiumReferralTax",
                  "type": "uint256",
                  "internalType": "uint256"
                },
                {
                  "name": "topBuyerTax",
                  "type": "uint256",
                  "internalType": "uint256"
                },
                {
                  "name": "winningAmount",
                  "type": "uint256",
                  "internalType": "uint256"
                }
              ]
            },
            {
              "name": "availableTax",
              "type": "tuple",
              "internalType": "struct Lottery.AvaileableUserTax",
              "components": [
                {
                  "name": "refTax",
                  "type": "uint256",
                  "internalType": "uint256"
                },
                {
                  "name": "premiumTax",
                  "type": "uint256",
                  "internalType": "uint256"
                },
                {
                  "name": "premiumReferralTax",
                  "type": "uint256",
                  "internalType": "uint256"
                },
                {
                  "name": "topBuyerTax",
                  "type": "uint256",
                  "internalType": "uint256"
                },
                {
                  "name": "winningAmount",
                  "type": "uint256",
                  "internalType": "uint256"
                }
              ]
            },
            {
              "name": "purchasedTickets",
              "type": "tuple",
              "internalType": "struct Lottery.PurchasedTickets",
              "components": [
                {
                  "name": "topBuyerTickets",
                  "type": "uint256",
                  "internalType": "uint256"
                },
                {
                  "name": "topBuyerCost",
                  "type": "uint256",
                  "internalType": "uint256"
                },
                {
                  "name": "refTickets",
                  "type": "uint256",
                  "internalType": "uint256"
                }
              ]
            }
          ]
        }
      ],
      "anonymous": false
    },
    {
      "type": "event",
      "name": "withdrawAmount__SuccessFull",
      "inputs": [
        {
          "name": "amount",
          "type": "uint256",
          "indexed": true,
          "internalType": "uint256"
        }
      ],
      "anonymous": false
    },
    {
      "type": "error",
      "name": "Lottery__InvalidTicketStringsLength",
      "inputs": []
    },
    {
      "type": "error",
      "name": "Lottery__IsActive",
      "inputs": []
    },
    {
      "type": "error",
      "name": "Lottery__NotEnoughTicketPurchases",
      "inputs": [
        {
          "name": "",
          "type": "uint32",
          "internalType": "uint32"
        }
      ]
    },
    {
      "type": "error",
      "name": "Lottery__OnlyOperatorCanCall",
      "inputs": []
    },
    {
      "type": "error",
      "name": "Lottery__OnlyOwnerCanCall",
      "inputs": []
    },
    {
      "type": "error",
      "name": "Lottery__SoldOut",
      "inputs": []
    },
    {
      "type": "error",
      "name": "Lottery__failedToGenerateRandomNumbers",
      "inputs": []
    },
    {
      "type": "error",
      "name": "Lottery__notActive",
      "inputs": []
    },
    {
      "type": "error",
      "name": "Lottery__notEnoughMoney",
      "inputs": []
    },
    {
      "type": "error",
      "name": "Lottery__notFound",
      "inputs": [
        {
          "name": "",
          "type": "string",
          "internalType": "string"
        }
      ]
    },
    {
      "type": "error",
      "name": "Lottery__otherLotteryIsActive",
      "inputs": [
        {
          "name": "",
          "type": "tuple",
          "internalType": "struct Lottery.LotteryRound",
          "components": [
            {
              "name": "id",
              "type": "uint256",
              "internalType": "uint256"
            },
            {
              "name": "roundId",
              "type": "uint256",
              "internalType": "uint256"
            },
            {
              "name": "createdAt",
              "type": "uint256",
              "internalType": "uint256"
            },
            {
              "name": "lotteryType",
              "type": "uint8",
              "internalType": "enum Lottery.LotteryType"
            },
            {
              "name": "minTicketCount",
              "type": "uint256",
              "internalType": "uint256"
            },
            {
              "name": "maxTicketCount",
              "type": "uint256",
              "internalType": "uint256"
            },
            {
              "name": "ticketPrice",
              "type": "uint256",
              "internalType": "uint256"
            },
            {
              "name": "prizesAndWinners",
              "type": "tuple[3]",
              "internalType": "struct Lottery.WinnerPrize[3]",
              "components": [
                {
                  "name": "prizeAmount",
                  "type": "uint256",
                  "internalType": "uint256"
                },
                {
                  "name": "winnerCount",
                  "type": "uint256",
                  "internalType": "uint256"
                }
              ]
            },
            {
              "name": "totalWinners",
              "type": "uint256",
              "internalType": "uint256"
            },
            {
              "name": "isActive",
              "type": "bool",
              "internalType": "bool"
            },
            {
              "name": "tickets",
              "type": "tuple[]",
              "internalType": "struct Lottery.Ticket[]",
              "components": [
                {
                  "name": "customer",
                  "type": "address",
                  "internalType": "address"
                },
                {
                  "name": "timestamp",
                  "type": "uint256",
                  "internalType": "uint256"
                },
                {
                  "name": "ticketString",
                  "type": "bytes12",
                  "internalType": "bytes12"
                }
              ]
            },
            {
              "name": "winners",
              "type": "uint8[]",
              "internalType": "uint8[]"
            },
            {
              "name": "winningTicketNumbers",
              "type": "uint16[]",
              "internalType": "uint16[]"
            },
            {
              "name": "isDistributed",
              "type": "bool",
              "internalType": "bool"
            },
            {
              "name": "totalticketPurchased",
              "type": "uint256",
              "internalType": "uint256"
            },
            {
              "name": "uniqeUserCount",
              "type": "uint256",
              "internalType": "uint256"
            }
          ]
        }
      ]
    },
    {
      "type": "error",
      "name": "OnlyCoordinatorCanFulfill",
      "inputs": [
        {
          "name": "have",
          "type": "address",
          "internalType": "address"
        },
        {
          "name": "want",
          "type": "address",
          "internalType": "address"
        }
      ]
    },
    {
      "type": "error",
      "name": "OnlyOwnerOrCoordinator",
      "inputs": [
        {
          "name": "have",
          "type": "address",
          "internalType": "address"
        },
        {
          "name": "owner",
          "type": "address",
          "internalType": "address"
        },
        {
          "name": "coordinator",
          "type": "address",
          "internalType": "address"
        }
      ]
    },
    {
      "type": "error",
      "name": "Premium__UserAlreadyExist",
      "inputs": []
    },
    {
      "type": "error",
      "name": "Premium__UserDoesNotExist",
      "inputs": [
        {
          "name": "",
          "type": "address",
          "internalType": "address"
        }
      ]
    },
    {
      "type": "error",
      "name": "ReentrancyGuardReentrantCall",
      "inputs": []
    },
    {
      "type": "error",
      "name": "SafeERC20FailedOperation",
      "inputs": [
        {
          "name": "token",
          "type": "address",
          "internalType": "address"
        }
      ]
    },
    {
      "type": "error",
      "name": "ZeroAddress",
      "inputs": []
    },
    {
      "type": "error",
      "name": "withdrawAmount__NotEnoughMoney",
      "inputs": []
    },
    {
      "type": "error",
      "name": "withdrawAmount__failed",
      "inputs": []
    }
  ],
  "bytecode": {
    "object": "0x6004805464ffffffffff19166407070707051790555f600555610120604052622dc6c060e0908152629896806101005261003d906008906002610259565b506001600b556001600c555f600d555f601355678ac7230489e7ffff601455678ac7230489e7ffff6015556402540be40060165534801561007c575f5ffd5b506040516150f03803806150f083398101604081905261009b916102cd565b8133805f816100f15760405162461bcd60e51b815260206004820152601860248201527f43616e6e6f7420736574206f776e657220746f207a65726f000000000000000060448201526064015b60405180910390fd5b5f80546001600160a01b0319166001600160a01b038481169190911790915581161561012057610120816101b1565b5050506001600160a01b03811661014a5760405163d92e233d60e01b815260040160405180910390fd5b600280546001600160a01b039283166001600160a01b031991821617909155600160035560a09590955260809590955263ffffffff90921660c05250600a80549190931690821617909155600680548216339081179091556007805490921617905561032a565b336001600160a01b038216036102095760405162461bcd60e51b815260206004820152601760248201527f43616e6e6f74207472616e7366657220746f2073656c6600000000000000000060448201526064016100e8565b600180546001600160a01b0319166001600160a01b038381169182179092555f8054604051929316917fed8889f560326eb138920d842192f0eb3dd22b4f139c87a2c57538e05bae12789190a350565b826002810192821561028e579160200282015b8281111561028e578251829062ffffff1690559160200191906001019061026c565b5061029a92915061029e565b5090565b5b8082111561029a575f815560010161029f565b80516001600160a01b03811681146102c8575f5ffd5b919050565b5f5f5f5f5f60a086880312156102e1575f5ffd5b8551945060208601519350604086015163ffffffff81168114610302575f5ffd5b9250610310606087016102b2565b915061031e608087016102b2565b90509295509295909350565b60805160a05160c051614d9c6103545f395f61168001525f61162801525f61164b0152614d9c5ff3fe608060405234801561000f575f5ffd5b506004361061021e575f3560e01c8063760a23f11161012a5780639a1fa0fe116100b4578063ac19fba711610079578063ac19fba7146105e0578063b5827622146105e8578063d3577a42146105fb578063e80c4c581461060e578063f2fde38b14610621575f5ffd5b80639a1fa0fe146104a75780639eccacf6146104b0578063a3957193146104c3578063a87430ba146104d6578063a98ad46c146105cd575f5ffd5b806383a2a432116100fa57806383a2a4321461042e5780638c76d752146104515780638da5cb5b146104595780638ea98117146104695780639640bcd11461047c575f5ffd5b8063760a23f1146103f557806379ba50971461040b5780637decf3331461041357806382d23be914610426575f5ffd5b80634202d214116101ab578063581ce0b81161017b578063581ce0b814610394578063590791f21461039c5780635bdff9a4146103a45780635ec8a3de146103cf5780636f77926b146103e2575f5ffd5b80634202d214146103365780634450a45f146103595780635189a0bf1461036b5780635445bfb91461037e575f5ffd5b8063149733ec116101f1578063149733ec146102bd5780631fe543e3146102dd5780632a0217d3146102f05780633acab27a146103105780633fd10e0b14610323575f5ffd5b8063035b3be21461022257806306394c9b1461024f5780630a66d299146102645780631398e07614610292575b5f5ffd5b610235610230366004614307565b610634565b604080519283529015156020830152015b60405180910390f35b61026261025d366004614307565b610698565b005b610277610272366004614335565b6106e5565b60408051938452602084019290925290820152606001610246565b6102a56102a036600461434e565b610a8f565b6040516102469c9b9a99989796959493929190614399565b6102d06102cb366004614307565b610b07565b6040516102469190614475565b6102626102eb36600461452a565b610cc4565b6103036102fe36600461434e565b610d14565b6040516102469190614695565b61026261031e36600461485a565b611005565b61026261033136600461434e565b61149d565b610349610344366004614307565b611746565b6040519015158152602001610246565b600d545b604051908152602001610246565b61035d61037936600461434e565b611778565b610386611797565b6040516102469291906148bb565b61026261190e565b61035d611fe6565b6103b76103b236600461434e565b61201a565b6040516001600160a01b039091168152602001610246565b6102626103dd366004614307565b612042565b6102d06103f0366004614307565b61225b565b6103fd612263565b60405161024692919061491d565b610262612517565b610303610421366004614335565b6125c0565b610262612911565b61044161043c36600461434e565b612a68565b604051610246949392919061498b565b610262612edb565b5f546001600160a01b03166103b7565b610262610477366004614307565b613045565b61035d61048a366004614307565b6001600160a01b03165f908152601060205260409020600f015490565b61035d60135481565b6002546103b7906001600160a01b031681565b6102626104d1366004614307565b613135565b6105b96104e4366004614307565b601060208181525f92835260409283902080546001820154600283015460038401546004850154885160a08082018b52600688015482526007880154828a01526008880154828c01526009880154606080840191909152600a8901546080808501919091528c519283018d52600b8a01548352600c8a0154838c0152600d8a0154838e0152600e8a015483830152600f8a0154908301528b519081018c52998801548a526011880154988a01989098526012909601549888019890985292969195909492936001600160a01b03909216929088565b604051610246989796959493929190614a2a565b600a546103b7906001600160a01b031681565b610262613227565b6102626105f6366004614307565b6132a6565b610262610609366004614a9c565b613356565b61026261061c36600461434e565b61382d565b61026261062f366004614307565b613939565b6001600160a01b0381165f908152601060205260408120548190810361067d5760405163ca1644e560e01b81526001600160a01b03841660048201526024015b60405180910390fd5b5050335f908152601060205260409020600c01549160019150565b6006546001600160a01b031633146106c35760405163112b8aab60e01b815260040160405180910390fd5b600780546001600160a01b0319166001600160a01b0392909216919091179055565b5f5f5f5f600d5490505b8015610a6e5784600181111561070757610707614365565b600e610714600184614b93565b8154811061072457610724614bac565b5f91825260209091206003601590920201015460ff16600181111561074b5761074b614365565b03610a5c575f600e61075e600184614b93565b8154811061076e5761076e614bac565b905f5260205f209060150201604051806102000160405290815f82015481526020016001820154815260200160028201548152602001600382015f9054906101000a900460ff1660018111156107c6576107c6614365565b60018111156107d7576107d7614365565b815260200160048201548152602001600582015481526020016006820154815260200160078201600380602002604051908101604052809291905f905b8282101561084f578382600202016040518060400160405290815f820154815260200160018201548152505081526020019060010190610814565b505050508152602001600d8201548152602001600e82015f9054906101000a900460ff16151515158152602001600f8201805480602002602001604051908101604052809291908181526020015f905b82821015610900575f848152602090819020604080516060810182526003860290920180546001600160a01b031683526001808201548486015260029091015460a01b6001600160a01b03191691830191909152908352909201910161089f565b5050505081526020016010820180548060200260200160405190810160405280929190818152602001828054801561097257602002820191905f5260205f20905f905b825461010083900a900460ff168152602060019283018181049485019490930390920291018084116109435790505b50505050508152602001601182018054806020026020016040519081016040528092919081815260200182805480156109ef57602002820191905f5260205f20905f905b82829054906101000a900461ffff1661ffff16815260200190600201906020826001010492830192600103820291508084116109b65790505b5050509183525050601282015460ff16151560208201526013820154604082015260149091015460609091015261012081015190915015155f03610a3d575f5f5f9450945094505050610a88565b806020015181610140015151826101e001519450945094505050610a88565b80610a6681614bc0565b9150506106ef565b506040516338570b1360e21b815260040161067490614bd5565b9193909250565b600e8181548110610a9e575f80fd5b5f91825260209091206015909102018054600182015460028301546003840154600485015460058601546006870154600d880154600e89015460128a015460138b01546014909b0154999b509799969860ff96871698959794969395929491841693909216918c565b610b0f613f71565b6001600160a01b0382165f908152601060205260408120549003610b515760405163ca1644e560e01b81526001600160a01b0383166004820152602401610674565b6001600160a01b038083165f90815260106020908152604091829020825161012081018452815481526001820154818401526002820154818501526003820154606082015260048201549094166080850152600581018054845181850281018501909552808552919360a0860193909290830182828015610bf957602002820191905f5260205f20905b81546001600160a01b03168152600190910190602001808311610bdb575b50505050508152602001600682016040518060a00160405290815f82015481526020016001820154815260200160028201548152602001600382015481526020016004820154815250508152602001600b82016040518060a00160405290815f82015481526020016001820154815260200160028201548152602001600382015481526020016004820154815250508152602001601082016040518060600160405290815f820154815260200160018201548152602001600282015481525050815250509050919050565b6002546001600160a01b03163314610d045760025460405163073e64fd60e21b81523360048201526001600160a01b039091166024820152604401610674565b610d0f83838361394a565b505050565b610d1c614035565b600d548210610d3e576040516338570b1360e21b815260040161067490614bd5565b600e8281548110610d5157610d51614bac565b905f5260205f209060150201604051806102000160405290815f82015481526020016001820154815260200160028201548152602001600382015f9054906101000a900460ff166001811115610da957610da9614365565b6001811115610dba57610dba614365565b815260200160048201548152602001600582015481526020016006820154815260200160078201600380602002604051908101604052809291905f905b82821015610e32578382600202016040518060400160405290815f820154815260200160018201548152505081526020019060010190610df7565b505050508152602001600d8201548152602001600e82015f9054906101000a900460ff16151515158152602001600f8201805480602002602001604051908101604052809291908181526020015f905b82821015610ee3575f848152602090819020604080516060810182526003860290920180546001600160a01b031683526001808201548486015260029091015460a01b6001600160a01b031916918301919091529083529092019101610e82565b50505050815260200160108201805480602002602001604051908101604052809291908181526020018280548015610f5557602002820191905f5260205f20905f905b825461010083900a900460ff16815260206001928301818104948501949093039092029101808411610f265790505b5050505050815260200160118201805480602002602001604051908101604052809291908181526020018280548015610fd257602002820191905f5260205f20905f905b82829054906101000a900461ffff1661ffff1681526020019060020190602082600101049283019260010382029150808411610f995790505b5050509183525050601282015460ff16151560208201526013820154604082015260149091015460609091015292915050565b6007546001600160a01b03163314611030576040516321738dff60e01b815260040160405180910390fd5b838511156110805760405162461bcd60e51b815260206004820152601a60248201527f496e76616c6964207469636b657420636f756e742072616e67650000000000006044820152606401610674565b5f805b60038110156110b75783816003811061109e5761109e614bac565b60200201516110ad9083614c00565b9150600101611083565b50818111156111135760405162461bcd60e51b815260206004820152602260248201527f57696e6e657220636f756e74206578636565647320746f74616c2077696e6e65604482015261727360f01b6064820152608401610674565b61111c87613991565b600e80546001810182555f9182526015027fbb7b4a454dc3493923482f07822329ed19e8244eff582cc204f8554c3620c3fd019088600181111561116257611162614365565b0361118957600b8054905f61117683614c13565b90915550600182015580546015556111a7565b600c8054905f61119883614c13565b90915550600182015580546014555b600d8054905f6111b683614c13565b90915550815560038101805489919060ff1916600183818111156111dc576111dc614365565b02179055504260028201556004810187905560058101869055600d8101839055600e8101805460ff19166001908117909155600890899081111561122257611222614365565b6002811061123257611232614bac565b015460068201558567ffffffffffffffff811115611252576112526147aa565b60405190808252806020026020018201604052801561127b578160200160208202803683370190505b5080516112929160108401916020909101906140c1565b508267ffffffffffffffff8111156112ac576112ac6147aa565b6040519080825280602002602001820160405280156112d5578160200160208202803683370190505b5080516112ec916011840191602090910190614162565b505f5b600381101561137b57604051806040016040528087836003811061131557611315614bac565b602002015161132790620f4240614c2b565b815260200186836003811061133e5761133e614bac565b6020020151905260078301826003811061135a5761135a614bac565b825160029190910291909101908155602090910151600191820155016112ef565b505f88600181111561138f5761138f614365565b03611400576018545f5b818110156113f9575f601981601881600202018054859081106113be576113be614bac565b5f918252602080832091909101546001600160a01b031683528201929092526040019020805460ff1916911515919091179055600101611399565b5050611469565b601a545f5b81811015611466575f601b81601860016002020180548590811061142b5761142b614bac565b5f918252602080832091909101546001600160a01b031683528201929092526040019020805460ff1916911515919091179055600101611405565b50505b80546040517f67a7d2f7175358184bb138bd96c3ed1e06b977d25dafac78e16398b243943096905f90a25050505050505050565b6007546001600160a01b031633146114c8576040516321738dff60e01b815260040160405180910390fd5b600d5481106114ea576040516338570b1360e21b815260040161067490614bd5565b5f600e82815481106114fe576114fe614bac565b5f91825260208220600e6015909202019081015490925060ff161515900361153957604051631551bac160e21b815260040160405180910390fd5b81600f819055505f600e838154811061155457611554614bac565b905f5260205f209060150201600f01805490509050600e838154811061157c5761157c614bac565b905f5260205f209060150201600401548163ffffffff1610156115ba576040516309a7b37b60e31b815263ffffffff82166004820152602401610674565b5f600e84815481106115ce576115ce614bac565b905f5260205f209060150201600d015490505f8163ffffffff16116115f1575f5ffd5b604080515f815260208101918290525161160d916017916141f6565b505f5b600581101561173f576002546040805160c0810182527f000000000000000000000000000000000000000000000000000000000000000081527f000000000000000000000000000000000000000000000000000000000000000060208083019190915260038284015263ffffffff7f00000000000000000000000000000000000000000000000000000000000000001660608301526064608083015282519081019092525f82526001600160a01b0390921691639b1c385e9160a08201906116d790613a50565b8152506040518263ffffffff1660e01b81526004016116f69190614c42565b6020604051808303815f875af1158015611712573d5f5f3e3d5ffd5b505050506040513d601f19601f820116820180604052508101906117369190614cc5565b50600101611610565b5050505050565b6001600160a01b0381165f9081526010602052604081206002015442906117719062278d0090614c00565b1192915050565b60178181548110611787575f80fd5b5f91825260209091200154905081565b6012545f906060908290818167ffffffffffffffff8111156117bb576117bb6147aa565b6040519080825280602002602001820160405280156117ff57816020015b604080518082019091525f80825260208201528152602001906001900390816117d95790505b5090505f5b828110156119025760405180604001604052806012838154811061182a5761182a614bac565b905f5260205f20015f9054906101000a90046001600160a01b03166001600160a01b0316815260200160105f6012858154811061186957611869614bac565b5f9182526020808320909101546001600160a01b031683528201929092526040019020600c0154905282518390839081106118a6576118a6614bac565b602002602001018190525060105f601283815481106118c7576118c7614bac565b5f9182526020808320909101546001600160a01b031683528201929092526040019020600c01546118f89085614c00565b9350600101611804565b50919491935090915050565b6007546001600160a01b03163314611939576040516321738dff60e01b815260040160405180910390fd5b5f600e600f548154811061194f5761194f614bac565b5f91825260208220600d60159092020190810154600f82015491935091806007850181600202016001015490505f5f5f5f90505f60178054806020026020016040519081016040528092919081815260200182805480156119cd57602002820191905f5260205f20905b8154815260200190600101908083116119b9575b505050505090508781511015611a255760405162461bcd60e51b815260206004820152601960248201527f496e73756666696369656e742072616e646f6d20776f726473000000000000006044820152606401610674565b611a2d61422f565b5f5b6003811015611a98578a6007018160038110611a4d57611a4d614bac565b60020201600101548b6007018260038110611a6a57611a6a614bac565b6002020154611a799190614cf0565b828260038110611a8b57611a8b614bac565b6020020152600101611a2f565b505f5b89811015611f995788838281518110611ab657611ab6614bac565b6020026020010151611ac89190614d03565b94508a6010018581548110611adf57611adf614bac565b5f9182526020918290209181049091015460ff601f9092166101000a900416158015611b09575083155b15611c8057848b6011018281548110611b2457611b24614bac565b905f5260205f2090601091828204019190066002026101000a81548161ffff021916908361ffff160217905550876001611b5e9190614d16565b8b6010018681548110611b7357611b73614bac565b905f5260205f2090602091828204019190066101000a81548160ff021916908360ff1602179055505f8b600f018681548110611bb157611bb1614bac565b5f9182526020909120600391820201546001600160a01b03169150839060ff8b16908110611be157611be1614bac565b602002015160105f836001600160a01b03166001600160a01b031681526020019081526020015f206006016004015f828254611c1d9190614c00565b9091555083905060ff8a1660038110611c3857611c38614bac565b602002015160105f836001600160a01b03166001600160a01b031681526020019081526020015f20600b016004015f828254611c749190614c00565b90915550611f35915050565b828181518110611c9257611c92614bac565b60209081029190910101519550885f5b81811015611f25575f8b868581518110611cbe57611cbe614bac565b60200260200101518389604051602001611ceb939291909283526020830191909152604082015260600190565b604051602081830303815290604052805190602001205f1c611d0d9190614d03565b9050600e600f5481548110611d2457611d24614bac565b905f5260205f2090601502016010018181548110611d4457611d44614bac565b5f9182526020808320908204015460ff601f9092166101000a9004169003611f1c57808e6011018581548110611d7c57611d7c614bac565b905f5260205f2090601091828204019190066002026101000a81548161ffff021916908361ffff1602179055508a6001611db69190614d16565b600e600f5481548110611dcb57611dcb614bac565b905f5260205f2090601502016010018281548110611deb57611deb614bac565b905f5260205f2090602091828204019190066101000a81548160ff021916908360ff1602179055505f600e600f5481548110611e2957611e29614bac565b905f5260205f209060150201600f018281548110611e4957611e49614bac565b5f9182526020909120600391820201546001600160a01b03169150869060ff8e16908110611e7957611e79614bac565b602002015160105f836001600160a01b03166001600160a01b031681526020019081526020015f206006016004015f828254611eb59190614c00565b9091555086905060ff8d1660038110611ed057611ed0614bac565b602002015160105f836001600160a01b03166001600160a01b031681526020019081526020015f20600b016004015f828254611f0c9190614c00565b909155505f9850611f2592505050565b50600101611ca2565b5084611f3081614c13565b955050505b86611f41826001614c00565b148015611f51575060028860ff16105b15611f915787611f6081614d2f565b9850508a6007018860ff1660038110611f7b57611f7b614bac565b600202016001015487611f8e9190614c00565b96505b600101611a9b565b508954601655600e8a01805460ff19169055600f546040517fd20e14927c724974c05df49b31a0d0a3b924e844bcfa6116c8260653eb88e11e905f90a250505f600f555050505050505050565b6006545f906001600160a01b031633146120135760405163112b8aab60e01b815260040160405180910390fd5b5060055490565b60128181548110612029575f80fd5b5f918252602090912001546001600160a01b0316905081565b61204a613ac1565b6305f5e1005f61205b600a83614cf0565b9050336001600160a01b038416036120b55760405162461bcd60e51b815260206004820152601e60248201527f53656c662d726566657272616c7320617265206e6f7420616c6c6f77656400006044820152606401610674565b6001600160a01b03831661210b5760405162461bcd60e51b815260206004820152601860248201527f496e76616c696420726566657272616c206164647265737300000000000000006044820152606401610674565b335f90815260106020526040902054156121385760405163df4e834f60e01b815260040160405180910390fd5b601280546001810182555f919091527fbb8a6a4669ba250d26cd7a459eca9d215f8307e33aebe50379bc5a3617ec34440180546001600160a01b03191633908117909155600a54612197916001600160a01b0391909116903085613aeb565b6001600160a01b0383165f908152601060205260408120600d0180548392906121c1908490614c00565b90915550506001600160a01b0383165f90815260106020526040812060080180548392906121f0908490614c00565b9091555061220090508183614b93565b60055f8282546122109190614c00565b9091555050335f81815260106020526040808220429055517fa6462dfddf2559c30940c498ea78e464a320991ecafd929279d567e5a9c044d79190a250506122586001600355565b50565b610b51613f71565b6004546060905f9081906301000000900460ff1667ffffffffffffffff81111561228f5761228f6147aa565b6040519080825280602002602001820160405280156122ea57816020015b6122d760405180606001604052805f6001600160a01b031681526020015f81526020015f81525090565b8152602001906001900390816122ad5790505b506011549091505f90815b81811015612507575f6011828154811061231157612311614bac565b5f918252602090912001546001600160a01b0316905061233081611746565b156124fe576001600160a01b0381165f90815260106020819052604090912060118101549101546004546301000000900460ff16861080612397575086612378600188614b93565b8151811061238857612388614bac565b60200260200101516040015182115b156124fb57855b5f811180156123d3575082886123b5600184614b93565b815181106123c5576123c5614bac565b602002602001015160400151105b156123ea57806123e281614bc0565b91505061239e565b6004546301000000900460ff168110156124f9576004545f906301000000900460ff1688106124345760045461242c906001906301000000900460ff16614d4d565b60ff16612436565b875b90505b81811115612495578861244d600183614b93565b8151811061245d5761245d614bac565b602002602001015189828151811061247757612477614bac565b6020026020010181905250808061248d90614bc0565b915050612439565b506040518060600160405280856001600160a01b03168152602001838152602001848152508882815181106124cc576124cc614bac565b60209081029190910101526004546301000000900460ff168710156124f957866124f581614c13565b9750505b505b50505b506001016122f5565b5082601354945094505050509091565b6001546001600160a01b0316331461256a5760405162461bcd60e51b815260206004820152601660248201527526bab9ba10313290383937b837b9b2b21037bbb732b960511b6044820152606401610674565b5f8054336001600160a01b0319808316821784556001805490911690556040516001600160a01b0390921692909183917f8be0079c531659141344cd1fd0a4f28419497f9722a3daafe3b4186f6b6457e091a350565b6125c8614035565b600d545b8015610a6e578260018111156125e4576125e4614365565b600e6125f1600184614b93565b8154811061260157612601614bac565b5f91825260209091206003601590920201015460ff16600181111561262857612628614365565b036128ff57600e61263a600183614b93565b8154811061264a5761264a614bac565b905f5260205f209060150201604051806102000160405290815f82015481526020016001820154815260200160028201548152602001600382015f9054906101000a900460ff1660018111156126a2576126a2614365565b60018111156126b3576126b3614365565b815260200160048201548152602001600582015481526020016006820154815260200160078201600380602002604051908101604052809291905f905b8282101561272b578382600202016040518060400160405290815f8201548152602001600182015481525050815260200190600101906126f0565b505050508152602001600d8201548152602001600e82015f9054906101000a900460ff16151515158152602001600f8201805480602002602001604051908101604052809291908181526020015f905b828210156127dc575f848152602090819020604080516060810182526003860290920180546001600160a01b031683526001808201548486015260029091015460a01b6001600160a01b03191691830191909152908352909201910161277b565b5050505081526020016010820180548060200260200160405190810160405280929190818152602001828054801561284e57602002820191905f5260205f20905f905b825461010083900a900460ff1681526020600192830181810494850194909303909202910180841161281f5790505b50505050508152602001601182018054806020026020016040519081016040528092919081815260200182805480156128cb57602002820191905f5260205f20905f905b82829054906101000a900461ffff1661ffff16815260200190600201906020826001010492830192600103820291508084116128925790505b5050509183525050601282015460ff1615156020820152601382015460408201526014909101546060909101529392505050565b8061290981614bc0565b9150506125cc565b5f5f61291b612263565b60045491935091505f90612939906301000000900460ff1683614cf0565b90505f5b6004546301000000900460ff168110156129e9575f84828151811061296457612964614bac565b60209081029190910101515190506001600160a01b038116156129e0576001600160a01b0381165f908152601060205260408120600e0180548592906129ab908490614c00565b90915550506001600160a01b0381165f90815260106020526040812060090180548592906129da908490614c00565b90915550505b5060010161293d565b506011545f5b81811015612a40575f60118281548110612a0b57612a0b614bac565b5f9182526020808320909101546001600160a01b031682526010908190526040822090810182905560110155506001016129ef565b50604080515f8152602081019182905251612a5d9160119161424d565b50505f601355505050565b60605f5f5f5f600e8681548110612a8157612a81614bac565b905f5260205f209060150201604051806102000160405290815f82015481526020016001820154815260200160028201548152602001600382015f9054906101000a900460ff166001811115612ad957612ad9614365565b6001811115612aea57612aea614365565b815260200160048201548152602001600582015481526020016006820154815260200160078201600380602002604051908101604052809291905f905b82821015612b62578382600202016040518060400160405290815f820154815260200160018201548152505081526020019060010190612b27565b505050508152602001600d8201548152602001600e82015f9054906101000a900460ff16151515158152602001600f8201805480602002602001604051908101604052809291908181526020015f905b82821015612c13575f848152602090819020604080516060810182526003860290920180546001600160a01b031683526001808201548486015260029091015460a01b6001600160a01b031916918301919091529083529092019101612bb2565b50505050815260200160108201805480602002602001604051908101604052809291908181526020018280548015612c8557602002820191905f5260205f20905f905b825461010083900a900460ff16815260206001928301818104948501949093039092029101808411612c565790505b5050505050815260200160118201805480602002602001604051908101604052809291908181526020018280548015612d0257602002820191905f5260205f20905f905b82829054906101000a900461ffff1661ffff1681526020019060020190602082600101049283019260010382029150808411612cc95790505b5050509183525050601282015460ff1615156020820152601382015460408201526014909101546060909101526101008101519091505f9067ffffffffffffffff811115612d5257612d526147aa565b604051908082528060200260200182016040528015612da257816020015b604080516080810182525f8082526020808301829052928201819052606082015282525f19909201910181612d705790505b5090505f5b826101000151811015612ebe575f83610180015190505f846101600151828481518110612dd657612dd6614bac565b602002602001015161ffff1681518110612df257612df2614bac565b602002602001015190505f856101400151838581518110612e1557612e15614bac565b602002602001015161ffff1681518110612e3157612e31614bac565b602002602001015190506040518060800160405280848681518110612e5857612e58614bac565b602002602001015161ffff16815260200182604001516001600160a01b0319168152602001825f01516001600160a01b031681526020018360ff16815250858581518110612ea857612ea8614bac565b6020908102919091010152505050600101612da7565b508151602083015160609093015191989097509195509350915050565b612ee3613ac1565b335f908152601060209081526040808320815160a081018352600b820154808252600c830154948201859052600d830154938201849052600e83015460608301819052600f909301546080830181905291959094909391929190612f479086614c00565b612f519190614c00565b612f5b9190614c00565b612f659190614c00565b9050600a811015612f895760405163117c468960e21b815260040160405180910390fd5b335f818152601060205260408120600b810182905560128101829055600c8101829055600d8101829055600e8101829055600f0155612fec90600a612fcf846009614c2b565b612fd99190614cf0565b600a546001600160a01b03169190613b52565b612ff7600a82614cf0565b60055f8282546130079190614c00565b909155505060405181907fb6fe44bb1f76da43755ad8760a9f7083782c99721541e49c3f98122d0fe6ba04905f90a25050506130436001600355565b565b5f546001600160a01b0316331480159061306a57506002546001600160a01b03163314155b156130ba57336130815f546001600160a01b031690565b60025460405163061db9c160e01b81526001600160a01b0393841660048201529183166024830152919091166044820152606401610674565b6001600160a01b0381166130e15760405163d92e233d60e01b815260040160405180910390fd5b600280546001600160a01b0319166001600160a01b0383169081179091556040519081527fd1a6a14209a385a964d036e404cb5cfb71f4000cdb03c9366292430787261be69060200160405180910390a150565b6007546001600160a01b03163314613160576040516321738dff60e01b815260040160405180910390fd5b613168613ac1565b6001600160a01b0381165f908152601060205260409020541561319e5760405163df4e834f60e01b815260040160405180910390fd5b60128054600181019091557fbb8a6a4669ba250d26cd7a459eca9d215f8307e33aebe50379bc5a3617ec34440180546001600160a01b0319166001600160a01b0383169081179091555f81815260106020526040808220429055517fa6462dfddf2559c30940c498ea78e464a320991ecafd929279d567e5a9c044d79190a26122586001600355565b61322f613ac1565b5f600554116132515760405163117c468960e21b815260040160405180910390fd5b5f6005819055600a54613271916001600160a01b03909116903390613b52565b6005546040517fb6fe44bb1f76da43755ad8760a9f7083782c99721541e49c3f98122d0fe6ba04905f90a26130436001600355565b6007546001600160a01b031633146132d1576040516321738dff60e01b815260040160405180910390fd5b6001600160a01b0381165f9081526010602052604081205490036133135760405163ca1644e560e01b81526001600160a01b0382166004820152602401610674565b6001600160a01b0381165f81815260106020526040808220829055517fab0b49b9f201a3ca785f5c35ac4db44981e3bcf9a07c741208ade5334095709b9190a250565b61335e613ac1565b600d5484106133a3576040516338570b1360e21b815260206004820152601060248201526f139bc81b1bdd1d195c9e48199bdd5b9960821b6044820152606401610674565b60018310806133b3575082815114155b156133d157604051633d1424e960e11b815260040160405180910390fd5b5f600e85815481106133e5576133e5614bac565b5f91825260208220600e6015909202019081015490925060ff161515900361342057604051631551bac160e21b815260040160405180910390fd5b6005810154600f820154613435908690614c00565b11156134545760405163748d32af60e11b815260040160405180910390fd5b5f8482600601546134659190614c2b565b600a54909150613480906001600160a01b0316333084613aeb565b335f90815260106020526040812060030180548392906134a1908490614c00565b909155505f90505b83518110156135645782600f016040518060600160405280336001600160a01b031681526020014281526020018684815181106134e8576134e8614bac565b6020908102919091018101516001600160a01b03199081169092528354600180820186555f95865294829020845160039092020180549093166001600160a01b0390911617825582015181840155604090910151600290910180546bffffffffffffffffffffffff191660a09290921c919091179055016134a9565b5084826013015f8282546135789190614c00565b9091555050335f9081526010602081905260408220426002820155015490036135dd57601180546001810182555f919091527f31ecc21a745e3968a04e9570e4425bc18fa8019c68028196b546d1669c200c680180546001600160a01b031916331790555b335f90815260106020819052604082200180548792906135fe908490614c00565b9091555050335f9081526010602052604081206011018054839290613624908490614c00565b909155506136359050848287613b83565b61363e81613d2a565b6004546064906136579062010000900460ff1683614c2b565b6136619190614cf0565b60135f8282546136719190614c00565b90915550506004545f9060649061369390640100000000900460ff1684614c2b565b61369d9190614cf0565b90508060055f8282546136b09190614c00565b909155505f9050600384015460ff1660018111156136d0576136d0614365565b0361376557335f9081526019602052604081205460ff161515900361376057335f818152601960205260408120805460ff1916600190811790915560188054918201815582527fb13d2d76d1f4b7be834882e410b3e3a8afaf69f83600ae24db354391d2378d2e0180546001600160a01b0319169092179091556014840180549161375a83614c13565b91905055505b6137f0565b335f908152601b602052604081205460ff16151590036137f057335f818152601b60205260408120805460ff19166001908117909155601a8054918201815582527f057c384a7d1c54f3a1b2e5e67b2617b8224fdfd1ea7234eea573a6ff665ff63e0180546001600160a01b031916909217909155601484018054916137ea83614c13565b91905055505b60405186907fb23e237cf0ae5bee09a1af90ace20250c65fa6252b97915398b2fa6b043e1ed3905f90a25050506138276001600355565b50505050565b6006546001600160a01b031633146138585760405163112b8aab60e01b815260040160405180910390fd5b613860613ac1565b600a546040516370a0823160e01b81523060048201525f916001600160a01b0316906370a0823190602401602060405180830381865afa1580156138a6573d5f5f3e3d5ffd5b505050506040513d601f19601f820116820180604052508101906138ca9190614cc5565b9050818110156138ed5760405163117c468960e21b815260040160405180910390fd5b600a54613904906001600160a01b03163384613b52565b60405182907fb6fe44bb1f76da43755ad8760a9f7083782c99721541e49c3f98122d0fe6ba04905f90a2506122586001600355565b613941613e0b565b61225881613e5d565b5f5b8181101561382757601783838381811061396857613968614bac565b8354600180820186555f958652602095869020929095029390930135920191909155500161394c565b60018160018111156139a5576139a5614365565b03613a0e57601454678ac7230489e7ffff141580156139f05750600e601454815481106139d4576139d4614bac565b5f9182526020909120600e601590920201015460ff1615156001145b156122585760405163ab2df6a960e01b815260040160405180910390fd5b5f816001811115613a2157613a21614365565b0361225857601554678ac7230489e7ffff141580156139f05750600e601554815481106139d4576139d4614bac565b60607f92fd13387c7fe7befbc38d303d6468778fb9731bc4583f17d92989c6fcfdeaaa82604051602401613a8991511515815260200190565b60408051601f198184030181529190526020810180516001600160e01b03166001600160e01b03199093169290921790915292915050565b600260035403613ae457604051633ee5aeb560e01b815260040160405180910390fd5b6002600355565b6040516001600160a01b0384811660248301528381166044830152606482018390526138279186918216906323b872dd906084015b604051602081830303815290604052915060e01b6020820180516001600160e01b038381831617835250505050613f05565b6040516001600160a01b03838116602483015260448201839052610d0f91859182169063a9059cbb90606401613b20565b335f908152601060205260409020600401546001600160a01b031615613ba857505050565b6001600160a01b038316331480613bc657506001600160a01b038316155b15613c01575050600654335f90815260106020526040902060040180546001600160a01b0319166001600160a01b0390921691909117905550565b335f81815260106020908152604080832060040180546001600160a01b0389166001600160a01b031991821681179092558185529184206005810180546001810182559086529385209093018054909216909417905591815260129091018054839290613c6f908490614c00565b90915550613c7e905083611746565b15610d0f57600454606490613c9b90610100900460ff1684614c2b565b613ca59190614cf0565b6001600160a01b0384165f908152601060205260408120600b018054909190613ccf908490614c00565b9091555050600454606490613cec90610100900460ff1684614c2b565b613cf69190614cf0565b6001600160a01b0384165f9081526010602052604081206006018054909190613d20908490614c00565b9091555050505050565b6012545f819003613d39575050565b5f613d45826064614c2b565b600454613d559060ff1685614c2b565b613d5f9190614cf0565b90505f5b82811015613827575f60128281548110613d7f57613d7f614bac565b5f918252602090912001546001600160a01b03169050613d9e81611746565b15613e02576001600160a01b0381165f908152601060205260408120600c018054859290613dcd908490614c00565b90915550506001600160a01b0381165f9081526010602052604081206007018054859290613dfc908490614c00565b90915550505b50600101613d63565b5f546001600160a01b031633146130435760405162461bcd60e51b815260206004820152601660248201527527b7363c9031b0b63630b1363290313c9037bbb732b960511b6044820152606401610674565b336001600160a01b03821603613eb55760405162461bcd60e51b815260206004820152601760248201527f43616e6e6f74207472616e7366657220746f2073656c660000000000000000006044820152606401610674565b600180546001600160a01b0319166001600160a01b038381169182179092555f8054604051929316917fed8889f560326eb138920d842192f0eb3dd22b4f139c87a2c57538e05bae12789190a350565b5f5f60205f8451602086015f885af180613f24576040513d5f823e3d81fd5b50505f513d91508115613f3b578060011415613f48565b6001600160a01b0384163b155b1561382757604051635274afe760e01b81526001600160a01b0385166004820152602401610674565b6040518061012001604052805f81526020015f81526020015f81526020015f81526020015f6001600160a01b0316815260200160608152602001613fd86040518060a001604052805f81526020015f81526020015f81526020015f81526020015f81525090565b815260200161400a6040518060a001604052805f81526020015f81526020015f81526020015f81526020015f81525090565b815260200161403060405180606001604052805f81526020015f81526020015f81525090565b905290565b6040518061020001604052805f81526020015f81526020015f81526020015f600181111561406557614065614365565b81526020015f81526020015f81526020015f81526020016140846142a0565b81526020015f81526020015f151581526020016060815260200160608152602001606081526020015f151581526020015f81526020015f81525090565b828054828255905f5260205f2090601f01602090048101928215614152579160200282015f5b8382111561412457835183826101000a81548160ff021916908360ff16021790555092602001926001016020815f010492830192600103026140e7565b80156141505782816101000a81549060ff02191690556001016020815f01049283019260010302614124565b505b5061415e9291506142d8565b5090565b828054828255905f5260205f2090600f01601090048101928215614152579160200282015f5b838211156141c857835183826101000a81548161ffff021916908361ffff1602179055509260200192600201602081600101049283019260010302614188565b80156141505782816101000a81549061ffff02191690556002016020816001010492830192600103026141c8565b828054828255905f5260205f20908101928215614152579160200282015b82811115614152578251825591602001919060010190614214565b60405180606001604052806003906020820280368337509192915050565b828054828255905f5260205f20908101928215614152579160200282015b8281111561415257825182546001600160a01b0319166001600160a01b0390911617825560209092019160019091019061426b565b60405180606001604052806003905b604080518082019091525f80825260208201528152602001906001900390816142af5790505090565b5b8082111561415e575f81556001016142d9565b80356001600160a01b0381168114614302575f5ffd5b919050565b5f60208284031215614317575f5ffd5b614320826142ec565b9392505050565b803560028110614302575f5ffd5b5f60208284031215614345575f5ffd5b61432082614327565b5f6020828403121561435e575f5ffd5b5035919050565b634e487b7160e01b5f52602160045260245ffd5b6002811061439557634e487b7160e01b5f52602160045260245ffd5b9052565b8c8152602081018c9052604081018b905261018081016143bc606083018c614379565b608082019990995260a081019790975260c087019590955260e0860193909352901515610100850152151561012084015261014083015261016090910152949350505050565b5f8151808452602084019350602083015f5b8281101561443b5781516001600160a01b0316865260209586019590910190600101614414565b5093949350505050565b80518252602081015160208301526040810151604083015260608101516060830152608081015160808301525050565b60208152815160208201526020820151604082015260408201516060820152606082015160808201525f60808301516144b960a08401826001600160a01b03169052565b5060a083015161026060c08401526144d5610280840182614402565b905060c08401516144e960e0850182614445565b5060e08401516144fd610180850182614445565b50610100840151805161022085015260208101516102408501526040810151610260850152509392505050565b5f5f5f6040848603121561453c575f5ffd5b83359250602084013567ffffffffffffffff811115614559575f5ffd5b8401601f81018613614569575f5ffd5b803567ffffffffffffffff81111561457f575f5ffd5b8660208260051b8401011115614593575f5ffd5b939660209190910195509293505050565b805f5b60038110156138275781518051855260209081015181860152604090940193909101906001016145a7565b5f8151808452602084019350602083015f5b8281101561443b57815180516001600160a01b03168752602080820151818901526040918201516001600160a01b03191691880191909152606090960195909101906001016145e4565b5f8151808452602084019350602083015f5b8281101561443b57815160ff16865260209586019590910190600101614640565b5f8151808452602084019350602083015f5b8281101561443b57815161ffff16865260209586019590910190600101614673565b602081528151602082015260208201516040820152604082015160608201525f60608301516146c76080840182614379565b50608083015160a083015260a083015160c083015260c083015160e083015260e08301516146f96101008401826145a4565b506101008301516101c083015261012083015115156101e08301526101408301516102a06102008401526147316102c08401826145d2565b9050610160840151601f1984830301610220850152614750828261462e565b915050610180840151601f19848303016102408501526147708282614661565b9150506101a084015161478861026085018215159052565b506101c08401516102808401526101e0909301516102a0909201919091525090565b634e487b7160e01b5f52604160045260245ffd5b604051601f8201601f1916810167ffffffffffffffff811182821017156147e7576147e76147aa565b604052919050565b5f82601f8301126147fe575f5ffd5b6040516060810167ffffffffffffffff81118282101715614821576148216147aa565b604052806060840185811115614835575f5ffd5b845b8181101561484f578035835260209283019201614837565b509195945050505050565b5f5f5f5f5f5f6101408789031215614870575f5ffd5b61487987614327565b9550602087013594506040870135935061489688606089016147ef565b92506148a58860c089016147ef565b9598949750929591949361012090920135925050565b5f60408201848352604060208401528084518083526060850191506020860192505f5b8181101561491157835180516001600160a01b0316845260209081015181850152909301926040909201916001016148de565b50909695505050505050565b604080825283519082018190525f9060208501906060840190835b8181101561497857835180516001600160a01b03168452602080820151818601526040918201519185019190915290930192606090920191600101614938565b5050602093909301939093525092915050565b608080825285519082018190525f90602087019060a0840190835b81811015614a01578351805161ffff1684526020808201516001600160a01b031916818601526040808301516001600160a01b03169086015260609182015160ff1691850191909152909301926080909201916001016149a6565b50508092505050846020830152836040830152614a216060830184614379565b95945050505050565b8881526020810188905260408101879052606081018690526001600160a01b03851660808201526102408101614a6360a0830186614445565b614a71610140830185614445565b82516101e0830152602083015161020083015260408301516102208301529998505050505050505050565b5f5f5f5f60808587031215614aaf575f5ffd5b8435935060208501359250614ac6604086016142ec565b9150606085013567ffffffffffffffff811115614ae1575f5ffd5b8501601f81018713614af1575f5ffd5b803567ffffffffffffffff811115614b0b57614b0b6147aa565b8060051b614b1b602082016147be565b9182526020818401810192908101908a841115614b36575f5ffd5b6020850194505b83851015614b7057843592506001600160a01b031983168314614b5e575f5ffd5b82825260209485019490910190614b3d565b979a9699509497505050505050565b634e487b7160e01b5f52601160045260245ffd5b81810381811115614ba657614ba6614b7f565b92915050565b634e487b7160e01b5f52603260045260245ffd5b5f81614bce57614bce614b7f565b505f190190565b602080825260119082015270139bc8081b1bdd1d195c9e48199bdd5b99607a1b604082015260600190565b80820180821115614ba657614ba6614b7f565b5f60018201614c2457614c24614b7f565b5060010190565b8082028115828204841417614ba657614ba6614b7f565b60208152815160208201526020820151604082015261ffff604083015116606082015263ffffffff606083015116608082015263ffffffff60808301511660a08201525f60a083015160c08084015280518060e0850152806020830161010086015e5f6101008286010152610100601f19601f8301168501019250505092915050565b5f60208284031215614cd5575f5ffd5b5051919050565b634e487b7160e01b5f52601260045260245ffd5b5f82614cfe57614cfe614cdc565b500490565b5f82614d1157614d11614cdc565b500690565b60ff8181168382160190811115614ba657614ba6614b7f565b5f60ff821660ff8103614d4457614d44614b7f565b60010192915050565b60ff8281168282160390811115614ba657614ba6614b7f56fea2646970667358221220dd79a74a6d1b9acf071555e1ff73cf45c91346c61aa2acf0a6eb4275ec3de4ea64736f6c634300081c0033",
    "linkReferences": {}
  },
  "methodIdentifiers": {
    "Draw(uint256)": "3fd10e0b",
    "GetLatestLottery(uint8)": "7decf333",
    "GetLatestLotteryTicketRoundCustomerCount(uint8)": "0a66d299",
    "GetLotteryById(uint256)": "2a0217d3",
    "GetLotteryCount()": "4450a45f",
    "GetPremiumAccount(address)": "149733ec",
    "PerformDraw()": "581ce0b8",
    "WithDrawRewardBaalance()": "8c76d752",
    "acceptOwnership()": "79ba5097",
    "addPremiumAccount(address)": "a3957193",
    "addPremiumAccountWithReferral(address)": "5ec8a3de",
    "chainLinkRandomWords(uint256)": "5189a0bf",
    "changeOperator(address)": "06394c9b",
    "createLottery(uint8,uint256,uint256,uint256[3],uint256[3],uint256)": "3acab27a",
    "distributeTopBuyersAmounts()": "82d23be9",
    "getLotteryWinningAmountByUser(address)": "9640bcd1",
    "getOwnerBalance()": "590791f2",
    "getPremiumReserve()": "5445bfb9",
    "getPremiumRewardBalance(address)": "035b3be2",
    "getTopBuyerList()": "760a23f1",
    "getUser(address)": "6f77926b",
    "getWinnersList(uint256)": "83a2a432",
    "isActiveUser(address)": "4202d214",
    "lotteries(uint256)": "1398e076",
    "owner()": "8da5cb5b",
    "premiumUserList(uint256)": "5bdff9a4",
    "purchaseTicket(uint256,uint256,address,bytes12[])": "d3577a42",
    "rawFulfillRandomWords(uint256,uint256[])": "1fe543e3",
    "removePremiumAccount(address)": "b5827622",
    "s_vrfCoordinator()": "9eccacf6",
    "setCoordinator(address)": "8ea98117",
    "topBuyerAmount()": "9a1fa0fe",
    "transferOwnership(address)": "f2fde38b",
    "usdtToken()": "a98ad46c",
    "users(address)": "a87430ba",
    "withdrawAmountByOwner(uint256)": "e80c4c58",
    "withdrawOwnerPersonalBalance()": "ac19fba7"
  },
  "id": 41
}