{"abi":[{"type":"constructor","inputs":[{"name":"subscriptionId","type":"uint256","internalType":"uint256"},{"name":"gasLane","type":"bytes32","internalType":"bytes32"},{"name":"callbackGasLimit","type":"uint32","internalType":"uint32"},{"name":"vrfCoordinatorV2","type":"address","internalType":"address"},{"name":"_usdtToken","type":"address","internalType":"address"}],"stateMutability":"nonpayable"},{"type":"function","name":"DEFAULT_REFERRER","inputs":[],"outputs":[{"name":"","type":"address","internalType":"address"}],"stateMutability":"view"},{"type":"function","name":"Draw","inputs":[{"name":"lotteryId","type":"uint256","internalType":"uint256"}],"outputs":[],"stateMutability":"nonpayable"},{"type":"function","name":"GetLatestLottery","inputs":[{"name":"_type","type":"uint8","internalType":"enum Lottery.LotteryType"}],"outputs":[{"name":"","type":"tuple","internalType":"struct Lottery.LotteryRound","components":[{"name":"id","type":"uint256","internalType":"uint256"},{"name":"roundId","type":"uint256","internalType":"uint256"},{"name":"createdAt","type":"uint256","internalType":"uint256"},{"name":"lotteryType","type":"uint8","internalType":"enum Lottery.LotteryType"},{"name":"minTicketCount","type":"uint256","internalType":"uint256"},{"name":"maxTicketCount","type":"uint256","internalType":"uint256"},{"name":"ticketPrice","type":"uint256","internalType":"uint256"},{"name":"prizesAndWinners","type":"tuple[5]","internalType":"struct Lottery.WinnerPrize[5]","components":[{"name":"prizeAmount","type":"uint256","internalType":"uint256"},{"name":"winnerCount","type":"uint256","internalType":"uint256"}]},{"name":"totalWinners","type":"uint256","internalType":"uint256"},{"name":"isActive","type":"bool","internalType":"bool"},{"name":"tickets","type":"tuple[]","internalType":"struct Lottery.Ticket[]","components":[{"name":"customer","type":"address","internalType":"address"},{"name":"timestamp","type":"uint256","internalType":"uint256"},{"name":"ticketString","type":"bytes12","internalType":"bytes12"}]},{"name":"winners","type":"uint8[]","internalType":"uint8[]"},{"name":"winningTicketNumbers","type":"uint16[]","internalType":"uint16[]"},{"name":"isDistributed","type":"bool","internalType":"bool"},{"name":"totalticketPurchased","type":"uint256","internalType":"uint256"},{"name":"uniqeUserCount","type":"uint256","internalType":"uint256"}]}],"stateMutability":"view"},{"type":"function","name":"GetLatestLotteryTicketRoundCustomerCount","inputs":[{"name":"_type","type":"uint8","internalType":"enum Lottery.LotteryType"}],"outputs":[{"name":"round","type":"uint256","internalType":"uint256"},{"name":"ticketCount","type":"uint256","internalType":"uint256"},{"name":"customerCount","type":"uint256","internalType":"uint256"}],"stateMutability":"view"},{"type":"function","name":"GetLotteryById","inputs":[{"name":"lotteryId","type":"uint256","internalType":"uint256"}],"outputs":[{"name":"","type":"tuple","internalType":"struct Lottery.LotteryRound","components":[{"name":"id","type":"uint256","internalType":"uint256"},{"name":"roundId","type":"uint256","internalType":"uint256"},{"name":"createdAt","type":"uint256","internalType":"uint256"},{"name":"lotteryType","type":"uint8","internalType":"enum Lottery.LotteryType"},{"name":"minTicketCount","type":"uint256","internalType":"uint256"},{"name":"maxTicketCount","type":"uint256","internalType":"uint256"},{"name":"ticketPrice","type":"uint256","internalType":"uint256"},{"name":"prizesAndWinners","type":"tuple[5]","internalType":"struct Lottery.WinnerPrize[5]","components":[{"name":"prizeAmount","type":"uint256","internalType":"uint256"},{"name":"winnerCount","type":"uint256","internalType":"uint256"}]},{"name":"totalWinners","type":"uint256","internalType":"uint256"},{"name":"isActive","type":"bool","internalType":"bool"},{"name":"tickets","type":"tuple[]","internalType":"struct Lottery.Ticket[]","components":[{"name":"customer","type":"address","internalType":"address"},{"name":"timestamp","type":"uint256","internalType":"uint256"},{"name":"ticketString","type":"bytes12","internalType":"bytes12"}]},{"name":"winners","type":"uint8[]","internalType":"uint8[]"},{"name":"winningTicketNumbers","type":"uint16[]","internalType":"uint16[]"},{"name":"isDistributed","type":"bool","internalType":"bool"},{"name":"totalticketPurchased","type":"uint256","internalType":"uint256"},{"name":"uniqeUserCount","type":"uint256","internalType":"uint256"}]}],"stateMutability":"view"},{"type":"function","name":"GetLotteryCount","inputs":[],"outputs":[{"name":"","type":"uint256","internalType":"uint256"}],"stateMutability":"view"},{"type":"function","name":"GetPremiumAccount","inputs":[{"name":"_user","type":"address","internalType":"address"}],"outputs":[{"name":"","type":"tuple","internalType":"struct Lottery.User","components":[{"name":"premium","type":"uint256","internalType":"uint256"},{"name":"totalspend","type":"uint256","internalType":"uint256"},{"name":"premiumReferralRewards","type":"uint256","internalType":"uint256"},{"name":"purchasedTickets","type":"uint256","internalType":"uint256"},{"name":"firstLottery","type":"uint256","internalType":"uint256"},{"name":"lastTicketPurchased","type":"uint256","internalType":"uint256"},{"name":"referrer","type":"address","internalType":"address"},{"name":"referees","type":"tuple[]","internalType":"struct Lottery.ReferralsAddress[]","components":[{"name":"refereesAddress","type":"address[]","internalType":"address[]"}]},{"name":"winningAmount","type":"uint256","internalType":"uint256"},{"name":"topBuyerTax","type":"uint256","internalType":"uint256"},{"name":"topBuyerPurchasedTickets","type":"uint256","internalType":"uint256"},{"name":"topLeaderTax","type":"uint256","internalType":"uint256"},{"name":"spend","type":"tuple","internalType":"struct Lottery.Spend","components":[{"name":"totalwinningAmountWithdraw","type":"uint256","internalType":"uint256"},{"name":"totalRewadBalanceWithdraw","type":"uint256","internalType":"uint256"},{"name":"topLeaderTaxWithdraw","type":"uint256","internalType":"uint256"},{"name":"topBuyerTaxWithdraw","type":"uint256","internalType":"uint256"},{"name":"refTaxWithdraw","type":"uint256","internalType":"uint256"},{"name":"premiumTaxWithdraw","type":"uint256","internalType":"uint256"},{"name":"totalRewardAmountSpend","type":"uint256","internalType":"uint256"},{"name":"topLeaderPurchasedTickets","type":"uint256","internalType":"uint256"},{"name":"topLeaderTotalspend","type":"uint256","internalType":"uint256"},{"name":"topBuyerTotalspend","type":"uint256","internalType":"uint256"}]}]}],"stateMutability":"view"},{"type":"function","name":"GetPremiumAccountsCounts","inputs":[],"outputs":[{"name":"","type":"uint256","internalType":"uint256"}],"stateMutability":"view"},{"type":"function","name":"PerformDraw","inputs":[],"outputs":[],"stateMutability":"nonpayable"},{"type":"function","name":"WithDrawRewardBaalance","inputs":[],"outputs":[],"stateMutability":"nonpayable"},{"type":"function","name":"acceptOwnership","inputs":[],"outputs":[],"stateMutability":"nonpayable"},{"type":"function","name":"addPremiumAccount","inputs":[{"name":"_user","type":"address","internalType":"address"}],"outputs":[],"stateMutability":"nonpayable"},{"type":"function","name":"addPremiumAccountWithReferral","inputs":[{"name":"referral","type":"address","internalType":"address"}],"outputs":[],"stateMutability":"nonpayable"},{"type":"function","name":"addReferee","inputs":[{"name":"referrer","type":"address","internalType":"address"}],"outputs":[],"stateMutability":"nonpayable"},{"type":"function","name":"availableReferres","inputs":[{"name":"user","type":"tuple","internalType":"struct Lottery.User","components":[{"name":"premium","type":"uint256","internalType":"uint256"},{"name":"totalspend","type":"uint256","internalType":"uint256"},{"name":"premiumReferralRewards","type":"uint256","internalType":"uint256"},{"name":"purchasedTickets","type":"uint256","internalType":"uint256"},{"name":"firstLottery","type":"uint256","internalType":"uint256"},{"name":"lastTicketPurchased","type":"uint256","internalType":"uint256"},{"name":"referrer","type":"address","internalType":"address"},{"name":"referees","type":"tuple[]","internalType":"struct Lottery.ReferralsAddress[]","components":[{"name":"refereesAddress","type":"address[]","internalType":"address[]"}]},{"name":"winningAmount","type":"uint256","internalType":"uint256"},{"name":"topBuyerTax","type":"uint256","internalType":"uint256"},{"name":"topBuyerPurchasedTickets","type":"uint256","internalType":"uint256"},{"name":"topLeaderTax","type":"uint256","internalType":"uint256"},{"name":"spend","type":"tuple","internalType":"struct Lottery.Spend","components":[{"name":"totalwinningAmountWithdraw","type":"uint256","internalType":"uint256"},{"name":"totalRewadBalanceWithdraw","type":"uint256","internalType":"uint256"},{"name":"topLeaderTaxWithdraw","type":"uint256","internalType":"uint256"},{"name":"topBuyerTaxWithdraw","type":"uint256","internalType":"uint256"},{"name":"refTaxWithdraw","type":"uint256","internalType":"uint256"},{"name":"premiumTaxWithdraw","type":"uint256","internalType":"uint256"},{"name":"totalRewardAmountSpend","type":"uint256","internalType":"uint256"},{"name":"topLeaderPurchasedTickets","type":"uint256","internalType":"uint256"},{"name":"topLeaderTotalspend","type":"uint256","internalType":"uint256"},{"name":"topBuyerTotalspend","type":"uint256","internalType":"uint256"}]}]}],"outputs":[{"name":"","type":"uint256","internalType":"uint256"}],"stateMutability":"view"},{"type":"function","name":"calculateTopLeader","inputs":[],"outputs":[{"name":"","type":"address[]","internalType":"address[]"}],"stateMutability":"view"},{"type":"function","name":"chainLinkRandomWords","inputs":[{"name":"","type":"uint256","internalType":"uint256"}],"outputs":[{"name":"","type":"uint256","internalType":"uint256"}],"stateMutability":"view"},{"type":"function","name":"createLottery","inputs":[{"name":"_type","type":"uint8","internalType":"enum Lottery.LotteryType"},{"name":"_minTicketCount","type":"uint256","internalType":"uint256"},{"name":"_maxTicketCount","type":"uint256","internalType":"uint256"},{"name":"_prizeAmounts","type":"uint256[5]","internalType":"uint256[5]"},{"name":"_winnerCounts","type":"uint256[5]","internalType":"uint256[5]"},{"name":"_totalWinners","type":"uint256","internalType":"uint256"}],"outputs":[],"stateMutability":"nonpayable"},{"type":"function","name":"distributeTopBuyersAmounts","inputs":[],"outputs":[],"stateMutability":"nonpayable"},{"type":"function","name":"distributeTopLeadersAmounts","inputs":[],"outputs":[],"stateMutability":"nonpayable"},{"type":"function","name":"getAllRewardBalance","inputs":[{"name":"_user","type":"address","internalType":"address"}],"outputs":[{"name":"","type":"uint256","internalType":"uint256"},{"name":"","type":"uint256","internalType":"uint256"},{"name":"","type":"uint256","internalType":"uint256"},{"name":"","type":"uint256","internalType":"uint256"},{"name":"","type":"uint256","internalType":"uint256"}],"stateMutability":"view"},{"type":"function","name":"getLotteryReferralAmountByUser","inputs":[{"name":"_user","type":"address","internalType":"address"}],"outputs":[{"name":"","type":"uint256","internalType":"uint256"},{"name":"","type":"uint256","internalType":"uint256"},{"name":"","type":"uint256[]","internalType":"uint256[]"},{"name":"","type":"tuple[]","internalType":"struct Lottery.ReferralsAddress[]","components":[{"name":"refereesAddress","type":"address[]","internalType":"address[]"}]}],"stateMutability":"view"},{"type":"function","name":"getLotteryWinningAmountByUser","inputs":[{"name":"_user","type":"address","internalType":"address"}],"outputs":[{"name":"","type":"uint256","internalType":"uint256"}],"stateMutability":"view"},{"type":"function","name":"getOwnerBalance","inputs":[],"outputs":[{"name":"","type":"uint256","internalType":"uint256"},{"name":"","type":"uint256","internalType":"uint256"},{"name":"","type":"uint256","internalType":"uint256"}],"stateMutability":"view"},{"type":"function","name":"getOwnerTax","inputs":[],"outputs":[{"name":"","type":"uint256","internalType":"uint256"}],"stateMutability":"view"},{"type":"function","name":"getPremiumReserve","inputs":[],"outputs":[{"name":"","type":"uint256","internalType":"uint256"},{"name":"","type":"tuple[]","internalType":"struct Lottery.PremiumUsers[]","components":[{"name":"user","type":"address","internalType":"address"},{"name":"amount","type":"uint256","internalType":"uint256"}]}],"stateMutability":"view"},{"type":"function","name":"getPremiumRewardBalance","inputs":[{"name":"_user","type":"address","internalType":"address"}],"outputs":[{"name":"","type":"uint256","internalType":"uint256"},{"name":"","type":"bool","internalType":"bool"}],"stateMutability":"view"},{"type":"function","name":"getTop20Leaders","inputs":[],"outputs":[{"name":"","type":"tuple[]","internalType":"struct Lottery.Leader[]","components":[{"name":"user","type":"address","internalType":"address"},{"name":"ticket","type":"uint256","internalType":"uint256"},{"name":"amount","type":"uint256","internalType":"uint256"}]},{"name":"","type":"uint256","internalType":"uint256"}],"stateMutability":"view"},{"type":"function","name":"getTopBuyerList","inputs":[],"outputs":[{"name":"","type":"tuple[]","internalType":"struct Lottery.Leader[]","components":[{"name":"user","type":"address","internalType":"address"},{"name":"ticket","type":"uint256","internalType":"uint256"},{"name":"amount","type":"uint256","internalType":"uint256"}]},{"name":"","type":"uint256","internalType":"uint256"}],"stateMutability":"view"},{"type":"function","name":"getUnilevelReferrals","inputs":[{"name":"referrer","type":"address","internalType":"address"}],"outputs":[{"name":"","type":"tuple[]","internalType":"struct Lottery.ReferralsAddress[]","components":[{"name":"refereesAddress","type":"address[]","internalType":"address[]"}]}],"stateMutability":"view"},{"type":"function","name":"getUser","inputs":[{"name":"_user","type":"address","internalType":"address"}],"outputs":[{"name":"","type":"tuple","internalType":"struct Lottery.User","components":[{"name":"premium","type":"uint256","internalType":"uint256"},{"name":"totalspend","type":"uint256","internalType":"uint256"},{"name":"premiumReferralRewards","type":"uint256","internalType":"uint256"},{"name":"purchasedTickets","type":"uint256","internalType":"uint256"},{"name":"firstLottery","type":"uint256","internalType":"uint256"},{"name":"lastTicketPurchased","type":"uint256","internalType":"uint256"},{"name":"referrer","type":"address","internalType":"address"},{"name":"referees","type":"tuple[]","internalType":"struct Lottery.ReferralsAddress[]","components":[{"name":"refereesAddress","type":"address[]","internalType":"address[]"}]},{"name":"winningAmount","type":"uint256","internalType":"uint256"},{"name":"topBuyerTax","type":"uint256","internalType":"uint256"},{"name":"topBuyerPurchasedTickets","type":"uint256","internalType":"uint256"},{"name":"topLeaderTax","type":"uint256","internalType":"uint256"},{"name":"spend","type":"tuple","internalType":"struct Lottery.Spend","components":[{"name":"totalwinningAmountWithdraw","type":"uint256","internalType":"uint256"},{"name":"totalRewadBalanceWithdraw","type":"uint256","internalType":"uint256"},{"name":"topLeaderTaxWithdraw","type":"uint256","internalType":"uint256"},{"name":"topBuyerTaxWithdraw","type":"uint256","internalType":"uint256"},{"name":"refTaxWithdraw","type":"uint256","internalType":"uint256"},{"name":"premiumTaxWithdraw","type":"uint256","internalType":"uint256"},{"name":"totalRewardAmountSpend","type":"uint256","internalType":"uint256"},{"name":"topLeaderPurchasedTickets","type":"uint256","internalType":"uint256"},{"name":"topLeaderTotalspend","type":"uint256","internalType":"uint256"},{"name":"topBuyerTotalspend","type":"uint256","internalType":"uint256"}]}]}],"stateMutability":"view"},{"type":"function","name":"getWinnersList","inputs":[{"name":"lottteryId","type":"uint256","internalType":"uint256"}],"outputs":[{"name":"","type":"tuple[]","internalType":"struct Lottery.LotteryResult[]","components":[{"name":"sl","type":"uint16","internalType":"uint16"},{"name":"ticket","type":"bytes12","internalType":"bytes12"},{"name":"user","type":"address","internalType":"address"},{"name":"prize","type":"uint8","internalType":"uint8"}]},{"name":"","type":"uint256","internalType":"uint256"},{"name":"","type":"uint256","internalType":"uint256"},{"name":"","type":"uint8","internalType":"enum Lottery.LotteryType"}],"stateMutability":"view"},{"type":"function","name":"lotteries","inputs":[{"name":"","type":"uint256","internalType":"uint256"}],"outputs":[{"name":"id","type":"uint256","internalType":"uint256"},{"name":"roundId","type":"uint256","internalType":"uint256"},{"name":"createdAt","type":"uint256","internalType":"uint256"},{"name":"lotteryType","type":"uint8","internalType":"enum Lottery.LotteryType"},{"name":"minTicketCount","type":"uint256","internalType":"uint256"},{"name":"maxTicketCount","type":"uint256","internalType":"uint256"},{"name":"ticketPrice","type":"uint256","internalType":"uint256"},{"name":"totalWinners","type":"uint256","internalType":"uint256"},{"name":"isActive","type":"bool","internalType":"bool"},{"name":"isDistributed","type":"bool","internalType":"bool"},{"name":"totalticketPurchased","type":"uint256","internalType":"uint256"},{"name":"uniqeUserCount","type":"uint256","internalType":"uint256"}],"stateMutability":"view"},{"type":"function","name":"owner","inputs":[],"outputs":[{"name":"","type":"address","internalType":"address"}],"stateMutability":"view"},{"type":"function","name":"premiumTaxs","inputs":[{"name":"","type":"uint256","internalType":"uint256"}],"outputs":[{"name":"time","type":"uint256","internalType":"uint256"},{"name":"amount","type":"uint256","internalType":"uint256"}],"stateMutability":"view"},{"type":"function","name":"purchaseTicket","inputs":[{"name":"lotteryId","type":"uint256","internalType":"uint256"},{"name":"ticketCount","type":"uint256","internalType":"uint256"},{"name":"referrer","type":"address","internalType":"address"},{"name":"ticketStrings","type":"bytes12[]","internalType":"bytes12[]"},{"name":"purchasedBy","type":"uint8","internalType":"enum Lottery.PurchaseType"}],"outputs":[],"stateMutability":"nonpayable"},{"type":"function","name":"rawFulfillRandomWords","inputs":[{"name":"requestId","type":"uint256","internalType":"uint256"},{"name":"randomWords","type":"uint256[]","internalType":"uint256[]"}],"outputs":[],"stateMutability":"nonpayable"},{"type":"function","name":"removePremiumAccount","inputs":[{"name":"_user","type":"address","internalType":"address"}],"outputs":[],"stateMutability":"nonpayable"},{"type":"function","name":"rewardAmountSpendList","inputs":[{"name":"","type":"uint256","internalType":"uint256"}],"outputs":[{"name":"spender","type":"address","internalType":"address"},{"name":"amount","type":"uint256","internalType":"uint256"},{"name":"time","type":"uint256","internalType":"uint256"},{"name":"reason","type":"uint8","internalType":"enum Lottery.SpendReason"}],"stateMutability":"view"},{"type":"function","name":"s_vrfCoordinator","inputs":[],"outputs":[{"name":"","type":"address","internalType":"contract IVRFCoordinatorV2Plus"}],"stateMutability":"view"},{"type":"function","name":"setCoordinator","inputs":[{"name":"_vrfCoordinator","type":"address","internalType":"address"}],"outputs":[],"stateMutability":"nonpayable"},{"type":"function","name":"topBuyerAmount","inputs":[],"outputs":[{"name":"","type":"uint256","internalType":"uint256"}],"stateMutability":"view"},{"type":"function","name":"topLeaderAmount","inputs":[],"outputs":[{"name":"","type":"uint256","internalType":"uint256"}],"stateMutability":"view"},{"type":"function","name":"transferOwnership","inputs":[{"name":"to","type":"address","internalType":"address"}],"outputs":[],"stateMutability":"nonpayable"},{"type":"function","name":"usdtToken","inputs":[],"outputs":[{"name":"","type":"address","internalType":"address"}],"stateMutability":"view"},{"type":"function","name":"userList","inputs":[{"name":"","type":"uint256","internalType":"uint256"}],"outputs":[{"name":"","type":"address","internalType":"address"}],"stateMutability":"view"},{"type":"function","name":"users","inputs":[{"name":"","type":"address","internalType":"address"}],"outputs":[{"name":"premium","type":"uint256","internalType":"uint256"},{"name":"totalspend","type":"uint256","internalType":"uint256"},{"name":"premiumReferralRewards","type":"uint256","internalType":"uint256"},{"name":"purchasedTickets","type":"uint256","internalType":"uint256"},{"name":"firstLottery","type":"uint256","internalType":"uint256"},{"name":"lastTicketPurchased","type":"uint256","internalType":"uint256"},{"name":"referrer","type":"address","internalType":"address"},{"name":"winningAmount","type":"uint256","internalType":"uint256"},{"name":"topBuyerTax","type":"uint256","internalType":"uint256"},{"name":"topBuyerPurchasedTickets","type":"uint256","internalType":"uint256"},{"name":"topLeaderTax","type":"uint256","internalType":"uint256"},{"name":"spend","type":"tuple","internalType":"struct Lottery.Spend","components":[{"name":"totalwinningAmountWithdraw","type":"uint256","internalType":"uint256"},{"name":"totalRewadBalanceWithdraw","type":"uint256","internalType":"uint256"},{"name":"topLeaderTaxWithdraw","type":"uint256","internalType":"uint256"},{"name":"topBuyerTaxWithdraw","type":"uint256","internalType":"uint256"},{"name":"refTaxWithdraw","type":"uint256","internalType":"uint256"},{"name":"premiumTaxWithdraw","type":"uint256","internalType":"uint256"},{"name":"totalRewardAmountSpend","type":"uint256","internalType":"uint256"},{"name":"topLeaderPurchasedTickets","type":"uint256","internalType":"uint256"},{"name":"topLeaderTotalspend","type":"uint256","internalType":"uint256"},{"name":"topBuyerTotalspend","type":"uint256","internalType":"uint256"}]}],"stateMutability":"view"},{"type":"function","name":"withdrawAmountByOwner","inputs":[{"name":"_amount","type":"uint256","internalType":"uint256"}],"outputs":[],"stateMutability":"nonpayable"},{"type":"function","name":"withdrawOwnerBalance","inputs":[],"outputs":[],"stateMutability":"nonpayable"},{"type":"event","name":"CoordinatorSet","inputs":[{"name":"vrfCoordinator","type":"address","indexed":false,"internalType":"address"}],"anonymous":false},{"type":"event","name":"Lottery_Created","inputs":[{"name":"id","type":"uint256","indexed":true,"internalType":"uint256"}],"anonymous":false},{"type":"event","name":"Lottery_RequestForWinners","inputs":[{"name":"requestId","type":"uint256","indexed":true,"internalType":"uint256"}],"anonymous":false},{"type":"event","name":"Lottery_WinnersSelected","inputs":[{"name":"id","type":"uint256","indexed":true,"internalType":"uint256"}],"anonymous":false},{"type":"event","name":"OwnershipTransferRequested","inputs":[{"name":"from","type":"address","indexed":true,"internalType":"address"},{"name":"to","type":"address","indexed":true,"internalType":"address"}],"anonymous":false},{"type":"event","name":"OwnershipTransferred","inputs":[{"name":"from","type":"address","indexed":true,"internalType":"address"},{"name":"to","type":"address","indexed":true,"internalType":"address"}],"anonymous":false},{"type":"event","name":"Premium__UserAdded","inputs":[{"name":"user","type":"address","indexed":true,"internalType":"address"}],"anonymous":false},{"type":"event","name":"Premium__UserRemoved","inputs":[{"name":"user","type":"address","indexed":true,"internalType":"address"}],"anonymous":false},{"type":"event","name":"REFFERELS__Added","inputs":[{"name":"referee","type":"address","indexed":true,"internalType":"address"}],"anonymous":false},{"type":"event","name":"Ticket__Purchased","inputs":[{"name":"id","type":"uint256","indexed":true,"internalType":"uint256"}],"anonymous":false},{"type":"event","name":"WiinerAddress","inputs":[{"name":"","type":"uint256[][]","indexed":false,"internalType":"uint256[][]"}],"anonymous":false},{"type":"event","name":"lotteryTestEvent","inputs":[{"name":"user","type":"tuple","indexed":false,"internalType":"struct Lottery.User","components":[{"name":"premium","type":"uint256","internalType":"uint256"},{"name":"totalspend","type":"uint256","internalType":"uint256"},{"name":"premiumReferralRewards","type":"uint256","internalType":"uint256"},{"name":"purchasedTickets","type":"uint256","internalType":"uint256"},{"name":"firstLottery","type":"uint256","internalType":"uint256"},{"name":"lastTicketPurchased","type":"uint256","internalType":"uint256"},{"name":"referrer","type":"address","internalType":"address"},{"name":"referees","type":"tuple[]","internalType":"struct Lottery.ReferralsAddress[]","components":[{"name":"refereesAddress","type":"address[]","internalType":"address[]"}]},{"name":"winningAmount","type":"uint256","internalType":"uint256"},{"name":"topBuyerTax","type":"uint256","internalType":"uint256"},{"name":"topBuyerPurchasedTickets","type":"uint256","internalType":"uint256"},{"name":"topLeaderTax","type":"uint256","internalType":"uint256"},{"name":"spend","type":"tuple","internalType":"struct Lottery.Spend","components":[{"name":"totalwinningAmountWithdraw","type":"uint256","internalType":"uint256"},{"name":"totalRewadBalanceWithdraw","type":"uint256","internalType":"uint256"},{"name":"topLeaderTaxWithdraw","type":"uint256","internalType":"uint256"},{"name":"topBuyerTaxWithdraw","type":"uint256","internalType":"uint256"},{"name":"refTaxWithdraw","type":"uint256","internalType":"uint256"},{"name":"premiumTaxWithdraw","type":"uint256","internalType":"uint256"},{"name":"totalRewardAmountSpend","type":"uint256","internalType":"uint256"},{"name":"topLeaderPurchasedTickets","type":"uint256","internalType":"uint256"},{"name":"topLeaderTotalspend","type":"uint256","internalType":"uint256"},{"name":"topBuyerTotalspend","type":"uint256","internalType":"uint256"}]}]}],"anonymous":false},{"type":"event","name":"withdrawAmount__SuccessFull","inputs":[{"name":"amount","type":"uint256","indexed":true,"internalType":"uint256"}],"anonymous":false},{"type":"error","name":"AddressEmptyCode","inputs":[{"name":"target","type":"address","internalType":"address"}]},{"type":"error","name":"AddressInsufficientBalance","inputs":[{"name":"account","type":"address","internalType":"address"}]},{"type":"error","name":"FailedInnerCall","inputs":[]},{"type":"error","name":"Lottery__InvalidTicketStringsLength","inputs":[]},{"type":"error","name":"Lottery__IsActive","inputs":[]},{"type":"error","name":"Lottery__NotEnoughTicketPurchases","inputs":[{"name":"","type":"uint32","internalType":"uint32"}]},{"type":"error","name":"Lottery__OnlyOwnerCanCall","inputs":[]},{"type":"error","name":"Lottery__SoldOut","inputs":[]},{"type":"error","name":"Lottery__failedToGenerateRandomNumbers","inputs":[]},{"type":"error","name":"Lottery__notActive","inputs":[]},{"type":"error","name":"Lottery__notEnoughMoney","inputs":[]},{"type":"error","name":"Lottery__notFound","inputs":[{"name":"","type":"string","internalType":"string"}]},{"type":"error","name":"Lottery__otherLotteryIsActive","inputs":[{"name":"","type":"tuple","internalType":"struct Lottery.LotteryRound","components":[{"name":"id","type":"uint256","internalType":"uint256"},{"name":"roundId","type":"uint256","internalType":"uint256"},{"name":"createdAt","type":"uint256","internalType":"uint256"},{"name":"lotteryType","type":"uint8","internalType":"enum Lottery.LotteryType"},{"name":"minTicketCount","type":"uint256","internalType":"uint256"},{"name":"maxTicketCount","type":"uint256","internalType":"uint256"},{"name":"ticketPrice","type":"uint256","internalType":"uint256"},{"name":"prizesAndWinners","type":"tuple[5]","internalType":"struct Lottery.WinnerPrize[5]","components":[{"name":"prizeAmount","type":"uint256","internalType":"uint256"},{"name":"winnerCount","type":"uint256","internalType":"uint256"}]},{"name":"totalWinners","type":"uint256","internalType":"uint256"},{"name":"isActive","type":"bool","internalType":"bool"},{"name":"tickets","type":"tuple[]","internalType":"struct Lottery.Ticket[]","components":[{"name":"customer","type":"address","internalType":"address"},{"name":"timestamp","type":"uint256","internalType":"uint256"},{"name":"ticketString","type":"bytes12","internalType":"bytes12"}]},{"name":"winners","type":"uint8[]","internalType":"uint8[]"},{"name":"winningTicketNumbers","type":"uint16[]","internalType":"uint16[]"},{"name":"isDistributed","type":"bool","internalType":"bool"},{"name":"totalticketPurchased","type":"uint256","internalType":"uint256"},{"name":"uniqeUserCount","type":"uint256","internalType":"uint256"}]}]},{"type":"error","name":"OnlyCoordinatorCanFulfill","inputs":[{"name":"have","type":"address","internalType":"address"},{"name":"want","type":"address","internalType":"address"}]},{"type":"error","name":"OnlyOwnerOrCoordinator","inputs":[{"name":"have","type":"address","internalType":"address"},{"name":"owner","type":"address","internalType":"address"},{"name":"coordinator","type":"address","internalType":"address"}]},{"type":"error","name":"Premium__UserAlreadyExist","inputs":[]},{"type":"error","name":"Premium__UserDoesNotExist","inputs":[{"name":"","type":"address","internalType":"address"}]},{"type":"error","name":"SafeERC20FailedOperation","inputs":[{"name":"token","type":"address","internalType":"address"}]},{"type":"error","name":"ZeroAddress","inputs":[]},{"type":"error","name":"withdrawAmount__NotEnoughMoney","inputs":[]},{"type":"error","name":"withdrawAmount__failed","inputs":[]}],"bytecode":{"object":"0x6004805460ff1916600a179055610120604052622dc6c060e09081526298968061010052610031906005906002610353565b506040805160e081018252600a8152600560208201526003918101919091526002606082015260016080820181905260a0820181905260c082015261007a906008906007610398565b506040805161028081018252600d8152600b6020820152600a918101919091526009606082015260086080820152600760a0820152600660c0820152600560e08201526004610100820152600361012082018190526101408201819052610160820181905261018082018190526101a082015260026101c082018190526101e0820181905261020082018190526102208201819052610240820181905261026082015261012b90600f9060146103cb565b50600160238190556024555f6025819055602c819055602d819055602e819055602f81905560308190556031556032805460ff191690556402540be400603355348015610176575f5ffd5b50604051617a5a380380617a5a8339810160408190526101959161042c565b8133805f816101eb5760405162461bcd60e51b815260206004820152601860248201527f43616e6e6f7420736574206f776e657220746f207a65726f000000000000000060448201526064015b60405180910390fd5b5f80546001600160a01b0319166001600160a01b038481169190911790915581161561021a5761021a816102ab565b5050506001600160a01b0381166102445760405163d92e233d60e01b815260040160405180910390fd5b600280546001600160a01b039283166001600160a01b031991821617909155600160035560a09590955260809590955263ffffffff90921660c0525060078054919093169116179055600480543361010002610100600160a81b0319909116179055610489565b336001600160a01b038216036103035760405162461bcd60e51b815260206004820152601760248201527f43616e6e6f74207472616e7366657220746f2073656c6600000000000000000060448201526064016101e2565b600180546001600160a01b0319166001600160a01b038381169182179092555f8054604051929316917fed8889f560326eb138920d842192f0eb3dd22b4f139c87a2c57538e05bae12789190a350565b8260028101928215610388579160200282015b82811115610388578251829062ffffff16905591602001919060010190610366565b506103949291506103fd565b5090565b8260078101928215610388579160200282015b82811115610388578251829060ff169055916020019190600101906103ab565b82601481019282156103885791602002820182811115610388578251829060ff169055916020019190600101906103ab565b5b80821115610394575f81556001016103fe565b80516001600160a01b0381168114610427575f5ffd5b919050565b5f5f5f5f5f60a08688031215610440575f5ffd5b8551945060208601519350604086015163ffffffff81168114610461575f5ffd5b925061046f60608701610411565b915061047d60808701610411565b90509295509295909350565b60805160a05160c0516175a76104b35f395f6121ab01525f61215301525f61217601526175a75ff3fe608060405234801561000f575f5ffd5b50600436106102b1575f3560e01c806379ba50971161017b5780639eccacf6116100e4578063b0b9d8241161009e578063e80c4c5811610079578063e80c4c581461077c578063e838fa811461078f578063f2fde38b146107af578063ffbf5af2146107c2575f5ffd5b8063b0b9d8241461074e578063b582762214610761578063d9d6beea14610774575f5ffd5b80639eccacf6146105f35780639f4216e814610606578063a395719314610619578063a70398431461062c578063a87430ba1461063f578063a98ad46c1461073b575f5ffd5b80638da5cb5b116101355780638da5cb5b146105895780638ea98117146105995780639280f225146105ac578063941b80ac146105cf5780639640bcd1146105d75780639a1fa0fe146105ea575f5ffd5b806379ba5097146105335780637decf3331461053b57806382d23be91461054e57806383a2a432146105565780638bb2c92e146105795780638c76d75214610581575f5ffd5b80633fd10e0b1161021d578063581ce0b8116101d7578063581ce0b8146104b4578063590791f2146104bc5780635ec8a3de146104c45780636f77926b146104d7578063760a23f1146104ea578063781e65e314610500575f5ffd5b80633fd10e0b146104455780634450a45f1461045857806345ecdc19146104605780635189a0bf146104835780635445bfb914610496578063564c9e4b146104ac575f5ffd5b806317a9b5291161026e57806317a9b529146103985780631fe543e3146103ad5780632116d031146103c05780632667cc6d146103fb5780632a0217d3146104125780633515039414610432575f5ffd5b8063035b3be2146102b55780630a66d299146102e25780630b4ed0bc14610310578063126c23c4146103385780631398e0761461034d578063149733ec14610378575b5f5ffd5b6102c86102c33660046165f2565b6107ca565b604080519283529015156020830152015b60405180910390f35b6102f56102f0366004616622565b6108b3565b604080519384526020840192909252908201526060016102d9565b61032361031e36600461663d565b610c4b565b604080519283526020830191909152016102d9565b610340610c77565b6040516102d99190616654565b61036061035b36600461663d565b6113fc565b6040516102d99c9b9a999897969594939291906166dc565b61038b6103863660046165f2565b611474565b6040516102d99190616845565b6103ab6103a6366004616a24565b611677565b005b6103ab6103bb366004616a88565b611b06565b6103d36103ce3660046165f2565b611b56565b604080519586526020860194909452928401919091526060830152608082015260a0016102d9565b61040460315481565b6040519081526020016102d9565b61042561042036600461663d565b611c24565b6040516102d99190616bfb565b610404610440366004616ed0565b611f15565b6103ab61045336600461663d565b611fc3565b602554610404565b61047361046e3660046165f2565b612271565b6040516102d99493929190616fc8565b61040461049136600461663d565b61252a565b61049e612549565b6040516102d992919061702f565b610404612764565b6103ab6127cd565b6102f5612dd0565b6103ab6104d23660046165f2565b612e21565b61038b6104e53660046165f2565b612fbc565b6104f26130ce565b6040516102d9929190617085565b61051b73656c98c03bb2b6d57d4b633aea3181e5c25e1de781565b6040516001600160a01b0390911681526020016102d9565b6103ab6134b4565b610425610549366004616622565b61355d565b6103ab6138ae565b61056961056436600461663d565b613a1c565b6040516102d994939291906170f3565b6103ab613e8e565b6103ab61400d565b5f546001600160a01b031661051b565b6103ab6105a73660046165f2565b6143f2565b6105bf6105ba36600461663d565b6144e2565b6040516102d99493929190617192565b6103ab614527565b6104046105e53660046165f2565b614692565b610404602f5481565b60025461051b906001600160a01b031681565b61051b61061436600461663d565b614c1e565b6103ab6106273660046165f2565b614c46565b6103ab61063a3660046165f2565b614cf8565b61072361064d3660046165f2565b602860209081525f918252604091829020805460018201546002830154600384015460048501546005860154600687015460088801546009890154600a8a0154600b8b01548d5161014081018f52600c8d01548152600d8d01549d81019d909d52600e8c01549d8d019d909d52600f8b015460608d015260108b015460808d015260118b015460a08d015260128b015460c08d015260138b015460e08d015260148b01546101008d01526015909a01546101208c0152979a969995989497939692956001600160a01b039092169490939290918c565b6040516102d99c9b9a999897969594939291906171c8565b60075461051b906001600160a01b031681565b6103ab61075c366004617239565b614f7f565b6103ab61076f3660046165f2565b615722565b6104046157d7565b6103ab61078a36600461663d565b615810565b6107a261079d3660046165f2565b6159ba565b6040516102d99190617312565b6103ab6107bd3660046165f2565b615a82565b6104f2615a96565b6001600160a01b0381165f9081526028602052604081205481908082036107f657505f93849350915050565b602a545f905b80156108815782602a610810600184617338565b815481106108205761082061734b565b905f5260205f2090600202015f01541061086f57602a610841600183617338565b815481106108515761085161734b565b905f5260205f209060020201600101548261086c919061735f565b91505b8061087981617372565b9150506107fc565b506001600160a01b0385165f908152602860205260409020601101546108a79082617338565b95600195509350505050565b5f5f5f5f60255490505b8015610c21578460018111156108d5576108d561669f565b60266108e2600184617338565b815481106108f2576108f261734b565b5f91825260209091206003601990920201015460ff1660018111156109195761091961669f565b03610c0f575f602661092c600184617338565b8154811061093c5761093c61734b565b905f5260205f209060190201604051806102000160405290815f82015481526020016001820154815260200160028201548152602001600382015f9054906101000a900460ff1660018111156109945761099461669f565b60018111156109a5576109a561669f565b815260200160048201548152602001600582015481526020016006820154815260200160078201600580602002604051908101604052809291905f905b82821015610a1d578382600202016040518060400160405290815f8201548152602001600182015481525050815260200190600101906109e2565b50505050815260200160118201548152602001601282015f9054906101000a900460ff1615151515815260200160138201805480602002602001604051908101604052809291908181526020015f905b82821015610ace575f848152602090819020604080516060810182526003860290920180546001600160a01b031683526001808201548486015260029091015460a01b6001600160a01b031916918301919091529083529092019101610a6d565b50505050815260200160148201805480602002602001604051908101604052809291908181526020018280548015610b4057602002820191905f5260205f20905f905b825461010083900a900460ff16815260206001928301818104948501949093039092029101808411610b115790505b5050505050815260200160158201805480602002602001604051908101604052809291908181526020018280548015610bbd57602002820191905f5260205f20905f905b82829054906101000a900461ffff1661ffff1681526020019060020190602082600101049283019260010382029150808411610b845790505b5050509183525050601682015460ff16151560208083019190915260178301546040830152601890920154606090910152810151610140820151516101e0909201519096509094509250610c44915050565b80610c1981617372565b9150506108bd565b506040516338570b1360e21b8152600401610c3b90617387565b60405180910390fd5b9193909250565b602a8181548110610c5a575f80fd5b5f9182526020909120600290910201805460019091015490915082565b6040805160148082526102a08201909252606091905f908260208201610280803683370190505090505f826001600160401b03811115610cb957610cb9616908565b604051908082528060200260200182016040528015610ce2578160200160208202803683370190505b5090505f805b6029548110156111eb575f60298281548110610d0657610d0661734b565b5f9182526020808320909101546001600160a01b03168083526028909152604090912060078101549192509015801590610eef5750604080516101a0810182528254815260018301546020808301919091526002840154828401526003840154606083015260048401546080830152600584015460a083015260068401546001600160a01b031660c0830152600784018054845181840281018401909552808552600994610eed9493879360e086019390915f9084015b82821015610e40575f84815260209081902060408051918501805480850284018301835293830184815292939092849290918491840182828015610e2857602002820191905f5260205f20905b81546001600160a01b03168152600190910190602001808311610e0a575b50505050508152505081526020019060010190610dbd565b5050505081526020016008820154815260200160098201548152602001600a8201548152602001600b8201548152602001600c8201604051806101400160405290815f8201548152602001600182015481526020016002820154815260200160038201548152602001600482015481526020016005820154815260200160068201548152602001600782015481526020016008820154815260200160098201548152505081525050611f15565b115b8015610eff5750610eff82615d5f565b156111e1575f5f90505f82600701805480602002602001604051908101604052809291908181526020015f905b82821015610faf575f84815260209081902060408051918501805480850284018301835293830184815292939092849290918491840182828015610f9757602002820191905f5260205f20905b81546001600160a01b03168152600190910190602001808311610f79575b50505050508152505081526020019060010190610f2c565b505082519293505f9150505b600781108015610fca57508181105b156110a8575f838281518110610fe257610fe261734b565b60200260200101515f0151511115611096575f5b8382815181106110085761100861734b565b60200260200101515f015151811015611094575f84838151811061102e5761102e61734b565b60200260200101515f0151828151811061104a5761104a61734b565b6020026020010151905060285f826001600160a01b03166001600160a01b031681526020019081526020015f20600c016008015486611089919061735f565b955050600101610ff6565b505b806110a0816173b2565b915050610fbb565b508987101561111457848988815181106110c4576110c461734b565b60200260200101906001600160a01b031690816001600160a01b031681525050828888815181106110f7576110f761734b565b60209081029190910101528661110c816173b2565b9750506111dd565b5f60015b8b811015611166578982815181106111325761113261734b565b60200260200101518a828151811061114c5761114c61734b565b6020026020010151101561115e578091505b600101611118565b508881815181106111795761117961734b565b60200260200101518411156111db57858a828151811061119b5761119b61734b565b60200260200101906001600160a01b031690816001600160a01b031681525050838982815181106111ce576111ce61734b565b6020026020010181815250505b505b5050505b5050600101610ce8565b506001811115611357575f5b611202600183617338565b811015611355575f61121582600161735f565b90505b8281101561134c578382815181106112325761123261734b565b602002602001015184828151811061124c5761124c61734b565b602002602001015111156113445784818151811061126c5761126c61734b565b60200260200101518583815181106112865761128661734b565b60200260200101518684815181106112a0576112a061734b565b602002602001018784815181106112b9576112b961734b565b6001600160a01b0393841660209182029290920101529116905283518490829081106112e7576112e761734b565b60200260200101518483815181106113015761130161734b565b602002602001015185848151811061131b5761131b61734b565b602002602001018684815181106113345761133461734b565b6020908102919091010191909152525b600101611218565b506001016111f7565b505b5f816001600160401b0381111561137057611370616908565b604051908082528060200260200182016040528015611399578160200160208202803683370190505b5090505f5b828110156113f2578481815181106113b8576113b861734b565b60200260200101518282815181106113d2576113d261734b565b6001600160a01b039092166020928302919091019091015260010161139e565b5095945050505050565b6026818154811061140b575f80fd5b5f918252602090912060199091020180546001820154600283015460038401546004850154600586015460068701546011880154601289015460168a015460178b01546018909b0154999b509799969860ff96871698959794969395929491841693909216918c565b61147c61629d565b6001600160a01b0382165f9081526028602052604081205490036114be5760405163ca1644e560e01b81526001600160a01b0383166004820152602401610c3b565b6001600160a01b038083165f90815260286020908152604080832081516101a081018352815481526001820154818501526002820154818401526003820154606082015260048201546080820152600582015460a0820152600682015490951660c0860152600781018054835181860281018601909452808452919460e087019491929184015b828210156115c8575f848152602090819020604080519185018054808502840183018352938301848152929390928492909184918401828280156115b057602002820191905f5260205f20905b81546001600160a01b03168152600190910190602001808311611592575b50505050508152505081526020019060010190611545565b5050505081526020016008820154815260200160098201548152602001600a8201548152602001600b8201548152602001600c8201604051806101400160405290815f82015481526020016001820154815260200160028201548152602001600382015481526020016004820154815260200160058201548152602001600682015481526020016007820154815260200160088201548152602001600982015481525050815250509050919050565b60045461010090046001600160a01b031633146116a75760405163112b8aab60e01b815260040160405180910390fd5b838511156116f75760405162461bcd60e51b815260206004820152601a60248201527f496e76616c6964207469636b657420636f756e742072616e67650000000000006044820152606401610c3b565b5f805b600581101561172e578381600581106117155761171561734b565b6020020151611724908361735f565b91506001016116fa565b508181111561178a5760405162461bcd60e51b815260206004820152602260248201527f57696e6e657220636f756e74206578636565647320746f74616c2077696e6e65604482015261727360f01b6064820152608401610c3b565b61179387615d91565b602680546001810182555f9182526019027f744a2cf8fd7008e3d53b67916e73460df9fa5214e3ef23dd4259ca09493a359401908860018111156117d9576117d961669f565b036117fb5760238054905f6117ed836173b2565b909155506001820155611814565b60248054905f61180a836173b2565b9091555060018201555b60258054905f611823836173b2565b90915550815560038101805489919060ff1916600183818111156118495761184961669f565b02179055504260028201556004810187905560058082018790556011820184905560128201805460ff19166001908117909155899081111561188d5761188d61669f565b6002811061189d5761189d61734b565b01546006820155856001600160401b038111156118bc576118bc616908565b6040519080825280602002602001820160405280156118e5578160200160208202803683370190505b5080516118fc91601484019160209091019061634c565b50826001600160401b0381111561191557611915616908565b60405190808252806020026020018201604052801561193e578160200160208202803683370190505b5080516119559160158401916020909101906163ed565b505f5b60058110156119e457604051806040016040528087836005811061197e5761197e61734b565b602002015161199090620f42406173ca565b81526020018683600581106119a7576119a761734b565b602002015190526007830182600581106119c3576119c361734b565b82516002919091029190910190815560209091015160019182015501611958565b505f8860018111156119f8576119f861669f565b03611a69576035545f5b81811015611a62575f60368160358160020201805485908110611a2757611a2761734b565b5f918252602080832091909101546001600160a01b031683528201929092526040019020805460ff1916911515919091179055600101611a02565b5050611ad2565b6037545f5b81811015611acf575f6038816035600160020201805485908110611a9457611a9461734b565b5f918252602080832091909101546001600160a01b031683528201929092526040019020805460ff1916911515919091179055600101611a6e565b50505b80546040517f67a7d2f7175358184bb138bd96c3ed1e06b977d25dafac78e16398b243943096905f90a25050505050505050565b6002546001600160a01b03163314611b465760025460405163073e64fd60e21b81523360048201526001600160a01b039091166024820152604401610c3b565b611b51838383615e61565b505050565b5f5f5f5f5f5f611b65876107ca565b5090505f611b7288612271565b50506001600160a01b038a165f9081526028602052604081206012810154600b82015460088301546009840154600290940154959750939550909390929190611bbb878961735f565b611bc5919061735f565b611bcf919061735f565b611bd9919061735f565b611be3919061735f565b611bed9190617338565b6001600160a01b03999099165f9081526028602052604090206009810154600b90910154939a929990985092965091945092505050565b611c2c616481565b6025548210611c4e576040516338570b1360e21b8152600401610c3b90617387565b60268281548110611c6157611c6161734b565b905f5260205f209060190201604051806102000160405290815f82015481526020016001820154815260200160028201548152602001600382015f9054906101000a900460ff166001811115611cb957611cb961669f565b6001811115611cca57611cca61669f565b815260200160048201548152602001600582015481526020016006820154815260200160078201600580602002604051908101604052809291905f905b82821015611d42578382600202016040518060400160405290815f820154815260200160018201548152505081526020019060010190611d07565b50505050815260200160118201548152602001601282015f9054906101000a900460ff1615151515815260200160138201805480602002602001604051908101604052809291908181526020015f905b82821015611df3575f848152602090819020604080516060810182526003860290920180546001600160a01b031683526001808201548486015260029091015460a01b6001600160a01b031916918301919091529083529092019101611d92565b50505050815260200160148201805480602002602001604051908101604052809291908181526020018280548015611e6557602002820191905f5260205f20905f905b825461010083900a900460ff16815260206001928301818104948501949093039092029101808411611e365790505b5050505050815260200160158201805480602002602001604051908101604052809291908181526020018280548015611ee257602002820191905f5260205f20905f905b82829054906101000a900461ffff1661ffff1681526020019060020190602082600101049283019260010382029150808411611ea95790505b5050509183525050601682015460ff16151560208201526017820154604082015260189091015460609091015292915050565b5f80805b8360e001515f81518110611f2f57611f2f61734b565b60200260200101515f015151811015611fbc575f8460e001515f81518110611f5957611f5961734b565b60200260200101515f01518281518110611f7557611f7561734b565b6020908102919091018101516001600160a01b0381165f908152602890925260409091206014015490915015611fb35782611faf816173b2565b9350505b50600101611f19565b5092915050565b60045461010090046001600160a01b03163314611ff35760405163112b8aab60e01b815260040160405180910390fd5b6025548110612015576040516338570b1360e21b8152600401610c3b90617387565b5f602682815481106120295761202961734b565b5f9182526020822060126019909202019081015490925060ff161515900361206457604051631551bac160e21b815260040160405180910390fd5b816027819055505f6026838154811061207f5761207f61734b565b905f5260205f209060190201601301805490509050602683815481106120a7576120a761734b565b905f5260205f209060190201600401548163ffffffff1610156120e5576040516309a7b37b60e31b815263ffffffff82166004820152602401610c3b565b5f602684815481106120f9576120f961734b565b905f5260205f2090601902016011015490505f8163ffffffff161161211c575f5ffd5b604080515f81526020810191829052516121389160349161650d565b505f5b600581101561226a576002546040805160c0810182527f000000000000000000000000000000000000000000000000000000000000000081527f000000000000000000000000000000000000000000000000000000000000000060208083019190915260038284015263ffffffff7f00000000000000000000000000000000000000000000000000000000000000001660608301526064608083015282519081019092525f82526001600160a01b0390921691639b1c385e9160a082019061220290615eae565b8152506040518263ffffffff1660e01b815260040161222191906173e1565b6020604051808303815f875af115801561223d573d5f5f3e3d5ffd5b505050506040513d601f19601f820116820180604052508101906122619190617464565b5060010161213b565b5050505050565b60408051600780825261010082019092525f918291606091829184916020820160e0803683375050506001600160a01b0387165f9081526028602090815260408083206007018054825181850281018501909352808352949550929384939192849084015b82821015612359575f8481526020908190206040805191850180548085028401830183529383018481529293909284929091849184018282801561234157602002820191905f5260205f20905b81546001600160a01b03168152600190910190602001808311612323575b505050505081525050815260200190600101906122d6565b505082519293505f91508190505b60078110801561237657508281105b156124ee575f5f90505f8583815181106123925761239261734b565b60200260200101515f01515111156124db575f5b8583815181106123b8576123b861734b565b60200260200101515f015151811015612469575f8684815181106123de576123de61734b565b60200260200101515f015182815181106123fa576123fa61734b565b6020026020010151905060285f826001600160a01b03166001600160a01b031681526020019081526020015f206001015483612436919061735f565b6001600160a01b0382165f9081526028602052604090206003015490935061245e908961735f565b9750506001016123a6565b5060646008836007811061247f5761247f61734b565b015461248b90836173ca565b612495919061748f565b8783815181106124a7576124a761734b565b6020026020010181815250508682815181106124c5576124c561734b565b6020026020010151836124d8919061735f565b92505b50806124e6816173b2565b915050612367565b506001600160a01b038a165f9081526028602052604090206010015484906125169083617338565b909b909a5094985091965092945050505050565b60348181548110612539575f80fd5b5f91825260209091200154905081565b6029545f90606090829081816001600160401b0381111561256c5761256c616908565b6040519080825280602002602001820160405280156125b057816020015b604080518082019091525f808252602082015281526020019060019003908161258a5790505b5090505f805b838110156126ac5760285f602983815481106125d4576125d461734b565b5f9182526020808320909101546001600160a01b03168352820192909252604001902054156126a4575f61262d602983815481106126145761261461734b565b5f918252602090912001546001600160a01b03166107ca565b50905061263a818761735f565b955060405180604001604052806029848154811061265a5761265a61734b565b5f91825260209182902001546001600160a01b031682520182905284518590859081106126895761268961734b565b6020026020010181905250828061269f906173b2565b935050505b6001016125b6565b505f816001600160401b038111156126c6576126c6616908565b60405190808252806020026020018201604052801561270a57816020015b604080518082019091525f80825260208201528152602001906001900390816126e45790505b5090505f5b82811015612756578381815181106127295761272961734b565b60200260200101518282815181106127435761274361734b565b602090810291909101015260010161270f565b509396939550929350505050565b5f80805b6029548110156127c75760285f602983815481106127885761278861734b565b5f9182526020808320909101546001600160a01b03168352820192909252604001902054156127bf57816127bb816173b2565b9250505b600101612768565b50919050565b60045461010090046001600160a01b031633146127fd5760405163112b8aab60e01b815260040160405180910390fd5b5f6026602754815481106128135761281361734b565b5f91825260208220601160199092020190810154601382015491935091806007850181600202016001015490505f5f5f5f90505f603480548060200260200160405190810160405280929190818152602001828054801561289157602002820191905f5260205f20905b81548152602001906001019080831161287d575b5050505050905087815110156128e95760405162461bcd60e51b815260206004820152601960248201527f496e73756666696369656e742072616e646f6d20776f726473000000000000006044820152606401610c3b565b6128f1616546565b5f5b600581101561295c578a60070181600581106129115761291161734b565b60020201600101548b600701826005811061292e5761292e61734b565b600202015461293d919061748f565b82826005811061294f5761294f61734b565b60200201526001016128f3565b505f5b89811015612d83578883828151811061297a5761297a61734b565b602002602001015161298c91906174a2565b94508a60140185815481106129a3576129a361734b565b5f9182526020918290209181049091015460ff601f9092166101000a9004161580156129cd575083155b15612ad757848b60150182815481106129e8576129e861734b565b905f5260205f2090601091828204019190066002026101000a81548161ffff021916908361ffff160217905550876001612a2291906174b5565b8b6014018681548110612a3757612a3761734b565b905f5260205f2090602091828204019190066101000a81548160ff021916908360ff160217905550818860ff1660058110612a7457612a7461734b565b602002015160285f8d6013018881548110612a9157612a9161734b565b5f91825260208083206003909202909101546001600160a01b0316835282019290925260400181206008018054909190612acc90849061735f565b90915550612d1f9050565b828181518110612ae957612ae961734b565b60209081029190910101519550885f5b81811015612d0f575f8b868581518110612b1557612b1561734b565b60200260200101518389604051602001612b42939291909283526020830191909152604082015260600190565b604051602081830303815290604052805190602001205f1c612b6491906174a2565b9050602660275481548110612b7b57612b7b61734b565b905f5260205f2090601902016014018181548110612b9b57612b9b61734b565b5f9182526020808320908204015460ff601f9092166101000a9004169003612d0657808e6015018581548110612bd357612bd361734b565b905f5260205f2090601091828204019190066002026101000a81548161ffff021916908361ffff1602179055508a6001612c0d91906174b5565b602660275481548110612c2257612c2261734b565b905f5260205f2090601902016014018281548110612c4257612c4261734b565b905f5260205f2090602091828204019190066101000a81548160ff021916908360ff160217905550848b60ff1660058110612c7f57612c7f61734b565b602002015160285f602660275481548110612c9c57612c9c61734b565b905f5260205f2090601902016013018481548110612cbc57612cbc61734b565b5f91825260208083206003909202909101546001600160a01b0316835282019290925260400181206008018054909190612cf790849061735f565b909155505f9750612d0f915050565b50600101612af9565b5084612d1a816173b2565b955050505b86612d2b82600161735f565b148015612d3b575060048860ff16105b15612d7b5787612d4a816174ce565b9850508a6007018860ff1660058110612d6557612d6561734b565b600202016001015487612d78919061735f565b96505b60010161295f565b50895460335560128a01805460ff191690556027546040517fd20e14927c724974c05df49b31a0d0a3b924e844bcfa6116c8260653eb88e11e905f90a250505f6027555050505050505050565b6004545f908190819061010090046001600160a01b03163314612e065760405163112b8aab60e01b815260040160405180910390fd5b602c54602d54612e16828261735f565b925092509250909192565b630bebc2005f612e32600a8361748f565b9050336001600160a01b03841603612e8c5760405162461bcd60e51b815260206004820152601e60248201527f53656c662d726566657272616c7320617265206e6f7420616c6c6f77656400006044820152606401610c3b565b6001600160a01b038316612ee25760405162461bcd60e51b815260206004820152601860248201527f496e76616c696420726566657272616c206164647265737300000000000000006044820152606401610c3b565b335f9081526028602052604090205415612f0f5760405163df4e834f60e01b815260040160405180910390fd5b600754612f27906001600160a01b0316333085615f1f565b6001600160a01b0383165f9081526028602052604081206002018054839290612f5190849061735f565b90915550612f6190508183617338565b602d5f828254612f71919061735f565b90915550612f80905033615f79565b335f81815260286020526040808220429055517fa6462dfddf2559c30940c498ea78e464a320991ecafd929279d567e5a9c044d79190a2505050565b612fc461629d565b6001600160a01b038083165f90815260286020908152604080832081516101a081018352815481526001820154818501526002820154818401526003820154606082015260048201546080820152600582015460a0820152600682015490951660c0860152600781018054835181860281018601909452808452919460e087019491929184015b828210156115c8575f848152602090819020604080519185018054808502840183018352938301848152929390928492909184918401828280156130b657602002820191905f5260205f20905b81546001600160a01b03168152600190910190602001808311613098575b5050505050815250508152602001906001019061304b565b6029546060905f908190815b8181101561313c575f60285f602984815481106130f9576130f961734b565b5f9182526020808320909101546001600160a01b0316835282019290925260400190206015015411156131345782613130816173b2565b9350505b6001016130da565b505f826001600160401b0381111561315657613156616908565b60405190808252806020026020018201604052801561318f57816020015b61317c616564565b8152602001906001900390816131745790505b5090505f83156133f0575f5b838110156132fc575f60285f602984815481106131ba576131ba61734b565b5f9182526020808320909101546001600160a01b0316835282019290925260400190206015015411156132f4576040518060600160405280602983815481106132055761320561734b565b905f5260205f20015f9054906101000a90046001600160a01b03166001600160a01b0316815260200160285f602985815481106132445761324461734b565b905f5260205f20015f9054906101000a90046001600160a01b03166001600160a01b03166001600160a01b031681526020019081526020015f20600a0154815260200160285f6029858154811061329d5761329d61734b565b5f9182526020808320909101546001600160a01b03168352820192909252604001902060150154905283518490849081106132da576132da61734b565b602002602001018190525081806132f0906173b2565b9250505b60010161319b565b505f5b6001835161330d9190617338565b8110156133ee575f61332082600161735f565b90505b83518110156133e55783818151811061333e5761333e61734b565b60200260200101516040015184838151811061335c5761335c61734b565b60200260200101516040015110156133dd578381815181106133805761338061734b565b602002602001015184838151811061339a5761339a61734b565b60200260200101518584815181106133b4576133b461734b565b602002602001018684815181106133cd576133cd61734b565b6020026020010182905282905250505b600101613323565b506001016132ff565b505b5f601e851061340057601e613402565b845b90505f816001600160401b0381111561341d5761341d616908565b60405190808252806020026020018201604052801561345657816020015b613443616564565b81526020019060019003908161343b5790505b5090505f5b828110156134a2578481815181106134755761347561734b565b602002602001015182828151811061348f5761348f61734b565b602090810291909101015260010161345b565b50602f54909890975095505050505050565b6001546001600160a01b031633146135075760405162461bcd60e51b815260206004820152601660248201527526bab9ba10313290383937b837b9b2b21037bbb732b960511b6044820152606401610c3b565b5f8054336001600160a01b0319808316821784556001805490911690556040516001600160a01b0390921692909183917f8be0079c531659141344cd1fd0a4f28419497f9722a3daafe3b4186f6b6457e091a350565b613565616481565b6025545b8015610c21578260018111156135815761358161669f565b602661358e600184617338565b8154811061359e5761359e61734b565b5f91825260209091206003601990920201015460ff1660018111156135c5576135c561669f565b0361389c5760266135d7600183617338565b815481106135e7576135e761734b565b905f5260205f209060190201604051806102000160405290815f82015481526020016001820154815260200160028201548152602001600382015f9054906101000a900460ff16600181111561363f5761363f61669f565b60018111156136505761365061669f565b815260200160048201548152602001600582015481526020016006820154815260200160078201600580602002604051908101604052809291905f905b828210156136c8578382600202016040518060400160405290815f82015481526020016001820154815250508152602001906001019061368d565b50505050815260200160118201548152602001601282015f9054906101000a900460ff1615151515815260200160138201805480602002602001604051908101604052809291908181526020015f905b82821015613779575f848152602090819020604080516060810182526003860290920180546001600160a01b031683526001808201548486015260029091015460a01b6001600160a01b031916918301919091529083529092019101613718565b505050508152602001601482018054806020026020016040519081016040528092919081815260200182805480156137eb57602002820191905f5260205f20905f905b825461010083900a900460ff168152602060019283018181049485019490930390920291018084116137bc5790505b505050505081526020016015820180548060200260200160405190810160405280929190818152602001828054801561386857602002820191905f5260205f20905f905b82829054906101000a900461ffff1661ffff168152602001906002019060208260010104928301926001038202915080841161382f5790505b5050509183525050601682015460ff1615156020820152601782015460408201526018909101546060909101529392505050565b806138a681617372565b915050613569565b5f6138b76130ce565b5080519091505f5b8181101561393357601e602f546138d6919061748f565b60285f8584815181106138eb576138eb61734b565b60200260200101515f01516001600160a01b03166001600160a01b031681526020019081526020015f206009015f828254613926919061735f565b90915550506001016138bf565b506029545f5b81811015613a0d5760285f602983815481106139575761395761734b565b5f9182526020808320909101546001600160a01b0316835282019290925260400190206015015415613a05575f60285f6029848154811061399a5761399a61734b565b5f9182526020808320909101546001600160a01b03168352820192909252604001812060150191909155602980546028918391859081106139dd576139dd61734b565b5f9182526020808320909101546001600160a01b031683528201929092526040019020600a01555b600101613939565b50505f602f819055602e555050565b60605f5f5f5f60268681548110613a3557613a3561734b565b905f5260205f209060190201604051806102000160405290815f82015481526020016001820154815260200160028201548152602001600382015f9054906101000a900460ff166001811115613a8d57613a8d61669f565b6001811115613a9e57613a9e61669f565b815260200160048201548152602001600582015481526020016006820154815260200160078201600580602002604051908101604052809291905f905b82821015613b16578382600202016040518060400160405290815f820154815260200160018201548152505081526020019060010190613adb565b50505050815260200160118201548152602001601282015f9054906101000a900460ff1615151515815260200160138201805480602002602001604051908101604052809291908181526020015f905b82821015613bc7575f848152602090819020604080516060810182526003860290920180546001600160a01b031683526001808201548486015260029091015460a01b6001600160a01b031916918301919091529083529092019101613b66565b50505050815260200160148201805480602002602001604051908101604052809291908181526020018280548015613c3957602002820191905f5260205f20905f905b825461010083900a900460ff16815260206001928301818104948501949093039092029101808411613c0a5790505b5050505050815260200160158201805480602002602001604051908101604052809291908181526020018280548015613cb657602002820191905f5260205f20905f905b82829054906101000a900461ffff1661ffff1681526020019060020190602082600101049283019260010382029150808411613c7d5790505b5050509183525050601682015460ff1615156020820152601782015460408201526018909101546060909101526101008101519091505f906001600160401b03811115613d0557613d05616908565b604051908082528060200260200182016040528015613d5557816020015b604080516080810182525f8082526020808301829052928201819052606082015282525f19909201910181613d235790505b5090505f5b826101000151811015613e71575f83610180015190505f846101600151828481518110613d8957613d8961734b565b602002602001015161ffff1681518110613da557613da561734b565b602002602001015190505f856101400151838581518110613dc857613dc861734b565b602002602001015161ffff1681518110613de457613de461734b565b602002602001015190506040518060800160405280848681518110613e0b57613e0b61734b565b602002602001015161ffff16815260200182604001516001600160a01b0319168152602001825f01516001600160a01b031681526020018360ff16815250858581518110613e5b57613e5b61734b565b6020908102919091010152505050600101613d5a565b508151602083015160609093015191989097509195509350915050565b5f613e97610c77565b80519091505f5b81811015613f29575f838281518110613eb957613eb961734b565b602002602001015190506064600f8360148110613ed857613ed861734b565b0154603154613ee791906173ca565b613ef1919061748f565b6001600160a01b0382165f908152602860205260408120600b018054909190613f1b90849061735f565b909155505050600101613e9e565b506029545f5b818110156140035760285f60298381548110613f4d57613f4d61734b565b5f9182526020808320909101546001600160a01b0316835282019290925260400190206014015415613ffb575f60285f60298481548110613f9057613f9061734b565b5f9182526020808320909101546001600160a01b0316835282019290925260400181206014019190915560298054602891839185908110613fd357613fd361734b565b5f9182526020808320909101546001600160a01b031683528201929092526040019020601301555b600101613f2f565b50505f6031555050565b60026003540361402f5760405162461bcd60e51b8152600401610c3b906174ec565b60026003555f8080808061404233611b56565b6032549499509297509095509350915060ff161515600103614062575f5ffd5b6032805460ff19166001179055600a81101561409c576032805460ff191690556040805163117c468960e21b815290519081900360040190fd5b6007546040516370a0823160e01b81523060048201525f916001600160a01b0316906370a0823190602401602060405180830381865afa1580156140e2573d5f5f3e3d5ffd5b505050506040513d601f19601f820116820180604052508101906141069190617464565b905081811015614134576032805460ff191690556040805163117c468960e21b815290519081900360040190fd5b6007545f906001600160a01b031663a9059cbb33600a6141558760096173ca565b61415f919061748f565b6040516001600160e01b031960e085901b1681526001600160a01b03909216600483015260248201526044016020604051808303815f875af11580156141a7573d5f5f3e3d5ffd5b505050506040513d601f19601f820116820180604052508101906141cb9190617523565b6007549091505f906001600160a01b031663a9059cbb73656c98c03bb2b6d57d4b633aea3181e5c25e1de7614201600a8861748f565b6040516001600160e01b031960e085901b1681526001600160a01b03909216600483015260248201526044016020604051808303815f875af1158015614249573d5f5f3e3d5ffd5b505050506040513d601f19601f8201168201806040525081019061426d9190617523565b90508180156142795750805b156143bf576032805460ff19169055335f90815260286020526040812060110180548a92906142a990849061735f565b9091555050335f90815260286020526040812060100180548992906142cf90849061735f565b9091555050335f908152602860205260408120600f0180548892906142f590849061735f565b9091555050335f908152602860205260408120600b810182905560028101829055600e01805487929061432990849061735f565b9091555050335f908152602860205260408120600981018290556008810154600c90910180549192909161435e90849061735f565b9091555050335f90815260286020526040812060088101829055600d01805486929061438b90849061735f565b909155505060405184907fb6fe44bb1f76da43755ad8760a9f7083782c99721541e49c3f98122d0fe6ba04905f90a26143e3565b6032805460ff1916905560408051630657e52d60e51b815290519081900360040190fd5b50506001600355505050505050565b5f546001600160a01b0316331480159061441757506002546001600160a01b03163314155b15614467573361442e5f546001600160a01b031690565b60025460405163061db9c160e01b81526001600160a01b0393841660048201529183166024830152919091166044820152606401610c3b565b6001600160a01b03811661448e5760405163d92e233d60e01b815260040160405180910390fd5b600280546001600160a01b0319166001600160a01b0383169081179091556040519081527fd1a6a14209a385a964d036e404cb5cfb71f4000cdb03c9366292430787261be69060200160405180910390a150565b602b81815481106144f1575f80fd5b5f91825260209091206004909102018054600182015460028301546003909301546001600160a01b039092169350919060ff1684565b60045461010090046001600160a01b031633146145575760405163112b8aab60e01b815260040160405180910390fd5b6002600354036145795760405162461bcd60e51b8152600401610c3b906174ec565b6002600355602d54602c545f9161458f9161735f565b9050805f036145b15760405163117c468960e21b815260040160405180910390fd5b6007546004805460405163a9059cbb60e01b81526001600160a01b03610100909204821692810192909252602482018490525f92169063a9059cbb906044016020604051808303815f875af115801561460c573d5f5f3e3d5ffd5b505050506040513d601f19601f820116820180604052508101906146309190617523565b905080156146705760405182907fb6fe44bb1f76da43755ad8760a9f7083782c99721541e49c3f98122d0fe6ba04905f90a25f602c819055602d55614689565b604051630657e52d60e51b815260040160405180910390fd5b50506001600355565b6001600160a01b038082165f90815260286020908152604080832081516101a081018352815481526001820154818501526002820154818401526003820154606082015260048201546080820152600582015460a0820152600682015490951660c0860152600781018054835181860281018601909452808452949586958695919460e08601939092909190879084015b828210156147a6575f8481526020908190206040805191850180548085028401830183529383018481529293909284929091849184018282801561478e57602002820191905f5260205f20905b81546001600160a01b03168152600190910190602001808311614770575b50505050508152505081526020019060010190614723565b5050505081526020016008820154815260200160098201548152602001600a8201548152602001600b8201548152602001600c8201604051806101400160405290815f82015481526020016001820154815260200160028201548152602001600382015481526020016004820154815260200160058201548152602001600682015481526020016007820154815260200160088201548152602001600982015481525050815250509050614858616481565b60808201516026545f825b82811015614c11576026818154811061487e5761487e61734b565b905f5260205f209060190201604051806102000160405290815f82015481526020016001820154815260200160028201548152602001600382015f9054906101000a900460ff1660018111156148d6576148d661669f565b60018111156148e7576148e761669f565b815260200160048201548152602001600582015481526020016006820154815260200160078201600580602002604051908101604052809291905f905b8282101561495f578382600202016040518060400160405290815f820154815260200160018201548152505081526020019060010190614924565b50505050815260200160118201548152602001601282015f9054906101000a900460ff1615151515815260200160138201805480602002602001604051908101604052809291908181526020015f905b82821015614a10575f848152602090819020604080516060810182526003860290920180546001600160a01b031683526001808201548486015260029091015460a01b6001600160a01b0319169183019190915290835290920191016149af565b50505050815260200160148201805480602002602001604051908101604052809291908181526020018280548015614a8257602002820191905f5260205f20905f905b825461010083900a900460ff16815260206001928301818104948501949093039092029101808411614a535790505b5050505050815260200160158201805480602002602001604051908101604052809291908181526020018280548015614aff57602002820191905f5260205f20905f905b82829054906101000a900461ffff1661ffff1681526020019060020190602082600101049283019260010382029150808411614ac65790505b5050509183525050601682015460ff1615156020820152601782015460408201526018909101546060909101526101408101515190955091505f5b82811015614c0857896001600160a01b03168661014001518281518110614b6357614b6361734b565b60200260200101515f01516001600160a01b0316148015614ba557508561016001518181518110614b9657614b9661734b565b602002602001015160ff165f14155b15614c00578560e0015160018761016001518381518110614bc857614bc861734b565b6020026020010151614bda9190617542565b60ff1660058110614bed57614bed61734b565b602002015151614bfd908961735f565b97505b600101614b3a565b50600101614863565b5094979650505050505050565b60298181548110614c2d575f80fd5b5f918252602090912001546001600160a01b0316905081565b60045461010090046001600160a01b03163314614c765760405163112b8aab60e01b815260040160405180910390fd5b614c7f81615f79565b6001600160a01b0381165f9081526028602052604090205415614cb55760405163df4e834f60e01b815260040160405180910390fd5b6001600160a01b0381165f81815260286020526040808220429055517fa6462dfddf2559c30940c498ea78e464a320991ecafd929279d567e5a9c044d79190a250565b335f908152602860205260409020600601546001600160a01b031615614d1b5750565b336001600160a01b03821603614d2e5750565b6001600160a01b0381165f908152602860205260408120600501549003614d66575073656c98c03bb2b6d57d4b633aea3181e5c25e1de75b6001600160a01b0381165f908152602860205260408120600701549003614dab576001600160a01b0381165f9081526028602052604081206007018054600101815590525b6001600160a01b0381165f9081526028602052604081206007018054909190614dd657614dd661734b565b5f918252602080832091909101805460018082018355918452828420018054336001600160a01b031991821681179092559084526028909252604090922060060180549091166001600160a01b03841617905581905b6007811015614f50576001600160a01b039182165f90815260286020526040902060060154909116908115614f5057336001600160a01b03831603614eac5760405162461bcd60e51b8152602060048201526016602482015275149959995c9c985b081b1bdbdc0819195d1958dd195960521b6044820152606401610c3b565b6001600160a01b0382165f908152602860205260409020600701548110614ef1576001600160a01b0382165f9081526028602052604081206007018054600101815590525b6001600160a01b0382165f908152602860205260409020600701805482908110614f1d57614f1d61734b565b5f9182526020808320909101805460018181018355918452919092200180546001600160a01b0319163317905501614e2c565b5060405133907f3475bc4d15ce1002e9d617018e5c19dbec62dba4aa69f9ef6986aaba27abb766905f90a25050565b6025548510614fc4576040516338570b1360e21b815260206004820152601060248201526f139bc81b1bdd1d195c9e48199bdd5b9960821b6044820152606401610c3b565b83825114614fe557604051633d1424e960e11b815260040160405180910390fd5b5f60268681548110614ff957614ff961734b565b5f9182526020822060126019909202019081015490925060ff161515900361503457604051631551bac160e21b815260040160405180910390fd5b6005810154601382015461504990879061735f565b11156150685760405163748d32af60e11b815260040160405180910390fd5b5f85826006015461507991906173ca565b90505f83600181111561508e5761508e61669f565b036150b0576007546150ab906001600160a01b0316333084615f1f565b615234565b60018360018111156150c4576150c461669f565b036102b1575f6150d333611b56565b945050505050808211156150fa57604051638b95fd7960e01b815260040160405180910390fd5b335f908152602860205260408120601201805484929061511b90849061735f565b90915550506040805160808101825233815260208101848152429282019283525f60608301818152602b8054600180820183559190935284517f11c44e4875b74d31ff9fd779bf2566af7bd15b87fc985d01f5094b89e3669e4f600490940293840180546001600160a01b0319166001600160a01b0390921691909117815593517f11c44e4875b74d31ff9fd779bf2566af7bd15b87fc985d01f5094b89e3669e5084015594517f11c44e4875b74d31ff9fd779bf2566af7bd15b87fc985d01f5094b89e3669e51830155517f11c44e4875b74d31ff9fd779bf2566af7bd15b87fc985d01f5094b89e3669e529091018054939492939192909160ff191690838181111561522b5761522b61669f565b02179055505050505b335f908152602860205260408120600101805483929061525590849061735f565b9091555050335f908152602860205260408120600301805488929061527b90849061735f565b909155505f90505b845181101561533e57826013016040518060600160405280336001600160a01b031681526020014281526020018784815181106152c2576152c261734b565b6020908102919091018101516001600160a01b03199081169092528354600180820186555f95865294829020845160039092020180549093166001600160a01b0390911617825582015181840155604090910151600290910180546bffffffffffffffffffffffff191660a09290921c91909117905501615283565b5061534885614cf8565b61535133615f79565b85826017015f828254615364919061735f565b9091555050335f90815260286020526040902060040154871115806153985750335f90815260286020526040902060050154155b156153b257335f9081526028602052604090206004018790555b5f600383015460ff1660018111156153cc576153cc61669f565b0361546157335f9081526036602052604081205460ff161515900361545c57335f818152603660205260408120805460ff1916600190811790915560358054918201815582527fcfa4bec1d3298408bb5afcfcd9c430549c5b31f8aa5c5848151c0a55f473c34d0180546001600160a01b03191690921790915560188301805491615456836173b2565b91905055505b6154ec565b335f9081526038602052604081205460ff16151590036154ec57335f818152603860205260408120805460ff1916600190811790915560378054918201815582527f42a7b7dd785cd69714a189dffb3fd7d7174edc9ece837694ce50f7078f7c31ae0180546001600160a01b031916909217909155601883018054916154e6836173b2565b91905055505b335f9081526028602052604090204260059182015560649061550f9083906173ca565b615519919061748f565b602f5f828254615529919061735f565b9091555050600682015461553e9087906173ca565b335f908152602860205260408120601501805490919061555f90849061735f565b9091555050335f908152602860205260408120600a01805488929061558590849061735f565b90915550606490506155988260056173ca565b6155a2919061748f565b60315f8282546155b2919061735f565b909155505060068201546155c79087906173ca565b335f90815260286020526040812060140180549091906155e890849061735f565b9091555050335f908152602860205260408120601301805488929061560e90849061735f565b909155506064905061562182600f6173ca565b61562b919061748f565b602c5f82825461563b919061735f565b909155505f905061564a612764565b905080156156ed575f81606461566185600a6173ca565b61566b919061748f565b615675919061748f565b6040805180820190915242815260208101918252602a80546001810182555f9190915290517fbeced09521047d05b8960b7e7bcc1d1292cf3e4b2a6b63f48335cbde5f7545d260029092029182015590517fbeced09521047d05b8960b7e7bcc1d1292cf3e4b2a6b63f48335cbde5f7545d390910155505b6025546040517fb23e237cf0ae5bee09a1af90ace20250c65fa6252b97915398b2fa6b043e1ed3905f90a25050505050505050565b60045461010090046001600160a01b031633146157525760405163112b8aab60e01b815260040160405180910390fd5b6001600160a01b0381165f9081526028602052604081205490036157945760405163ca1644e560e01b81526001600160a01b0382166004820152602401610c3b565b6001600160a01b0381165f81815260286020526040808220829055517fab0b49b9f201a3ca785f5c35ac4db44981e3bcf9a07c741208ade5334095709b9190a250565b6004545f9061010090046001600160a01b031633146158095760405163112b8aab60e01b815260040160405180910390fd5b50602c5490565b60045461010090046001600160a01b031633146158405760405163112b8aab60e01b815260040160405180910390fd5b6002600354036158625760405162461bcd60e51b8152600401610c3b906174ec565b60026003556007546040516370a0823160e01b81523060048201525f916001600160a01b0316906370a0823190602401602060405180830381865afa1580156158ad573d5f5f3e3d5ffd5b505050506040513d601f19601f820116820180604052508101906158d19190617464565b9050818110156158f45760405163117c468960e21b815260040160405180910390fd5b60075460405163a9059cbb60e01b8152336004820152602481018490525f916001600160a01b03169063a9059cbb906044016020604051808303815f875af1158015615942573d5f5f3e3d5ffd5b505050506040513d601f19601f820116820180604052508101906159669190617523565b90508061598657604051630657e52d60e51b815260040160405180910390fd5b60405183907fb6fe44bb1f76da43755ad8760a9f7083782c99721541e49c3f98122d0fe6ba04905f90a25050600160035550565b6001600160a01b0381165f908152602860209081526040808320600701805482518185028101850190935280835260609492939192909184015b82821015615a77575f84815260209081902060408051918501805480850284018301835293830184815292939092849290918491840182828015615a5f57602002820191905f5260205f20905b81546001600160a01b03168152600190910190602001808311615a41575b505050505081525050815260200190600101906159f4565b505050509050919050565b615a8a61600a565b615a938161605e565b50565b60605f5f615aa2610c77565b80519091505f816001600160401b03811115615ac057615ac0616908565b604051908082528060200260200182016040528015615af957816020015b615ae6616564565b815260200190600190039081615ade5790505b5090505f5b82811015615d50575f848281518110615b1957615b1961734b565b6020908102919091018101516001600160a01b0381165f908152602883526040808220600701805482518187028101870190935280835293955091938493849391849084015b82821015615be2575f84815260209081902060408051918501805480850284018301835293830184815292939092849290918491840182828015615bca57602002820191905f5260205f20905b81546001600160a01b03168152600190910190602001808311615bac575b50505050508152505081526020019060010190615b5f565b509293505f925050505b600781108015615bfc5750815181105b15615cfd575f5b828281518110615c1557615c1561734b565b60200260200101515f015151811015615cea575f838381518110615c3b57615c3b61734b565b60200260200101515f01518281518110615c5757615c5761734b565b6020026020010151905060285f826001600160a01b03166001600160a01b031681526020019081526020015f20600c01600801545f14615ce1576001600160a01b0381165f90815260286020526040902060140154615cb6908761735f565b6001600160a01b0382165f90815260286020526040902060130154909650615cde908661735f565b94505b50600101615c03565b5080615cf5816173b2565b915050615bec565b506040518060600160405280856001600160a01b0316815260200183815260200184815250868681518110615d3457615d3461734b565b6020026020010181905250505050508080600101915050615afe565b50603154909590945092505050565b6001600160a01b0381165f908152602860205260408120600501544290615d8a9062278d009061735f565b1192915050565b6025545b8015615e5d57816001811115615dad57615dad61669f565b6026615dba600184617338565b81548110615dca57615dca61734b565b5f91825260209091206003601990920201015460ff166001811115615df157615df161669f565b03615e4b576026615e03600183617338565b81548110615e1357615e1361734b565b5f91825260209091206012601990920201015460ff161515600103615e4b5760405163ab2df6a960e01b815260040160405180910390fd5b80615e5581617372565b915050615d95565b5050565b5f5b81811015615ea8576034838383818110615e7f57615e7f61734b565b8354600180820186555f9586526020958690209290950293909301359201919091555001615e63565b50505050565b60607f92fd13387c7fe7befbc38d303d6468778fb9731bc4583f17d92989c6fcfdeaaa82604051602401615ee791511515815260200190565b60408051601f198184030181529190526020810180516001600160e01b03166001600160e01b03199093169290921790915292915050565b604080516001600160a01b0385811660248301528416604482015260648082018490528251808303909101815260849091019091526020810180516001600160e01b03166323b872dd60e01b179052615ea8908590616106565b6001600160a01b0381165f90815260286020526040902060050154158015615fb657506001600160a01b0381165f90815260286020526040902054155b15615a9357602980546001810182555f919091527fcb7c14ce178f56e2e8d86ab33ebc0ae081ba8556a00cd122038841867181caac0180546001600160a01b0383166001600160a01b031990911617905550565b5f546001600160a01b0316331461605c5760405162461bcd60e51b815260206004820152601660248201527527b7363c9031b0b63630b1363290313c9037bbb732b960511b6044820152606401610c3b565b565b336001600160a01b038216036160b65760405162461bcd60e51b815260206004820152601760248201527f43616e6e6f74207472616e7366657220746f2073656c660000000000000000006044820152606401610c3b565b600180546001600160a01b0319166001600160a01b038381169182179092555f8054604051929316917fed8889f560326eb138920d842192f0eb3dd22b4f139c87a2c57538e05bae12789190a350565b5f61611a6001600160a01b03841683616167565b905080515f1415801561613e57508080602001905181019061613c9190617523565b155b15611b5157604051635274afe760e01b81526001600160a01b0384166004820152602401610c3b565b606061617483835f61617d565b90505b92915050565b6060814710156161a25760405163cd78605960e01b8152306004820152602401610c3b565b5f5f856001600160a01b031684866040516161bd919061755b565b5f6040518083038185875af1925050503d805f81146161f7576040519150601f19603f3d011682016040523d82523d5f602084013e6161fc565b606091505b509150915061620c868383616218565b925050505b9392505050565b60608261622d5761622882616274565b616211565b815115801561624457506001600160a01b0384163b155b1561626d57604051639996b31560e01b81526001600160a01b0385166004820152602401610c3b565b5080616211565b8051156162845780518082602001fd5b604051630a12f52160e11b815260040160405180910390fd5b604051806101a001604052805f81526020015f81526020015f81526020015f81526020015f81526020015f81526020015f6001600160a01b03168152602001606081526020015f81526020015f81526020015f81526020015f81526020016163476040518061014001604052805f81526020015f81526020015f81526020015f81526020015f81526020015f81526020015f81526020015f81526020015f81526020015f81525090565b905290565b828054828255905f5260205f2090601f016020900481019282156163dd579160200282015f5b838211156163af57835183826101000a81548160ff021916908360ff16021790555092602001926001016020815f01049283019260010302616372565b80156163db5782816101000a81549060ff02191690556001016020815f010492830192600103026163af565b505b506163e992915061658b565b5090565b828054828255905f5260205f2090600f016010900481019282156163dd579160200282015f5b8382111561645357835183826101000a81548161ffff021916908361ffff1602179055509260200192600201602081600101049283019260010302616413565b80156163db5782816101000a81549061ffff0219169055600201602081600101049283019260010302616453565b6040518061020001604052805f81526020015f81526020015f81526020015f60018111156164b1576164b161669f565b81526020015f81526020015f81526020015f81526020016164d061659f565b81526020015f81526020015f151581526020016060815260200160608152602001606081526020015f151581526020015f81526020015f81525090565b828054828255905f5260205f209081019282156163dd579160200282015b828111156163dd57825182559160200191906001019061652b565b6040518060a001604052806005906020820280368337509192915050565b60405180606001604052805f6001600160a01b031681526020015f81526020015f81525090565b5b808211156163e9575f815560010161658c565b6040518060a001604052806005905b604080518082019091525f80825260208201528152602001906001900390816165ae5790505090565b80356001600160a01b03811681146165ed575f5ffd5b919050565b5f60208284031215616602575f5ffd5b616174826165d7565b60028110615a93575f5ffd5b80356165ed8161660b565b5f60208284031215616632575f5ffd5b81356162118161660b565b5f6020828403121561664d575f5ffd5b5035919050565b602080825282518282018190525f918401906040840190835b818110156166945783516001600160a01b031683526020938401939092019160010161666d565b509095945050505050565b634e487b7160e01b5f52602160045260245ffd5b60028110615a9357634e487b7160e01b5f52602160045260245ffd5b6166d8816166b3565b9052565b8c8152602081018c9052604081018b905261018081016166fb8b6166b3565b606082019a909a52608081019890985260a088019690965260c087019490945260e086019290925215156101008501521515610120840152610140830152610160909101529392505050565b5f82825180855260208501945060208160051b830101602085015f5b838110156167d357848303601f19018852815151602080855281518186018190529101905f9060408601905b808310156167ba5783516001600160a01b03168252602093840193600193909301929091019061678f565b5060209a8b019a90955093909301925050600101616763565b50909695505050505050565b805182526020810151602083015260408101516040830152606081015160608301526080810151608083015260a081015160a083015260c081015160c083015260e081015160e08301526101008101516101008301526101208101516101208301525050565b6020815281516020820152602082015160408201526040820151606082015260608201516080820152608082015160a082015260a082015160c08201525f60c083015161689d60e08401826001600160a01b03169052565b5060e08301516102c06101008401526168ba6102e0840182616747565b90506101008401516101208401526101208401516101408401526101408401516101608401526101608401516101808401526101808401516169006101a08501826167df565b509392505050565b634e487b7160e01b5f52604160045260245ffd5b604051602081016001600160401b038111828210171561693e5761693e616908565b60405290565b60405161014081016001600160401b038111828210171561693e5761693e616908565b6040516101a081016001600160401b038111828210171561693e5761693e616908565b604051601f8201601f191681016001600160401b03811182821017156169b2576169b2616908565b604052919050565b5f82601f8301126169c9575f5ffd5b60405160a081016001600160401b03811182821017156169eb576169eb616908565b6040528060a08401858111156169ff575f5ffd5b845b81811015616a19578035835260209283019201616a01565b509195945050505050565b5f5f5f5f5f5f6101c08789031215616a3a575f5ffd5b8635616a458161660b565b95506020870135945060408701359350616a6288606089016169ba565b9250616a728861010089016169ba565b959894975092959194936101a090920135925050565b5f5f5f60408486031215616a9a575f5ffd5b8335925060208401356001600160401b03811115616ab6575f5ffd5b8401601f81018613616ac6575f5ffd5b80356001600160401b03811115616adb575f5ffd5b8660208260051b8401011115616aef575f5ffd5b939660209190910195509293505050565b805f5b6005811015615ea8578151805185526020908101518186015260409094019390910190600101616b03565b5f8151808452602084019350602083015f5b82811015616b8a57815180516001600160a01b03168752602080820151818901526040918201516001600160a01b0319169188019190915260609096019590910190600101616b40565b5093949350505050565b5f8151808452602084019350602083015f5b82811015616b8a57815160ff16865260209586019590910190600101616ba6565b5f8151808452602084019350602083015f5b82811015616b8a57815161ffff16865260209586019590910190600101616bd9565b602081528151602082015260208201516040820152604082015160608201525f6060830151616c2d60808401826166cf565b50608083015160a083015260a083015160c083015260c083015160e083015260e0830151616c5f610100840182616b00565b506101008301516102408301526101208301511515610260830152610140830151610320610280840152616c97610340840182616b2e565b9050610160840151601f19848303016102a0850152616cb68282616b94565b915050610180840151601f19848303016102c0850152616cd68282616bc7565b9150506101a0840151616cee6102e085018215159052565b506101c08401516103008401526101e090930151610320909201919091525090565b5f6001600160401b03821115616d2857616d28616908565b5060051b60200190565b5f82601f830112616d41575f5ffd5b8135616d54616d4f82616d10565b61698a565b8082825260208201915060208360051b860101925085831115616d75575f5ffd5b602085015b838110156113f25780356001600160401b03811115616d97575f5ffd5b86016020818903601f19011215616dac575f5ffd5b616db461691c565b60208201356001600160401b03811115616dcc575f5ffd5b60208184010192505088601f830112616de3575f5ffd5b8135616df1616d4f82616d10565b8082825260208201915060208360051b86010192508b831115616e12575f5ffd5b6020850194505b82851015616e3b57616e2a856165d7565b825260209485019490910190616e19565b8352505084525060209283019201616d7a565b5f6101408284031215616e5f575f5ffd5b616e67616944565b823581526020808401359082015260408084013590820152606080840135908201526080808401359082015260a0808401359082015260c0808401359082015260e080840135908201526101008084013590820152610120928301359281019290925250919050565b5f60208284031215616ee0575f5ffd5b81356001600160401b03811115616ef5575f5ffd5b82016102c08185031215616f07575f5ffd5b616f0f616967565b813581526020808301359082015260408083013590820152606080830135908201526080808301359082015260a08083013590820152616f5160c083016165d7565b60c082015260e08201356001600160401b03811115616f6e575f5ffd5b616f7a86828501616d32565b60e0830152506101008281013590820152610120808301359082015261014080830135908201526101608083013590820152616fba856101808401616e4e565b610180820152949350505050565b5f608082018683528560208401526080604084015280855180835260a0850191506020870192505f5b8181101561700f578351835260209384019390920191600101616ff1565b505083810360608501526170238186616747565b98975050505050505050565b5f60408201848352604060208401528084518083526060850191506020860192505f5b818110156167d357835180516001600160a01b031684526020908101518185015290930192604090920191600101617052565b604080825283519082018190525f9060208501906060840190835b818110156170e057835180516001600160a01b031684526020808201518186015260409182015191850191909152909301926060909201916001016170a0565b5050602093909301939093525092915050565b608080825285519082018190525f90602087019060a0840190835b81811015617169578351805161ffff1684526020808201516001600160a01b031916818601526040808301516001600160a01b03169086015260609182015160ff16918501919091529093019260809092019160010161710e565b5050809250505084602083015283604083015261718960608301846166cf565b95945050505050565b6001600160a01b03851681526020810184905260408101839052608081016171b9836166b3565b82606083015295945050505050565b5f6102a0820190508d82528c60208301528b60408301528a60608301528960808301528860a083015260018060a01b03881660c08301528660e08301528561010083015284610120830152836101408301526172286101608301846167df565b9d9c50505050505050505050505050565b5f5f5f5f5f60a0868803121561724d575f5ffd5b8535945060208601359350617264604087016165d7565b925060608601356001600160401b0381111561727e575f5ffd5b8601601f8101881361728e575f5ffd5b803561729c616d4f82616d10565b8082825260208201915060208360051b85010192508a8311156172bd575f5ffd5b6020840193505b828410156172f45783356001600160a01b0319811681146172e3575f5ffd5b8252602093840193909101906172c4565b94506173069250505060808701616617565b90509295509295909350565b602081525f6161746020830184616747565b634e487b7160e01b5f52601160045260245ffd5b8181038181111561617757616177617324565b634e487b7160e01b5f52603260045260245ffd5b8082018082111561617757616177617324565b5f8161738057617380617324565b505f190190565b602080825260119082015270139bc8081b1bdd1d195c9e48199bdd5b99607a1b604082015260600190565b5f600182016173c3576173c3617324565b5060010190565b808202811582820484141761617757616177617324565b60208152815160208201526020820151604082015261ffff604083015116606082015263ffffffff606083015116608082015263ffffffff60808301511660a08201525f60a083015160c08084015280518060e0850152806020830161010086015e5f6101008286010152610100601f19601f8301168501019250505092915050565b5f60208284031215617474575f5ffd5b5051919050565b634e487b7160e01b5f52601260045260245ffd5b5f8261749d5761749d61747b565b500490565b5f826174b0576174b061747b565b500690565b60ff818116838216019081111561617757616177617324565b5f60ff821660ff81036174e3576174e3617324565b60010192915050565b6020808252601f908201527f5265656e7472616e637947756172643a207265656e7472616e742063616c6c00604082015260600190565b5f60208284031215617533575f5ffd5b81518015158114616211575f5ffd5b60ff828116828216039081111561617757616177617324565b5f82518060208501845e5f92019182525091905056fea26469706673582212200fbd16a6becc1794d53c9c7731a52ac3bd308f24f057317643cacc77cce5bd1864736f6c634300081c0033","linkReferences":{}},"methodIdentifiers":{"DEFAULT_REFERRER()":"781e65e3","Draw(uint256)":"3fd10e0b","GetLatestLottery(uint8)":"7decf333","GetLatestLotteryTicketRoundCustomerCount(uint8)":"0a66d299","GetLotteryById(uint256)":"2a0217d3","GetLotteryCount()":"4450a45f","GetPremiumAccount(address)":"149733ec","GetPremiumAccountsCounts()":"564c9e4b","PerformDraw()":"581ce0b8","WithDrawRewardBaalance()":"8c76d752","acceptOwnership()":"79ba5097","addPremiumAccount(address)":"a3957193","addPremiumAccountWithReferral(address)":"5ec8a3de","addReferee(address)":"a7039843","availableReferres((uint256,uint256,uint256,uint256,uint256,uint256,address,(address[])[],uint256,uint256,uint256,uint256,(uint256,uint256,uint256,uint256,uint256,uint256,uint256,uint256,uint256,uint256)))":"35150394","calculateTopLeader()":"126c23c4","chainLinkRandomWords(uint256)":"5189a0bf","createLottery(uint8,uint256,uint256,uint256[5],uint256[5],uint256)":"17a9b529","distributeTopBuyersAmounts()":"82d23be9","distributeTopLeadersAmounts()":"8bb2c92e","getAllRewardBalance(address)":"2116d031","getLotteryReferralAmountByUser(address)":"45ecdc19","getLotteryWinningAmountByUser(address)":"9640bcd1","getOwnerBalance()":"590791f2","getOwnerTax()":"d9d6beea","getPremiumReserve()":"5445bfb9","getPremiumRewardBalance(address)":"035b3be2","getTop20Leaders()":"ffbf5af2","getTopBuyerList()":"760a23f1","getUnilevelReferrals(address)":"e838fa81","getUser(address)":"6f77926b","getWinnersList(uint256)":"83a2a432","lotteries(uint256)":"1398e076","owner()":"8da5cb5b","premiumTaxs(uint256)":"0b4ed0bc","purchaseTicket(uint256,uint256,address,bytes12[],uint8)":"b0b9d824","rawFulfillRandomWords(uint256,uint256[])":"1fe543e3","removePremiumAccount(address)":"b5827622","rewardAmountSpendList(uint256)":"9280f225","s_vrfCoordinator()":"9eccacf6","setCoordinator(address)":"8ea98117","topBuyerAmount()":"9a1fa0fe","topLeaderAmount()":"2667cc6d","transferOwnership(address)":"f2fde38b","usdtToken()":"a98ad46c","userList(uint256)":"9f4216e8","users(address)":"a87430ba","withdrawAmountByOwner(uint256)":"e80c4c58","withdrawOwnerBalance()":"941b80ac"},"id":34}