{
    "abi": [
        {
            "type": "constructor",
            "inputs": [
                {
                    "name": "subscriptionId",
                    "type": "uint256",
                    "internalType": "uint256"
                },
                {
                    "name": "gasLane",
                    "type": "bytes32",
                    "internalType": "bytes32"
                },
                {
                    "name": "callbackGasLimit",
                    "type": "uint32",
                    "internalType": "uint32"
                },
                {
                    "name": "vrfCoordinatorV2",
                    "type": "address",
                    "internalType": "address"
                },
                {
                    "name": "_usdtToken",
                    "type": "address",
                    "internalType": "address"
                }
            ],
            "stateMutability": "nonpayable"
        },
        {
            "type": "function",
            "name": "Draw",
            "inputs": [
                {
                    "name": "lotteryId",
                    "type": "uint256",
                    "internalType": "uint256"
                }
            ],
            "outputs": [],
            "stateMutability": "nonpayable"
        },
        {
            "type": "function",
            "name": "GetLatestLottery",
            "inputs": [
                {
                    "name": "_type",
                    "type": "uint8",
                    "internalType": "enum Lottery.LotteryType"
                }
            ],
            "outputs": [
                {
                    "name": "",
                    "type": "tuple",
                    "internalType": "struct Lottery.LotteryRound",
                    "components": [
                        {
                            "name": "id",
                            "type": "uint256",
                            "internalType": "uint256"
                        },
                        {
                            "name": "roundId",
                            "type": "uint256",
                            "internalType": "uint256"
                        },
                        {
                            "name": "createdAt",
                            "type": "uint256",
                            "internalType": "uint256"
                        },
                        {
                            "name": "lotteryType",
                            "type": "uint8",
                            "internalType": "enum Lottery.LotteryType"
                        },
                        {
                            "name": "minTicketCount",
                            "type": "uint256",
                            "internalType": "uint256"
                        },
                        {
                            "name": "maxTicketCount",
                            "type": "uint256",
                            "internalType": "uint256"
                        },
                        {
                            "name": "ticketPrice",
                            "type": "uint256",
                            "internalType": "uint256"
                        },
                        {
                            "name": "prizesAndWinners",
                            "type": "tuple[5]",
                            "internalType": "struct Lottery.WinnerPrize[5]",
                            "components": [
                                {
                                    "name": "prizeAmount",
                                    "type": "uint256",
                                    "internalType": "uint256"
                                },
                                {
                                    "name": "winnerCount",
                                    "type": "uint256",
                                    "internalType": "uint256"
                                }
                            ]
                        },
                        {
                            "name": "totalWinners",
                            "type": "uint256",
                            "internalType": "uint256"
                        },
                        {
                            "name": "isActive",
                            "type": "bool",
                            "internalType": "bool"
                        },
                        {
                            "name": "tickets",
                            "type": "tuple[]",
                            "internalType": "struct Lottery.Ticket[]",
                            "components": [
                                {
                                    "name": "customer",
                                    "type": "address",
                                    "internalType": "address"
                                },
                                {
                                    "name": "timestamp",
                                    "type": "uint256",
                                    "internalType": "uint256"
                                },
                                {
                                    "name": "ticketString",
                                    "type": "bytes12",
                                    "internalType": "bytes12"
                                }
                            ]
                        },
                        {
                            "name": "winners",
                            "type": "uint8[]",
                            "internalType": "uint8[]"
                        },
                        {
                            "name": "winningTicketNumbers",
                            "type": "uint16[]",
                            "internalType": "uint16[]"
                        },
                        {
                            "name": "isDistributed",
                            "type": "bool",
                            "internalType": "bool"
                        },
                        {
                            "name": "totalticketPurchased",
                            "type": "uint256",
                            "internalType": "uint256"
                        }
                    ]
                }
            ],
            "stateMutability": "view"
        },
        {
            "type": "function",
            "name": "GetLatestLotteryTicketRoundCustomerCount",
            "inputs": [
                {
                    "name": "_type",
                    "type": "uint8",
                    "internalType": "enum Lottery.LotteryType"
                }
            ],
            "outputs": [
                {
                    "name": "round",
                    "type": "uint256",
                    "internalType": "uint256"
                },
                {
                    "name": "ticketCount",
                    "type": "uint256",
                    "internalType": "uint256"
                },
                {
                    "name": "customerCount",
                    "type": "uint256",
                    "internalType": "uint256"
                }
            ],
            "stateMutability": "view"
        },
        {
            "type": "function",
            "name": "GetLotteryById",
            "inputs": [
                {
                    "name": "lotteryId",
                    "type": "uint256",
                    "internalType": "uint256"
                }
            ],
            "outputs": [
                {
                    "name": "",
                    "type": "tuple",
                    "internalType": "struct Lottery.LotteryRound",
                    "components": [
                        {
                            "name": "id",
                            "type": "uint256",
                            "internalType": "uint256"
                        },
                        {
                            "name": "roundId",
                            "type": "uint256",
                            "internalType": "uint256"
                        },
                        {
                            "name": "createdAt",
                            "type": "uint256",
                            "internalType": "uint256"
                        },
                        {
                            "name": "lotteryType",
                            "type": "uint8",
                            "internalType": "enum Lottery.LotteryType"
                        },
                        {
                            "name": "minTicketCount",
                            "type": "uint256",
                            "internalType": "uint256"
                        },
                        {
                            "name": "maxTicketCount",
                            "type": "uint256",
                            "internalType": "uint256"
                        },
                        {
                            "name": "ticketPrice",
                            "type": "uint256",
                            "internalType": "uint256"
                        },
                        {
                            "name": "prizesAndWinners",
                            "type": "tuple[5]",
                            "internalType": "struct Lottery.WinnerPrize[5]",
                            "components": [
                                {
                                    "name": "prizeAmount",
                                    "type": "uint256",
                                    "internalType": "uint256"
                                },
                                {
                                    "name": "winnerCount",
                                    "type": "uint256",
                                    "internalType": "uint256"
                                }
                            ]
                        },
                        {
                            "name": "totalWinners",
                            "type": "uint256",
                            "internalType": "uint256"
                        },
                        {
                            "name": "isActive",
                            "type": "bool",
                            "internalType": "bool"
                        },
                        {
                            "name": "tickets",
                            "type": "tuple[]",
                            "internalType": "struct Lottery.Ticket[]",
                            "components": [
                                {
                                    "name": "customer",
                                    "type": "address",
                                    "internalType": "address"
                                },
                                {
                                    "name": "timestamp",
                                    "type": "uint256",
                                    "internalType": "uint256"
                                },
                                {
                                    "name": "ticketString",
                                    "type": "bytes12",
                                    "internalType": "bytes12"
                                }
                            ]
                        },
                        {
                            "name": "winners",
                            "type": "uint8[]",
                            "internalType": "uint8[]"
                        },
                        {
                            "name": "winningTicketNumbers",
                            "type": "uint16[]",
                            "internalType": "uint16[]"
                        },
                        {
                            "name": "isDistributed",
                            "type": "bool",
                            "internalType": "bool"
                        },
                        {
                            "name": "totalticketPurchased",
                            "type": "uint256",
                            "internalType": "uint256"
                        }
                    ]
                }
            ],
            "stateMutability": "view"
        },
        {
            "type": "function",
            "name": "GetLotteryCount",
            "inputs": [],
            "outputs": [
                {
                    "name": "",
                    "type": "uint256",
                    "internalType": "uint256"
                }
            ],
            "stateMutability": "view"
        },
        {
            "type": "function",
            "name": "GetPremiumAccount",
            "inputs": [
                {
                    "name": "_user",
                    "type": "address",
                    "internalType": "address"
                }
            ],
            "outputs": [
                {
                    "name": "",
                    "type": "tuple",
                    "internalType": "struct Lottery.User",
                    "components": [
                        {
                            "name": "premium",
                            "type": "uint256",
                            "internalType": "uint256"
                        },
                        {
                            "name": "firstLottery",
                            "type": "uint256",
                            "internalType": "uint256"
                        },
                        {
                            "name": "lastTicketPurchased",
                            "type": "uint256",
                            "internalType": "uint256"
                        },
                        {
                            "name": "referrerList",
                            "type": "address[7]",
                            "internalType": "address[7]"
                        },
                        {
                            "name": "directReferress",
                            "type": "address[]",
                            "internalType": "address[]"
                        },
                        {
                            "name": "winningAmount",
                            "type": "uint256",
                            "internalType": "uint256"
                        },
                        {
                            "name": "availableTax",
                            "type": "tuple",
                            "internalType": "struct Lottery.UserTax",
                            "components": [
                                {
                                    "name": "refTax",
                                    "type": "uint256",
                                    "internalType": "uint256"
                                },
                                {
                                    "name": "premiumTax",
                                    "type": "uint256",
                                    "internalType": "uint256"
                                },
                                {
                                    "name": "premiumReferralTax",
                                    "type": "uint256",
                                    "internalType": "uint256"
                                },
                                {
                                    "name": "topBuyerTax",
                                    "type": "uint256",
                                    "internalType": "uint256"
                                },
                                {
                                    "name": "topLeaderTax",
                                    "type": "uint256",
                                    "internalType": "uint256"
                                },
                                {
                                    "name": "winningAmount",
                                    "type": "uint256",
                                    "internalType": "uint256"
                                }
                            ]
                        },
                        {
                            "name": "purchasedTickets",
                            "type": "tuple",
                            "internalType": "struct Lottery.PurchasedTickets",
                            "components": [
                                {
                                    "name": "topBuyerTickets",
                                    "type": "uint256",
                                    "internalType": "uint256"
                                },
                                {
                                    "name": "topBuyerCost",
                                    "type": "uint256",
                                    "internalType": "uint256"
                                },
                                {
                                    "name": "topLeaderTickets",
                                    "type": "uint256",
                                    "internalType": "uint256"
                                },
                                {
                                    "name": "topLeaderRefLevel1Tickets",
                                    "type": "uint256",
                                    "internalType": "uint256"
                                },
                                {
                                    "name": "topLeaderRefLevelallTickets",
                                    "type": "uint256",
                                    "internalType": "uint256"
                                },
                                {
                                    "name": "topLeaderRefLevelallCost",
                                    "type": "uint256",
                                    "internalType": "uint256"
                                }
                            ]
                        }
                    ]
                }
            ],
            "stateMutability": "view"
        },
        {
            "type": "function",
            "name": "PerformDraw",
            "inputs": [],
            "outputs": [],
            "stateMutability": "nonpayable"
        },
        {
            "type": "function",
            "name": "WithDrawRewardBaalance",
            "inputs": [],
            "outputs": [],
            "stateMutability": "nonpayable"
        },
        {
            "type": "function",
            "name": "acceptOwnership",
            "inputs": [],
            "outputs": [],
            "stateMutability": "nonpayable"
        },
        {
            "type": "function",
            "name": "addPremiumAccount",
            "inputs": [
                {
                    "name": "_user",
                    "type": "address",
                    "internalType": "address"
                }
            ],
            "outputs": [],
            "stateMutability": "nonpayable"
        },
        {
            "type": "function",
            "name": "addPremiumAccountWithReferral",
            "inputs": [
                {
                    "name": "referral",
                    "type": "address",
                    "internalType": "address"
                }
            ],
            "outputs": [],
            "stateMutability": "nonpayable"
        },
        {
            "type": "function",
            "name": "chainLinkRandomWords",
            "inputs": [
                {
                    "name": "",
                    "type": "uint256",
                    "internalType": "uint256"
                }
            ],
            "outputs": [
                {
                    "name": "",
                    "type": "uint256",
                    "internalType": "uint256"
                }
            ],
            "stateMutability": "view"
        },
        {
            "type": "function",
            "name": "changeOperator",
            "inputs": [
                {
                    "name": "_operator",
                    "type": "address",
                    "internalType": "address"
                }
            ],
            "outputs": [],
            "stateMutability": "nonpayable"
        },
        {
            "type": "function",
            "name": "createLottery",
            "inputs": [
                {
                    "name": "_type",
                    "type": "uint8",
                    "internalType": "enum Lottery.LotteryType"
                },
                {
                    "name": "_minTicketCount",
                    "type": "uint256",
                    "internalType": "uint256"
                },
                {
                    "name": "_maxTicketCount",
                    "type": "uint256",
                    "internalType": "uint256"
                },
                {
                    "name": "_prizeAmounts",
                    "type": "uint256[5]",
                    "internalType": "uint256[5]"
                },
                {
                    "name": "_winnerCounts",
                    "type": "uint256[5]",
                    "internalType": "uint256[5]"
                },
                {
                    "name": "_totalWinners",
                    "type": "uint256",
                    "internalType": "uint256"
                }
            ],
            "outputs": [],
            "stateMutability": "nonpayable"
        },
        {
            "type": "function",
            "name": "distributeTopBuyersAmounts",
            "inputs": [],
            "outputs": [],
            "stateMutability": "nonpayable"
        },
        {
            "type": "function",
            "name": "distributeTopLeadersAmounts",
            "inputs": [],
            "outputs": [],
            "stateMutability": "nonpayable"
        },
        {
            "type": "function",
            "name": "getLotteryWinningAmountByUser",
            "inputs": [
                {
                    "name": "userAddress",
                    "type": "address",
                    "internalType": "address"
                }
            ],
            "outputs": [
                {
                    "name": "",
                    "type": "uint256",
                    "internalType": "uint256"
                }
            ],
            "stateMutability": "view"
        },
        {
            "type": "function",
            "name": "getOwnerBalance",
            "inputs": [],
            "outputs": [
                {
                    "name": "",
                    "type": "uint256",
                    "internalType": "uint256"
                },
                {
                    "name": "",
                    "type": "uint256",
                    "internalType": "uint256"
                },
                {
                    "name": "",
                    "type": "uint256",
                    "internalType": "uint256"
                }
            ],
            "stateMutability": "view"
        },
        {
            "type": "function",
            "name": "getOwnerTax",
            "inputs": [],
            "outputs": [
                {
                    "name": "",
                    "type": "uint256",
                    "internalType": "uint256"
                }
            ],
            "stateMutability": "view"
        },
        {
            "type": "function",
            "name": "getPremiumReserve",
            "inputs": [],
            "outputs": [
                {
                    "name": "",
                    "type": "uint256",
                    "internalType": "uint256"
                },
                {
                    "name": "",
                    "type": "tuple[]",
                    "internalType": "struct Lottery.PremiumUsers[]",
                    "components": [
                        {
                            "name": "user",
                            "type": "address",
                            "internalType": "address"
                        },
                        {
                            "name": "amount",
                            "type": "uint256",
                            "internalType": "uint256"
                        }
                    ]
                }
            ],
            "stateMutability": "view"
        },
        {
            "type": "function",
            "name": "getPremiumRewardBalance",
            "inputs": [
                {
                    "name": "_user",
                    "type": "address",
                    "internalType": "address"
                }
            ],
            "outputs": [
                {
                    "name": "",
                    "type": "uint256",
                    "internalType": "uint256"
                },
                {
                    "name": "",
                    "type": "bool",
                    "internalType": "bool"
                }
            ],
            "stateMutability": "view"
        },
        {
            "type": "function",
            "name": "getTop20Leaders",
            "inputs": [],
            "outputs": [
                {
                    "name": "",
                    "type": "tuple[]",
                    "internalType": "struct Lottery.Leader[]",
                    "components": [
                        {
                            "name": "user",
                            "type": "address",
                            "internalType": "address"
                        },
                        {
                            "name": "ticket",
                            "type": "uint256",
                            "internalType": "uint256"
                        },
                        {
                            "name": "amount",
                            "type": "uint256",
                            "internalType": "uint256"
                        }
                    ]
                },
                {
                    "name": "",
                    "type": "uint256",
                    "internalType": "uint256"
                }
            ],
            "stateMutability": "view"
        },
        {
            "type": "function",
            "name": "getTopBuyerList",
            "inputs": [],
            "outputs": [
                {
                    "name": "",
                    "type": "tuple[]",
                    "internalType": "struct Lottery.Leader[]",
                    "components": [
                        {
                            "name": "user",
                            "type": "address",
                            "internalType": "address"
                        },
                        {
                            "name": "ticket",
                            "type": "uint256",
                            "internalType": "uint256"
                        },
                        {
                            "name": "amount",
                            "type": "uint256",
                            "internalType": "uint256"
                        }
                    ]
                },
                {
                    "name": "",
                    "type": "uint256",
                    "internalType": "uint256"
                }
            ],
            "stateMutability": "view"
        },
        {
            "type": "function",
            "name": "getUser",
            "inputs": [
                {
                    "name": "_user",
                    "type": "address",
                    "internalType": "address"
                }
            ],
            "outputs": [
                {
                    "name": "",
                    "type": "tuple",
                    "internalType": "struct Lottery.User",
                    "components": [
                        {
                            "name": "premium",
                            "type": "uint256",
                            "internalType": "uint256"
                        },
                        {
                            "name": "firstLottery",
                            "type": "uint256",
                            "internalType": "uint256"
                        },
                        {
                            "name": "lastTicketPurchased",
                            "type": "uint256",
                            "internalType": "uint256"
                        },
                        {
                            "name": "referrerList",
                            "type": "address[7]",
                            "internalType": "address[7]"
                        },
                        {
                            "name": "directReferress",
                            "type": "address[]",
                            "internalType": "address[]"
                        },
                        {
                            "name": "winningAmount",
                            "type": "uint256",
                            "internalType": "uint256"
                        },
                        {
                            "name": "availableTax",
                            "type": "tuple",
                            "internalType": "struct Lottery.UserTax",
                            "components": [
                                {
                                    "name": "refTax",
                                    "type": "uint256",
                                    "internalType": "uint256"
                                },
                                {
                                    "name": "premiumTax",
                                    "type": "uint256",
                                    "internalType": "uint256"
                                },
                                {
                                    "name": "premiumReferralTax",
                                    "type": "uint256",
                                    "internalType": "uint256"
                                },
                                {
                                    "name": "topBuyerTax",
                                    "type": "uint256",
                                    "internalType": "uint256"
                                },
                                {
                                    "name": "topLeaderTax",
                                    "type": "uint256",
                                    "internalType": "uint256"
                                },
                                {
                                    "name": "winningAmount",
                                    "type": "uint256",
                                    "internalType": "uint256"
                                }
                            ]
                        },
                        {
                            "name": "purchasedTickets",
                            "type": "tuple",
                            "internalType": "struct Lottery.PurchasedTickets",
                            "components": [
                                {
                                    "name": "topBuyerTickets",
                                    "type": "uint256",
                                    "internalType": "uint256"
                                },
                                {
                                    "name": "topBuyerCost",
                                    "type": "uint256",
                                    "internalType": "uint256"
                                },
                                {
                                    "name": "topLeaderTickets",
                                    "type": "uint256",
                                    "internalType": "uint256"
                                },
                                {
                                    "name": "topLeaderRefLevel1Tickets",
                                    "type": "uint256",
                                    "internalType": "uint256"
                                },
                                {
                                    "name": "topLeaderRefLevelallTickets",
                                    "type": "uint256",
                                    "internalType": "uint256"
                                },
                                {
                                    "name": "topLeaderRefLevelallCost",
                                    "type": "uint256",
                                    "internalType": "uint256"
                                }
                            ]
                        }
                    ]
                }
            ],
            "stateMutability": "view"
        },
        {
            "type": "function",
            "name": "getWinnersList",
            "inputs": [
                {
                    "name": "lottteryId",
                    "type": "uint256",
                    "internalType": "uint256"
                }
            ],
            "outputs": [
                {
                    "name": "",
                    "type": "tuple[]",
                    "internalType": "struct Lottery.LotteryResult[]",
                    "components": [
                        {
                            "name": "sl",
                            "type": "uint16",
                            "internalType": "uint16"
                        },
                        {
                            "name": "ticket",
                            "type": "bytes12",
                            "internalType": "bytes12"
                        },
                        {
                            "name": "user",
                            "type": "address",
                            "internalType": "address"
                        },
                        {
                            "name": "prize",
                            "type": "uint8",
                            "internalType": "uint8"
                        }
                    ]
                },
                {
                    "name": "",
                    "type": "uint256",
                    "internalType": "uint256"
                },
                {
                    "name": "",
                    "type": "uint256",
                    "internalType": "uint256"
                },
                {
                    "name": "",
                    "type": "uint8",
                    "internalType": "enum Lottery.LotteryType"
                }
            ],
            "stateMutability": "view"
        },
        {
            "type": "function",
            "name": "isActiveUser",
            "inputs": [
                {
                    "name": "_user",
                    "type": "address",
                    "internalType": "address"
                }
            ],
            "outputs": [
                {
                    "name": "",
                    "type": "bool",
                    "internalType": "bool"
                }
            ],
            "stateMutability": "view"
        },
        {
            "type": "function",
            "name": "lotteries",
            "inputs": [
                {
                    "name": "",
                    "type": "uint256",
                    "internalType": "uint256"
                }
            ],
            "outputs": [
                {
                    "name": "id",
                    "type": "uint256",
                    "internalType": "uint256"
                },
                {
                    "name": "roundId",
                    "type": "uint256",
                    "internalType": "uint256"
                },
                {
                    "name": "createdAt",
                    "type": "uint256",
                    "internalType": "uint256"
                },
                {
                    "name": "lotteryType",
                    "type": "uint8",
                    "internalType": "enum Lottery.LotteryType"
                },
                {
                    "name": "minTicketCount",
                    "type": "uint256",
                    "internalType": "uint256"
                },
                {
                    "name": "maxTicketCount",
                    "type": "uint256",
                    "internalType": "uint256"
                },
                {
                    "name": "ticketPrice",
                    "type": "uint256",
                    "internalType": "uint256"
                },
                {
                    "name": "totalWinners",
                    "type": "uint256",
                    "internalType": "uint256"
                },
                {
                    "name": "isActive",
                    "type": "bool",
                    "internalType": "bool"
                },
                {
                    "name": "isDistributed",
                    "type": "bool",
                    "internalType": "bool"
                },
                {
                    "name": "totalticketPurchased",
                    "type": "uint256",
                    "internalType": "uint256"
                }
            ],
            "stateMutability": "view"
        },
        {
            "type": "function",
            "name": "owner",
            "inputs": [],
            "outputs": [
                {
                    "name": "",
                    "type": "address",
                    "internalType": "address"
                }
            ],
            "stateMutability": "view"
        },
        {
            "type": "function",
            "name": "premiumUserList",
            "inputs": [
                {
                    "name": "",
                    "type": "uint256",
                    "internalType": "uint256"
                }
            ],
            "outputs": [
                {
                    "name": "",
                    "type": "address",
                    "internalType": "address"
                }
            ],
            "stateMutability": "view"
        },
        {
            "type": "function",
            "name": "purchaseTicket",
            "inputs": [
                {
                    "name": "lotteryId",
                    "type": "uint256",
                    "internalType": "uint256"
                },
                {
                    "name": "ticketCount",
                    "type": "uint256",
                    "internalType": "uint256"
                },
                {
                    "name": "referrer",
                    "type": "address",
                    "internalType": "address"
                },
                {
                    "name": "ticketStrings",
                    "type": "bytes12[]",
                    "internalType": "bytes12[]"
                }
            ],
            "outputs": [],
            "stateMutability": "nonpayable"
        },
        {
            "type": "function",
            "name": "rawFulfillRandomWords",
            "inputs": [
                {
                    "name": "requestId",
                    "type": "uint256",
                    "internalType": "uint256"
                },
                {
                    "name": "randomWords",
                    "type": "uint256[]",
                    "internalType": "uint256[]"
                }
            ],
            "outputs": [],
            "stateMutability": "nonpayable"
        },
        {
            "type": "function",
            "name": "removePremiumAccount",
            "inputs": [
                {
                    "name": "_user",
                    "type": "address",
                    "internalType": "address"
                }
            ],
            "outputs": [],
            "stateMutability": "nonpayable"
        },
        {
            "type": "function",
            "name": "s_vrfCoordinator",
            "inputs": [],
            "outputs": [
                {
                    "name": "",
                    "type": "address",
                    "internalType": "contract IVRFCoordinatorV2Plus"
                }
            ],
            "stateMutability": "view"
        },
        {
            "type": "function",
            "name": "setCoordinator",
            "inputs": [
                {
                    "name": "_vrfCoordinator",
                    "type": "address",
                    "internalType": "address"
                }
            ],
            "outputs": [],
            "stateMutability": "nonpayable"
        },
        {
            "type": "function",
            "name": "topBuyerAmount",
            "inputs": [],
            "outputs": [
                {
                    "name": "",
                    "type": "uint256",
                    "internalType": "uint256"
                }
            ],
            "stateMutability": "view"
        },
        {
            "type": "function",
            "name": "topLeaderAmount",
            "inputs": [],
            "outputs": [
                {
                    "name": "",
                    "type": "uint256",
                    "internalType": "uint256"
                }
            ],
            "stateMutability": "view"
        },
        {
            "type": "function",
            "name": "transferOwnership",
            "inputs": [
                {
                    "name": "to",
                    "type": "address",
                    "internalType": "address"
                }
            ],
            "outputs": [],
            "stateMutability": "nonpayable"
        },
        {
            "type": "function",
            "name": "usdtToken",
            "inputs": [],
            "outputs": [
                {
                    "name": "",
                    "type": "address",
                    "internalType": "address"
                }
            ],
            "stateMutability": "view"
        },
        {
            "type": "function",
            "name": "users",
            "inputs": [
                {
                    "name": "",
                    "type": "address",
                    "internalType": "address"
                }
            ],
            "outputs": [
                {
                    "name": "premium",
                    "type": "uint256",
                    "internalType": "uint256"
                },
                {
                    "name": "firstLottery",
                    "type": "uint256",
                    "internalType": "uint256"
                },
                {
                    "name": "lastTicketPurchased",
                    "type": "uint256",
                    "internalType": "uint256"
                },
                {
                    "name": "winningAmount",
                    "type": "uint256",
                    "internalType": "uint256"
                },
                {
                    "name": "availableTax",
                    "type": "tuple",
                    "internalType": "struct Lottery.UserTax",
                    "components": [
                        {
                            "name": "refTax",
                            "type": "uint256",
                            "internalType": "uint256"
                        },
                        {
                            "name": "premiumTax",
                            "type": "uint256",
                            "internalType": "uint256"
                        },
                        {
                            "name": "premiumReferralTax",
                            "type": "uint256",
                            "internalType": "uint256"
                        },
                        {
                            "name": "topBuyerTax",
                            "type": "uint256",
                            "internalType": "uint256"
                        },
                        {
                            "name": "topLeaderTax",
                            "type": "uint256",
                            "internalType": "uint256"
                        },
                        {
                            "name": "winningAmount",
                            "type": "uint256",
                            "internalType": "uint256"
                        }
                    ]
                },
                {
                    "name": "purchasedTickets",
                    "type": "tuple",
                    "internalType": "struct Lottery.PurchasedTickets",
                    "components": [
                        {
                            "name": "topBuyerTickets",
                            "type": "uint256",
                            "internalType": "uint256"
                        },
                        {
                            "name": "topBuyerCost",
                            "type": "uint256",
                            "internalType": "uint256"
                        },
                        {
                            "name": "topLeaderTickets",
                            "type": "uint256",
                            "internalType": "uint256"
                        },
                        {
                            "name": "topLeaderRefLevel1Tickets",
                            "type": "uint256",
                            "internalType": "uint256"
                        },
                        {
                            "name": "topLeaderRefLevelallTickets",
                            "type": "uint256",
                            "internalType": "uint256"
                        },
                        {
                            "name": "topLeaderRefLevelallCost",
                            "type": "uint256",
                            "internalType": "uint256"
                        }
                    ]
                }
            ],
            "stateMutability": "view"
        },
        {
            "type": "function",
            "name": "withdrawAmountByOwner",
            "inputs": [
                {
                    "name": "_amount",
                    "type": "uint256",
                    "internalType": "uint256"
                }
            ],
            "outputs": [],
            "stateMutability": "nonpayable"
        },
        {
            "type": "function",
            "name": "withdrawOwnerBalance",
            "inputs": [],
            "outputs": [],
            "stateMutability": "nonpayable"
        },
        {
            "type": "event",
            "name": "CoordinatorSet",
            "inputs": [
                {
                    "name": "vrfCoordinator",
                    "type": "address",
                    "indexed": false,
                    "internalType": "address"
                }
            ],
            "anonymous": false
        },
        {
            "type": "event",
            "name": "Lottery_Created",
            "inputs": [
                {
                    "name": "id",
                    "type": "uint256",
                    "indexed": true,
                    "internalType": "uint256"
                }
            ],
            "anonymous": false
        },
        {
            "type": "event",
            "name": "Lottery_RequestForWinners",
            "inputs": [
                {
                    "name": "requestId",
                    "type": "uint256",
                    "indexed": true,
                    "internalType": "uint256"
                }
            ],
            "anonymous": false
        },
        {
            "type": "event",
            "name": "Lottery_WinnersSelected",
            "inputs": [
                {
                    "name": "id",
                    "type": "uint256",
                    "indexed": true,
                    "internalType": "uint256"
                }
            ],
            "anonymous": false
        },
        {
            "type": "event",
            "name": "OwnershipTransferRequested",
            "inputs": [
                {
                    "name": "from",
                    "type": "address",
                    "indexed": true,
                    "internalType": "address"
                },
                {
                    "name": "to",
                    "type": "address",
                    "indexed": true,
                    "internalType": "address"
                }
            ],
            "anonymous": false
        },
        {
            "type": "event",
            "name": "OwnershipTransferred",
            "inputs": [
                {
                    "name": "from",
                    "type": "address",
                    "indexed": true,
                    "internalType": "address"
                },
                {
                    "name": "to",
                    "type": "address",
                    "indexed": true,
                    "internalType": "address"
                }
            ],
            "anonymous": false
        },
        {
            "type": "event",
            "name": "Premium__UserAdded",
            "inputs": [
                {
                    "name": "user",
                    "type": "address",
                    "indexed": true,
                    "internalType": "address"
                }
            ],
            "anonymous": false
        },
        {
            "type": "event",
            "name": "Premium__UserRemoved",
            "inputs": [
                {
                    "name": "user",
                    "type": "address",
                    "indexed": true,
                    "internalType": "address"
                }
            ],
            "anonymous": false
        },
        {
            "type": "event",
            "name": "REFFERELS__Added",
            "inputs": [
                {
                    "name": "referee",
                    "type": "address",
                    "indexed": true,
                    "internalType": "address"
                }
            ],
            "anonymous": false
        },
        {
            "type": "event",
            "name": "Ticket__Purchased",
            "inputs": [
                {
                    "name": "id",
                    "type": "uint256",
                    "indexed": true,
                    "internalType": "uint256"
                }
            ],
            "anonymous": false
        },
        {
            "type": "event",
            "name": "WiinerAddress",
            "inputs": [
                {
                    "name": "",
                    "type": "uint256[][]",
                    "indexed": false,
                    "internalType": "uint256[][]"
                }
            ],
            "anonymous": false
        },
        {
            "type": "event",
            "name": "lotteryTestEvent",
            "inputs": [
                {
                    "name": "user",
                    "type": "tuple",
                    "indexed": false,
                    "internalType": "struct Lottery.User",
                    "components": [
                        {
                            "name": "premium",
                            "type": "uint256",
                            "internalType": "uint256"
                        },
                        {
                            "name": "firstLottery",
                            "type": "uint256",
                            "internalType": "uint256"
                        },
                        {
                            "name": "lastTicketPurchased",
                            "type": "uint256",
                            "internalType": "uint256"
                        },
                        {
                            "name": "referrerList",
                            "type": "address[7]",
                            "internalType": "address[7]"
                        },
                        {
                            "name": "directReferress",
                            "type": "address[]",
                            "internalType": "address[]"
                        },
                        {
                            "name": "winningAmount",
                            "type": "uint256",
                            "internalType": "uint256"
                        },
                        {
                            "name": "availableTax",
                            "type": "tuple",
                            "internalType": "struct Lottery.UserTax",
                            "components": [
                                {
                                    "name": "refTax",
                                    "type": "uint256",
                                    "internalType": "uint256"
                                },
                                {
                                    "name": "premiumTax",
                                    "type": "uint256",
                                    "internalType": "uint256"
                                },
                                {
                                    "name": "premiumReferralTax",
                                    "type": "uint256",
                                    "internalType": "uint256"
                                },
                                {
                                    "name": "topBuyerTax",
                                    "type": "uint256",
                                    "internalType": "uint256"
                                },
                                {
                                    "name": "topLeaderTax",
                                    "type": "uint256",
                                    "internalType": "uint256"
                                },
                                {
                                    "name": "winningAmount",
                                    "type": "uint256",
                                    "internalType": "uint256"
                                }
                            ]
                        },
                        {
                            "name": "purchasedTickets",
                            "type": "tuple",
                            "internalType": "struct Lottery.PurchasedTickets",
                            "components": [
                                {
                                    "name": "topBuyerTickets",
                                    "type": "uint256",
                                    "internalType": "uint256"
                                },
                                {
                                    "name": "topBuyerCost",
                                    "type": "uint256",
                                    "internalType": "uint256"
                                },
                                {
                                    "name": "topLeaderTickets",
                                    "type": "uint256",
                                    "internalType": "uint256"
                                },
                                {
                                    "name": "topLeaderRefLevel1Tickets",
                                    "type": "uint256",
                                    "internalType": "uint256"
                                },
                                {
                                    "name": "topLeaderRefLevelallTickets",
                                    "type": "uint256",
                                    "internalType": "uint256"
                                },
                                {
                                    "name": "topLeaderRefLevelallCost",
                                    "type": "uint256",
                                    "internalType": "uint256"
                                }
                            ]
                        }
                    ]
                }
            ],
            "anonymous": false
        },
        {
            "type": "event",
            "name": "withdrawAmount__SuccessFull",
            "inputs": [
                {
                    "name": "amount",
                    "type": "uint256",
                    "indexed": true,
                    "internalType": "uint256"
                }
            ],
            "anonymous": false
        },
        {
            "type": "error",
            "name": "AddressEmptyCode",
            "inputs": [
                {
                    "name": "target",
                    "type": "address",
                    "internalType": "address"
                }
            ]
        },
        {
            "type": "error",
            "name": "AddressInsufficientBalance",
            "inputs": [
                {
                    "name": "account",
                    "type": "address",
                    "internalType": "address"
                }
            ]
        },
        {
            "type": "error",
            "name": "FailedInnerCall",
            "inputs": []
        },
        {
            "type": "error",
            "name": "Lottery__InvalidTicketStringsLength",
            "inputs": []
        },
        {
            "type": "error",
            "name": "Lottery__IsActive",
            "inputs": []
        },
        {
            "type": "error",
            "name": "Lottery__NotEnoughTicketPurchases",
            "inputs": [
                {
                    "name": "",
                    "type": "uint32",
                    "internalType": "uint32"
                }
            ]
        },
        {
            "type": "error",
            "name": "Lottery__OnlyOperatorCanCall",
            "inputs": []
        },
        {
            "type": "error",
            "name": "Lottery__OnlyOwnerCanCall",
            "inputs": []
        },
        {
            "type": "error",
            "name": "Lottery__SoldOut",
            "inputs": []
        },
        {
            "type": "error",
            "name": "Lottery__failedToGenerateRandomNumbers",
            "inputs": []
        },
        {
            "type": "error",
            "name": "Lottery__notActive",
            "inputs": []
        },
        {
            "type": "error",
            "name": "Lottery__notEnoughMoney",
            "inputs": []
        },
        {
            "type": "error",
            "name": "Lottery__notFound",
            "inputs": [
                {
                    "name": "",
                    "type": "string",
                    "internalType": "string"
                }
            ]
        },
        {
            "type": "error",
            "name": "Lottery__otherLotteryIsActive",
            "inputs": [
                {
                    "name": "",
                    "type": "tuple",
                    "internalType": "struct Lottery.LotteryRound",
                    "components": [
                        {
                            "name": "id",
                            "type": "uint256",
                            "internalType": "uint256"
                        },
                        {
                            "name": "roundId",
                            "type": "uint256",
                            "internalType": "uint256"
                        },
                        {
                            "name": "createdAt",
                            "type": "uint256",
                            "internalType": "uint256"
                        },
                        {
                            "name": "lotteryType",
                            "type": "uint8",
                            "internalType": "enum Lottery.LotteryType"
                        },
                        {
                            "name": "minTicketCount",
                            "type": "uint256",
                            "internalType": "uint256"
                        },
                        {
                            "name": "maxTicketCount",
                            "type": "uint256",
                            "internalType": "uint256"
                        },
                        {
                            "name": "ticketPrice",
                            "type": "uint256",
                            "internalType": "uint256"
                        },
                        {
                            "name": "prizesAndWinners",
                            "type": "tuple[5]",
                            "internalType": "struct Lottery.WinnerPrize[5]",
                            "components": [
                                {
                                    "name": "prizeAmount",
                                    "type": "uint256",
                                    "internalType": "uint256"
                                },
                                {
                                    "name": "winnerCount",
                                    "type": "uint256",
                                    "internalType": "uint256"
                                }
                            ]
                        },
                        {
                            "name": "totalWinners",
                            "type": "uint256",
                            "internalType": "uint256"
                        },
                        {
                            "name": "isActive",
                            "type": "bool",
                            "internalType": "bool"
                        },
                        {
                            "name": "tickets",
                            "type": "tuple[]",
                            "internalType": "struct Lottery.Ticket[]",
                            "components": [
                                {
                                    "name": "customer",
                                    "type": "address",
                                    "internalType": "address"
                                },
                                {
                                    "name": "timestamp",
                                    "type": "uint256",
                                    "internalType": "uint256"
                                },
                                {
                                    "name": "ticketString",
                                    "type": "bytes12",
                                    "internalType": "bytes12"
                                }
                            ]
                        },
                        {
                            "name": "winners",
                            "type": "uint8[]",
                            "internalType": "uint8[]"
                        },
                        {
                            "name": "winningTicketNumbers",
                            "type": "uint16[]",
                            "internalType": "uint16[]"
                        },
                        {
                            "name": "isDistributed",
                            "type": "bool",
                            "internalType": "bool"
                        },
                        {
                            "name": "totalticketPurchased",
                            "type": "uint256",
                            "internalType": "uint256"
                        }
                    ]
                }
            ]
        },
        {
            "type": "error",
            "name": "OnlyCoordinatorCanFulfill",
            "inputs": [
                {
                    "name": "have",
                    "type": "address",
                    "internalType": "address"
                },
                {
                    "name": "want",
                    "type": "address",
                    "internalType": "address"
                }
            ]
        },
        {
            "type": "error",
            "name": "OnlyOwnerOrCoordinator",
            "inputs": [
                {
                    "name": "have",
                    "type": "address",
                    "internalType": "address"
                },
                {
                    "name": "owner",
                    "type": "address",
                    "internalType": "address"
                },
                {
                    "name": "coordinator",
                    "type": "address",
                    "internalType": "address"
                }
            ]
        },
        {
            "type": "error",
            "name": "Premium__UserAlreadyExist",
            "inputs": []
        },
        {
            "type": "error",
            "name": "Premium__UserDoesNotExist",
            "inputs": [
                {
                    "name": "",
                    "type": "address",
                    "internalType": "address"
                }
            ]
        },
        {
            "type": "error",
            "name": "SafeERC20FailedOperation",
            "inputs": [
                {
                    "name": "token",
                    "type": "address",
                    "internalType": "address"
                }
            ]
        },
        {
            "type": "error",
            "name": "ZeroAddress",
            "inputs": []
        },
        {
            "type": "error",
            "name": "withdrawAmount__NotEnoughMoney",
            "inputs": []
        },
        {
            "type": "error",
            "name": "withdrawAmount__failed",
            "inputs": []
        }
    ],
    "bytecode": {
        "object": "0x6004805460ff1916600a179055610120604052622dc6c060e090815262989680610100526200003390600690600262000376565b506040805160e081018252600a8152600560208201526003918101919091526002606082015260016080820181905260a0820181905260c08201526200007e906009906007620003c0565b506040805161028081018252600d8152600b6020820152600a918101919091526009606082015260086080820152600760a0820152600660c0820152600560e08201526004610100820152600361012082018190526101408201819052610160820181905261018082018190526101a082015260026101c082018190526101e0820181905261020082018190526102208201819052610240820181905261026082015262000131906010906014620003f6565b50600160245560016025555f6026555f602d555f602e555f602f555f603055678ac7230489e7ffff603155678ac7230489e7ffff6032556402540be4006033553480156200017d575f80fd5b5060405162005adb38038062005adb833981016040819052620001a0916200045d565b8133805f81620001f75760405162461bcd60e51b815260206004820152601860248201527f43616e6e6f7420736574206f776e657220746f207a65726f000000000000000060448201526064015b60405180910390fd5b5f80546001600160a01b0319166001600160a01b038481169190911790915581161562000229576200022981620002cc565b5050506001600160a01b038116620002545760405163d92e233d60e01b815260040160405180910390fd5b600280546001600160a01b03199081166001600160a01b0393841617909155600160035560a09590955260809590955263ffffffff9290921660c05250600880548316919093161790915560048054610100600160a81b031916610100339081029190911790915560058054909216179055620004c0565b336001600160a01b03821603620003265760405162461bcd60e51b815260206004820152601760248201527f43616e6e6f74207472616e7366657220746f2073656c660000000000000000006044820152606401620001ee565b600180546001600160a01b0319166001600160a01b038381169182179092555f8054604051929316917fed8889f560326eb138920d842192f0eb3dd22b4f139c87a2c57538e05bae12789190a350565b8260028101928215620003ae579160200282015b82811115620003ae578251829062ffffff169055916020019190600101906200038a565b50620003bc9291506200042b565b5090565b8260078101928215620003ae579160200282015b82811115620003ae578251829060ff16905591602001919060010190620003d4565b8260148101928215620003ae5791602002820182811115620003ae578251829060ff16905591602001919060010190620003d4565b5b80821115620003bc575f81556001016200042c565b80516001600160a01b038116811462000458575f80fd5b919050565b5f805f805f60a0868803121562000472575f80fd5b8551945060208601519350604086015163ffffffff8116811462000494575f80fd5b9250620004a46060870162000441565b9150620004b46080870162000441565b90509295509295909350565b60805160a05160c0516155f0620004eb5f395f6115cb01525f61157301525f61159601526155f05ff3fe608060405234801561000f575f80fd5b506004361061024a575f3560e01c806379ba5097116101405780639a1fa0fe116100bf578063b582762211610084578063b582762214610613578063d3577a4214610626578063d9d6beea14610639578063e80c4c5814610641578063f2fde38b14610654578063ffbf5af214610667575f80fd5b80639a1fa0fe146104ef5780639eccacf6146104f8578063a39571931461050b578063a87430ba1461051e578063a98ad46c14610600575f80fd5b80638c76d752116101055780638c76d752146104915780638da5cb5b146104995780638ea98117146104a9578063941b80ac146104bc5780639640bcd1146104c4575f80fd5b806379ba5097146104435780637decf3331461044b57806382d23be91461045e57806383a2a432146104665780638bb2c92e14610489575f80fd5b80634202d214116101cc578063590791f211610191578063590791f2146103d45780635bdff9a4146103dc5780635ec8a3de146104075780636f77926b1461041a578063760a23f11461042d575f80fd5b80634202d214146103785780634450a45f1461039b5780635189a0bf146103a35780635445bfb9146103b6578063581ce0b8146103cc575f80fd5b806317a9b5291161021257806317a9b529146103085780631fe543e31461031b5780632667cc6d1461032e5780632a0217d3146103455780633fd10e0b14610365575f80fd5b8063035b3be21461024e57806306394c9b1461027b5780630a66d299146102905780631398e076146102be578063149733ec146102e8575b5f80fd5b61026161025c366004614b47565b61066f565b604080519283529015156020830152015b60405180910390f35b61028e610289366004614b47565b6106d3565b005b6102a361029e366004614b6e565b610725565b60408051938452602084019290925290820152606001610272565b6102d16102cc366004614b87565b610aa4565b6040516102729b9a99989796959493929190614bd2565b6102fb6102f6366004614b47565b610b17565b6040516102729190614cdb565b61028e610316366004614e16565b610cf1565b61028e610329366004614e76565b6110b1565b61033760305481565b604051908152602001610272565b610358610353366004614b87565b611101565b6040516102729190614fd6565b61028e610373366004614b87565b6113e8565b61038b610386366004614b47565b61169b565b6040519015158152602001610272565b602654610337565b6103376103b1366004614b87565b6116cd565b6103be6116ec565b6040516102729291906150df565b61028e61186d565b6102a3611f5a565b6103ef6103ea366004614b87565b611fab565b6040516001600160a01b039091168152602001610272565b61028e610415366004614b47565b611fd3565b6102fb610428366004614b47565b6121d7565b6104356121df565b60405161027292919061513e565b61028e612427565b610358610459366004614b6e565b6124d0565b61028e612817565b610479610474366004614b87565b61293a565b60405161027294939291906151a6565b61028e612dae565b61028e612f25565b5f546001600160a01b03166103ef565b61028e6104b7366004614b47565b6130bd565b61028e6131ad565b6103376104d2366004614b47565b6001600160a01b03165f9081526029602052604090206011015490565b610337602f5481565b6002546103ef906001600160a01b031681565b61028e610519366004614b47565b61333a565b6105ee61052c366004614b47565b6029602052805f5260405f205f91509050805f01549080600101549080600201549080600b01549080600c016040518060c00160405290815f82015481526020016001820154815260200160028201548152602001600382015481526020016004820154815260200160058201548152505090806012016040518060c00160405290815f820154815260200160018201548152602001600282015481526020016003820154815260200160048201548152602001600582015481525050905086565b60405161027296959493929190615241565b6008546103ef906001600160a01b031681565b61028e610621366004614b47565b613449565b61028e610634366004615284565b6134f9565b61033761392b565b61028e61064f366004614b87565b613964565b61028e610662366004614b47565b613a92565b610435613aa6565b6001600160a01b0381165f90815260296020526040812054819081036106b85760405163ca1644e560e01b81526001600160a01b03841660048201526024015b60405180910390fd5b5050335f908152602960205260409020600d01549160019150565b60045461010090046001600160a01b031633146107035760405163112b8aab60e01b815260040160405180910390fd5b600580546001600160a01b0319166001600160a01b0392909216919091179055565b5f805f8060265490505b8015610a835784600181111561074757610747614b9e565b6027610754600184615375565b8154811061076457610764615388565b5f91825260209091206003601890920201015460ff16600181111561078b5761078b614b9e565b03610a71575f602761079e600184615375565b815481106107ae576107ae615388565b905f5260205f209060180201604051806101e00160405290815f82015481526020016001820154815260200160028201548152602001600382015f9054906101000a900460ff16600181111561080657610806614b9e565b600181111561081757610817614b9e565b815260200160048201548152602001600582015481526020016006820154815260200160078201600580602002604051908101604052809291905f905b8282101561088f578382600202016040518060400160405290815f820154815260200160018201548152505081526020019060010190610854565b50505050815260200160118201548152602001601282015f9054906101000a900460ff1615151515815260200160138201805480602002602001604051908101604052809291908181526020015f905b82821015610940575f848152602090819020604080516060810182526003860290920180546001600160a01b031683526001808201548486015260029091015460a01b6001600160a01b0319169183019190915290835290920191016108df565b505050508152602001601482018054806020026020016040519081016040528092919081815260200182805480156109b257602002820191905f5260205f20905f905b825461010083900a900460ff168152602060019283018181049485019490930390920291018084116109835790505b5050505050815260200160158201805480602002602001604051908101604052809291908181526020018280548015610a2f57602002820191905f5260205f20905f905b82829054906101000a900461ffff1661ffff16815260200190600201906020826001010492830192600103820291508084116109f65790505b5050509183525050601682015460ff161515602080830191909152601790920154604090910152810151610140909101515190955093505f9250610a9d915050565b80610a7b8161539c565b91505061072f565b506040516338570b1360e21b81526004016106af906153b1565b9193909250565b60278181548110610ab3575f80fd5b5f918252602090912060189091020180546001820154600283015460038401546004850154600586015460068701546011880154601289015460168a01546017909a0154989a509698959760ff95861697949693959294919391831692909116908b565b610b1f6147b5565b6001600160a01b0382165f908152602960205260408120549003610b615760405163ca1644e560e01b81526001600160a01b03831660048201526024016106af565b6001600160a01b0382165f9081526029602090815260409182902082516101008101845281548152600182015492810192909252600281015482840152825160e0810193849052919290916060840191600384019060079082845b81546001600160a01b03168152600190910190602001808311610bbc5750505050508152602001600a8201805480602002602001604051908101604052809291908181526020018280548015610c3957602002820191905f5260205f20905b81546001600160a01b03168152600190910190602001808311610c1b575b50505050508152602001600b8201548152602001600c82016040518060c00160405290815f8201548152602001600182015481526020016002820154815260200160038201548152602001600482015481526020016005820154815250508152602001601282016040518060c00160405290815f820154815260200160018201548152602001600282015481526020016003820154815260200160048201548152602001600582015481525050815250509050919050565b6005546001600160a01b03163314610d1c576040516321738dff60e01b815260040160405180910390fd5b83851115610d6c5760405162461bcd60e51b815260206004820152601a60248201527f496e76616c6964207469636b657420636f756e742072616e676500000000000060448201526064016106af565b5f805b6005811015610dad57838160058110610d8a57610d8a615388565b6020020151610d9990836153dc565b915080610da5816153ef565b915050610d6f565b5081811115610e095760405162461bcd60e51b815260206004820152602260248201527f57696e6e657220636f756e74206578636565647320746f74616c2077696e6e65604482015261727360f01b60648201526084016106af565b610e1287613d23565b602780546001810182555f9182526018027f98a476f1687bc3d60a2da2adbcba2c46958e61fa2fb4042cd7bc5816a710195b0190886001811115610e5857610e58614b9e565b03610e7f5760248054905f610e6c836153ef565b9091555060018201558054603255610e9d565b60258054905f610e8e836153ef565b90915550600182015580546031555b60268054905f610eac836153ef565b90915550815560038101805489919060ff191660018381811115610ed257610ed2614b9e565b021790555042600282015560048101879055600581018690556011810183905560128101805460ff191660019081179091556006908990811115610f1857610f18614b9e565b60028110610f2857610f28615388565b015460068201558567ffffffffffffffff811115610f4857610f48614d66565b604051908082528060200260200182016040528015610f71578160200160208202803683370190505b508051610f8891601484019160209091019061485d565b508267ffffffffffffffff811115610fa257610fa2614d66565b604051908082528060200260200182016040528015610fcb578160200160208202803683370190505b508051610fe29160158401916020909101906148fe565b505f5b600581101561107c57604051806040016040528087836005811061100b5761100b615388565b602002015161101d90620f4240615407565b815260200186836005811061103457611034615388565b6020020151905260078301826005811061105057611050615388565b600202015f820151815f0155602082015181600101559050508080611074906153ef565b915050610fe5565b5080546040517f67a7d2f7175358184bb138bd96c3ed1e06b977d25dafac78e16398b243943096905f90a25050505050505050565b6002546001600160a01b031633146110f15760025460405163073e64fd60e21b81523360048201526001600160a01b0390911660248201526044016106af565b6110fc838383613de2565b505050565b611109614992565b602654821061112b576040516338570b1360e21b81526004016106af906153b1565b6027828154811061113e5761113e615388565b905f5260205f209060180201604051806101e00160405290815f82015481526020016001820154815260200160028201548152602001600382015f9054906101000a900460ff16600181111561119657611196614b9e565b60018111156111a7576111a7614b9e565b815260200160048201548152602001600582015481526020016006820154815260200160078201600580602002604051908101604052809291905f905b8282101561121f578382600202016040518060400160405290815f8201548152602001600182015481525050815260200190600101906111e4565b50505050815260200160118201548152602001601282015f9054906101000a900460ff1615151515815260200160138201805480602002602001604051908101604052809291908181526020015f905b828210156112d0575f848152602090819020604080516060810182526003860290920180546001600160a01b031683526001808201548486015260029091015460a01b6001600160a01b03191691830191909152908352909201910161126f565b5050505081526020016014820180548060200260200160405190810160405280929190818152602001828054801561134257602002820191905f5260205f20905f905b825461010083900a900460ff168152602060019283018181049485019490930390920291018084116113135790505b50505050508152602001601582018054806020026020016040519081016040528092919081815260200182805480156113bf57602002820191905f5260205f20905f905b82829054906101000a900461ffff1661ffff16815260200190600201906020826001010492830192600103820291508084116113865790505b5050509183525050601682015460ff161515602082015260179091015460409091015292915050565b6005546001600160a01b03163314611413576040516321738dff60e01b815260040160405180910390fd5b6026548110611435576040516338570b1360e21b81526004016106af906153b1565b5f6027828154811061144957611449615388565b5f9182526020822060126018909202019081015490925060ff161515900361148457604051631551bac160e21b815260040160405180910390fd5b816028819055505f6027838154811061149f5761149f615388565b905f5260205f209060180201601301805490509050602783815481106114c7576114c7615388565b905f5260205f209060180201600401548163ffffffff161015611505576040516309a7b37b60e31b815263ffffffff821660048201526024016106af565b5f6027848154811061151957611519615388565b905f5260205f2090601802016011015490505f8163ffffffff161161153c575f80fd5b604080515f815260208101918290525161155891603491614a18565b505f5b6005811015611694576002546040805160c0810182527f000000000000000000000000000000000000000000000000000000000000000081527f000000000000000000000000000000000000000000000000000000000000000060208083019190915260038284015263ffffffff7f00000000000000000000000000000000000000000000000000000000000000001660608301526064608083015282519081019092525f82526001600160a01b0390921691639b1c385e9160a082019061162290613e39565b8152506040518263ffffffff1660e01b81526004016116419190615440565b6020604051808303815f875af115801561165d573d5f803e3d5ffd5b505050506040513d601f19601f8201168201806040525081019061168191906154c1565b508061168c816153ef565b91505061155b565b5050505050565b6001600160a01b0381165f9081526029602052604081206002015442906116c69062278d00906153dc565b1192915050565b603481815481106116dc575f80fd5b5f91825260209091200154905081565b602c545f906060908290818167ffffffffffffffff81111561171057611710614d66565b60405190808252806020026020018201604052801561175457816020015b604080518082019091525f808252602082015281526020019060019003908161172e5790505b5090505f5b82811015611861576040518060400160405280602c838154811061177f5761177f615388565b905f5260205f20015f9054906101000a90046001600160a01b03166001600160a01b0316815260200160295f602c85815481106117be576117be615388565b5f9182526020808320909101546001600160a01b031683528201929092526040019020600d0154905282518390839081106117fb576117fb615388565b602002602001018190525060295f602c838154811061181c5761181c615388565b5f9182526020808320909101546001600160a01b031683528201929092526040019020600d015461184d90856153dc565b935080611859816153ef565b915050611759565b50919491935090915050565b6005546001600160a01b03163314611898576040516321738dff60e01b815260040160405180910390fd5b5f6027602854815481106118ae576118ae615388565b5f91825260208220601160189092020190810154601382015491935091806007850181600202016001015490505f805f80603480548060200260200160405190810160405280929190818152602001828054801561192957602002820191905f5260205f20905b815481526020019060010190808311611915575b5050505050905087815110156119815760405162461bcd60e51b815260206004820152601960248201527f496e73756666696369656e742072616e646f6d20776f7264730000000000000060448201526064016106af565b611989614a51565b5f5b60058110156119fe578a60070181600581106119a9576119a9615388565b60020201600101548b60070182600581106119c6576119c6615388565b60020201546119d591906154ec565b8282600581106119e7576119e7615388565b6020020152806119f6816153ef565b91505061198b565b505f5b89811015611f0d5788838281518110611a1c57611a1c615388565b6020026020010151611a2e91906154ff565b94508a6014018581548110611a4557611a45615388565b5f9182526020918290209181049091015460ff601f9092166101000a900416158015611a6f575083155b15611be357848b6015018281548110611a8a57611a8a615388565b905f5260205f2090601091828204019190066002026101000a81548161ffff021916908361ffff160217905550876001611ac49190615512565b8b6014018681548110611ad957611ad9615388565b905f5260205f2090602091828204019190066101000a81548160ff021916908360ff1602179055505f8b6013018681548110611b1757611b17615388565b5f9182526020909120600390910201546001600160a01b031690508260ff8a1660058110611b4757611b47615388565b602002015160295f836001600160a01b03166001600160a01b031681526020019081526020015f20600b015f828254611b8091906153dc565b9091555083905060ff8a1660058110611b9b57611b9b615388565b602002015160295f836001600160a01b03166001600160a01b031681526020019081526020015f20600c016005015f828254611bd791906153dc565b90915550611e9f915050565b828181518110611bf557611bf5615388565b602002602001015195505f8990505f5b81811015611e8f575f8b868581518110611c2157611c21615388565b60200260200101518389604051602001611c4e939291909283526020830191909152604082015260600190565b604051602081830303815290604052805190602001205f1c611c7091906154ff565b9050602760285481548110611c8757611c87615388565b905f5260205f2090601802016014018181548110611ca757611ca7615388565b5f9182526020808320908204015460ff601f9092166101000a9004169003611e7c57808e6015018581548110611cdf57611cdf615388565b905f5260205f2090601091828204019190066002026101000a81548161ffff021916908361ffff1602179055508a6001611d199190615512565b602760285481548110611d2e57611d2e615388565b905f5260205f2090601802016014018281548110611d4e57611d4e615388565b905f5260205f2090602091828204019190066101000a81548160ff021916908360ff1602179055505f602760285481548110611d8c57611d8c615388565b905f5260205f2090601802016013018281548110611dac57611dac615388565b5f9182526020909120600390910201546001600160a01b031690508560ff8d1660058110611ddc57611ddc615388565b602002015160295f836001600160a01b03166001600160a01b031681526020019081526020015f20600b015f828254611e1591906153dc565b9091555086905060ff8d1660058110611e3057611e30615388565b602002015160295f836001600160a01b03166001600160a01b031681526020019081526020015f20600c016005015f828254611e6c91906153dc565b909155505f9850611e8f92505050565b5080611e87816153ef565b915050611c05565b5084611e9a816153ef565b955050505b86611eab8260016153dc565b148015611ebb575060048860ff16105b15611efb5787611eca8161552b565b9850508a6007018860ff1660058110611ee557611ee5615388565b600202016001015487611ef891906153dc565b96505b80611f05816153ef565b915050611a01565b50895460335560128a01805460ff191690556028546040517fd20e14927c724974c05df49b31a0d0a3b924e844bcfa6116c8260653eb88e11e905f90a250505f6028555050505050505050565b6004545f908190819061010090046001600160a01b03163314611f905760405163112b8aab60e01b815260040160405180910390fd5b602d54602e54611fa082826153dc565b925092509250909192565b602c8181548110611fba575f80fd5b5f918252602090912001546001600160a01b0316905081565b600260035403611ff55760405162461bcd60e51b81526004016106af90615549565b60026003556305f5e1005f61200b600a836154ec565b9050336001600160a01b038416036120655760405162461bcd60e51b815260206004820152601e60248201527f53656c662d726566657272616c7320617265206e6f7420616c6c6f776564000060448201526064016106af565b6001600160a01b0383166120bb5760405162461bcd60e51b815260206004820152601860248201527f496e76616c696420726566657272616c2061646472657373000000000000000060448201526064016106af565b335f90815260296020526040902054156120e85760405163df4e834f60e01b815260040160405180910390fd5b602c80546001810182555f919091527f7416c943b4a09859521022fd2e90eac0dd9026dad28fa317782a135f28a860910180546001600160a01b03191633908117909155600854612147916001600160a01b0391909116903085613eaa565b6001600160a01b0383165f908152602960205260408120600e0180548392906121719084906153dc565b9091555061218190508183615375565b602e5f82825461219191906153dc565b9091555050335f81815260296020526040808220429055517fa6462dfddf2559c30940c498ea78e464a320991ecafd929279d567e5a9c044d79190a25050600160035550565b610b616147b5565b60408051601e8082526103e082019092526060915f918291816020015b61222660405180606001604052805f6001600160a01b031681526020015f81526020015f81525090565b8152602001906001900390816121fc575050602a549091505f90815b81811015612417575f602a828154811061225e5761225e615388565b5f918252602090912001546001600160a01b0316905061227d8161169b565b15612404576001600160a01b0381165f9081526029602052604090206013810154601290910154601e8610806122d95750866122ba600188615375565b815181106122ca576122ca615388565b60200260200101516040015182115b1561240157855b5f81118015612315575082886122f7600184615375565b8151811061230757612307615388565b602002602001015160400151105b1561232c57806123248161539c565b9150506122e0565b601e8110156123ff575f601e881061234557601d612347565b875b90505b818111156123a6578861235e600183615375565b8151811061236e5761236e615388565b602002602001015189828151811061238857612388615388565b6020026020010181905250808061239e9061539c565b91505061234a565b506040518060600160405280856001600160a01b03168152602001838152602001848152508882815181106123dd576123dd615388565b6020026020010181905250601e8710156123ff57866123fb816153ef565b9750505b505b50505b508061240f816153ef565b915050612242565b5082602f54945094505050509091565b6001546001600160a01b0316331461247a5760405162461bcd60e51b815260206004820152601660248201527526bab9ba10313290383937b837b9b2b21037bbb732b960511b60448201526064016106af565b5f8054336001600160a01b0319808316821784556001805490911690556040516001600160a01b0390921692909183917f8be0079c531659141344cd1fd0a4f28419497f9722a3daafe3b4186f6b6457e091a350565b6124d8614992565b6026545b8015610a83578260018111156124f4576124f4614b9e565b6027612501600184615375565b8154811061251157612511615388565b5f91825260209091206003601890920201015460ff16600181111561253857612538614b9e565b0361280557602761254a600183615375565b8154811061255a5761255a615388565b905f5260205f209060180201604051806101e00160405290815f82015481526020016001820154815260200160028201548152602001600382015f9054906101000a900460ff1660018111156125b2576125b2614b9e565b60018111156125c3576125c3614b9e565b815260200160048201548152602001600582015481526020016006820154815260200160078201600580602002604051908101604052809291905f905b8282101561263b578382600202016040518060400160405290815f820154815260200160018201548152505081526020019060010190612600565b50505050815260200160118201548152602001601282015f9054906101000a900460ff1615151515815260200160138201805480602002602001604051908101604052809291908181526020015f905b828210156126ec575f848152602090819020604080516060810182526003860290920180546001600160a01b031683526001808201548486015260029091015460a01b6001600160a01b03191691830191909152908352909201910161268b565b5050505081526020016014820180548060200260200160405190810160405280929190818152602001828054801561275e57602002820191905f5260205f20905f905b825461010083900a900460ff1681526020600192830181810494850194909303909202910180841161272f5790505b50505050508152602001601582018054806020026020016040519081016040528092919081815260200182805480156127db57602002820191905f5260205f20905f905b82829054906101000a900461ffff1661ffff16815260200190600201906020826001010492830192600103820291508084116127a25790505b5050509183525050601682015460ff16151560208201526017909101546040909101529392505050565b8061280f8161539c565b9150506124dc565b5f806128216121df565b90925090505f612832601e836154ec565b90505f5b601e8110156128b2575f84828151811061285257612852615388565b60209081029190910101515190506001600160a01b0381161561289f576001600160a01b0381165f908152602960205260408120600f0180548592906128999084906153dc565b90915550505b50806128aa816153ef565b915050612836565b50602a545f5b81811015612912575f602a82815481106128d4576128d4615388565b5f9182526020808320909101546001600160a01b0316825260299052604081206012810182905560130155508061290a816153ef565b9150506128b8565b50604080515f815260208101918290525161292f91602a91614a6f565b50505f602f55505050565b60605f805f806027868154811061295357612953615388565b905f5260205f209060180201604051806101e00160405290815f82015481526020016001820154815260200160028201548152602001600382015f9054906101000a900460ff1660018111156129ab576129ab614b9e565b60018111156129bc576129bc614b9e565b815260200160048201548152602001600582015481526020016006820154815260200160078201600580602002604051908101604052809291905f905b82821015612a34578382600202016040518060400160405290815f8201548152602001600182015481525050815260200190600101906129f9565b50505050815260200160118201548152602001601282015f9054906101000a900460ff1615151515815260200160138201805480602002602001604051908101604052809291908181526020015f905b82821015612ae5575f848152602090819020604080516060810182526003860290920180546001600160a01b031683526001808201548486015260029091015460a01b6001600160a01b031916918301919091529083529092019101612a84565b50505050815260200160148201805480602002602001604051908101604052809291908181526020018280548015612b5757602002820191905f5260205f20905f905b825461010083900a900460ff16815260206001928301818104948501949093039092029101808411612b285790505b5050505050815260200160158201805480602002602001604051908101604052809291908181526020018280548015612bd457602002820191905f5260205f20905f905b82829054906101000a900461ffff1661ffff1681526020019060020190602082600101049283019260010382029150808411612b9b5790505b5050509183525050601682015460ff16151560208201526017909101546040909101526101008101519091505f9067ffffffffffffffff811115612c1a57612c1a614d66565b604051908082528060200260200182016040528015612c6a57816020015b604080516080810182525f8082526020808301829052928201819052606082015282525f19909201910181612c385790505b5090505f5b826101000151811015612d91575f83610180015190505f846101600151828481518110612c9e57612c9e615388565b602002602001015161ffff1681518110612cba57612cba615388565b602002602001015190505f856101400151838581518110612cdd57612cdd615388565b602002602001015161ffff1681518110612cf957612cf9615388565b602002602001015190506040518060800160405280848681518110612d2057612d20615388565b602002602001015161ffff16815260200182604001516001600160a01b0319168152602001825f01516001600160a01b031681526020018360ff16815250858581518110612d7057612d70615388565b60200260200101819052505050508080612d89906153ef565b915050612c6f565b508151602083015160609093015191989097509195509350915050565b5f80612db8613aa6565b915091505f5b601481108015612dfc57505f6001600160a01b0316838281518110612de557612de5615388565b60200260200101515f01516001600160a01b031614155b15612e90575f838281518110612e1457612e14615388565b60200260200101515f01519050606460108360148110612e3657612e36615388565b0154612e429085615407565b612e4c91906154ec565b6001600160a01b0382165f9081526029602052604081206010018054909190612e769084906153dc565b90915550829150612e889050816153ef565b915050612dbe565b50602b545f5b81811015612efe575f602b8281548110612eb257612eb2615388565b5f9182526020808320909101546001600160a01b031682526029905260408120601481018290556015810182905560168101829055601701555080612ef6816153ef565b915050612e96565b50604080515f8152602081019182905251612f1b91602b91614a6f565b50505f6030555050565b600260035403612f475760405162461bcd60e51b81526004016106af90615549565b6002600355335f908152602960209081526040808320815160c081018352600c820154808252600d830154948201859052600e830154938201849052600f8301546060830181905260108401546080840181905260119094015460a08401819052929695929490929091612fbb91906153dc565b612fc591906153dc565b612fcf91906153dc565b612fd991906153dc565b612fe391906153dc565b9050600a8110156130075760405163117c468960e21b815260040160405180910390fd5b335f818152602960205260408120600c8101829055600d8101829055600e8101829055600f8101829055601081018290556011015561306a90600a61304d846009615407565b61305791906154ec565b6008546001600160a01b03169190613f11565b60045461308a9061010090046001600160a01b0316613057600a846154ec565b60405181907fb6fe44bb1f76da43755ad8760a9f7083782c99721541e49c3f98122d0fe6ba04905f90a250506001600355565b5f546001600160a01b031633148015906130e257506002546001600160a01b03163314155b1561313257336130f95f546001600160a01b031690565b60025460405163061db9c160e01b81526001600160a01b03938416600482015291831660248301529190911660448201526064016106af565b6001600160a01b0381166131595760405163d92e233d60e01b815260040160405180910390fd5b600280546001600160a01b0319166001600160a01b0383169081179091556040519081527fd1a6a14209a385a964d036e404cb5cfb71f4000cdb03c9366292430787261be69060200160405180910390a150565b60045461010090046001600160a01b031633146131dd5760405163112b8aab60e01b815260040160405180910390fd5b6002600354036131ff5760405162461bcd60e51b81526004016106af90615549565b6002600355335f908152602960209081526040808320815160c081018352600c820154808252600d830154948201859052600e830154938201849052600f8301546060830181905260108401546080840181905260119094015460a08401819052602e54602d54949897909694959194919361327b91906153dc565b61328591906153dc565b61328f91906153dc565b61329991906153dc565b6132a391906153dc565b6132ad91906153dc565b6132b791906153dc565b9050805f036132d95760405163117c468960e21b815260040160405180910390fd5b5f602d819055602e819055338152602960205260408120600c8101829055600d8101829055600e8101829055600f8101829055601081018290556011015560045460085461308a916001600160a01b03918216916101009091041683613f11565b6005546001600160a01b03163314613365576040516321738dff60e01b815260040160405180910390fd5b6002600354036133875760405162461bcd60e51b81526004016106af90615549565b60026003556001600160a01b0381165f90815260296020526040902054156133c25760405163df4e834f60e01b815260040160405180910390fd5b602c8054600181019091557f7416c943b4a09859521022fd2e90eac0dd9026dad28fa317782a135f28a860910180546001600160a01b0319166001600160a01b0383169081179091555f81815260296020526040808220429055517fa6462dfddf2559c30940c498ea78e464a320991ecafd929279d567e5a9c044d79190a2506001600355565b6005546001600160a01b03163314613474576040516321738dff60e01b815260040160405180910390fd5b6001600160a01b0381165f9081526029602052604081205490036134b65760405163ca1644e560e01b81526001600160a01b03821660048201526024016106af565b6001600160a01b0381165f81815260296020526040808220829055517fab0b49b9f201a3ca785f5c35ac4db44981e3bcf9a07c741208ade5334095709b9190a250565b60026003540361351b5760405162461bcd60e51b81526004016106af90615549565b60026003556026548410613565576040516338570b1360e21b815260206004820152601060248201526f139bc81b1bdd1d195c9e48199bdd5b9960821b60448201526064016106af565b6001831080613575575082815114155b1561359357604051633d1424e960e11b815260040160405180910390fd5b5f602785815481106135a7576135a7615388565b5f9182526020822060126018909202019081015490925060ff16151590036135e257604051631551bac160e21b815260040160405180910390fd5b600581015460138201546135f79086906153dc565b11156136165760405163748d32af60e11b815260040160405180910390fd5b5f8482600601546136279190615407565b600854909150613642906001600160a01b0316333084613eaa565b5f5b835181101561370c57826013016040518060600160405280336001600160a01b0316815260200142815260200186848151811061368357613683615388565b6020908102919091018101516001600160a01b03199081169092528354600180820186555f95865294829020845160039092020180549093166001600160a01b039091161782558201519281019290925560400151600290910180546bffffffffffffffffffffffff191660a09290921c91909117905580613704816153ef565b915050613644565b5084826017015f82825461372091906153dc565b9091555050335f90815260296020526040812042600282015560120154900361378557602a80546001810182555f919091527fbeced09521047d05b8960b7e7bcc1d1292cf3e4b2a6b63f48335cbde5f7545d20180546001600160a01b031916331790555b335f90815260296020526040812060120180548792906137a69084906153dc565b9091555050335f90815260296020526040812060130180548392906137cc9084906153dc565b9091555050335f90815260296020526040812060140154900361382b57602b80546001810182555f919091527f11c44e4875b74d31ff9fd779bf2566af7bd15b87fc985d01f5094b89e3669e4f0180546001600160a01b031916331790555b335f908152602960205260408120601401805487929061384c9084906153dc565b9091555061385b905084613f42565b613865818661417b565b61386e81614392565b606461387b826005615407565b61388591906154ec565b602f5f82825461389591906153dc565b90915550606490506138a8826005615407565b6138b291906154ec565b60305f8282546138c291906153dc565b90915550606490506138d582600f615407565b6138df91906154ec565b602d5f8282546138ef91906153dc565b909155505060405185907fb23e237cf0ae5bee09a1af90ace20250c65fa6252b97915398b2fa6b043e1ed3905f90a25050600160035550505050565b6004545f9061010090046001600160a01b0316331461395d5760405163112b8aab60e01b815260040160405180910390fd5b50602d5490565b60045461010090046001600160a01b031633146139945760405163112b8aab60e01b815260040160405180910390fd5b6002600354036139b65760405162461bcd60e51b81526004016106af90615549565b60026003556008546040516370a0823160e01b81523060048201525f916001600160a01b0316906370a0823190602401602060405180830381865afa158015613a01573d5f803e3d5ffd5b505050506040513d601f19601f82011682018060405250810190613a2591906154c1565b905081811015613a485760405163117c468960e21b815260040160405180910390fd5b600854613a5f906001600160a01b03163384613f11565b60405182907fb6fe44bb1f76da43755ad8760a9f7083782c99721541e49c3f98122d0fe6ba04905f90a250506001600355565b613a9a61443e565b613aa381614492565b50565b6040805160148082526102a082019092526060915f918291816020015b613aed60405180606001604052805f6001600160a01b031681526020015f81526020015f81525090565b815260200190600190039081613ac3575050602b549091505f90815b81811015613d13575f602b8281548110613b2557613b25615388565b5f918252602090912001546001600160a01b03169050613b448161169b565b8015613b7957506001600160a01b0381165f90815260296020526040902060140154600a111580613b795750613b798161453a565b15613d00576001600160a01b0381165f90815260296020526040902060168101546017909101546014861080613bd5575086613bb6600188615375565b81518110613bc657613bc6615388565b60200260200101516020015182115b15613cfd57855b5f81118015613c1157508288613bf3600184615375565b81518110613c0357613c03615388565b602002602001015160200151105b15613c285780613c208161539c565b915050613bdc565b6014811015613cfb575f60148810613c41576013613c43565b875b90505b81811115613ca25788613c5a600183615375565b81518110613c6a57613c6a615388565b6020026020010151898281518110613c8457613c84615388565b60200260200101819052508080613c9a9061539c565b915050613c46565b506040518060600160405280856001600160a01b0316815260200184815260200183815250888281518110613cd957613cd9615388565b60200260200101819052506014871015613cfb5786613cf7816153ef565b9750505b505b50505b5080613d0b816153ef565b915050613b09565b5082603054945094505050509091565b6001816001811115613d3757613d37614b9e565b03613da057603154678ac7230489e7ffff14158015613d825750602760315481548110613d6657613d66615388565b5f91825260209091206012601890920201015460ff1615156001145b15613aa35760405163ab2df6a960e01b815260040160405180910390fd5b5f816001811115613db357613db3614b9e565b03613aa357603254678ac7230489e7ffff14158015613d825750602760325481548110613d6657613d66615388565b5f5b81811015613e33576034838383818110613e0057613e00615388565b83546001810185555f94855260209485902091909402929092013591909201555080613e2b816153ef565b915050613de4565b50505050565b60607f92fd13387c7fe7befbc38d303d6468778fb9731bc4583f17d92989c6fcfdeaaa82604051602401613e7291511515815260200190565b60408051601f198184030181529190526020810180516001600160e01b03166001600160e01b03199093169290921790915292915050565b6040516001600160a01b038481166024830152838116604483015260648201839052613e339186918216906323b872dd906084015b604051602081830303815290604052915060e01b6020820180516001600160e01b03838183161783525050505061461e565b6040516001600160a01b038381166024830152604482018390526110fc91859182169063a9059cbb90606401613edf565b335f908152602960205260409020600301546001600160a01b031615613f655750565b6001600160a01b038116331480613f8357506001600160a01b038116155b80613fa657506001600160a01b0381165f90815260296020526040902060020154155b15613fe55750600454335f90815260296020526040902060030180546101009092046001600160a01b03166001600160a01b0319909216919091179055565b335f90815260296020526040808220600390810180546001600160a01b0319166001600160a01b03868116918217909255845291909220909101541615613aa3576001600160a01b0381165f90815260296020526040808220815160e0810190925260030160078282826020028201915b81546001600160a01b03168152600190910190602001808311614056575050506001600160a01b0385165f9081526029602090815260408220600a0180546001810182559083529082200180546001600160a01b0319163317905592935050505b6006811080156140e657505f8282600781106140d5576140d5615388565b60200201516001600160a01b031614155b156110fc575f8282600781106140fe576140fe615388565b602002015190508060295f336001600160a01b03166001600160a01b031681526020019081526020015f2060030183600161413991906153dc565b6007811061414957614149615388565b0180546001600160a01b0319166001600160a01b03929092169190911790555080614173816153ef565b9150506140b7565b335f90815260296020526040808220815160e0810190925260030160078282826020028201915b81546001600160a01b031681526001909101906020018083116141a257505050505090505f815f600781106141d9576141d9615388565b602002015190508260295f836001600160a01b03166001600160a01b031681526020019081526020015f206012016003015f82825461421891906153dc565b909155506142299050600a856154ec565b6001600160a01b0382165f908152602960205260408120600c0180549091906142539084906153dc565b909155505f90505b60078110801561428a57505f83826007811061427957614279615388565b60200201516001600160a01b031614155b15611694575f8382600781106142a2576142a2615388565b602002015190508460295f836001600160a01b03166001600160a01b031681526020019081526020015f206012016004015f8282546142e191906153dc565b90915550506001600160a01b0381165f90815260296020526040812060170180548892906143109084906153dc565b9091555061431f90508161169b565b1561437f5760646009836007811061433957614339615388565b01546143459088615407565b61434f91906154ec565b6001600160a01b0382165f908152602960205260408120600c0180549091906143799084906153dc565b90915550505b508061438a816153ef565b91505061425b565b602c545f8190036143a1575050565b5f6143ad82600a615407565b6143b790846154ec565b90505f5b82811015613e33575f602c82815481106143d7576143d7615388565b5f918252602090912001546001600160a01b031690506143f68161169b565b1561442b576001600160a01b0381165f908152602960205260408120600d0180548592906144259084906153dc565b90915550505b5080614436816153ef565b9150506143bb565b5f546001600160a01b031633146144905760405162461bcd60e51b815260206004820152601660248201527527b7363c9031b0b63630b1363290313c9037bbb732b960511b60448201526064016106af565b565b336001600160a01b038216036144ea5760405162461bcd60e51b815260206004820152601760248201527f43616e6e6f74207472616e7366657220746f2073656c6600000000000000000060448201526064016106af565b600180546001600160a01b0319166001600160a01b038381169182179092555f8054604051929316917fed8889f560326eb138920d842192f0eb3dd22b4f139c87a2c57538e05bae12789190a350565b6001600160a01b0381165f908152602960209081526040808320600a01805482518185028101850190935280835284938301828280156145a157602002820191905f5260205f20905b81546001600160a01b03168152600190910190602001808311614583575b505083519394505f9250829150505b82811015614613576145da8482815181106145cd576145cd615388565b602002602001015161169b565b156145ed57816145e9816153ef565b9250505b600a82106146015750600195945050505050565b8061460b816153ef565b9150506145b0565b505f95945050505050565b5f6146326001600160a01b0384168361467f565b905080515f141580156146565750808060200190518101906146549190615580565b155b156110fc57604051635274afe760e01b81526001600160a01b03841660048201526024016106af565b606061468c83835f614695565b90505b92915050565b6060814710156146ba5760405163cd78605960e01b81523060048201526024016106af565b5f80856001600160a01b031684866040516146d5919061559f565b5f6040518083038185875af1925050503d805f811461470f576040519150601f19603f3d011682016040523d82523d5f602084013e614714565b606091505b5091509150614724868383614730565b925050505b9392505050565b606082614745576147408261478c565b614729565b815115801561475c57506001600160a01b0384163b155b1561478557604051639996b31560e01b81526001600160a01b03851660048201526024016106af565b5080614729565b80511561479c5780518082602001fd5b604051630a12f52160e11b815260040160405180910390fd5b6040518061010001604052805f81526020015f81526020015f81526020016147db614ac2565b8152602001606081526020015f81526020016148206040518060c001604052805f81526020015f81526020015f81526020015f81526020015f81526020015f81525090565b81526020016148586040518060c001604052805f81526020015f81526020015f81526020015f81526020015f81526020015f81525090565b905290565b828054828255905f5260205f2090601f016020900481019282156148ee579160200282015f5b838211156148c057835183826101000a81548160ff021916908360ff16021790555092602001926001016020815f01049283019260010302614883565b80156148ec5782816101000a81549060ff02191690556001016020815f010492830192600103026148c0565b505b506148fa929150614ae0565b5090565b828054828255905f5260205f2090600f016010900481019282156148ee579160200282015f5b8382111561496457835183826101000a81548161ffff021916908361ffff1602179055509260200192600201602081600101049283019260010302614924565b80156148ec5782816101000a81549061ffff0219169055600201602081600101049283019260010302614964565b604051806101e001604052805f81526020015f81526020015f81526020015f60018111156149c2576149c2614b9e565b81526020015f81526020015f81526020015f81526020016149e1614af4565b81526020015f81526020015f151581526020016060815260200160608152602001606081526020015f151581526020015f81525090565b828054828255905f5260205f209081019282156148ee579160200282015b828111156148ee578251825591602001919060010190614a36565b6040518060a001604052806005906020820280368337509192915050565b828054828255905f5260205f209081019282156148ee579160200282015b828111156148ee57825182546001600160a01b0319166001600160a01b03909116178255602090920191600190910190614a8d565b6040518060e001604052806007906020820280368337509192915050565b5b808211156148fa575f8155600101614ae1565b6040518060a001604052806005905b604080518082019091525f8082526020820152815260200190600190039081614b035790505090565b80356001600160a01b0381168114614b42575f80fd5b919050565b5f60208284031215614b57575f80fd5b61468c82614b2c565b803560028110614b42575f80fd5b5f60208284031215614b7e575f80fd5b61468c82614b60565b5f60208284031215614b97575f80fd5b5035919050565b634e487b7160e01b5f52602160045260245ffd5b60028110614bce57634e487b7160e01b5f52602160045260245ffd5b9052565b8b8152602081018b9052604081018a90526101608101614bf5606083018b614bb2565b608082019890985260a081019690965260c086019490945260e08501929092521515610100840152151561012083015261014090910152949350505050565b805f5b6007811015613e335781516001600160a01b0316845260209384019390910190600101614c37565b5f8151808452602080850194508084015f5b83811015614c965781516001600160a01b031687529582019590820190600101614c71565b509495945050505050565b805182526020810151602083015260408101516040830152606081015160608301526080810151608083015260a081015160a08301525050565b602081528151602082015260208201516040820152604082015160608201525f6060830151614d0d6080840182614c34565b506080830151610300610160840152614d2a610320840182614c5f565b905060a084015161018084015260c0840151614d4a6101a0850182614ca1565b5060e0840151614d5e610260850182614ca1565b509392505050565b634e487b7160e01b5f52604160045260245ffd5b604051601f8201601f1916810167ffffffffffffffff81118282101715614da357614da3614d66565b604052919050565b5f82601f830112614dba575f80fd5b60405160a0810181811067ffffffffffffffff82111715614ddd57614ddd614d66565b6040528060a0840185811115614df1575f80fd5b845b81811015614e0b578035835260209283019201614df3565b509195945050505050565b5f805f805f806101c08789031215614e2c575f80fd5b614e3587614b60565b95506020870135945060408701359350614e528860608901614dab565b9250614e62886101008901614dab565b91506101a087013590509295509295509295565b5f805f60408486031215614e88575f80fd5b83359250602084013567ffffffffffffffff80821115614ea6575f80fd5b818601915086601f830112614eb9575f80fd5b813581811115614ec7575f80fd5b8760208260051b8501011115614edb575f80fd5b6020830194508093505050509250925092565b805f5b6005811015613e33578151805185526020908101518186015260409094019390910190600101614ef1565b5f8151808452602080850194508084015f5b83811015614c9657815180516001600160a01b0316885283810151848901526040908101516001600160a01b0319169088015260609096019590820190600101614f2e565b5f8151808452602080850194508084015f5b83811015614c9657815160ff1687529582019590820190600101614f85565b5f8151808452602080850194508084015f5b83811015614c9657815161ffff1687529582019590820190600101614fb6565b602081528151602082015260208201516040820152604082015160608201525f60608301516150086080840182614bb2565b50608083015160a083015260a083015160c083015260c083015160e083015260e083015161010061503b81850183614eee565b8401516102408401525061012083015115156102608301526101408301516103006102808401819052615072610320850183614f1c565b9150610160850151601f1980868503016102a08701526150928483614f73565b9350610180870151915080868503016102c0870152506150b28382614fa4565b9250506101a08501516150ca6102e086018215159052565b506101c0949094015192909301919091525090565b5f60408083018584526020828186015281865180845260608701915082880193505f5b8181101561513057845180516001600160a01b03168452840151848401529383019391850191600101615102565b509098975050505050505050565b604080825283518282018190525f9190606090818501906020808901865b8381101561519257815180516001600160a01b03168652838101518487015287015187860152938501939082019060010161515c565b505095909501959095525092949350505050565b608080825285518282018190525f919060209060a0850190828a01855b82811015615217578151805161ffff168552858101516001600160a01b031916868601526040808201516001600160a01b03169086015260609081015160ff169085015292850192908401906001016151c3565b50505080935050868185015250508360408301526152386060830184614bb2565b95945050505050565b5f6102008201905087825286602083015285604083015284606083015261526b6080830185614ca1565b615279610140830184614ca1565b979650505050505050565b5f805f8060808587031215615297575f80fd5b8435935060208086013593506152af60408701614b2c565b9250606086013567ffffffffffffffff808211156152cb575f80fd5b818801915088601f8301126152de575f80fd5b8135818111156152f0576152f0614d66565b8060051b9150615301848301614d7a565b818152918301840191848101908b84111561531a575f80fd5b938501935b8385101561535157843592506001600160a01b031983168314615341575f8081fd5b828252938501939085019061531f565b989b979a50959850505050505050565b634e487b7160e01b5f52601160045260245ffd5b8181038181111561468f5761468f615361565b634e487b7160e01b5f52603260045260245ffd5b5f816153aa576153aa615361565b505f190190565b602080825260119082015270139bc8081b1bdd1d195c9e48199bdd5b99607a1b604082015260600190565b8082018082111561468f5761468f615361565b5f6001820161540057615400615361565b5060010190565b808202811582820484141761468f5761468f615361565b5f5b83811015615438578181015183820152602001615420565b50505f910152565b60208152815160208201526020820151604082015261ffff60408301511660608201525f606083015163ffffffff80821660808501528060808601511660a0850152505060a083015160c08084015280518060e08501526101006154aa828287016020860161541e565b80601f19601f840116860101935050505092915050565b5f602082840312156154d1575f80fd5b5051919050565b634e487b7160e01b5f52601260045260245ffd5b5f826154fa576154fa6154d8565b500490565b5f8261550d5761550d6154d8565b500690565b60ff818116838216019081111561468f5761468f615361565b5f60ff821660ff810361554057615540615361565b60010192915050565b6020808252601f908201527f5265656e7472616e637947756172643a207265656e7472616e742063616c6c00604082015260600190565b5f60208284031215615590575f80fd5b81518015158114614729575f80fd5b5f82516155b081846020870161541e565b919091019291505056fea2646970667358221220c20b789740f68b3ef90dd504d999acefe56ed56a1658f63a1ea816e8fd51883164736f6c63430008140033",
        "linkReferences": {}
    },
    "methodIdentifiers": {
        "Draw(uint256)": "3fd10e0b",
        "GetLatestLottery(uint8)": "7decf333",
        "GetLatestLotteryTicketRoundCustomerCount(uint8)": "0a66d299",
        "GetLotteryById(uint256)": "2a0217d3",
        "GetLotteryCount()": "4450a45f",
        "GetPremiumAccount(address)": "149733ec",
        "PerformDraw()": "581ce0b8",
        "WithDrawRewardBaalance()": "8c76d752",
        "acceptOwnership()": "79ba5097",
        "addPremiumAccount(address)": "a3957193",
        "addPremiumAccountWithReferral(address)": "5ec8a3de",
        "chainLinkRandomWords(uint256)": "5189a0bf",
        "changeOperator(address)": "06394c9b",
        "createLottery(uint8,uint256,uint256,uint256[5],uint256[5],uint256)": "17a9b529",
        "distributeTopBuyersAmounts()": "82d23be9",
        "distributeTopLeadersAmounts()": "8bb2c92e",
        "getLotteryWinningAmountByUser(address)": "9640bcd1",
        "getOwnerBalance()": "590791f2",
        "getOwnerTax()": "d9d6beea",
        "getPremiumReserve()": "5445bfb9",
        "getPremiumRewardBalance(address)": "035b3be2",
        "getTop20Leaders()": "ffbf5af2",
        "getTopBuyerList()": "760a23f1",
        "getUser(address)": "6f77926b",
        "getWinnersList(uint256)": "83a2a432",
        "isActiveUser(address)": "4202d214",
        "lotteries(uint256)": "1398e076",
        "owner()": "8da5cb5b",
        "premiumUserList(uint256)": "5bdff9a4",
        "purchaseTicket(uint256,uint256,address,bytes12[])": "d3577a42",
        "rawFulfillRandomWords(uint256,uint256[])": "1fe543e3",
        "removePremiumAccount(address)": "b5827622",
        "s_vrfCoordinator()": "9eccacf6",
        "setCoordinator(address)": "8ea98117",
        "topBuyerAmount()": "9a1fa0fe",
        "topLeaderAmount()": "2667cc6d",
        "transferOwnership(address)": "f2fde38b",
        "usdtToken()": "a98ad46c",
        "users(address)": "a87430ba",
        "withdrawAmountByOwner(uint256)": "e80c4c58",
        "withdrawOwnerBalance()": "941b80ac"
    },
    "id": 23
}