{
  "abi": [
    {
      "type": "constructor",
      "inputs": [
        {
          "name": "subscriptionId",
          "type": "uint256",
          "internalType": "uint256"
        },
        {
          "name": "gasLane",
          "type": "bytes32",
          "internalType": "bytes32"
        },
        {
          "name": "callbackGasLimit",
          "type": "uint32",
          "internalType": "uint32"
        },
        {
          "name": "vrfCoordinatorV2",
          "type": "address",
          "internalType": "address"
        },
        {
          "name": "_usdtToken",
          "type": "address",
          "internalType": "address"
        }
      ],
      "stateMutability": "nonpayable"
    },
    {
      "type": "function",
      "name": "Draw",
      "inputs": [
        {
          "name": "lotteryId",
          "type": "uint256",
          "internalType": "uint256"
        }
      ],
      "outputs": [],
      "stateMutability": "nonpayable"
    },
    {
      "type": "function",
      "name": "GetLatestLottery",
      "inputs": [
        {
          "name": "_type",
          "type": "uint8",
          "internalType": "enum Lottery.LotteryType"
        }
      ],
      "outputs": [
        {
          "name": "",
          "type": "tuple",
          "internalType": "struct Lottery.LotteryRound",
          "components": [
            {
              "name": "id",
              "type": "uint256",
              "internalType": "uint256"
            },
            {
              "name": "roundId",
              "type": "uint256",
              "internalType": "uint256"
            },
            {
              "name": "createdAt",
              "type": "uint256",
              "internalType": "uint256"
            },
            {
              "name": "lotteryType",
              "type": "uint8",
              "internalType": "enum Lottery.LotteryType"
            },
            {
              "name": "minTicketCount",
              "type": "uint256",
              "internalType": "uint256"
            },
            {
              "name": "maxTicketCount",
              "type": "uint256",
              "internalType": "uint256"
            },
            {
              "name": "ticketPrice",
              "type": "uint256",
              "internalType": "uint256"
            },
            {
              "name": "prizesAndWinners",
              "type": "tuple[5]",
              "internalType": "struct Lottery.WinnerPrize[5]",
              "components": [
                {
                  "name": "prizeAmount",
                  "type": "uint256",
                  "internalType": "uint256"
                },
                {
                  "name": "winnerCount",
                  "type": "uint256",
                  "internalType": "uint256"
                }
              ]
            },
            {
              "name": "totalWinners",
              "type": "uint256",
              "internalType": "uint256"
            },
            {
              "name": "isActive",
              "type": "bool",
              "internalType": "bool"
            },
            {
              "name": "tickets",
              "type": "tuple[]",
              "internalType": "struct Lottery.Ticket[]",
              "components": [
                {
                  "name": "customer",
                  "type": "address",
                  "internalType": "address"
                },
                {
                  "name": "timestamp",
                  "type": "uint256",
                  "internalType": "uint256"
                },
                {
                  "name": "ticketString",
                  "type": "bytes12",
                  "internalType": "bytes12"
                }
              ]
            },
            {
              "name": "winners",
              "type": "uint8[]",
              "internalType": "uint8[]"
            },
            {
              "name": "winningTicketNumbers",
              "type": "uint16[]",
              "internalType": "uint16[]"
            },
            {
              "name": "isDistributed",
              "type": "bool",
              "internalType": "bool"
            },
            {
              "name": "totalticketPurchased",
              "type": "uint256",
              "internalType": "uint256"
            },
            {
              "name": "uniqeUserCount",
              "type": "uint256",
              "internalType": "uint256"
            }
          ]
        }
      ],
      "stateMutability": "view"
    },
    {
      "type": "function",
      "name": "GetLatestLotteryTicketRoundCustomerCount",
      "inputs": [
        {
          "name": "_type",
          "type": "uint8",
          "internalType": "enum Lottery.LotteryType"
        }
      ],
      "outputs": [
        {
          "name": "round",
          "type": "uint256",
          "internalType": "uint256"
        },
        {
          "name": "ticketCount",
          "type": "uint256",
          "internalType": "uint256"
        },
        {
          "name": "customerCount",
          "type": "uint256",
          "internalType": "uint256"
        }
      ],
      "stateMutability": "view"
    },
    {
      "type": "function",
      "name": "GetLotteryById",
      "inputs": [
        {
          "name": "lotteryId",
          "type": "uint256",
          "internalType": "uint256"
        }
      ],
      "outputs": [
        {
          "name": "",
          "type": "tuple",
          "internalType": "struct Lottery.LotteryRound",
          "components": [
            {
              "name": "id",
              "type": "uint256",
              "internalType": "uint256"
            },
            {
              "name": "roundId",
              "type": "uint256",
              "internalType": "uint256"
            },
            {
              "name": "createdAt",
              "type": "uint256",
              "internalType": "uint256"
            },
            {
              "name": "lotteryType",
              "type": "uint8",
              "internalType": "enum Lottery.LotteryType"
            },
            {
              "name": "minTicketCount",
              "type": "uint256",
              "internalType": "uint256"
            },
            {
              "name": "maxTicketCount",
              "type": "uint256",
              "internalType": "uint256"
            },
            {
              "name": "ticketPrice",
              "type": "uint256",
              "internalType": "uint256"
            },
            {
              "name": "prizesAndWinners",
              "type": "tuple[5]",
              "internalType": "struct Lottery.WinnerPrize[5]",
              "components": [
                {
                  "name": "prizeAmount",
                  "type": "uint256",
                  "internalType": "uint256"
                },
                {
                  "name": "winnerCount",
                  "type": "uint256",
                  "internalType": "uint256"
                }
              ]
            },
            {
              "name": "totalWinners",
              "type": "uint256",
              "internalType": "uint256"
            },
            {
              "name": "isActive",
              "type": "bool",
              "internalType": "bool"
            },
            {
              "name": "tickets",
              "type": "tuple[]",
              "internalType": "struct Lottery.Ticket[]",
              "components": [
                {
                  "name": "customer",
                  "type": "address",
                  "internalType": "address"
                },
                {
                  "name": "timestamp",
                  "type": "uint256",
                  "internalType": "uint256"
                },
                {
                  "name": "ticketString",
                  "type": "bytes12",
                  "internalType": "bytes12"
                }
              ]
            },
            {
              "name": "winners",
              "type": "uint8[]",
              "internalType": "uint8[]"
            },
            {
              "name": "winningTicketNumbers",
              "type": "uint16[]",
              "internalType": "uint16[]"
            },
            {
              "name": "isDistributed",
              "type": "bool",
              "internalType": "bool"
            },
            {
              "name": "totalticketPurchased",
              "type": "uint256",
              "internalType": "uint256"
            },
            {
              "name": "uniqeUserCount",
              "type": "uint256",
              "internalType": "uint256"
            }
          ]
        }
      ],
      "stateMutability": "view"
    },
    {
      "type": "function",
      "name": "GetLotteryCount",
      "inputs": [],
      "outputs": [
        {
          "name": "",
          "type": "uint256",
          "internalType": "uint256"
        }
      ],
      "stateMutability": "view"
    },
    {
      "type": "function",
      "name": "GetPremiumAccount",
      "inputs": [
        {
          "name": "_user",
          "type": "address",
          "internalType": "address"
        }
      ],
      "outputs": [
        {
          "name": "",
          "type": "tuple",
          "internalType": "struct Lottery.User",
          "components": [
            {
              "name": "premium",
              "type": "uint256",
              "internalType": "uint256"
            },
            {
              "name": "firstLottery",
              "type": "uint256",
              "internalType": "uint256"
            },
            {
              "name": "lastTicketPurchased",
              "type": "uint256",
              "internalType": "uint256"
            },
            {
              "name": "totalPurchaseTicketCost",
              "type": "uint256",
              "internalType": "uint256"
            },
            {
              "name": "referrerList",
              "type": "address[7]",
              "internalType": "address[7]"
            },
            {
              "name": "directReferress",
              "type": "address[]",
              "internalType": "address[]"
            },
            {
              "name": "totalEarning",
              "type": "tuple",
              "internalType": "struct Lottery.totalEarning",
              "components": [
                {
                  "name": "refTax",
                  "type": "uint256",
                  "internalType": "uint256"
                },
                {
                  "name": "premiumTax",
                  "type": "uint256",
                  "internalType": "uint256"
                },
                {
                  "name": "premiumReferralTax",
                  "type": "uint256",
                  "internalType": "uint256"
                },
                {
                  "name": "topBuyerTax",
                  "type": "uint256",
                  "internalType": "uint256"
                },
                {
                  "name": "topLeaderTax",
                  "type": "uint256",
                  "internalType": "uint256"
                },
                {
                  "name": "winningAmount",
                  "type": "uint256",
                  "internalType": "uint256"
                }
              ]
            },
            {
              "name": "availableTax",
              "type": "tuple",
              "internalType": "struct Lottery.AvaileableUserTax",
              "components": [
                {
                  "name": "refTax",
                  "type": "uint256[7]",
                  "internalType": "uint256[7]"
                },
                {
                  "name": "premiumTax",
                  "type": "uint256",
                  "internalType": "uint256"
                },
                {
                  "name": "premiumReferralTax",
                  "type": "uint256",
                  "internalType": "uint256"
                },
                {
                  "name": "topBuyerTax",
                  "type": "uint256",
                  "internalType": "uint256"
                },
                {
                  "name": "topLeaderTax",
                  "type": "uint256",
                  "internalType": "uint256"
                },
                {
                  "name": "winningAmount",
                  "type": "uint256",
                  "internalType": "uint256"
                }
              ]
            },
            {
              "name": "purchasedTickets",
              "type": "tuple",
              "internalType": "struct Lottery.PurchasedTickets",
              "components": [
                {
                  "name": "topBuyerTickets",
                  "type": "uint256",
                  "internalType": "uint256"
                },
                {
                  "name": "topBuyerCost",
                  "type": "uint256",
                  "internalType": "uint256"
                },
                {
                  "name": "topLeaderTickets",
                  "type": "uint256",
                  "internalType": "uint256"
                },
                {
                  "name": "topLeaderRefLevel1Tickets",
                  "type": "uint256",
                  "internalType": "uint256"
                },
                {
                  "name": "topLeaderRefLevelallTickets",
                  "type": "uint256",
                  "internalType": "uint256"
                },
                {
                  "name": "topLeaderRefLevelallCost",
                  "type": "uint256",
                  "internalType": "uint256"
                },
                {
                  "name": "refTickets",
                  "type": "uint256",
                  "internalType": "uint256"
                }
              ]
            }
          ]
        }
      ],
      "stateMutability": "view"
    },
    {
      "type": "function",
      "name": "PerformDraw",
      "inputs": [],
      "outputs": [],
      "stateMutability": "nonpayable"
    },
    {
      "type": "function",
      "name": "WithDrawRewardBaalance",
      "inputs": [],
      "outputs": [],
      "stateMutability": "nonpayable"
    },
    {
      "type": "function",
      "name": "acceptOwnership",
      "inputs": [],
      "outputs": [],
      "stateMutability": "nonpayable"
    },
    {
      "type": "function",
      "name": "addPremiumAccount",
      "inputs": [
        {
          "name": "_user",
          "type": "address",
          "internalType": "address"
        }
      ],
      "outputs": [],
      "stateMutability": "nonpayable"
    },
    {
      "type": "function",
      "name": "addPremiumAccountWithReferral",
      "inputs": [
        {
          "name": "referral",
          "type": "address",
          "internalType": "address"
        }
      ],
      "outputs": [],
      "stateMutability": "nonpayable"
    },
    {
      "type": "function",
      "name": "chainLinkRandomWords",
      "inputs": [
        {
          "name": "",
          "type": "uint256",
          "internalType": "uint256"
        }
      ],
      "outputs": [
        {
          "name": "",
          "type": "uint256",
          "internalType": "uint256"
        }
      ],
      "stateMutability": "view"
    },
    {
      "type": "function",
      "name": "changeOperator",
      "inputs": [
        {
          "name": "_operator",
          "type": "address",
          "internalType": "address"
        }
      ],
      "outputs": [],
      "stateMutability": "nonpayable"
    },
    {
      "type": "function",
      "name": "createLottery",
      "inputs": [
        {
          "name": "_type",
          "type": "uint8",
          "internalType": "enum Lottery.LotteryType"
        },
        {
          "name": "_minTicketCount",
          "type": "uint256",
          "internalType": "uint256"
        },
        {
          "name": "_maxTicketCount",
          "type": "uint256",
          "internalType": "uint256"
        },
        {
          "name": "_prizeAmounts",
          "type": "uint256[5]",
          "internalType": "uint256[5]"
        },
        {
          "name": "_winnerCounts",
          "type": "uint256[5]",
          "internalType": "uint256[5]"
        },
        {
          "name": "_totalWinners",
          "type": "uint256",
          "internalType": "uint256"
        }
      ],
      "outputs": [],
      "stateMutability": "nonpayable"
    },
    {
      "type": "function",
      "name": "distributeTopBuyersAmounts",
      "inputs": [],
      "outputs": [],
      "stateMutability": "nonpayable"
    },
    {
      "type": "function",
      "name": "distributeTopLeadersAmounts",
      "inputs": [],
      "outputs": [],
      "stateMutability": "nonpayable"
    },
    {
      "type": "function",
      "name": "getLotteryWinningAmountByUser",
      "inputs": [
        {
          "name": "userAddress",
          "type": "address",
          "internalType": "address"
        }
      ],
      "outputs": [
        {
          "name": "",
          "type": "uint256",
          "internalType": "uint256"
        }
      ],
      "stateMutability": "view"
    },
    {
      "type": "function",
      "name": "getOwnerBalance",
      "inputs": [],
      "outputs": [
        {
          "name": "",
          "type": "uint256",
          "internalType": "uint256"
        },
        {
          "name": "",
          "type": "uint256",
          "internalType": "uint256"
        },
        {
          "name": "",
          "type": "uint256",
          "internalType": "uint256"
        }
      ],
      "stateMutability": "view"
    },
    {
      "type": "function",
      "name": "getOwnerTax",
      "inputs": [],
      "outputs": [
        {
          "name": "",
          "type": "uint256",
          "internalType": "uint256"
        }
      ],
      "stateMutability": "view"
    },
    {
      "type": "function",
      "name": "getPremiumReserve",
      "inputs": [],
      "outputs": [
        {
          "name": "",
          "type": "uint256",
          "internalType": "uint256"
        },
        {
          "name": "",
          "type": "tuple[]",
          "internalType": "struct Lottery.PremiumUsers[]",
          "components": [
            {
              "name": "user",
              "type": "address",
              "internalType": "address"
            },
            {
              "name": "amount",
              "type": "uint256",
              "internalType": "uint256"
            }
          ]
        }
      ],
      "stateMutability": "view"
    },
    {
      "type": "function",
      "name": "getPremiumRewardBalance",
      "inputs": [
        {
          "name": "_user",
          "type": "address",
          "internalType": "address"
        }
      ],
      "outputs": [
        {
          "name": "",
          "type": "uint256",
          "internalType": "uint256"
        },
        {
          "name": "",
          "type": "bool",
          "internalType": "bool"
        }
      ],
      "stateMutability": "view"
    },
    {
      "type": "function",
      "name": "getTop20Leaders",
      "inputs": [],
      "outputs": [
        {
          "name": "",
          "type": "tuple[]",
          "internalType": "struct Lottery.Leader[]",
          "components": [
            {
              "name": "user",
              "type": "address",
              "internalType": "address"
            },
            {
              "name": "ticket",
              "type": "uint256",
              "internalType": "uint256"
            },
            {
              "name": "amount",
              "type": "uint256",
              "internalType": "uint256"
            }
          ]
        },
        {
          "name": "",
          "type": "uint256",
          "internalType": "uint256"
        }
      ],
      "stateMutability": "view"
    },
    {
      "type": "function",
      "name": "getTopBuyerList",
      "inputs": [],
      "outputs": [
        {
          "name": "",
          "type": "tuple[]",
          "internalType": "struct Lottery.Leader[]",
          "components": [
            {
              "name": "user",
              "type": "address",
              "internalType": "address"
            },
            {
              "name": "ticket",
              "type": "uint256",
              "internalType": "uint256"
            },
            {
              "name": "amount",
              "type": "uint256",
              "internalType": "uint256"
            }
          ]
        },
        {
          "name": "",
          "type": "uint256",
          "internalType": "uint256"
        }
      ],
      "stateMutability": "view"
    },
    {
      "type": "function",
      "name": "getUser",
      "inputs": [
        {
          "name": "_user",
          "type": "address",
          "internalType": "address"
        }
      ],
      "outputs": [
        {
          "name": "",
          "type": "tuple",
          "internalType": "struct Lottery.User",
          "components": [
            {
              "name": "premium",
              "type": "uint256",
              "internalType": "uint256"
            },
            {
              "name": "firstLottery",
              "type": "uint256",
              "internalType": "uint256"
            },
            {
              "name": "lastTicketPurchased",
              "type": "uint256",
              "internalType": "uint256"
            },
            {
              "name": "totalPurchaseTicketCost",
              "type": "uint256",
              "internalType": "uint256"
            },
            {
              "name": "referrerList",
              "type": "address[7]",
              "internalType": "address[7]"
            },
            {
              "name": "directReferress",
              "type": "address[]",
              "internalType": "address[]"
            },
            {
              "name": "totalEarning",
              "type": "tuple",
              "internalType": "struct Lottery.totalEarning",
              "components": [
                {
                  "name": "refTax",
                  "type": "uint256",
                  "internalType": "uint256"
                },
                {
                  "name": "premiumTax",
                  "type": "uint256",
                  "internalType": "uint256"
                },
                {
                  "name": "premiumReferralTax",
                  "type": "uint256",
                  "internalType": "uint256"
                },
                {
                  "name": "topBuyerTax",
                  "type": "uint256",
                  "internalType": "uint256"
                },
                {
                  "name": "topLeaderTax",
                  "type": "uint256",
                  "internalType": "uint256"
                },
                {
                  "name": "winningAmount",
                  "type": "uint256",
                  "internalType": "uint256"
                }
              ]
            },
            {
              "name": "availableTax",
              "type": "tuple",
              "internalType": "struct Lottery.AvaileableUserTax",
              "components": [
                {
                  "name": "refTax",
                  "type": "uint256[7]",
                  "internalType": "uint256[7]"
                },
                {
                  "name": "premiumTax",
                  "type": "uint256",
                  "internalType": "uint256"
                },
                {
                  "name": "premiumReferralTax",
                  "type": "uint256",
                  "internalType": "uint256"
                },
                {
                  "name": "topBuyerTax",
                  "type": "uint256",
                  "internalType": "uint256"
                },
                {
                  "name": "topLeaderTax",
                  "type": "uint256",
                  "internalType": "uint256"
                },
                {
                  "name": "winningAmount",
                  "type": "uint256",
                  "internalType": "uint256"
                }
              ]
            },
            {
              "name": "purchasedTickets",
              "type": "tuple",
              "internalType": "struct Lottery.PurchasedTickets",
              "components": [
                {
                  "name": "topBuyerTickets",
                  "type": "uint256",
                  "internalType": "uint256"
                },
                {
                  "name": "topBuyerCost",
                  "type": "uint256",
                  "internalType": "uint256"
                },
                {
                  "name": "topLeaderTickets",
                  "type": "uint256",
                  "internalType": "uint256"
                },
                {
                  "name": "topLeaderRefLevel1Tickets",
                  "type": "uint256",
                  "internalType": "uint256"
                },
                {
                  "name": "topLeaderRefLevelallTickets",
                  "type": "uint256",
                  "internalType": "uint256"
                },
                {
                  "name": "topLeaderRefLevelallCost",
                  "type": "uint256",
                  "internalType": "uint256"
                },
                {
                  "name": "refTickets",
                  "type": "uint256",
                  "internalType": "uint256"
                }
              ]
            }
          ]
        }
      ],
      "stateMutability": "view"
    },
    {
      "type": "function",
      "name": "getWinnersList",
      "inputs": [
        {
          "name": "lottteryId",
          "type": "uint256",
          "internalType": "uint256"
        }
      ],
      "outputs": [
        {
          "name": "",
          "type": "tuple[]",
          "internalType": "struct Lottery.LotteryResult[]",
          "components": [
            {
              "name": "sl",
              "type": "uint16",
              "internalType": "uint16"
            },
            {
              "name": "ticket",
              "type": "bytes12",
              "internalType": "bytes12"
            },
            {
              "name": "user",
              "type": "address",
              "internalType": "address"
            },
            {
              "name": "prize",
              "type": "uint8",
              "internalType": "uint8"
            }
          ]
        },
        {
          "name": "",
          "type": "uint256",
          "internalType": "uint256"
        },
        {
          "name": "",
          "type": "uint256",
          "internalType": "uint256"
        },
        {
          "name": "",
          "type": "uint8",
          "internalType": "enum Lottery.LotteryType"
        }
      ],
      "stateMutability": "view"
    },
    {
      "type": "function",
      "name": "isActiveUser",
      "inputs": [
        {
          "name": "_user",
          "type": "address",
          "internalType": "address"
        }
      ],
      "outputs": [
        {
          "name": "",
          "type": "bool",
          "internalType": "bool"
        }
      ],
      "stateMutability": "view"
    },
    {
      "type": "function",
      "name": "lotteries",
      "inputs": [
        {
          "name": "",
          "type": "uint256",
          "internalType": "uint256"
        }
      ],
      "outputs": [
        {
          "name": "id",
          "type": "uint256",
          "internalType": "uint256"
        },
        {
          "name": "roundId",
          "type": "uint256",
          "internalType": "uint256"
        },
        {
          "name": "createdAt",
          "type": "uint256",
          "internalType": "uint256"
        },
        {
          "name": "lotteryType",
          "type": "uint8",
          "internalType": "enum Lottery.LotteryType"
        },
        {
          "name": "minTicketCount",
          "type": "uint256",
          "internalType": "uint256"
        },
        {
          "name": "maxTicketCount",
          "type": "uint256",
          "internalType": "uint256"
        },
        {
          "name": "ticketPrice",
          "type": "uint256",
          "internalType": "uint256"
        },
        {
          "name": "totalWinners",
          "type": "uint256",
          "internalType": "uint256"
        },
        {
          "name": "isActive",
          "type": "bool",
          "internalType": "bool"
        },
        {
          "name": "isDistributed",
          "type": "bool",
          "internalType": "bool"
        },
        {
          "name": "totalticketPurchased",
          "type": "uint256",
          "internalType": "uint256"
        },
        {
          "name": "uniqeUserCount",
          "type": "uint256",
          "internalType": "uint256"
        }
      ],
      "stateMutability": "view"
    },
    {
      "type": "function",
      "name": "owner",
      "inputs": [],
      "outputs": [
        {
          "name": "",
          "type": "address",
          "internalType": "address"
        }
      ],
      "stateMutability": "view"
    },
    {
      "type": "function",
      "name": "premiumUserList",
      "inputs": [
        {
          "name": "",
          "type": "uint256",
          "internalType": "uint256"
        }
      ],
      "outputs": [
        {
          "name": "",
          "type": "address",
          "internalType": "address"
        }
      ],
      "stateMutability": "view"
    },
    {
      "type": "function",
      "name": "purchaseTicket",
      "inputs": [
        {
          "name": "lotteryId",
          "type": "uint256",
          "internalType": "uint256"
        },
        {
          "name": "ticketCount",
          "type": "uint256",
          "internalType": "uint256"
        },
        {
          "name": "referrer",
          "type": "address",
          "internalType": "address"
        },
        {
          "name": "ticketStrings",
          "type": "bytes12[]",
          "internalType": "bytes12[]"
        }
      ],
      "outputs": [],
      "stateMutability": "nonpayable"
    },
    {
      "type": "function",
      "name": "rawFulfillRandomWords",
      "inputs": [
        {
          "name": "requestId",
          "type": "uint256",
          "internalType": "uint256"
        },
        {
          "name": "randomWords",
          "type": "uint256[]",
          "internalType": "uint256[]"
        }
      ],
      "outputs": [],
      "stateMutability": "nonpayable"
    },
    {
      "type": "function",
      "name": "removePremiumAccount",
      "inputs": [
        {
          "name": "_user",
          "type": "address",
          "internalType": "address"
        }
      ],
      "outputs": [],
      "stateMutability": "nonpayable"
    },
    {
      "type": "function",
      "name": "s_vrfCoordinator",
      "inputs": [],
      "outputs": [
        {
          "name": "",
          "type": "address",
          "internalType": "contract IVRFCoordinatorV2Plus"
        }
      ],
      "stateMutability": "view"
    },
    {
      "type": "function",
      "name": "setCoordinator",
      "inputs": [
        {
          "name": "_vrfCoordinator",
          "type": "address",
          "internalType": "address"
        }
      ],
      "outputs": [],
      "stateMutability": "nonpayable"
    },
    {
      "type": "function",
      "name": "topBuyerAmount",
      "inputs": [],
      "outputs": [
        {
          "name": "",
          "type": "uint256",
          "internalType": "uint256"
        }
      ],
      "stateMutability": "view"
    },
    {
      "type": "function",
      "name": "topLeaderAmount",
      "inputs": [],
      "outputs": [
        {
          "name": "",
          "type": "uint256",
          "internalType": "uint256"
        }
      ],
      "stateMutability": "view"
    },
    {
      "type": "function",
      "name": "transferOwnership",
      "inputs": [
        {
          "name": "to",
          "type": "address",
          "internalType": "address"
        }
      ],
      "outputs": [],
      "stateMutability": "nonpayable"
    },
    {
      "type": "function",
      "name": "usdtToken",
      "inputs": [],
      "outputs": [
        {
          "name": "",
          "type": "address",
          "internalType": "address"
        }
      ],
      "stateMutability": "view"
    },
    {
      "type": "function",
      "name": "users",
      "inputs": [
        {
          "name": "",
          "type": "address",
          "internalType": "address"
        }
      ],
      "outputs": [
        {
          "name": "premium",
          "type": "uint256",
          "internalType": "uint256"
        },
        {
          "name": "firstLottery",
          "type": "uint256",
          "internalType": "uint256"
        },
        {
          "name": "lastTicketPurchased",
          "type": "uint256",
          "internalType": "uint256"
        },
        {
          "name": "totalPurchaseTicketCost",
          "type": "uint256",
          "internalType": "uint256"
        },
        {
          "name": "totalEarning",
          "type": "tuple",
          "internalType": "struct Lottery.totalEarning",
          "components": [
            {
              "name": "refTax",
              "type": "uint256",
              "internalType": "uint256"
            },
            {
              "name": "premiumTax",
              "type": "uint256",
              "internalType": "uint256"
            },
            {
              "name": "premiumReferralTax",
              "type": "uint256",
              "internalType": "uint256"
            },
            {
              "name": "topBuyerTax",
              "type": "uint256",
              "internalType": "uint256"
            },
            {
              "name": "topLeaderTax",
              "type": "uint256",
              "internalType": "uint256"
            },
            {
              "name": "winningAmount",
              "type": "uint256",
              "internalType": "uint256"
            }
          ]
        },
        {
          "name": "availableTax",
          "type": "tuple",
          "internalType": "struct Lottery.AvaileableUserTax",
          "components": [
            {
              "name": "refTax",
              "type": "uint256[7]",
              "internalType": "uint256[7]"
            },
            {
              "name": "premiumTax",
              "type": "uint256",
              "internalType": "uint256"
            },
            {
              "name": "premiumReferralTax",
              "type": "uint256",
              "internalType": "uint256"
            },
            {
              "name": "topBuyerTax",
              "type": "uint256",
              "internalType": "uint256"
            },
            {
              "name": "topLeaderTax",
              "type": "uint256",
              "internalType": "uint256"
            },
            {
              "name": "winningAmount",
              "type": "uint256",
              "internalType": "uint256"
            }
          ]
        },
        {
          "name": "purchasedTickets",
          "type": "tuple",
          "internalType": "struct Lottery.PurchasedTickets",
          "components": [
            {
              "name": "topBuyerTickets",
              "type": "uint256",
              "internalType": "uint256"
            },
            {
              "name": "topBuyerCost",
              "type": "uint256",
              "internalType": "uint256"
            },
            {
              "name": "topLeaderTickets",
              "type": "uint256",
              "internalType": "uint256"
            },
            {
              "name": "topLeaderRefLevel1Tickets",
              "type": "uint256",
              "internalType": "uint256"
            },
            {
              "name": "topLeaderRefLevelallTickets",
              "type": "uint256",
              "internalType": "uint256"
            },
            {
              "name": "topLeaderRefLevelallCost",
              "type": "uint256",
              "internalType": "uint256"
            },
            {
              "name": "refTickets",
              "type": "uint256",
              "internalType": "uint256"
            }
          ]
        }
      ],
      "stateMutability": "view"
    },
    {
      "type": "function",
      "name": "withdrawAmountByOwner",
      "inputs": [
        {
          "name": "_amount",
          "type": "uint256",
          "internalType": "uint256"
        }
      ],
      "outputs": [],
      "stateMutability": "nonpayable"
    },
    {
      "type": "function",
      "name": "withdrawOwnerBalance",
      "inputs": [],
      "outputs": [],
      "stateMutability": "nonpayable"
    },
    {
      "type": "event",
      "name": "CoordinatorSet",
      "inputs": [
        {
          "name": "vrfCoordinator",
          "type": "address",
          "indexed": false,
          "internalType": "address"
        }
      ],
      "anonymous": false
    },
    {
      "type": "event",
      "name": "Lottery_Created",
      "inputs": [
        {
          "name": "id",
          "type": "uint256",
          "indexed": true,
          "internalType": "uint256"
        }
      ],
      "anonymous": false
    },
    {
      "type": "event",
      "name": "Lottery_RequestForWinners",
      "inputs": [
        {
          "name": "requestId",
          "type": "uint256",
          "indexed": true,
          "internalType": "uint256"
        }
      ],
      "anonymous": false
    },
    {
      "type": "event",
      "name": "Lottery_WinnersSelected",
      "inputs": [
        {
          "name": "id",
          "type": "uint256",
          "indexed": true,
          "internalType": "uint256"
        }
      ],
      "anonymous": false
    },
    {
      "type": "event",
      "name": "OwnershipTransferRequested",
      "inputs": [
        {
          "name": "from",
          "type": "address",
          "indexed": true,
          "internalType": "address"
        },
        {
          "name": "to",
          "type": "address",
          "indexed": true,
          "internalType": "address"
        }
      ],
      "anonymous": false
    },
    {
      "type": "event",
      "name": "OwnershipTransferred",
      "inputs": [
        {
          "name": "from",
          "type": "address",
          "indexed": true,
          "internalType": "address"
        },
        {
          "name": "to",
          "type": "address",
          "indexed": true,
          "internalType": "address"
        }
      ],
      "anonymous": false
    },
    {
      "type": "event",
      "name": "Premium__UserAdded",
      "inputs": [
        {
          "name": "user",
          "type": "address",
          "indexed": true,
          "internalType": "address"
        }
      ],
      "anonymous": false
    },
    {
      "type": "event",
      "name": "Premium__UserRemoved",
      "inputs": [
        {
          "name": "user",
          "type": "address",
          "indexed": true,
          "internalType": "address"
        }
      ],
      "anonymous": false
    },
    {
      "type": "event",
      "name": "REFFERELS__Added",
      "inputs": [
        {
          "name": "referee",
          "type": "address",
          "indexed": true,
          "internalType": "address"
        }
      ],
      "anonymous": false
    },
    {
      "type": "event",
      "name": "Ticket__Purchased",
      "inputs": [
        {
          "name": "id",
          "type": "uint256",
          "indexed": true,
          "internalType": "uint256"
        }
      ],
      "anonymous": false
    },
    {
      "type": "event",
      "name": "WiinerAddress",
      "inputs": [
        {
          "name": "",
          "type": "uint256[][]",
          "indexed": false,
          "internalType": "uint256[][]"
        }
      ],
      "anonymous": false
    },
    {
      "type": "event",
      "name": "lotteryTestEvent",
      "inputs": [
        {
          "name": "user",
          "type": "tuple",
          "indexed": false,
          "internalType": "struct Lottery.User",
          "components": [
            {
              "name": "premium",
              "type": "uint256",
              "internalType": "uint256"
            },
            {
              "name": "firstLottery",
              "type": "uint256",
              "internalType": "uint256"
            },
            {
              "name": "lastTicketPurchased",
              "type": "uint256",
              "internalType": "uint256"
            },
            {
              "name": "totalPurchaseTicketCost",
              "type": "uint256",
              "internalType": "uint256"
            },
            {
              "name": "referrerList",
              "type": "address[7]",
              "internalType": "address[7]"
            },
            {
              "name": "directReferress",
              "type": "address[]",
              "internalType": "address[]"
            },
            {
              "name": "totalEarning",
              "type": "tuple",
              "internalType": "struct Lottery.totalEarning",
              "components": [
                {
                  "name": "refTax",
                  "type": "uint256",
                  "internalType": "uint256"
                },
                {
                  "name": "premiumTax",
                  "type": "uint256",
                  "internalType": "uint256"
                },
                {
                  "name": "premiumReferralTax",
                  "type": "uint256",
                  "internalType": "uint256"
                },
                {
                  "name": "topBuyerTax",
                  "type": "uint256",
                  "internalType": "uint256"
                },
                {
                  "name": "topLeaderTax",
                  "type": "uint256",
                  "internalType": "uint256"
                },
                {
                  "name": "winningAmount",
                  "type": "uint256",
                  "internalType": "uint256"
                }
              ]
            },
            {
              "name": "availableTax",
              "type": "tuple",
              "internalType": "struct Lottery.AvaileableUserTax",
              "components": [
                {
                  "name": "refTax",
                  "type": "uint256[7]",
                  "internalType": "uint256[7]"
                },
                {
                  "name": "premiumTax",
                  "type": "uint256",
                  "internalType": "uint256"
                },
                {
                  "name": "premiumReferralTax",
                  "type": "uint256",
                  "internalType": "uint256"
                },
                {
                  "name": "topBuyerTax",
                  "type": "uint256",
                  "internalType": "uint256"
                },
                {
                  "name": "topLeaderTax",
                  "type": "uint256",
                  "internalType": "uint256"
                },
                {
                  "name": "winningAmount",
                  "type": "uint256",
                  "internalType": "uint256"
                }
              ]
            },
            {
              "name": "purchasedTickets",
              "type": "tuple",
              "internalType": "struct Lottery.PurchasedTickets",
              "components": [
                {
                  "name": "topBuyerTickets",
                  "type": "uint256",
                  "internalType": "uint256"
                },
                {
                  "name": "topBuyerCost",
                  "type": "uint256",
                  "internalType": "uint256"
                },
                {
                  "name": "topLeaderTickets",
                  "type": "uint256",
                  "internalType": "uint256"
                },
                {
                  "name": "topLeaderRefLevel1Tickets",
                  "type": "uint256",
                  "internalType": "uint256"
                },
                {
                  "name": "topLeaderRefLevelallTickets",
                  "type": "uint256",
                  "internalType": "uint256"
                },
                {
                  "name": "topLeaderRefLevelallCost",
                  "type": "uint256",
                  "internalType": "uint256"
                },
                {
                  "name": "refTickets",
                  "type": "uint256",
                  "internalType": "uint256"
                }
              ]
            }
          ]
        }
      ],
      "anonymous": false
    },
    {
      "type": "event",
      "name": "withdrawAmount__SuccessFull",
      "inputs": [
        {
          "name": "amount",
          "type": "uint256",
          "indexed": true,
          "internalType": "uint256"
        }
      ],
      "anonymous": false
    },
    {
      "type": "error",
      "name": "AddressEmptyCode",
      "inputs": [
        {
          "name": "target",
          "type": "address",
          "internalType": "address"
        }
      ]
    },
    {
      "type": "error",
      "name": "AddressInsufficientBalance",
      "inputs": [
        {
          "name": "account",
          "type": "address",
          "internalType": "address"
        }
      ]
    },
    {
      "type": "error",
      "name": "FailedInnerCall",
      "inputs": []
    },
    {
      "type": "error",
      "name": "Lottery__InvalidTicketStringsLength",
      "inputs": []
    },
    {
      "type": "error",
      "name": "Lottery__IsActive",
      "inputs": []
    },
    {
      "type": "error",
      "name": "Lottery__NotEnoughTicketPurchases",
      "inputs": [
        {
          "name": "",
          "type": "uint32",
          "internalType": "uint32"
        }
      ]
    },
    {
      "type": "error",
      "name": "Lottery__OnlyOperatorCanCall",
      "inputs": []
    },
    {
      "type": "error",
      "name": "Lottery__OnlyOwnerCanCall",
      "inputs": []
    },
    {
      "type": "error",
      "name": "Lottery__SoldOut",
      "inputs": []
    },
    {
      "type": "error",
      "name": "Lottery__failedToGenerateRandomNumbers",
      "inputs": []
    },
    {
      "type": "error",
      "name": "Lottery__notActive",
      "inputs": []
    },
    {
      "type": "error",
      "name": "Lottery__notEnoughMoney",
      "inputs": []
    },
    {
      "type": "error",
      "name": "Lottery__notFound",
      "inputs": [
        {
          "name": "",
          "type": "string",
          "internalType": "string"
        }
      ]
    },
    {
      "type": "error",
      "name": "Lottery__otherLotteryIsActive",
      "inputs": [
        {
          "name": "",
          "type": "tuple",
          "internalType": "struct Lottery.LotteryRound",
          "components": [
            {
              "name": "id",
              "type": "uint256",
              "internalType": "uint256"
            },
            {
              "name": "roundId",
              "type": "uint256",
              "internalType": "uint256"
            },
            {
              "name": "createdAt",
              "type": "uint256",
              "internalType": "uint256"
            },
            {
              "name": "lotteryType",
              "type": "uint8",
              "internalType": "enum Lottery.LotteryType"
            },
            {
              "name": "minTicketCount",
              "type": "uint256",
              "internalType": "uint256"
            },
            {
              "name": "maxTicketCount",
              "type": "uint256",
              "internalType": "uint256"
            },
            {
              "name": "ticketPrice",
              "type": "uint256",
              "internalType": "uint256"
            },
            {
              "name": "prizesAndWinners",
              "type": "tuple[5]",
              "internalType": "struct Lottery.WinnerPrize[5]",
              "components": [
                {
                  "name": "prizeAmount",
                  "type": "uint256",
                  "internalType": "uint256"
                },
                {
                  "name": "winnerCount",
                  "type": "uint256",
                  "internalType": "uint256"
                }
              ]
            },
            {
              "name": "totalWinners",
              "type": "uint256",
              "internalType": "uint256"
            },
            {
              "name": "isActive",
              "type": "bool",
              "internalType": "bool"
            },
            {
              "name": "tickets",
              "type": "tuple[]",
              "internalType": "struct Lottery.Ticket[]",
              "components": [
                {
                  "name": "customer",
                  "type": "address",
                  "internalType": "address"
                },
                {
                  "name": "timestamp",
                  "type": "uint256",
                  "internalType": "uint256"
                },
                {
                  "name": "ticketString",
                  "type": "bytes12",
                  "internalType": "bytes12"
                }
              ]
            },
            {
              "name": "winners",
              "type": "uint8[]",
              "internalType": "uint8[]"
            },
            {
              "name": "winningTicketNumbers",
              "type": "uint16[]",
              "internalType": "uint16[]"
            },
            {
              "name": "isDistributed",
              "type": "bool",
              "internalType": "bool"
            },
            {
              "name": "totalticketPurchased",
              "type": "uint256",
              "internalType": "uint256"
            },
            {
              "name": "uniqeUserCount",
              "type": "uint256",
              "internalType": "uint256"
            }
          ]
        }
      ]
    },
    {
      "type": "error",
      "name": "OnlyCoordinatorCanFulfill",
      "inputs": [
        {
          "name": "have",
          "type": "address",
          "internalType": "address"
        },
        {
          "name": "want",
          "type": "address",
          "internalType": "address"
        }
      ]
    },
    {
      "type": "error",
      "name": "OnlyOwnerOrCoordinator",
      "inputs": [
        {
          "name": "have",
          "type": "address",
          "internalType": "address"
        },
        {
          "name": "owner",
          "type": "address",
          "internalType": "address"
        },
        {
          "name": "coordinator",
          "type": "address",
          "internalType": "address"
        }
      ]
    },
    {
      "type": "error",
      "name": "Premium__UserAlreadyExist",
      "inputs": []
    },
    {
      "type": "error",
      "name": "Premium__UserDoesNotExist",
      "inputs": [
        {
          "name": "",
          "type": "address",
          "internalType": "address"
        }
      ]
    },
    {
      "type": "error",
      "name": "SafeERC20FailedOperation",
      "inputs": [
        {
          "name": "token",
          "type": "address",
          "internalType": "address"
        }
      ]
    },
    {
      "type": "error",
      "name": "ZeroAddress",
      "inputs": []
    },
    {
      "type": "error",
      "name": "withdrawAmount__NotEnoughMoney",
      "inputs": []
    },
    {
      "type": "error",
      "name": "withdrawAmount__failed",
      "inputs": []
    }
  ],
  "bytecode": {
    "object": "0x6004805460ff1916600a179055610120604052622dc6c060e090815262989680610100526200003390600690600262000376565b506040805160e081018252600a8152600560208201526003918101919091526002606082015260016080820181905260a0820181905260c08201526200007e906009906007620003c0565b506040805161028081018252600d8152600b6020820152600a918101919091526009606082015260086080820152600760a0820152600660c0820152600560e08201526004610100820152600361012082018190526101408201819052610160820181905261018082018190526101a082015260026101c082018190526101e0820181905261020082018190526102208201819052610240820181905261026082015262000131906010906014620003f6565b50600160245560016025555f6026555f602d555f602e555f602f555f603055678ac7230489e7ffff603155678ac7230489e7ffff6032556402540be4006033553480156200017d575f80fd5b50604051620062c8380380620062c8833981016040819052620001a0916200045d565b8133805f81620001f75760405162461bcd60e51b815260206004820152601860248201527f43616e6e6f7420736574206f776e657220746f207a65726f000000000000000060448201526064015b60405180910390fd5b5f80546001600160a01b0319166001600160a01b038481169190911790915581161562000229576200022981620002cc565b5050506001600160a01b038116620002545760405163d92e233d60e01b815260040160405180910390fd5b600280546001600160a01b03199081166001600160a01b0393841617909155600160035560a09590955260809590955263ffffffff9290921660c05250600880548316919093161790915560048054610100600160a81b031916610100339081029190911790915560058054909216179055620004c0565b336001600160a01b03821603620003265760405162461bcd60e51b815260206004820152601760248201527f43616e6e6f74207472616e7366657220746f2073656c660000000000000000006044820152606401620001ee565b600180546001600160a01b0319166001600160a01b038381169182179092555f8054604051929316917fed8889f560326eb138920d842192f0eb3dd22b4f139c87a2c57538e05bae12789190a350565b8260028101928215620003ae579160200282015b82811115620003ae578251829062ffffff169055916020019190600101906200038a565b50620003bc9291506200042b565b5090565b8260078101928215620003ae579160200282015b82811115620003ae578251829060ff16905591602001919060010190620003d4565b8260148101928215620003ae5791602002820182811115620003ae578251829060ff16905591602001919060010190620003d4565b5b80821115620003bc575f81556001016200042c565b80516001600160a01b038116811462000458575f80fd5b919050565b5f805f805f60a0868803121562000472575f80fd5b8551945060208601519350604086015163ffffffff8116811462000494575f80fd5b9250620004a46060870162000441565b9150620004b46080870162000441565b90509295509295909350565b60805160a05160c051615ddd620004eb5f395f6116ad01525f61165501525f6116780152615ddd5ff3fe608060405234801561000f575f80fd5b506004361061024a575f3560e01c806379ba5097116101405780639a1fa0fe116100bf578063b582762211610084578063b582762214610558578063d3577a421461056b578063d9d6beea1461057e578063e80c4c5814610586578063f2fde38b14610599578063ffbf5af2146105ac575f80fd5b80639a1fa0fe146104f05780639eccacf6146104f9578063a39571931461050c578063a87430ba1461051f578063a98ad46c14610545575f80fd5b80638c76d752116101055780638c76d752146104925780638da5cb5b1461049a5780638ea98117146104aa578063941b80ac146104bd5780639640bcd1146104c5575f80fd5b806379ba5097146104445780637decf3331461044c57806382d23be91461045f57806383a2a432146104675780638bb2c92e1461048a575f80fd5b80634202d214116101cc578063590791f211610191578063590791f2146103d55780635bdff9a4146103dd5780635ec8a3de146104085780636f77926b1461041b578063760a23f11461042e575f80fd5b80634202d214146103795780634450a45f1461039c5780635189a0bf146103a45780635445bfb9146103b7578063581ce0b8146103cd575f80fd5b806317a9b5291161021257806317a9b529146103095780631fe543e31461031c5780632667cc6d1461032f5780632a0217d3146103465780633fd10e0b14610366575f80fd5b8063035b3be21461024e57806306394c9b1461027b5780630a66d299146102905780631398e076146102be578063149733ec146102e9575b5f80fd5b61026161025c366004615230565b6105b4565b604080519283529015156020830152015b60405180910390f35b61028e610289366004615230565b610618565b005b6102a361029e366004615257565b61066a565b60408051938452602084019290925290820152606001610272565b6102d16102cc366004615270565b6109f9565b6040516102729c9b9a999897969594939291906152bb565b6102fc6102f7366004615230565b610a71565b6040516102729190615434565b61028e6103173660046155b3565b610cc8565b61028e61032a366004615613565b611189565b61033860305481565b604051908152602001610272565b610359610354366004615270565b6111d9565b6040516102729190615773565b61028e610374366004615270565b6114ca565b61038c610387366004615230565b61177d565b6040519015158152602001610272565b602654610338565b6103386103b2366004615270565b6117ae565b6103bf6117cd565b604051610272929190615888565b61028e61194e565b6102a3612041565b6103f06103eb366004615270565b612092565b6040516001600160a01b039091168152602001610272565b61028e610416366004615230565b6120ba565b6102fc610429366004615230565b6122ed565b6104366122f5565b6040516102729291906158e7565b61028e61253d565b61035961045a366004615257565b6125e6565b61028e612937565b61047a610475366004615270565b612a89565b604051610272949392919061594f565b61028e612f07565b61028e6130d8565b5f546001600160a01b03166103f0565b61028e6104b8366004615230565b61333d565b61028e61342d565b6103386104d3366004615230565b6001600160a01b03165f908152602960205260409020601d015490565b610338602f5481565b6002546103f0906001600160a01b031681565b61028e61051a366004615230565b61367c565b61053261052d366004615230565b61378b565b60405161027297969594939291906159ea565b6008546103f0906001600160a01b031681565b61028e610566366004615230565b6138c3565b61028e610579366004615a71565b613973565b610338613f07565b61028e610594366004615270565b613f40565b61028e6105a7366004615230565b61406e565b610436614082565b6001600160a01b0381165f90815260296020526040812054819081036105fd5760405163ca1644e560e01b81526001600160a01b03841660048201526024015b60405180910390fd5b5050335f908152602960205260409020601901549160019150565b60045461010090046001600160a01b031633146106485760405163112b8aab60e01b815260040160405180910390fd5b600580546001600160a01b0319166001600160a01b0392909216919091179055565b5f805f8060265490505b80156109d85784600181111561068c5761068c615287565b6027610699600184615b62565b815481106106a9576106a9615b75565b5f91825260209091206003601990920201015460ff1660018111156106d0576106d0615287565b036109c6575f60276106e3600184615b62565b815481106106f3576106f3615b75565b905f5260205f209060190201604051806102000160405290815f82015481526020016001820154815260200160028201548152602001600382015f9054906101000a900460ff16600181111561074b5761074b615287565b600181111561075c5761075c615287565b815260200160048201548152602001600582015481526020016006820154815260200160078201600580602002604051908101604052809291905f905b828210156107d4578382600202016040518060400160405290815f820154815260200160018201548152505081526020019060010190610799565b50505050815260200160118201548152602001601282015f9054906101000a900460ff1615151515815260200160138201805480602002602001604051908101604052809291908181526020015f905b82821015610885575f848152602090819020604080516060810182526003860290920180546001600160a01b031683526001808201548486015260029091015460a01b6001600160a01b031916918301919091529083529092019101610824565b505050508152602001601482018054806020026020016040519081016040528092919081815260200182805480156108f757602002820191905f5260205f20905f905b825461010083900a900460ff168152602060019283018181049485019490930390920291018084116108c85790505b505050505081526020016015820180548060200260200160405190810160405280929190818152602001828054801561097457602002820191905f5260205f20905f905b82829054906101000a900461ffff1661ffff168152602001906002019060208260010104928301926001038202915080841161093b5790505b5050509183525050601682015460ff16151560208083019190915260178301546040830152601890920154606090910152810151610140820151516101e09092015190965090945092506109f2915050565b806109d081615b89565b915050610674565b506040516338570b1360e21b81526004016105f490615b9e565b9193909250565b60278181548110610a08575f80fd5b5f918252602090912060199091020180546001820154600283015460038401546004850154600586015460068701546011880154601289015460168a015460178b01546018909b0154999b509799969860ff96871698959794969395929491841693909216918c565b610a79614e21565b6001600160a01b0382165f908152602960205260408120549003610abb5760405163ca1644e560e01b81526001600160a01b03831660048201526024016105f4565b6001600160a01b0382165f908152602960209081526040918290208251610120810184528154815260018201549281019290925260028101548284015260038101546060830152825160e0810193849052919290916080840191600484019060079082845b81546001600160a01b03168152600190910190602001808311610b205750505050508152602001600b8201805480602002602001604051908101604052809291908181526020018280548015610b9d57602002820191905f5260205f20905b81546001600160a01b03168152600190910190602001808311610b7f575b50505091835250506040805160c08082018352600c8501548252600d850154602083810191909152600e86015483850152600f860154606084015260108601546080840152601186015460a084015284019190915281516101a08101835291909201916012840190829081018260078282826020028201915b815481526020019060010190808311610c165750505050508152602001600782015481526020016008820154815260200160098201548152602001600a8201548152602001600b820154815250508152602001601e82016040518060e00160405290815f82015481526020016001820154815260200160028201548152602001600382015481526020016004820154815260200160058201548152602001600682015481525050815250509050919050565b6005546001600160a01b03163314610cf3576040516321738dff60e01b815260040160405180910390fd5b83851115610d435760405162461bcd60e51b815260206004820152601a60248201527f496e76616c6964207469636b657420636f756e742072616e676500000000000060448201526064016105f4565b5f805b6005811015610d8457838160058110610d6157610d61615b75565b6020020151610d709083615bc9565b915080610d7c81615bdc565b915050610d46565b5081811115610de05760405162461bcd60e51b815260206004820152602260248201527f57696e6e657220636f756e74206578636565647320746f74616c2077696e6e65604482015261727360f01b60648201526084016105f4565b610de987614300565b602780546001810182555f9182526019027f98a476f1687bc3d60a2da2adbcba2c46958e61fa2fb4042cd7bc5816a710195b0190886001811115610e2f57610e2f615287565b03610e565760248054905f610e4383615bdc565b9091555060018201558054603255610e74565b60258054905f610e6583615bdc565b90915550600182015580546031555b60268054905f610e8383615bdc565b90915550815560038101805489919060ff191660018381811115610ea957610ea9615287565b021790555042600282015560048101879055600581018690556011810183905560128101805460ff191660019081179091556006908990811115610eef57610eef615287565b60028110610eff57610eff615b75565b015460068201558567ffffffffffffffff811115610f1f57610f1f615503565b604051908082528060200260200182016040528015610f48578160200160208202803683370190505b508051610f5f916014840191602090910190614edc565b508267ffffffffffffffff811115610f7957610f79615503565b604051908082528060200260200182016040528015610fa2578160200160208202803683370190505b508051610fb9916015840191602090910190614f7d565b505f5b6005811015611053576040518060400160405280878360058110610fe257610fe2615b75565b6020020151610ff490620f4240615bf4565b815260200186836005811061100b5761100b615b75565b6020020151905260078301826005811061102757611027615b75565b600202015f820151815f015560208201518160010155905050808061104b90615bdc565b915050610fbc565b505f88600181111561106757611067615287565b036110e2576035545f5b818110156110db575f6036816035816002020180548590811061109657611096615b75565b5f918252602080832091909101546001600160a01b031683528201929092526040019020805460ff1916911515919091179055806110d381615bdc565b915050611071565b5050611155565b6037545f5b81811015611152575f603881603560016002020180548590811061110d5761110d615b75565b5f918252602080832091909101546001600160a01b031683528201929092526040019020805460ff19169115159190911790558061114a81615bdc565b9150506110e7565b50505b80546040517f67a7d2f7175358184bb138bd96c3ed1e06b977d25dafac78e16398b243943096905f90a25050505050505050565b6002546001600160a01b031633146111c95760025460405163073e64fd60e21b81523360048201526001600160a01b0390911660248201526044016105f4565b6111d48383836143bf565b505050565b6111e1615011565b6026548210611203576040516338570b1360e21b81526004016105f490615b9e565b6027828154811061121657611216615b75565b905f5260205f209060190201604051806102000160405290815f82015481526020016001820154815260200160028201548152602001600382015f9054906101000a900460ff16600181111561126e5761126e615287565b600181111561127f5761127f615287565b815260200160048201548152602001600582015481526020016006820154815260200160078201600580602002604051908101604052809291905f905b828210156112f7578382600202016040518060400160405290815f8201548152602001600182015481525050815260200190600101906112bc565b50505050815260200160118201548152602001601282015f9054906101000a900460ff1615151515815260200160138201805480602002602001604051908101604052809291908181526020015f905b828210156113a8575f848152602090819020604080516060810182526003860290920180546001600160a01b031683526001808201548486015260029091015460a01b6001600160a01b031916918301919091529083529092019101611347565b5050505081526020016014820180548060200260200160405190810160405280929190818152602001828054801561141a57602002820191905f5260205f20905f905b825461010083900a900460ff168152602060019283018181049485019490930390920291018084116113eb5790505b505050505081526020016015820180548060200260200160405190810160405280929190818152602001828054801561149757602002820191905f5260205f20905f905b82829054906101000a900461ffff1661ffff168152602001906002019060208260010104928301926001038202915080841161145e5790505b5050509183525050601682015460ff16151560208201526017820154604082015260189091015460609091015292915050565b6005546001600160a01b031633146114f5576040516321738dff60e01b815260040160405180910390fd5b6026548110611517576040516338570b1360e21b81526004016105f490615b9e565b5f6027828154811061152b5761152b615b75565b5f9182526020822060126019909202019081015490925060ff161515900361156657604051631551bac160e21b815260040160405180910390fd5b816028819055505f6027838154811061158157611581615b75565b905f5260205f209060190201601301805490509050602783815481106115a9576115a9615b75565b905f5260205f209060190201600401548163ffffffff1610156115e7576040516309a7b37b60e31b815263ffffffff821660048201526024016105f4565b5f602784815481106115fb576115fb615b75565b905f5260205f2090601902016011015490505f8163ffffffff161161161e575f80fd5b604080515f815260208101918290525161163a9160349161509d565b505f5b6005811015611776576002546040805160c0810182527f000000000000000000000000000000000000000000000000000000000000000081527f000000000000000000000000000000000000000000000000000000000000000060208083019190915260038284015263ffffffff7f00000000000000000000000000000000000000000000000000000000000000001660608301526064608083015282519081019092525f82526001600160a01b0390921691639b1c385e9160a082019061170490614416565b8152506040518263ffffffff1660e01b81526004016117239190615c2d565b6020604051808303815f875af115801561173f573d5f803e3d5ffd5b505050506040513d601f19601f820116820180604052508101906117639190615cae565b508061176e81615bdc565b91505061163d565b5050505050565b6001600160a01b0381165f9081526029602052604081206002015442906117a790610e1090615bc9565b1192915050565b603481815481106117bd575f80fd5b5f91825260209091200154905081565b602c545f906060908290818167ffffffffffffffff8111156117f1576117f1615503565b60405190808252806020026020018201604052801561183557816020015b604080518082019091525f808252602082015281526020019060019003908161180f5790505b5090505f5b82811015611942576040518060400160405280602c838154811061186057611860615b75565b905f5260205f20015f9054906101000a90046001600160a01b03166001600160a01b0316815260200160295f602c858154811061189f5761189f615b75565b5f9182526020808320909101546001600160a01b03168352820192909252604001902060190154905282518390839081106118dc576118dc615b75565b602002602001018190525060295f602c83815481106118fd576118fd615b75565b5f9182526020808320909101546001600160a01b0316835282019290925260400190206019015461192e9085615bc9565b93508061193a81615bdc565b91505061183a565b50919491935090915050565b6005546001600160a01b03163314611979576040516321738dff60e01b815260040160405180910390fd5b5f60276028548154811061198f5761198f615b75565b5f91825260208220601160199092020190810154601382015491935091806007850181600202016001015490505f805f806034805480602002602001604051908101604052809291908181526020018280548015611a0a57602002820191905f5260205f20905b8154815260200190600101908083116119f6575b505050505090508781511015611a625760405162461bcd60e51b815260206004820152601960248201527f496e73756666696369656e742072616e646f6d20776f7264730000000000000060448201526064016105f4565b611a6a6150d6565b5f5b6005811015611adf578a6007018160058110611a8a57611a8a615b75565b60020201600101548b6007018260058110611aa757611aa7615b75565b6002020154611ab69190615cd9565b828260058110611ac857611ac8615b75565b602002015280611ad781615bdc565b915050611a6c565b505f5b89811015611ff45788838281518110611afd57611afd615b75565b6020026020010151611b0f9190615cec565b94508a6014018581548110611b2657611b26615b75565b5f9182526020918290209181049091015460ff601f9092166101000a900416158015611b50575083155b15611cc757848b6015018281548110611b6b57611b6b615b75565b905f5260205f2090601091828204019190066002026101000a81548161ffff021916908361ffff160217905550876001611ba59190615cff565b8b6014018681548110611bba57611bba615b75565b905f5260205f2090602091828204019190066101000a81548160ff021916908360ff1602179055505f8b6013018681548110611bf857611bf8615b75565b5f9182526020909120600390910201546001600160a01b031690508260ff8a1660058110611c2857611c28615b75565b602002015160295f836001600160a01b03166001600160a01b031681526020019081526020015f20600c016005015f828254611c649190615bc9565b9091555083905060ff8a1660058110611c7f57611c7f615b75565b602002015160295f836001600160a01b03166001600160a01b031681526020019081526020015f20601201600b015f828254611cbb9190615bc9565b90915550611f86915050565b828181518110611cd957611cd9615b75565b602002602001015195505f8990505f5b81811015611f76575f8b868581518110611d0557611d05615b75565b60200260200101518389604051602001611d32939291909283526020830191909152604082015260600190565b604051602081830303815290604052805190602001205f1c611d549190615cec565b9050602760285481548110611d6b57611d6b615b75565b905f5260205f2090601902016014018181548110611d8b57611d8b615b75565b5f9182526020808320908204015460ff601f9092166101000a9004169003611f6357808e6015018581548110611dc357611dc3615b75565b905f5260205f2090601091828204019190066002026101000a81548161ffff021916908361ffff1602179055508a6001611dfd9190615cff565b602760285481548110611e1257611e12615b75565b905f5260205f2090601902016014018281548110611e3257611e32615b75565b905f5260205f2090602091828204019190066101000a81548160ff021916908360ff1602179055505f602760285481548110611e7057611e70615b75565b905f5260205f2090601902016013018281548110611e9057611e90615b75565b5f9182526020909120600390910201546001600160a01b031690508560ff8d1660058110611ec057611ec0615b75565b602002015160295f836001600160a01b03166001600160a01b031681526020019081526020015f20600c016005015f828254611efc9190615bc9565b9091555086905060ff8d1660058110611f1757611f17615b75565b602002015160295f836001600160a01b03166001600160a01b031681526020019081526020015f20601201600b015f828254611f539190615bc9565b909155505f9850611f7692505050565b5080611f6e81615bdc565b915050611ce9565b5084611f8181615bdc565b955050505b86611f92826001615bc9565b148015611fa2575060048860ff16105b15611fe25787611fb181615d18565b9850508a6007018860ff1660058110611fcc57611fcc615b75565b600202016001015487611fdf9190615bc9565b96505b80611fec81615bdc565b915050611ae2565b50895460335560128a01805460ff191690556028546040517fd20e14927c724974c05df49b31a0d0a3b924e844bcfa6116c8260653eb88e11e905f90a250505f6028555050505050505050565b6004545f908190819061010090046001600160a01b031633146120775760405163112b8aab60e01b815260040160405180910390fd5b602d54602e546120878282615bc9565b925092509250909192565b602c81815481106120a1575f80fd5b5f918252602090912001546001600160a01b0316905081565b6002600354036120dc5760405162461bcd60e51b81526004016105f490615d36565b60026003556305f5e1005f6120f2600a83615cd9565b9050336001600160a01b0384160361214c5760405162461bcd60e51b815260206004820152601e60248201527f53656c662d726566657272616c7320617265206e6f7420616c6c6f776564000060448201526064016105f4565b6001600160a01b0383166121a25760405162461bcd60e51b815260206004820152601860248201527f496e76616c696420726566657272616c2061646472657373000000000000000060448201526064016105f4565b335f90815260296020526040902054156121cf5760405163df4e834f60e01b815260040160405180910390fd5b602c80546001810182555f919091527f7416c943b4a09859521022fd2e90eac0dd9026dad28fa317782a135f28a860910180546001600160a01b0319163390811790915560085461222e916001600160a01b0391909116903085614487565b6001600160a01b0383165f908152602960205260408120601a018054839290612258908490615bc9565b90915550506001600160a01b0383165f908152602960205260408120600e018054839290612287908490615bc9565b9091555061229790508183615b62565b602e5f8282546122a79190615bc9565b9091555050335f81815260296020526040808220429055517fa6462dfddf2559c30940c498ea78e464a320991ecafd929279d567e5a9c044d79190a25050600160035550565b610abb614e21565b60408051601e8082526103e082019092526060915f918291816020015b61233c60405180606001604052805f6001600160a01b031681526020015f81526020015f81525090565b815260200190600190039081612312575050602a549091505f90815b8181101561252d575f602a828154811061237457612374615b75565b5f918252602090912001546001600160a01b031690506123938161177d565b1561251a576001600160a01b0381165f908152602960205260409020601f810154601e9182015490918610806123ef5750866123d0600188615b62565b815181106123e0576123e0615b75565b60200260200101516040015182115b1561251757855b5f8111801561242b5750828861240d600184615b62565b8151811061241d5761241d615b75565b602002602001015160400151105b15612442578061243a81615b89565b9150506123f6565b601e811015612515575f601e881061245b57601d61245d565b875b90505b818111156124bc5788612474600183615b62565b8151811061248457612484615b75565b602002602001015189828151811061249e5761249e615b75565b602002602001018190525080806124b490615b89565b915050612460565b506040518060600160405280856001600160a01b03168152602001838152602001848152508882815181106124f3576124f3615b75565b6020026020010181905250601e871015612515578661251181615bdc565b9750505b505b50505b508061252581615bdc565b915050612358565b5082602f54945094505050509091565b6001546001600160a01b031633146125905760405162461bcd60e51b815260206004820152601660248201527526bab9ba10313290383937b837b9b2b21037bbb732b960511b60448201526064016105f4565b5f8054336001600160a01b0319808316821784556001805490911690556040516001600160a01b0390921692909183917f8be0079c531659141344cd1fd0a4f28419497f9722a3daafe3b4186f6b6457e091a350565b6125ee615011565b6026545b80156109d85782600181111561260a5761260a615287565b6027612617600184615b62565b8154811061262757612627615b75565b5f91825260209091206003601990920201015460ff16600181111561264e5761264e615287565b03612925576027612660600183615b62565b8154811061267057612670615b75565b905f5260205f209060190201604051806102000160405290815f82015481526020016001820154815260200160028201548152602001600382015f9054906101000a900460ff1660018111156126c8576126c8615287565b60018111156126d9576126d9615287565b815260200160048201548152602001600582015481526020016006820154815260200160078201600580602002604051908101604052809291905f905b82821015612751578382600202016040518060400160405290815f820154815260200160018201548152505081526020019060010190612716565b50505050815260200160118201548152602001601282015f9054906101000a900460ff1615151515815260200160138201805480602002602001604051908101604052809291908181526020015f905b82821015612802575f848152602090819020604080516060810182526003860290920180546001600160a01b031683526001808201548486015260029091015460a01b6001600160a01b0319169183019190915290835290920191016127a1565b5050505081526020016014820180548060200260200160405190810160405280929190818152602001828054801561287457602002820191905f5260205f20905f905b825461010083900a900460ff168152602060019283018181049485019490930390920291018084116128455790505b50505050508152602001601582018054806020026020016040519081016040528092919081815260200182805480156128f157602002820191905f5260205f20905f905b82829054906101000a900461ffff1661ffff16815260200190600201906020826001010492830192600103820291508084116128b85790505b5050509183525050601682015460ff1615156020820152601782015460408201526018909101546060909101529392505050565b8061292f81615b89565b9150506125f2565b5f806129416122f5565b90925090505f612952601e83615cd9565b90505f5b601e811015612a01575f84828151811061297257612972615b75565b60209081029190910101515190506001600160a01b038116156129ee576001600160a01b0381165f908152602960205260408120601b0180548592906129b9908490615bc9565b90915550506001600160a01b0381165f908152602960205260408120600f0180548592906129e8908490615bc9565b90915550505b50806129f981615bdc565b915050612956565b50602a545f5b81811015612a61575f602a8281548110612a2357612a23615b75565b5f9182526020808320909101546001600160a01b031682526029905260408120601e8101829055601f01555080612a5981615bdc565b915050612a07565b50604080515f8152602081019182905251612a7e91602a916150f4565b50505f602f55505050565b60605f805f8060278681548110612aa257612aa2615b75565b905f5260205f209060190201604051806102000160405290815f82015481526020016001820154815260200160028201548152602001600382015f9054906101000a900460ff166001811115612afa57612afa615287565b6001811115612b0b57612b0b615287565b815260200160048201548152602001600582015481526020016006820154815260200160078201600580602002604051908101604052809291905f905b82821015612b83578382600202016040518060400160405290815f820154815260200160018201548152505081526020019060010190612b48565b50505050815260200160118201548152602001601282015f9054906101000a900460ff1615151515815260200160138201805480602002602001604051908101604052809291908181526020015f905b82821015612c34575f848152602090819020604080516060810182526003860290920180546001600160a01b031683526001808201548486015260029091015460a01b6001600160a01b031916918301919091529083529092019101612bd3565b50505050815260200160148201805480602002602001604051908101604052809291908181526020018280548015612ca657602002820191905f5260205f20905f905b825461010083900a900460ff16815260206001928301818104948501949093039092029101808411612c775790505b5050505050815260200160158201805480602002602001604051908101604052809291908181526020018280548015612d2357602002820191905f5260205f20905f905b82829054906101000a900461ffff1661ffff1681526020019060020190602082600101049283019260010382029150808411612cea5790505b5050509183525050601682015460ff1615156020820152601782015460408201526018909101546060909101526101008101519091505f9067ffffffffffffffff811115612d7357612d73615503565b604051908082528060200260200182016040528015612dc357816020015b604080516080810182525f8082526020808301829052928201819052606082015282525f19909201910181612d915790505b5090505f5b826101000151811015612eea575f83610180015190505f846101600151828481518110612df757612df7615b75565b602002602001015161ffff1681518110612e1357612e13615b75565b602002602001015190505f856101400151838581518110612e3657612e36615b75565b602002602001015161ffff1681518110612e5257612e52615b75565b602002602001015190506040518060800160405280848681518110612e7957612e79615b75565b602002602001015161ffff16815260200182604001516001600160a01b0319168152602001825f01516001600160a01b031681526020018360ff16815250858581518110612ec957612ec9615b75565b60200260200101819052505050508080612ee290615bdc565b915050612dc8565b508151602083015160609093015191989097509195509350915050565b5f80612f11614082565b915091505f5b601481108015612f5557505f6001600160a01b0316838281518110612f3e57612f3e615b75565b60200260200101515f01516001600160a01b031614155b15613044575f838281518110612f6d57612f6d615b75565b60200260200101515f01519050606460108360148110612f8f57612f8f615b75565b0154612f9b9085615bf4565b612fa59190615cd9565b6001600160a01b0382165f908152602960205260408120601c018054909190612fcf908490615bc9565b909155506064905060108360148110612fea57612fea615b75565b0154612ff69085615bf4565b6130009190615cd9565b6001600160a01b0382165f908152602960205260408120601001805490919061302a908490615bc9565b9091555082915061303c905081615bdc565b915050612f17565b50602b545f5b818110156130b1575f602b828154811061306657613066615b75565b5f9182526020808320909101546001600160a01b03168252602981526040822090810182905560218101829055602281018290556023015550806130a981615bdc565b91505061304a565b50604080515f81526020810191829052516130ce91602b916150f4565b50505f6030555050565b6002600354036130fa5760405162461bcd60e51b81526004016105f490615d36565b6002600355335f9081526029602052604080822081516101a081019092526012018160c081018260078282826020028201915b81548152602001906001019080831161312d5750505050508152602001600782015481526020016008820154815260200160098201548152602001600a8201548152602001600b8201548152505090505f805b60078110156131bf578251816007811061319c5761319c615b75565b60200201516131ab9083615bc9565b9150806131b781615bdc565b915050613180565b505f8260a001518360800151846060015185604001518660200151866131e59190615bc9565b6131ef9190615bc9565b6131f99190615bc9565b6132039190615bc9565b61320d9190615bc9565b9050600a8110156132315760405163117c468960e21b815260040160405180910390fd5b6040805160e0810182525f8082526020808301829052828401829052606083018290526080830182905260a0830182905260c083018290523382526029905291909120613285916012909101906007615147565b50335f8181526029602052604081206024810182905560198101829055601a8101829055601b8101829055601c8101829055601d01556132e990600a6132cc846009615bf4565b6132d69190615cd9565b6008546001600160a01b031691906144ee565b6004546133099061010090046001600160a01b03166132d6600a84615cd9565b60405181907fb6fe44bb1f76da43755ad8760a9f7083782c99721541e49c3f98122d0fe6ba04905f90a25050600160035550565b5f546001600160a01b0316331480159061336257506002546001600160a01b03163314155b156133b257336133795f546001600160a01b031690565b60025460405163061db9c160e01b81526001600160a01b03938416600482015291831660248301529190911660448201526064016105f4565b6001600160a01b0381166133d95760405163d92e233d60e01b815260040160405180910390fd5b600280546001600160a01b0319166001600160a01b0383169081179091556040519081527fd1a6a14209a385a964d036e404cb5cfb71f4000cdb03c9366292430787261be69060200160405180910390a150565b60045461010090046001600160a01b0316331461345d5760405163112b8aab60e01b815260040160405180910390fd5b60026003540361347f5760405162461bcd60e51b81526004016105f490615d36565b6002600355335f9081526029602052604080822081516101a081019092526012018160c081018260078282826020028201915b8154815260200190600101908083116134b25750505050508152602001600782015481526020016008820154815260200160098201548152602001600a8201548152602001600b8201548152505090505f805b6007811015613544578251816007811061352157613521615b75565b60200201516135309083615bc9565b91508061353c81615bdc565b915050613505565b505f602e54602d548460a001518560800151866060015187604001518860200151886135709190615bc9565b61357a9190615bc9565b6135849190615bc9565b61358e9190615bc9565b6135989190615bc9565b6135a29190615bc9565b6135ac9190615bc9565b9050805f036135ce5760405163117c468960e21b815260040160405180910390fd5b5f602d819055602e8190556040805160e0810182528281526020808201849052818301849052606082018490526080820184905260a0820184905260c0820184905233845260299052912061362a916012909101906007615147565b50335f90815260296020526040812060198101829055601a8101829055601b8101829055601c8101829055601d0155600454600854613309916001600160a01b039182169161010090910416836144ee565b6005546001600160a01b031633146136a7576040516321738dff60e01b815260040160405180910390fd5b6002600354036136c95760405162461bcd60e51b81526004016105f490615d36565b60026003556001600160a01b0381165f90815260296020526040902054156137045760405163df4e834f60e01b815260040160405180910390fd5b602c8054600181019091557f7416c943b4a09859521022fd2e90eac0dd9026dad28fa317782a135f28a860910180546001600160a01b0319166001600160a01b0383169081179091555f81815260296020526040808220429055517fa6462dfddf2559c30940c498ea78e464a320991ecafd929279d567e5a9c044d79190a2506001600355565b602960209081525f9182526040918290208054600182015460028301546003840154865160c08082018952600c8701548252600d87015497820197909752600e86015481890152600f860154606082015260108601546080820152601186015460a082015287516101a0810190985293969295919490939290916012830190829081018260078282826020028201915b81548152602001906001019080831161381b5750505050508152602001600782015481526020016008820154815260200160098201548152602001600a8201548152602001600b820154815250509080601e016040518060e00160405290815f82015481526020016001820154815260200160028201548152602001600382015481526020016004820154815260200160058201548152602001600682015481525050905087565b6005546001600160a01b031633146138ee576040516321738dff60e01b815260040160405180910390fd5b6001600160a01b0381165f9081526029602052604081205490036139305760405163ca1644e560e01b81526001600160a01b03821660048201526024016105f4565b6001600160a01b0381165f81815260296020526040808220829055517fab0b49b9f201a3ca785f5c35ac4db44981e3bcf9a07c741208ade5334095709b9190a250565b6002600354036139955760405162461bcd60e51b81526004016105f490615d36565b600260035560265484106139df576040516338570b1360e21b815260206004820152601060248201526f139bc81b1bdd1d195c9e48199bdd5b9960821b60448201526064016105f4565b60018310806139ef575082815114155b15613a0d57604051633d1424e960e11b815260040160405180910390fd5b5f60278581548110613a2157613a21615b75565b5f9182526020822060126019909202019081015490925060ff1615159003613a5c57604051631551bac160e21b815260040160405180910390fd5b60058101546013820154613a71908690615bc9565b1115613a905760405163748d32af60e11b815260040160405180910390fd5b5f848260060154613aa19190615bf4565b600854909150613abc906001600160a01b0316333084614487565b335f9081526029602052604081206003018054839290613add908490615bc9565b909155505f90505b8351811015613bad57826013016040518060600160405280336001600160a01b03168152602001428152602001868481518110613b2457613b24615b75565b6020908102919091018101516001600160a01b03199081169092528354600180820186555f95865294829020845160039092020180549093166001600160a01b039091161782558201519281019290925560400151600290910180546bffffffffffffffffffffffff191660a09290921c91909117905580613ba581615bdc565b915050613ae5565b5084826017015f828254613bc19190615bc9565b9091555050335f908152602960205260408120426002820155601e01549003613c2657602a80546001810182555f919091527fbeced09521047d05b8960b7e7bcc1d1292cf3e4b2a6b63f48335cbde5f7545d20180546001600160a01b031916331790555b335f908152602960205260408120601e018054879290613c47908490615bc9565b9091555050335f908152602960205260408120601f018054839290613c6d908490615bc9565b9091555050335f908152602960209081526040822001549003613ccc57602b80546001810182555f919091527f11c44e4875b74d31ff9fd779bf2566af7bd15b87fc985d01f5094b89e3669e4f0180546001600160a01b031916331790555b335f9081526029602090815260408220018054879290613ced908490615bc9565b90915550613cfc90508461451f565b613d068186614759565b613d0f816149cf565b6064613d1c826005615bf4565b613d269190615cd9565b602f5f828254613d369190615bc9565b9091555060649050613d49826005615bf4565b613d539190615cd9565b60305f828254613d639190615bc9565b9091555060649050613d7682600f615bf4565b613d809190615cd9565b602d5f828254613d909190615bc9565b909155505f9050600383015460ff166001811115613db057613db0615287565b03613e4557335f9081526036602052604081205460ff1615159003613e4057335f818152603660205260408120805460ff1916600190811790915560358054918201815582527fcfa4bec1d3298408bb5afcfcd9c430549c5b31f8aa5c5848151c0a55f473c34d0180546001600160a01b03191690921790915560188301805491613e3a83615bdc565b91905055505b613ed0565b335f9081526038602052604081205460ff1615159003613ed057335f818152603860205260408120805460ff1916600190811790915560378054918201815582527f42a7b7dd785cd69714a189dffb3fd7d7174edc9ece837694ce50f7078f7c31ae0180546001600160a01b03191690921790915560188301805491613eca83615bdc565b91905055505b60405185907fb23e237cf0ae5bee09a1af90ace20250c65fa6252b97915398b2fa6b043e1ed3905f90a25050600160035550505050565b6004545f9061010090046001600160a01b03163314613f395760405163112b8aab60e01b815260040160405180910390fd5b50602d5490565b60045461010090046001600160a01b03163314613f705760405163112b8aab60e01b815260040160405180910390fd5b600260035403613f925760405162461bcd60e51b81526004016105f490615d36565b60026003556008546040516370a0823160e01b81523060048201525f916001600160a01b0316906370a0823190602401602060405180830381865afa158015613fdd573d5f803e3d5ffd5b505050506040513d601f19601f820116820180604052508101906140019190615cae565b9050818110156140245760405163117c468960e21b815260040160405180910390fd5b60085461403b906001600160a01b031633846144ee565b60405182907fb6fe44bb1f76da43755ad8760a9f7083782c99721541e49c3f98122d0fe6ba04905f90a250506001600355565b614076614aaa565b61407f81614afe565b50565b6040805160148082526102a082019092526060915f918291816020015b6140c960405180606001604052805f6001600160a01b031681526020015f81526020015f81525090565b81526020019060019003908161409f575050602b549091505f90815b818110156142f0575f602b828154811061410157614101615b75565b5f918252602090912001546001600160a01b031690506141208161177d565b801561415657506001600160a01b0381165f9081526029602090815260409091200154600a111580614156575061415681614ba6565b156142dd576001600160a01b0381165f908152602960205260409020602281015460239091015460148610806141b2575086614193600188615b62565b815181106141a3576141a3615b75565b60200260200101516020015182115b156142da57855b5f811180156141ee575082886141d0600184615b62565b815181106141e0576141e0615b75565b602002602001015160200151105b1561420557806141fd81615b89565b9150506141b9565b60148110156142d8575f6014881061421e576013614220565b875b90505b8181111561427f5788614237600183615b62565b8151811061424757614247615b75565b602002602001015189828151811061426157614261615b75565b6020026020010181905250808061427790615b89565b915050614223565b506040518060600160405280856001600160a01b03168152602001848152602001838152508882815181106142b6576142b6615b75565b602002602001018190525060148710156142d857866142d481615bdc565b9750505b505b50505b50806142e881615bdc565b9150506140e5565b5082603054945094505050509091565b600181600181111561431457614314615287565b0361437d57603154678ac7230489e7ffff1415801561435f575060276031548154811061434357614343615b75565b5f91825260209091206012601990920201015460ff1615156001145b1561407f5760405163ab2df6a960e01b815260040160405180910390fd5b5f81600181111561439057614390615287565b0361407f57603254678ac7230489e7ffff1415801561435f575060276032548154811061434357614343615b75565b5f5b818110156144105760348383838181106143dd576143dd615b75565b83546001810185555f9485526020948590209190940292909201359190920155508061440881615bdc565b9150506143c1565b50505050565b60607f92fd13387c7fe7befbc38d303d6468778fb9731bc4583f17d92989c6fcfdeaaa8260405160240161444f91511515815260200190565b60408051601f198184030181529190526020810180516001600160e01b03166001600160e01b03199093169290921790915292915050565b6040516001600160a01b0384811660248301528381166044830152606482018390526144109186918216906323b872dd906084015b604051602081830303815290604052915060e01b6020820180516001600160e01b038381831617835250505050614c8a565b6040516001600160a01b038381166024830152604482018390526111d491859182169063a9059cbb906064016144bc565b335f908152602960205260409020600401546001600160a01b0316156145425750565b6001600160a01b03811633148061456057506001600160a01b038116155b8061458357506001600160a01b0381165f90815260296020526040902060020154155b156145c3575060048054335f90815260296020526040902090910180546101009092046001600160a01b03166001600160a01b0319909216919091179055565b335f90815260296020526040808220600490810180546001600160a01b0319166001600160a01b0386811691821790925584529190922090910154161561407f576001600160a01b0381165f90815260296020526040808220815160e0810190925260040160078282826020028201915b81546001600160a01b03168152600190910190602001808311614634575050506001600160a01b0385165f9081526029602090815260408220600b0180546001810182559083529082200180546001600160a01b0319163317905592935050505b6006811080156146c457505f8282600781106146b3576146b3615b75565b60200201516001600160a01b031614155b156111d4575f8282600781106146dc576146dc615b75565b602002015190508060295f336001600160a01b03166001600160a01b031681526020019081526020015f206004018360016147179190615bc9565b6007811061472757614727615b75565b0180546001600160a01b0319166001600160a01b0392909216919091179055508061475181615bdc565b915050614695565b335f90815260296020526040808220815160e0810190925260040160078282826020028201915b81546001600160a01b0316815260019091019060200180831161478057505050505090505f815f600781106147b7576147b7615b75565b602002015190508260295f836001600160a01b03166001600160a01b031681526020019081526020015f20601e016003015f8282546147f69190615bc9565b909155505f90505b60078110801561482d57505f83826007811061481c5761481c615b75565b60200201516001600160a01b031614155b15611776575f83826007811061484557614845615b75565b602002015190508460295f836001600160a01b03166001600160a01b031681526020019081526020015f20601e016004015f8282546148849190615bc9565b90915550506001600160a01b0381165f90815260296020526040812060230180548892906148b3908490615bc9565b90915550506001600160a01b0381165f90815260296020526040812060240180548792906148e2908490615bc9565b909155506148f190508161177d565b156149bc5760646009836007811061490b5761490b615b75565b01546149179088615bf4565b6149219190615cd9565b6001600160a01b0382165f908152602960205260409020601201836007811061494c5761494c615b75565b015f82825461495b9190615bc9565b90915550606490506009836007811061497657614976615b75565b01546149829088615bf4565b61498c9190615cd9565b6001600160a01b0382165f908152602960205260408120600c0180549091906149b6908490615bc9565b90915550505b50806149c781615bdc565b9150506147fe565b602c545f8190036149de575050565b5f6149ea82600a615bf4565b6149f49084615cd9565b90505f5b82811015614410575f602c8281548110614a1457614a14615b75565b5f918252602090912001546001600160a01b03169050614a338161177d565b15614a97576001600160a01b0381165f9081526029602052604081206019018054859290614a62908490615bc9565b90915550506001600160a01b0381165f908152602960205260408120600d018054859290614a91908490615bc9565b90915550505b5080614aa281615bdc565b9150506149f8565b5f546001600160a01b03163314614afc5760405162461bcd60e51b815260206004820152601660248201527527b7363c9031b0b63630b1363290313c9037bbb732b960511b60448201526064016105f4565b565b336001600160a01b03821603614b565760405162461bcd60e51b815260206004820152601760248201527f43616e6e6f74207472616e7366657220746f2073656c6600000000000000000060448201526064016105f4565b600180546001600160a01b0319166001600160a01b038381169182179092555f8054604051929316917fed8889f560326eb138920d842192f0eb3dd22b4f139c87a2c57538e05bae12789190a350565b6001600160a01b0381165f908152602960209081526040808320600b0180548251818502810185019093528083528493830182828015614c0d57602002820191905f5260205f20905b81546001600160a01b03168152600190910190602001808311614bef575b505083519394505f9250829150505b82811015614c7f57614c46848281518110614c3957614c39615b75565b602002602001015161177d565b15614c595781614c5581615bdc565b9250505b600a8210614c6d5750600195945050505050565b80614c7781615bdc565b915050614c1c565b505f95945050505050565b5f614c9e6001600160a01b03841683614ceb565b905080515f14158015614cc2575080806020019051810190614cc09190615d6d565b155b156111d457604051635274afe760e01b81526001600160a01b03841660048201526024016105f4565b6060614cf883835f614d01565b90505b92915050565b606081471015614d265760405163cd78605960e01b81523060048201526024016105f4565b5f80856001600160a01b03168486604051614d419190615d8c565b5f6040518083038185875af1925050503d805f8114614d7b576040519150601f19603f3d011682016040523d82523d5f602084013e614d80565b606091505b5091509150614d90868383614d9c565b925050505b9392505050565b606082614db157614dac82614df8565b614d95565b8151158015614dc857506001600160a01b0384163b155b15614df157604051639996b31560e01b81526001600160a01b03851660048201526024016105f4565b5080614d95565b805115614e085780518082602001fd5b604051630a12f52160e11b815260040160405180910390fd5b6040518061012001604052805f81526020015f81526020015f81526020015f8152602001614e4d615174565b815260200160608152602001614e8c6040518060c001604052805f81526020015f81526020015f81526020015f81526020015f81526020015f81525090565b8152602001614e99615192565b8152602001614ed76040518060e001604052805f81526020015f81526020015f81526020015f81526020015f81526020015f81526020015f81525090565b905290565b828054828255905f5260205f2090601f01602090048101928215614f6d579160200282015f5b83821115614f3f57835183826101000a81548160ff021916908360ff16021790555092602001926001016020815f01049283019260010302614f02565b8015614f6b5782816101000a81549060ff02191690556001016020815f01049283019260010302614f3f565b505b50614f799291506151c9565b5090565b828054828255905f5260205f2090600f01601090048101928215614f6d579160200282015f5b83821115614fe357835183826101000a81548161ffff021916908361ffff1602179055509260200192600201602081600101049283019260010302614fa3565b8015614f6b5782816101000a81549061ffff0219169055600201602081600101049283019260010302614fe3565b6040518061020001604052805f81526020015f81526020015f81526020015f600181111561504157615041615287565b81526020015f81526020015f81526020015f81526020016150606151dd565b81526020015f81526020015f151581526020016060815260200160608152602001606081526020015f151581526020015f81526020015f81525090565b828054828255905f5260205f20908101928215614f6d579160200282015b82811115614f6d5782518255916020019190600101906150bb565b6040518060a001604052806005906020820280368337509192915050565b828054828255905f5260205f20908101928215614f6d579160200282015b82811115614f6d57825182546001600160a01b0319166001600160a01b03909116178255602090920191600190910190615112565b8260078101928215614f6d5791602002820182811115614f6d5782518255916020019190600101906150bb565b6040518060e001604052806007906020820280368337509192915050565b6040518060c001604052806151a5615174565b81526020015f81526020015f81526020015f81526020015f81526020015f81525090565b5b80821115614f79575f81556001016151ca565b6040518060a001604052806005905b604080518082019091525f80825260208201528152602001906001900390816151ec5790505090565b80356001600160a01b038116811461522b575f80fd5b919050565b5f60208284031215615240575f80fd5b614cf882615215565b80356002811061522b575f80fd5b5f60208284031215615267575f80fd5b614cf882615249565b5f60208284031215615280575f80fd5b5035919050565b634e487b7160e01b5f52602160045260245ffd5b600281106152b757634e487b7160e01b5f52602160045260245ffd5b9052565b8c8152602081018c9052604081018b905261018081016152de606083018c61529b565b608082019990995260a081019790975260c087019590955260e0860193909352901515610100850152151561012084015261014083015261016090910152949350505050565b805f5b60078110156144105781516001600160a01b0316845260209384019390910190600101615327565b5f8151808452602080850194508084015f5b838110156153865781516001600160a01b031687529582019590820190600101615361565b509495945050505050565b8051825f5b60078110156153b5578251825260209283019290910190600101615396565b505050602081015160e083015260408101516101008301526060810151610120830152608081015161014083015260a0015161016090910152565b805182526020810151602083015260408101516040830152606081015160608301526080810151608083015260a081015160a083015260c081015160c08301525050565b60208152815160208201526020820151604082015260408201516060820152606082015160808201525f608083015161547060a0840182615324565b5060a08301516104a061018084015261548d6104c084018261534f565b60c085015180516101a086015260208101516101c086015260408101516101e08601526060810151610200860152608081015161022086015260a0015161024085015260e08501519091506154e6610260850182615391565b506101008401516154fb6103e08501826153f0565b509392505050565b634e487b7160e01b5f52604160045260245ffd5b604051601f8201601f1916810167ffffffffffffffff8111828210171561554057615540615503565b604052919050565b5f82601f830112615557575f80fd5b60405160a0810181811067ffffffffffffffff8211171561557a5761557a615503565b6040528060a084018581111561558e575f80fd5b845b818110156155a8578035835260209283019201615590565b509195945050505050565b5f805f805f806101c087890312156155c9575f80fd5b6155d287615249565b955060208701359450604087013593506155ef8860608901615548565b92506155ff886101008901615548565b91506101a087013590509295509295509295565b5f805f60408486031215615625575f80fd5b83359250602084013567ffffffffffffffff80821115615643575f80fd5b818601915086601f830112615656575f80fd5b813581811115615664575f80fd5b8760208260051b8501011115615678575f80fd5b6020830194508093505050509250925092565b805f5b600581101561441057815180518552602090810151818601526040909401939091019060010161568e565b5f8151808452602080850194508084015f5b8381101561538657815180516001600160a01b0316885283810151848901526040908101516001600160a01b03191690880152606090960195908201906001016156cb565b5f8151808452602080850194508084015f5b8381101561538657815160ff1687529582019590820190600101615722565b5f8151808452602080850194508084015f5b8381101561538657815161ffff1687529582019590820190600101615753565b602081528151602082015260208201516040820152604082015160608201525f60608301516157a5608084018261529b565b50608083015160a083015260a083015160c083015260c083015160e083015260e08301516101006157d88185018361568b565b840151610240840152506101208301511515610260830152610140830151610320610280840181905261580f6103408501836156b9565b9150610160850151601f1980868503016102a087015261582f8483615710565b9350610180870151915080868503016102c08701525061584f8382615741565b9250506101a08501516158676102e086018215159052565b506101c08501516103008501526101e0909401519390920192909252919050565b5f60408083018584526020828186015281865180845260608701915082880193505f5b818110156158d957845180516001600160a01b031684528401518484015293830193918501916001016158ab565b509098975050505050505050565b604080825283518282018190525f9190606090818501906020808901865b8381101561593b57815180516001600160a01b031686528381015184870152870151878601529385019390820190600101615905565b505095909501959095525092949350505050565b608080825285518282018190525f919060209060a0850190828a01855b828110156159c0578151805161ffff168552858101516001600160a01b031916868601526040808201516001600160a01b03169086015260609081015160ff1690850152928501929084019060010161596c565b50505080935050868185015250508360408301526159e1606083018461529b565b95945050505050565b5f6103a082019050888252876020830152866040830152856060830152615a496080830186805182526020810151602083015260408101516040830152606081015160608301526080810151608083015260a081015160a08301525050565b615a57610140830185615391565b615a656102c08301846153f0565b98975050505050505050565b5f805f8060808587031215615a84575f80fd5b843593506020808601359350615a9c60408701615215565b9250606086013567ffffffffffffffff80821115615ab8575f80fd5b818801915088601f830112615acb575f80fd5b813581811115615add57615add615503565b8060051b9150615aee848301615517565b818152918301840191848101908b841115615b07575f80fd5b938501935b83851015615b3e57843592506001600160a01b031983168314615b2e575f8081fd5b8282529385019390850190615b0c565b989b979a50959850505050505050565b634e487b7160e01b5f52601160045260245ffd5b81810381811115614cfb57614cfb615b4e565b634e487b7160e01b5f52603260045260245ffd5b5f81615b9757615b97615b4e565b505f190190565b602080825260119082015270139bc8081b1bdd1d195c9e48199bdd5b99607a1b604082015260600190565b80820180821115614cfb57614cfb615b4e565b5f60018201615bed57615bed615b4e565b5060010190565b8082028115828204841417614cfb57614cfb615b4e565b5f5b83811015615c25578181015183820152602001615c0d565b50505f910152565b60208152815160208201526020820151604082015261ffff60408301511660608201525f606083015163ffffffff80821660808501528060808601511660a0850152505060a083015160c08084015280518060e0850152610100615c978282870160208601615c0b565b80601f19601f840116860101935050505092915050565b5f60208284031215615cbe575f80fd5b5051919050565b634e487b7160e01b5f52601260045260245ffd5b5f82615ce757615ce7615cc5565b500490565b5f82615cfa57615cfa615cc5565b500690565b60ff8181168382160190811115614cfb57614cfb615b4e565b5f60ff821660ff8103615d2d57615d2d615b4e565b60010192915050565b6020808252601f908201527f5265656e7472616e637947756172643a207265656e7472616e742063616c6c00604082015260600190565b5f60208284031215615d7d575f80fd5b81518015158114614d95575f80fd5b5f8251615d9d818460208701615c0b565b919091019291505056fea264697066735822122094fd5b6b5157309bd5bbc9a12b7613504d2d35f353792b4cd1bafb0677bc567f64736f6c63430008140033",
    "linkReferences": {}
  },
  "methodIdentifiers": {
    "Draw(uint256)": "3fd10e0b",
    "GetLatestLottery(uint8)": "7decf333",
    "GetLatestLotteryTicketRoundCustomerCount(uint8)": "0a66d299",
    "GetLotteryById(uint256)": "2a0217d3",
    "GetLotteryCount()": "4450a45f",
    "GetPremiumAccount(address)": "149733ec",
    "PerformDraw()": "581ce0b8",
    "WithDrawRewardBaalance()": "8c76d752",
    "acceptOwnership()": "79ba5097",
    "addPremiumAccount(address)": "a3957193",
    "addPremiumAccountWithReferral(address)": "5ec8a3de",
    "chainLinkRandomWords(uint256)": "5189a0bf",
    "changeOperator(address)": "06394c9b",
    "createLottery(uint8,uint256,uint256,uint256[5],uint256[5],uint256)": "17a9b529",
    "distributeTopBuyersAmounts()": "82d23be9",
    "distributeTopLeadersAmounts()": "8bb2c92e",
    "getLotteryWinningAmountByUser(address)": "9640bcd1",
    "getOwnerBalance()": "590791f2",
    "getOwnerTax()": "d9d6beea",
    "getPremiumReserve()": "5445bfb9",
    "getPremiumRewardBalance(address)": "035b3be2",
    "getTop20Leaders()": "ffbf5af2",
    "getTopBuyerList()": "760a23f1",
    "getUser(address)": "6f77926b",
    "getWinnersList(uint256)": "83a2a432",
    "isActiveUser(address)": "4202d214",
    "lotteries(uint256)": "1398e076",
    "owner()": "8da5cb5b",
    "premiumUserList(uint256)": "5bdff9a4",
    "purchaseTicket(uint256,uint256,address,bytes12[])": "d3577a42",
    "rawFulfillRandomWords(uint256,uint256[])": "1fe543e3",
    "removePremiumAccount(address)": "b5827622",
    "s_vrfCoordinator()": "9eccacf6",
    "setCoordinator(address)": "8ea98117",
    "topBuyerAmount()": "9a1fa0fe",
    "topLeaderAmount()": "2667cc6d",
    "transferOwnership(address)": "f2fde38b",
    "usdtToken()": "a98ad46c",
    "users(address)": "a87430ba",
    "withdrawAmountByOwner(uint256)": "e80c4c58",
    "withdrawOwnerBalance()": "941b80ac"
  },
  "id": 33
}